:1000000013C1000042C1000040C100003EC1000019
:100010003CC100003AC1000038C1000036C10000F8
:1000200034C1000032C1000030C100002EC1000008
:100030002CC100002AC1000028C1000026C1000018
:1000400024C1000022C1000020C100001EC1000028
:100050001CC100001AC1000018C1000018C6000031
:1000600014C100000C946A090C94A0090EC1000090
:100070000CC100000AC1000008C1000006C1000058
:1000800004C1000002C1000000C10000FEC0000069
:100090000C94150A0C944B0AF8C00000C6C400006A
:1000A000F4C00000F2C00000F0C00000EEC000008C
:1000B000ECC00000EAC00000E8C0000067C100001A
:1000C000E4C00000E2C00000E0C00000DEC00000AC
:1000D000DCC00000DAC00000D8C00000D6C00000BC
:1000E000D4C00000F103B103B503F103C003C4039E
:1000F000CA03CF03D60353075607450749074F07DF
:100100008D075A075E07640768076C077207760752
:100110007A078D0780078407880700000A0B020909
:100120000C0D0E0807030401000000000000000091
:1001300000000000000000000000000000000000BF
:10014000000000000000121110000000000000007C
:10015000000000000000000000000000000000009F
:1001600001021020200808102040102040800201C9
:1001700002010804020101020408102040808040AE
:1001800020100804020180040201804020100804AD
:10019000020108040201010204081020408001024B
:1001A0000408102040800505050507050808080813
:1001B000020202020A0A08080404040401010101FF
:1001C00001010101030303030303030304070707FA
:1001D0000C0C0C0C0C0C0C0C02020202060606069F
:1001E000060606060B0B0B0B0B0B0B0B000022007D
:1001F000250028002B002E003100340002010000F1
:10020000050108010B0100002100240027002A003D
:100210002D003000330001010000040107010A0134
:100220001E04E904D2097D0A11241FBECFEFD1E2DA
:10023000DEBFCDBF00E00CBF12E0A0E0B2E0E0EB1B
:10024000F0E200E00BBF02C007900D92AA3AB1079E
:10025000D9F726E0AAEAB2E001C01D92A435B207A0
:10026000E1F712E0C8E2D2E000E006C022970109FF
:10027000FE010BBF0E94370EC032D10780E0080795
:10028000A9F70E94C10A0C945610BACEFC01EE0FD9
:10029000FF1FDF01AC5BBB4F8D919C9111978B339E
:1002A0009D4720F08AE39DE78D939C93EC5BFB4F89
:1002B000808191818D31954420F48DE195E4918385
:1002C000808308950F931F93CF93DF938C01CB010D
:1002D000BA01E801CC0FDD1FCC5BDB4F20E034E737
:1002E00040E656E40E94AC0D0E94F20C2881398150
:1002F000260F371F39832883C801DF91CF911F91C3
:100300000F91C4CFCF92DF92EF92FF926B017C01ED
:100310006091460470914704809144049091450493
:10032000680F791F8091480490914904680F791FE4
:1003300080914A0490914B04680F791F76956795D8
:100340007695679580E090E00E941E0D9B01AC01C0
:10035000C701B6010E94250C6B017C01AB01BC01F9
:1003600080E090E0AFDFB701A60181E090E0AADF76
:10037000B701A60182E090E0A5DFB701A60183E006
:1003800090E0FF90EF90DF90CF909CCF1F920F9264
:100390000FB60F9211240BB60F922F933F938F93AA
:1003A0009F93EF93FF9382B1807F82B980914C0439
:1003B00090E001968370992780934C04FC01EE0F26
:1003C000FF1FEC5BFB4F208131813093290120938B
:1003D000280192B121E030E001C0220F8A95EAF7AE
:1003E000922B92B9FF91EF919F918F913F912F9115
:1003F0000F900BBE0F900FBE0F901F901895EF92AD
:10040000FF920F931F93CF93DF93EC011882198211
:100410001A821B820B9637D41E8EFE01EB59FF4FBA
:1004200080E090E0A0E8BFE380839183A283B38360
:100430001482158216821782108611861286138600
:10044000148615861686178670961182108213827E
:1004500012821582148236961182108213821282C1
:1004600015821482369610821182128213821482AF
:1004700015821682178210861186128613867E01D7
:100480008FECE80EF11CF7011082118212821382A8
:1004900014821582168217821086118612861386A0
:1004A0001486158616861786108A118A128A138A70
:1004B000148A158A168A178A108E118E128E138E40
:1004C000148E158E168E178E10A211A212A213A2D0
:1004D00014A215A216A217A201E010E011A700A70E
:1004E00012A613A614A615A61CD4F701FE966083C7
:1004F0007183828393837E01FFEEEF1AFEEFFF0A82
:10050000F7011082118212821382148215821682E0
:100510001782108611861286138614861586168613
:100520001786108A118A128A138A148A158A168AE3
:10053000178A108E118E128E138E148E158E168EB3
:10054000178E10A211A212A213A214A215A216A213
:1005500017A211A700A712A613A614A615A6E1D3E9
:10056000F701FE966083718382839383CD5ADE4FB9
:10057000188219821A821B821C821D821E821F828F
:10058000188619861A861B861C861D861E861F865F
:10059000188A198A1A8A1B8A1C8A1D8A1E8A1F8A2F
:1005A000188E198E1A8E1B8E1C8E1D8E1E8E1F8EFF
:1005B00018A219A21AA21BA21CA21DA21EA21FA24F
:1005C00019A708A71AA61BA61CA61DA6AAD3FE013A
:1005D000FE966083718382839383DF91CF911F9115
:1005E0000F91FF90EF90089570E080E090E00E94FE
:1005F000200D20E030E04FE753E40E948A0C82CEC9
:10060000FC01E552FF4FDC01A756BF4F4D915D91B4
:100610006D917C9113974083518362837383EE5B6A
:10062000FF4F14964D915D916D917C91139740838E
:10063000518362837383EE5BFF4F14968D919D917E
:100640000D90BC91A02D80839183A283B3830895E4
:100650000F931F93CF93DF938C0181B18F6081B98A
:100660001092200189E080932101E3E7F0E080818E
:1006700082608083CDE1D5E4D0934504C0934404E7
:1006800080E090E003DED0934704C093460481E00D
:1006900090E0FCDDD0934904C093480482E090E0F0
:1006A000F5DDD0934B04C0934A0483E090E0EEDD87
:1006B000F801E253FF4F81E08083329784E090E0BD
:1006C00091838083C801DF91CF911F910F9198CFC3
:1006D000FC01E756FF4FDC01AD54BF4F4D915D91DA
:1006E0006D917C9113974083518362837383349619
:1006F00014964D915D916D917C9113974083518338
:1007000062837383349614968D919D910D90BC9164
:10071000A02D80839183A283B383089580914304A5
:10072000882319F086E195E085C7E091B305F09143
:10073000B4050190F081E02D61E083EB95E0199420
:10074000CF93DF9300D000D0CDB7DEB780914204C5
:1007500090E089309105B8F5FC01EE58FF4F0C94FC
:10076000310E8CEA92E0B4DF3CC063E572E0CE016A
:1007700001960E940F0CBE016F5F7F4F82E02DC07B
:1007800060E070E0CB0104C061EF70EF80E79EE3B2
:10079000B9DD27C0109279031092780322C083E15B
:1007A00090E090937903809378031BC04AE050E077
:1007B0006091410486E195E0B0D7609141048CEAF4
:1007C00092E012DF0EC068E672E0CE0101960E9450
:1007D0000F0CBE016F5F7F4F87E1A0DFCE01019656
:1007E000B7D726960FB6F894DEBF0FBECDBFDF9108
:1007F000CF91089526E040E052EC61E070E086E1A0
:1008000095E008D526E040E855E260E070E083EB33
:1008100095E000D542E350E060E070E086E195E0CD
:1008200091D742E350E060E070E083EB95E08AD737
:1008300061E082E073D38CEA92E00ACF8CEA92E026
:10084000DECD83EB95E0D8D302979CF060914D0408
:1008500081E0682760934D0482E099D383EB95E0B3
:10086000E4D38093420483EB95E0DFD3809341048B
:1008700067CF089580917A03882389F0E2DF809121
:10088000AA029091AB0201969093AB028093AA02C8
:100890008436910521F41092AB021092AA026AE00C
:1008A00070E080E090E060C280917D0490E0209153
:1008B0007E04821B9109089520917E0480917D041D
:1008C000281750F4E22FF0E0E158FB4F808190E0D0
:1008D0002F5F20937E0408958FEF9FEF0895E0919E
:1008E0007E0480917D04E81730F4F0E0E158FB4F7E
:1008F000808190E008958FEF9FEF08950895CF9243
:10090000DF92EF92FF920F931F93CF93DF937C01BF
:10091000CB018A0120915A04222389F0EB016B015B
:10092000C40ED51ECC15DD0561F06991D701ED919E
:10093000FC910190F081E02DC7011995F3CF642F50
:100940004BD0C801DF91CF911F910F91FF90EF9095
:10095000DF90CF900895CF93DF931F92CDB7DEB78E
:10096000698320915A042223D1F020915B04203224
:1009700040F021E030E0FC013383228380E090E00E
:1009800014C080915C04E82FF0E0E35AFB4F99819A
:1009900090838F5F80935C0480935B0404C061E06C
:1009A000CE01019619D081E090E00F90DF91CF91B8
:1009B0000895FC011382128248EE53E060E070E07B
:1009C00044835583668377838CE792E091838083A9
:1009D00008958EE494E0EDCF613298F420910C05F7
:1009E000243089F46093C104FC0183EC94E0DC01C1
:1009F0002A2F281B261718F421912D93F9CF80E078
:100A0000089581E0089582E0089585ED8093BC000B
:100A10008091BC0084FDFCCF10920C05089585ECFC
:100A20008093BC0010920C0508951F920F920FB690
:100A30000F9211240BB60F922F933F934F935F9316
:100A40006F937F938F939F93AF93BF93EF93FF9396
:100A50008091B900887F803609F49DC070F5883296
:100A600009F45CC090F4803109F455C038F488234F
:100A700009F4F3C0883009F44EC0F2C0883109F49B
:100A80004DC0803209F45EC0EBC0803409F469C007
:100A900050F4803309F456C0883309F0E1C08093E4
:100AA0009F04BDDFDDC0803509F44FC0883509F4EF
:100AB0005DC0883409F0D4C0D2C0883909F4C3C0FD
:100AC000A8F4883709F467C038F4883609F463C09D
:100AD000803709F460C0C4C0883809F4B4C08039D4
:100AE00009F45FC0803809F0BBC05BC0803B09F4EB
:100AF00082C038F4803A09F466C0883A09F47BC0B1
:100B0000AFC0803C09F4A3C0883C09F4A0C0883B76
:100B100009F486C0A5C080910B0510C09091E40433
:100B20008091E304981770F5E091E40481E08E0F62
:100B30008093E404F0E0EB51FB4F80818093BB0095
:100B400085EC82C080939F048AC0E091E40481E038
:100B50008E0F8093E4048091BB00F0E0EB51FB4FDB
:100B600080839091E4048091E3046AC0E091E404FE
:100B700081E08E0F8093E4048091BB00F0E0EB51A4
:100B8000FB4F808380910A05811169C081E08093C9
:100B9000090584EA5DC083E080930C051092A004EF
:100BA000CFCF8091A004803208F04DC0E091A00426
:100BB00081E08E0F8093A0048091BB00F0E0EF55A0
:100BC000FB4F8083BDCF2BDF8091A004803230F4B7
:100BD000E091A004F0E0EF55FB4F10826091A0047B
:100BE00070E0E0910505F091060581EA94E0199521
:100BF0001092A00435C084E080930C051092C204CA
:100C00001092C104E0910705F091080519958091B3
:100C1000C104811105C081E08093C1041092C30416
:100C2000E091C20481E08E0F8093C204F0E0ED53A6
:100C3000FB4F80818093BB009091C2048091C104DE
:100C4000981708F47DCF85E88093BC0009C085EC37
:100C50008093BC0010920C0503C010929F04D5DE57
:100C6000FF91EF91BF91AF919F918F917F916F9184
:100C70005F914F913F912F910F900BBE0F900FBE40
:100C80000F901F90189528E6FC01208308951F926D
:100C90000F920FB60F9211242F933F938F939F9330
:100CA000AF93BF9380910E0590910F05A091100511
:100CB000B091110530910D0523E0230F2D3720F45D
:100CC0000196A11DB11D05C026E8230F0296A11DA6
:100CD000B11D20930D0580930E0590930F05A093F1
:100CE0001005B09311058091120590911305A09104
:100CF0001405B09115050196A11DB11D8093120533
:100D000090931305A0931405B0931505BF91AF916F
:100D10009F918F913F912F910F900FBE0F901F9039
:100D200018953FB7F8948091120590911305A09102
:100D30001405B091150526B5A89B05C02F3F19F0E5
:100D40000196A11DB11D3FBF6627782F892F9A2FCD
:100D5000620F711D811D911D42E0660F771F881F74
:100D6000991F4A95D1F70895CF92DF92EF92FF92A3
:100D7000CF93DF936B017C01D4DFEB01C114D1046D
:100D8000E104F10479F060D5CCDF6C1B7D0B683E8B
:100D90007340A0F381E0C81AD108E108F108C851F6
:100DA000DC4FECCFDF91CF91FF90EF90DF90CF90B1
:100DB0000895789484B5826084BD84B5816084BDD3
:100DC00085B5826085BD85B5816085BDEEE6F0E0C4
:100DD000808181608083E1E8F0E010828081826020
:100DE0008083808181608083E0E8F0E080818160A1
:100DF0008083E1EBF0E0808184608083E0EBF0E0D1
:100E0000808181608083E1E9F0E08081826080837D
:100E1000808181608083E0E9F0E08081816080836F
:100E2000E1EAF0E08081826080838081816080835C
:100E3000E0EAF0E0808181608083E1E2F1E080819E
:100E400082608083808181608083E0E2F1E0808144
:100E500081608083EAE7F0E0808184608083808124
:100E600082608083808181608083808180688083CC
:100E70001092C100089590E0FC013197E231F10534
:100E800008F04BC0E558FF4FECC6809180008F778B
:100E900003C0809180008F7D8093800008958091B1
:100EA0008000877FF9CF84B58F7702C084B58F7DAE
:100EB00084BD08958091B0008F7703C08091B00009
:100EC0008F7D8093B0000895809190008F7707C048
:100ED000809190008F7D03C080919000877F8093E8
:100EE000900008958091A0008F7707C08091A000A6
:100EF0008F7D03C08091A000877F8093A00008951C
:100F0000809120018F7707C0809120018F7D03C0E1
:100F100080912001877F809320010895CF93DF93F4
:100F200090E0FC01E05AFE4F2491FC01EA55FE4F8F
:100F30008491882349F190E0880F991FFC01EA5FB2
:100F4000FD4FA591B49184519E4FFC01C591D49160
:100F50009FB7611108C0F8948C91209582238C93DF
:100F6000888182230AC0623051F4F8948C91322F28
:100F7000309583238C938881822B888304C0F894D6
:100F80008C91822B8C939FBFDF91CF9108950F930B
:100F90001F93CF93DF931F92CDB7DEB7282F30E09A
:100FA000F901E65EFE4F8491F901E05AFE4F14917B
:100FB000F901EA55FE4F04910023C1F0882319F08E
:100FC000698359DF6981E02FF0E0EE0FFF1FE451E4
:100FD000FE4FA591B4919FB7F8948C91611103C015
:100FE0001095812301C0812B8C939FBF0F90DF91BF
:100FF000CF911F910F910895FC01818D228D90E07A
:10100000805C9F4F821B91098F7399270895FC0183
:10101000918D828D981731F0828DE80FF11D858DAD
:1010200090E008958FEF9FEF0895FC01918D828DE0
:10103000981761F0828DDF01A80FB11D5D968C912C
:10104000928D9F5F9F73928F90E008958FEF9FEF37
:10105000089589EC99E0892B39F080E090E0892BA4
:1010600019F097D1811124C084E79AE0892B39F0D7
:1010700080E090E0892B19F037D281111CC080E00C
:1010800090E0892B41F080E090E0892B21F00E94D4
:101090000000811113C080E090E0892BA1F080E076
:1010A00090E0892B81F00E94000081110AC0089510
:1010B0000E940000D9CF0E940000E1CF0E940000F2
:1010C000EACF0C9400000895FC01848DDF01A80F85
:1010D000B11DA35ABF4F2C91848D90E001968F7360
:1010E0009927848FA689B7892C93A089B1898C917F
:1010F00080648C93938D848D981306C00288F38945
:10110000E02D80818F7D80830895CF93DF93EC0164
:10111000888D8823C1F0EA89FB89808185FD05C01F
:10112000A889B9898C9186FD0EC00FB607FCF5CF52
:10113000808185FFF2CFA889B9898C9185FFEDCF99
:10114000CE01C2DFE8CFDF91CF910895CF92DF9239
:10115000FF920F931F93CF93DF931F92CDB7DEB70C
:101160006C0181E0D60158968C9358975B969C91C0
:101170005B975C968C915C97981307C05096ED91A5
:10118000FC915197808185FD2DC0F601038D10E003
:101190000F5F1F4F0F731127F02EF601848DF81289
:1011A00010C00FB607FCF9CFD6015096ED91FC9117
:1011B0005197808185FFF1CFC601698385DF698101
:1011C000ECCF838DE80FF11DE35AFF4F6083D6010A
:1011D0005B960C935B975296ED91FC9153978081AF
:1011E00080620CC0D6015696ED91FC9157976083B2
:1011F0005096ED91FC91519780818064808381E0CD
:1012000090E00F90DF91CF911F910F91FF90DF90B1
:10121000CF900895BF92CF92DF92EF92FF92CF933B
:10122000DF93EC016A017B01B22EE889F98982E043
:101230008083411581EE58076105710599F060E0E2
:1012400079E08DE390E0A7019601E9D421503109BE
:10125000410951095695479537952795211580E104
:10126000380790F0E889F989108260E874E88EE127
:1012700090E0A7019601D3D42150310941095109C9
:101280005695479537952795EC85FD853083EE85F6
:10129000FF852083188EEC89FD89B082EA89FB895D
:1012A000808180618083EA89FB8980818860808376
:1012B000EA89FB89808180688083EA89FB89808153
:1012C0008F7D8083DF91CF91FF90EF90DF90CF9063
:1012D000BF9008951F920F920FB60F9211240BB674
:1012E0000F922F938F939F93EF93FF93E091260597
:1012F000F09127058081E0912C05F0912D0582FD6C
:1013000012C0908180912F058F5F8F7320913005DF
:10131000821751F0E0912F05F0E0EA5EFA4F958FC9
:1013200080932F0501C08081FF91EF919F918F9154
:101330002F910F900BBE0F900FBE0F901F9018951E
:101340001F920F920FB60F9211240BB60F922F938C
:101350003F934F935F936F937F938F939F93AF933D
:10136000BF93EF93FF9386E195E0AEDEFF91EF919F
:10137000BF91AF919F918F917F916F915F914F91AD
:101380003F912F910F900BBE0F900FBE0F901F90AB
:10139000189586E195E030DE21E0892B09F420E004
:1013A000822F0895109219051092180588EE93E087
:1013B000A0E0B0E080931A0590931B05A0931C0554
:1013C000B0931D058CE892E0909317058093160565
:1013D00085EC90E0909323058093220584EC90E0C7
:1013E000909325058093240580EC90E09093270549
:1013F0008093260581EC90E0909329058093280541
:1014000082EC90E090932B0580932A0586EC90E087
:1014100090932D0580932C0510922F051092300586
:10142000109231051092320508951F920F920FB657
:101430000F9211240BB60F922F938F939F93EF93DC
:10144000FF93E091C305F091C4058081E091C90547
:10145000F091CA0582FD12C090818091CC058F5F0A
:101460008F732091CD05821751F0E091CC05F0E00B
:10147000ED54FA4F958F8093CC0501C08081FF9188
:10148000EF919F918F912F910F900BBE0F900FBEF8
:101490000F901F9018951F920F920FB60F92112464
:1014A0000BB60F922F933F934F935F936F937F935E
:1014B0008F939F93AF93BF93EF93FF9383EB95E04D
:1014C00003DEFF91EF91BF91AF919F918F917F913B
:1014D0006F915F914F913F912F910F900BBE0F90A5
:1014E0000FBE0F901F90189583EB95E085DD21E0EE
:1014F000892B09F420E0822F08951092B6051092EE
:10150000B50588EE93E0A0E0B0E08093B705909336
:10151000B805A093B905B093BA058CE892E0909312
:10152000B4058093B3058DEC90E09093C005809353
:10153000BF058CEC90E09093C2058093C10588ECC8
:1015400090E09093C4058093C30589EC90E090935C
:10155000C6058093C5058AEC90E09093C8058093FA
:10156000C7058EEC90E09093CA058093C905109250
:10157000CC051092CD051092CE051092CF0508959E
:10158000089517DCFDDF36D9C9E2D8E073D920977A
:10159000E9F35FDDFBCFCF92DF92EF92FF920F93E3
:1015A0001F93CF93DF937C016A01EB0100E010E011
:1015B0000C151D0571F06991D701ED91FC91019019
:1015C000F081E02DC7011995892B19F00F5F1F4F8E
:1015D000EFCFC801DF91CF911F910F91FF90EF9056
:1015E000DF90CF9008956115710581F0DB010D90BA
:1015F0000020E9F7AD0141505109461B570BDC01B2
:10160000ED91FC910280F381E02D199480E090E04F
:101610000895DC01ED91FC91DB0114964D915C91F4
:1016200015976D917C910280F381E02D199468E902
:1016300072E0D9CF0F931F93CF93DF93EC01E9DFD3
:101640008C01CE01F4DF800F911FDF91CF911F91AC
:101650000F9108958F929F92AF92BF92CF92DF9297
:10166000EF92FF920F931F93CF93DF93CDB7DEB727
:10167000A1970FB6F894DEBF0FBECDBF7C01C42E7C
:10168000E52FCB01D22E19A221E02D1510F02AE072
:10169000D22E8E010F5D1F4F8D2C912CA12CB12CC1
:1016A0006C2D7E2FA5019401BAD28C2DD29E80196B
:1016B0001124015011098A3014F4805D01C0895C45
:1016C000F8018083211531054105510521F0C22E15
:1016D000E32FCA01E5CFB801C70185DFA1960FB698
:1016E000F894DEBF0FBECDBFDF91CF911F910F9158
:1016F000FF90EF90DF90CF90BF90AF909F908F9032
:1017000008952115310541F4DC01ED91FC91019022
:10171000F081E02D642F19949DCF0F931F93CF93E9
:10172000DF93EC019A01462F50E060E070E0E9DFC2
:101730008C01CE017CDF800F911FDF91CF911F9133
:101740000F910895FC014483558366837783089540
:10175000FC018081918127C3CF93DF93EC018881C5
:101760009981009709F01FD3198218821D821C826B
:101770001B821A82DF91CF9108950F931F93CF930D
:10178000DF93EC018B016F5F7F4F888199819AD342
:10179000009731F0998388831B830A8381E001C01D
:1017A00080E0DF91CF911F910F910895CF93DF9348
:1017B000EC0188819981892B29F08A819B81861788
:1017C000970758F4CE01D9DF882341F08C819D81A1
:1017D000892B19F4E881F981108281E0DF91CF91A2
:1017E0000895EF92FF920F931F93CF93DF93EC0135
:1017F0007B018A01BA01DADF811103C0CE01ACDFBF
:1018000006C01D830C83B7018881998148D4CE011D
:10181000DF91CF911F910F91FF90EF900895FC0100
:101820001182108213821282158214826115710551
:1018300051F0FB0101900020E9F7AF01415051093F
:10184000461B570BCECF089508955058BB27AA27A3
:101850000ED048C139D130F03ED120F031F49F3F55
:1018600011F41EF42EC10EF4E095E7FB24C1E92F1C
:101870004AD180F3BA17620773078407950718F0F7
:1018800071F49EF562C10EF4E0950B2EBA2FA02DD7
:101890000B01B90190010C01CA01A0011124FF271D
:1018A000591B99F0593F50F4503E68F11A16F04018
:1018B000A22F232F342F4427585FF3CF4695379517
:1018C0002795A795F0405395C9F77EF41F16BA0BDC
:1018D000620B730B840BBAF09150A1F0FF0FBB1F8A
:1018E000661F771F881FC2F70EC0BA0F621F731FD3
:1018F000841F48F4879577956795B795F7959E3F30
:1019000008F0B3CF9395880F08F09927EE0F9795BD
:10191000879508950CD0E6C0DED040F0D5D030F0E9
:1019200021F45F3F19F0C7C0511110C1CAC0EBD0FC
:1019300098F39923C9F35523B1F3951B550BBB2796
:10194000AA2762177307840738F09F5F5F4F220F43
:10195000331F441FAA1FA9F333D00E2E3AF0E0E83C
:1019600030D091505040E695001CCAF729D0FE2F88
:1019700027D0660F771F881FBB1F2617370748071A
:10198000AB07B0E809F0BB0B802DBF01FF279358D0
:101990005F4F2AF09E3F510568F08DC0D7C05F3F72
:1019A000ECF3983EDCF3869577956795B795F795B8
:1019B0009F5FC9F7880F911D9695879597F90895B0
:1019C000E1E0660F771F881FBB1F6217730784074C
:1019D000BA0720F0621B730B840BBA0BEE1F88F75B
:1019E000E095089598D088F09F5790F0B92F9927E7
:1019F000B751A0F0D1F0660F771F881F991F1AF01A
:101A0000BA95C9F712C0B13081F09FD0B1E0089506
:101A10009CC0672F782F8827B85F39F0B93FCCF387
:101A2000869577956795B395D9F73EF4909580950F
:101A3000709561957F4F8F4F9F4F0895E89409C02F
:101A400097FB3EF490958095709561957F4F8F4FF1
:101A50009F4F9923A9F0F92F96E9BB279395F69507
:101A6000879577956795B795F111F8CFFAF4BB0F85
:101A700011F460FF1BC06F5F7F4F8F4F9F4F16C0E9
:101A8000882311F096E911C0772321F09EE8872F73
:101A9000762F05C0662371F096E8862F70E060E02F
:101AA0002AF09A95660F771F881FDAF7880F9695A8
:101AB000879597F9089597F99F6780E870E060E04F
:101AC00008959FEF80EC089500240A9416161706D7
:101AD00018060906089500240A941216130614061F
:101AE00005060895092E0394000C11F4882352F082
:101AF000BB0F40F4BF2B11F460FF04C06F5F7F4F3A
:101B00008F4F9F4F089557FD9058440F551F59F020
:101B10005F3F71F04795880F97FB991F61F09F3FDA
:101B200079F087950895121613061406551FF2CF03
:101B30004695F1DF08C0161617061806991FF1CF53
:101B400086957105610508940895E894BB2766277A
:101B50007727CB0197F908950BD0C4CFB5DF28F0D4
:101B6000BADF18F0952309F0A6CFABCF1124EECF42
:101B7000CADFA0F3959FD1F3950F50E0551F629FE8
:101B8000F001729FBB27F00DB11D639FAA27F00DD6
:101B9000B11DAA1F649F6627B00DA11D661F829FFD
:101BA0002227B00DA11D621F739FB00DA11D621FE2
:101BB000839FA00D611D221F749F3327A00D611DFF
:101BC000231F849F600D211D822F762F6A2F1124E1
:101BD0009F5750408AF0E1F088234AF0EE0FFF1F34
:101BE000BB1F661F771F881F91505040A9F79E3F6B
:101BF000510570F060CFAACF5F3FECF3983EDCF365
:101C0000869577956795B795F795E7959F5FC1F7A7
:101C1000FE2B880F911D9695879597F90895A1E25F
:101C20001A2EAA1BBB1BFD010DC0AA1FBB1FEE1F56
:101C3000FF1FA217B307E407F50720F0A21BB30BA1
:101C4000E40BF50B661F771F881F991F1A9469F71D
:101C500060957095809590959B01AC01BD01CF0179
:101C60000895EE0FFF1F0590F491E02D1994079051
:101C7000F691E02D1994CF93DF938230910510F403
:101C800082E090E0E0915206F091530620E030E0CF
:101C9000A0E0B0E0309739F14081518148175907F1
:101CA000B8F04817590771F482819381109729F091
:101CB00013969C938E9312972CC090935306809307
:101CC000520627C02115310531F04217530718F08D
:101CD000A901DB0101C0EF019A01BD01DF01028012
:101CE000F381E02DD7CF21153105F9F0281B390BF1
:101CF0002430310580F48A819B816115710521F0C2
:101D0000FB019383828304C0909353068093520611
:101D1000FE01329644C0FE01E20FF31F81939193BE
:101D200022503109398328833AC0209150063091DE
:101D30005106232B41F4209102023091030230938B
:101D40005106209350062091000230910102211586
:101D5000310541F42DB73EB7409104025091050280
:101D6000241B350BE0915006F0915106E217F30762
:101D7000A0F42E1B3F0B2817390778F0AC014E5FFB
:101D80005F4F2417350748F04E0F5F1F50935106E1
:101D9000409350068193919302C0E0E0F0E0CF01C0
:101DA000DF91CF910895CF93DF93009709F487C017
:101DB000FC01329713821282C0915206D0915306D1
:101DC000209781F420813181280F391F809150069E
:101DD000909151068217930779F5F0935106E0939D
:101DE00050066DC0DE0120E030E0AE17BF0750F4B2
:101DF00012964D915C9113979D014115510509F182
:101E0000DA01F3CFB383A28340815181840F951F00
:101E10008A179B0771F48D919C911197840F951FE0
:101E200002969183808312968D919C911397938350
:101E300082832115310529F4F0935306E09352066D
:101E40003EC0D9011396FC93EE9312974D915D918C
:101E5000A40FB51FEA17FB0779F480819181840FE5
:101E6000951F0296D90111969C938E93828193813E
:101E700013969C938E931297E0E0F0E08A819B8109
:101E8000009719F0FE01EC01F9CFCE0102962881EE
:101E90003981820F931F20915006309151062817E7
:101EA000390769F4309729F41092530610925206BC
:101EB00002C013821282D0935106C0935006DF9164
:101EC000CF9108956F927F928F929F92AF92BF921F
:101ED000CF92DF92EF92FF920F931F93CF93DF93F6
:101EE000EC01CB01209779F4DF91CF911F910F91F5
:101EF000FF90EF90DF90CF90BF90AF909F908F902A
:101F00007F906F90B8CEFE01E60FF71F9E01225022
:101F10003109E217F30708F4A8C0D9010D911C910B
:101F2000119706171707B0F00530110508F49BC08C
:101F3000A801445051094617570708F494C00250AD
:101F40001109061B170B019311936D937C93CF011D
:101F50002ADF89C05B01A01AB10A4E01800E911ED2
:101F6000A0915206B0915306612C712C60E070E094
:101F7000109709F449C0A815B905C9F5ED90FC9072
:101F80001197670142E0C40ED11CCA14DB0478F13A
:101F900047018A189B08640142E0C40ED11C1296C6
:101FA000BC9012971396AC91B5E0CB16D10440F0DB
:101FB000B282A38391828082D9018D939C9309C0C0
:101FC0000E5F1F4F0E0D1F1DF90111830083EB2DB6
:101FD000FA2F6115710531F0DB011396FC93EE9336
:101FE000129741C0F0935306E09352063CC06D91A6
:101FF0007C9111976616770608F43B01BD01129695
:102000000D90BC91A02DB4CF6091500670915106F7
:1020100068157905E9F468167906D0F44091000254
:10202000509101024115510541F44DB75EB76091E1
:10203000040270910502461B570BE417F507A8F43C
:10204000F0935106E0935006F901918380830BC011
:1020500012DE7C01009749F0A801BE0117D0CE0125
:10206000A2DEC70104C0CE0102C080E090E0DF9193
:10207000CF911F910F91FF90EF90DF90CF90BF9085
:10208000AF909F908F907F906F900895FB01DC013F
:1020900002C001900D9241505040D8F70895FB01C5
:1020A000DC0101900D920020E1F70895F894FFCF34
:1020B000000054068000546865204D505527732059
:1020C0004649464F20686173206F766572666C6F73
:1020D00077656420616E64206265656E2072657349
:1020E0006574004D505520646964206E6F742069DA
:1020F0006E697469616C697A652070726F7065725F
:102100006C7900436F6D6D756E69636174696F6E94
:102110007320636865636B0042616420696E70754B
:102120007420676976656E0000000000AB047F04D0
:1021300054045C046F047E0400000000A608CB0A6F
:10214000FC071508070885080D0A006E616E006916
:0A2150006E66006F7666002E000038
:00000001FF
