:10000000D7C5000006C6000004C6000002C60000F6
:1000100000C60000FEC50000FCC50000FAC50000D7
:10002000F8C50000F6C50000F4C50000F2C50000E8
:10003000F0C50000EEC50000ECC50000EAC50000F8
:10004000E8C50000E6C50000E4C50000E2C5000008
:10005000E0C50000DEC50000DCC500000C94F91D01
:10006000D8C500000C94EB1C0C94C21CD2C5000037
:10007000D0C50000CEC50000CCC50000CAC5000038
:10008000C8C50000C6C50000C4C50000C2C5000048
:100090000C94991C0C94701CBCC500000C94910924
:1000A000B8C50000B6C50000B4C50000B2C5000068
:1000B000B0C50000AEC50000ACC500000C94D7115F
:1000C000A8C50000A6C50000A4C50000A2C5000088
:1000D000A0C500009EC500009CC500009AC5000098
:1000E00098C50000421D451D341D381D3C1D7C1D5A
:1000F000491D4D1D531D571D5B1D611D651D691D4E
:100100007C1D6F1D731D771D084AD73B3BCE016ECA
:1001100084BCBFFDC12F3D6C74319ABD56833DDA5E
:100120003D00C77F11BED9E4BB4C3E916BAAAABE6D
:10013000000000803F0001B202FFFF01900409238C
:10014000A135016A020600016008000000000000FD
:100150000000006004400000000162020000006036
:10016000040040000000002200250028002B002E83
:10017000003100340002010000050108010B0100FC
:10018000002100240027002A002D00300033000148
:10019000010000040107010A01050505050705081E
:1001A000080808020202020A0A08080404040401FA
:1001B000010101010101010303030303030303041C
:1001C0000707070C0C0C0C0C0C0C0C0202020206AC
:1001D000060606060606060B0B0B0B0B0B0B0B019C
:1001E0000210202008081020401020408002010248
:1001F0000108040201010204081020408080402010
:10020000100804020180040201804020100804024A
:1002100001080402010102040810204080010204C8
:100220000810204080FB00003E000B00360001005B
:10023000020003000000650054FFEF0000FA800098
:100240000B1282000100020000000000000000000C
:10025000000000000000280000FFFF4581FFFFFABA
:100260007200000000000003E80000000100017FB0
:10027000FFFFFE8001001B000000000000000000E6
:100280000000000000003E03304000000002CAE30E
:10029000093E800000200000000000000040000037
:1002A000006000000041FF000000000B2A00001663
:1002B0005500002182FD872650FD800000001F00B0
:1002C00000000580000000000000010000000200A6
:1002D0000000030000400000000000046F00026501
:1002E0003200005EC040000000000000000000007E
:1002F0000000000000FB8C6F5DFD5D08D9007C7381
:100300003B006C12CC3200139D3200D0D632000874
:1003100000400001F4FFE68079020000000000D0F8
:10032000D600002710FB0000004000000000000085
:1003300000000000000000000100000000000001BB
:1003400000010000000000FA36FFBC308E0005FB03
:10035000F0FFD95BC8FFD09ABE000010A9FFF41EC1
:10036000B200CEBBF7000000010000000400020054
:10037000020200000CFFC280000001800000CF805C
:100380000040000000000000010000000000000626
:100390000000000014000000000000000000000049
:1003A000000000000000000000000000000000004D
:1003B000000000000000000000000000000000003D
:1003C000000000000000000000033F68B6793528F7
:1003D000BCC67ED16C80000000400000000000B26E
:1003E0006A00000000000000000000000000003F64
:1003F000F0000000300000000000000000000000DD
:1004000000000000000000000000000000000000EC
:1004100000000000000000254D002F706D00000559
:10042000AE000C02D00000000000650054FFEF0099
:100430000000000000000001000044000000000C6B
:1004400000000001000000000000650000005400F2
:1004500000FFEF00000000000000000000000000AE
:10046000000000000040000000000000000000004C
:10047000000000000040000000000000000000003C
:100480000000000000000000010000000200000069
:10049000000000000000000000000000000000005C
:1004A000000000000000000000000000000000004C
:1004B0000000000000001B00000000000000000021
:1004C000000000000000000000000000000000002C
:1004D000000000000000000000000000000000001C
:1004E0000040000000001B000000000000000000B1
:1004F00000000000000000000000000000000000FC
:1005000000000000000000000000000000000000EB
:1005100000000000000000000000000000000000DB
:100520000000000000D8DCBAA2F1DEB2B8B4A881A5
:1005300091F74A907F916AF3F9DBA8F9B0BAA080ED
:10054000F2CE81F3C2F1C1F2C3F3CCA2B280F1C604
:10055000D880BAA7DFDFDFF2A7C3CBC5B6F087A28A
:10056000942448703C95406834589B78A2F183925B
:100570002D557DD8B1B4B8A1D09180F270F370F24E
:100580007C80A8F101B09887D943D886C988BAA1E0
:10059000F20EB89780F1A9DFDFDFAADFDFDFF2AA72
:1005A000C5CDC7A90CC92C97979797F1A98926465D
:1005B00066B0B4BA80ACDEF2CAF1B28C02A9B698C9
:1005C00000890E161EB8A9B4992C547CB08AA8963E
:1005D000365676F1B9AFB4B083C0B8A89711B18FD1
:1005E00098B9AFF0240844106418F1A329557DAFE1
:1005F00083B593AFF0002850F1A3869F61A6DADEA1
:10060000DFD9FAA38696DB31A6D9F8DFBAA68FC266
:10061000C5C7B28CC1B8A2DFDFDFA3DFDFDFD8D868
:10062000F1B8A8B286B4980D355DB8AA98B0872DF8
:10063000353DB2B6BAAF8C96198F9FA70E161EB471
:100640009AB8AA872C547CB9A3DEDFDFA3B180F26D
:10065000C4CDC9F1B8A9B499830D355D89B9A32D6D
:10066000557DB593A30E161EA92C547CB8B4B0F1D9
:100670009783A81184A50998A383F0DA240844106D
:100680006418D8F1A529557DA58595021A2E3A56EC
:100690005A4048F9F3A3D9F8F09883240844106429
:1006A000189782A8F111F098A2240844106418DA6F
:1006B000F3DED883A59401D9A302F1A2C3C5C7D89C
:1006C000F18492A24DDA2AD84869D92AD86855DA35
:1006D00032D85071D932D8705DDA3AD85879D93ACF
:1006E000D87893A34DDA2AD84869D92AD86855DA38
:1006F00032D85071D932D8705DDA3AD85879D93AAF
:10070000D878A88A9AF02850789EF38818F19F1D0F
:1007100098A8D908D8C89F129EF315A8DA1210D845
:10072000F1AFC8978734B5B994A421F3D922D8F290
:100730002DF3D92AD8F235F3D932D881A46060617B
:10074000D961D86C6869D969D8747071D971D8B118
:10075000A384193D5DA3831A3E5E9310308110116E
:10076000B8B0AF8F94F2DA3ED8B49AA88729DAF8F5
:10077000D8879A35DAF8D8879A3DDAF8D8B1B9A48B
:100780009885022E56A581000C14A397B08AF12DEE
:10079000D928D84DD948D86DD968D8B1840DDA0E8A
:1007A000D8A32983DA2C0ED8A3844983DA2C4C0EE3
:1007B000D8B8B0A88A9AF520AADADFD8A840AAD07B
:1007C000DADED8A860AADAD0DFD8F19786A8319B04
:1007D000069907AB9728889BF00C201440B8B0B45A
:1007E000A88C9CF0042851791D301438B282ABD00B
:1007F000982C505078789BF11AB0F08A9CA8295117
:10080000798B2951798A2470598B2058718A4469CF
:10081000388B3940688A6448318B304960A588201C
:100820000971584468113964493019F1AC002C54ED
:100830007CF08CA804285078F1889726A85998ACA9
:100840008C02264666F0899CA82951792470594467
:100850006938644831A98809205970AB113840695A
:10086000A8193148608CA83C415C207C00F1879835
:100870001986A86E767EA999882D557D9EB9A38A82
:10088000228A6E8A568A5E9FB183062646660E2E9F
:100890004E6E9DB8AD002C547CF2B18CB499B9A3C6
:1008A0002D557D8191AC38AD3AB58391AC2DD928C9
:1008B000D84DD948D86DD968D88C9DAE29D904AE09
:1008C000D851D904AED879D904D881F39DAD008D23
:1008D000AE1981ADD901D8F2AEDA26D88E9129832E
:1008E000A7D9ADADADADF32AD8D8F1B0AC89913E62
:1008F0005E76F3AC2E2EF1B18C5A9CAC2C282828B5
:100900009CAC3018A8988128343C9724A728343C04
:100910009C24F2B089AC912C4C6C8A9B2DD9D8D8F0
:1009200051D9D8D879D9D8D8F19E88A331DAD8D876
:10093000912DD928D84DD948D86DD968D8B183938D
:10094000353D8025DAD8D88569DAD8D8B49381A323
:1009500028343CF3AB8BF8A391B609B4D9ABDEFADB
:10096000B0879CB9A3DDF1A3A3A3A395F1A3A3A38F
:100970009DF1A3A3A3A3F2A3B49080F2A3A3A3A386
:10098000A3A3A3A3A3A3B2A3A3A3A3A3A3B087B525
:1009900099F1A3A3A398F1A3A3A3A397A3A3A3A3AC
:1009A000F39BA3A3DCB9A7F1262626D8D8FF037BA7
:1009B000034CCD6C03AB0336567600680402CB477C
:1009C000A202180400058BC1010C04000000000302
:1009D0007F060CC92C979797038903264666006CFF
:1009E0000220000240040000000002440400000055
:1009F0000002480400000000024C04000000000255
:100A000050040000000002540400000000025804DA
:100A100000000000025C040000000002BC040000B2
:100A2000000001EC0400004000037F060CC92C9775
:100A300097970402030D355D040904872D353D00A9
:100A4000A3010000000001078601FE074105F12017
:100A5000283038077E01300746019A074704F128FD
:100A60003038076C04F1283038021602000100000B
:100A70000A0B02090C0D0E08070304010000000018
:100A80000000000000000000000000000000000066
:100A90000000000000000000000012111000000023
:100AA0000000000000000000000000000000000046
:100AB0000000000000407A10F35A00A0724E18099E
:100AC0000010A5D4E80000E87648170000E40B54B5
:100AD000020000CA9A3B000000E1F5050000809684
:100AE0009800000040420F000000A08601000000B6
:100AF000102700000000E803000000006400000070
:100B000000000A00000000000100000000002C7638
:100B1000D888DC674F0823DFC1DFAE59E1B1B79653
:100B2000E5E3E453C63AE651997696E8E6C28426B0
:100B3000EB898C9B62ED407C6FFCEFBC9C9F40F28C
:100B4000BAA56FA5F490055A2AF75C936B6CF96708
:100B50006DC11BFCE0E40D47FEF520E6B500D0EDCD
:100B6000902E0300943577050080841E0800002035
:100B70004E0A000000C80C333333330F986E1283D3
:100B80001141EF8D2114893BE65516CFFEE6DB18A7
:100B9000D1844B381BF77C1D901DA4BBE42420326C
:100BA00084725E228100C9F124ECA1E53D27532126
:100BB00011241FBECFEFD1E2DEBFCDBF00E00CBFDE
:100BC00013E0A0E0B2E0ECEDF4E500E00BBF02C002
:100BD00007900D92A638B107D9F727E0A6E8B3E051
:100BE00001C01D92A134B207E1F715E0C8EDD5E0D0
:100BF00000E006C021970109802FFE010E947E229D
:100C0000C73DD10780E00807A9F70E94DD200C94BA
:100C10006C2AF6C98091FA0390E02091FB03821BB5
:100C20009109089585ED8093BC008091BC0084FDFE
:100C3000FCCF10922B0408954091AD03262F30E095
:100C4000240F311D21323105DCF420912B04243096
:100C5000C9F4FC0180E090E0861758F43091AD03B0
:100C60002191DC01A557BC4FA30FB11D2C93019618
:100C7000F3CF8091AD03680F6093AD0380E00895DA
:100C800081E0089582E008950895E091FB0380914A
:100C9000FA03E81730F4F0E0EE52FC4F808190E068
:100CA00008958FEF9FEF08959091FB038091FA03D1
:100CB000981750F4E92FF0E0EE52FC4F208130E01D
:100CC0009F5F9093FB0302C02FEF3FEFC901089590
:100CD000CF92DF92EF92FF920F931F93CF93DF9308
:100CE0007C01262F972F8A0180912C04882391F074
:100CF000C62FD72F6E01C40ED51ECC15DD0569F0A9
:100D00006991D701ED91FC910190F081E02DC7012F
:100D10001995F3CF642F822F8FDFC801DF91CF9118
:100D20001F910F91FF90EF90DF90CF900895CF9398
:100D3000DF931F92CDB7DEB7698320912C04222365
:100D4000D1F020914F04203240F021E030E0FC014E
:100D50003383228380E090E014C080912D04E82F3B
:100D6000F0E0E25DFB4F998190838F5F80932D04CB
:100D700080934F0404C061E0CE0101965DDF81E005
:100D800090E00F90DF91CF91089528E6FC01208339
:100D90000895CF92DF92EF92FF920F931F93CF931C
:100DA000DF93EC016A017B01E889F98982E08083A5
:100DB0004115514E61057105B1F060E079E08DE3B8
:100DC00090E0A70196010E945C2289019A010150DE
:100DD000110921093109369527951795079598012D
:100DE00001151041A8F0E889F989108260E874E8DB
:100DF0008EE190E0A70196010E945C22DA01C90110
:100E00000197A109B109B695A795979587959C017A
:100E1000EC85FD853083EE85FF852083188EEC8977
:100E2000FD8986E08083EA89FB89808180618083F7
:100E3000EA89FB89808188608083EA89FB898081D7
:100E400080688083EA89FB8980818F7D8083DF9140
:100E5000CF911F910F91FF90EF90DF90CF90089569
:100E60000C941B1C4F925F926F927F928F929F9275
:100E7000AF92BF92CF92DF92EF92FF920F931F93A8
:100E8000CF93DF93CDB7DEB760970FB6F894DEBF90
:100E90000FBECDBF8C01DC019E964D935D936D938B
:100EA0007C93D1979A01AB011C966D917D918D91A8
:100EB0009C911F970E949A22F801608B718B828B04
:100EC000938B0E94901DD801D6962D913C91D79777
:100ED000621B730BDB967C936E93DA970E94901DD6
:100EE000F80166AB77AB80AF91AFC088D188E2885C
:100EF000F3882081318142815381C701B6010E946C
:100F00009F296D877E878F87988BD80114968D9146
:100F10009D910D90BC91A02D8D839E83AF83B8874A
:100F2000F80162AD73AD80E090E00E943E294B0174
:100F30005C019B01AC01C701B6010E949F2920E022
:100F400030E04AE754E40E946123D80196962D913F
:100F50003D914D915C9199970E949B2269837A8380
:100F60008B839C83F80166A377A380A791A78085D4
:100F70009185A285B38589879A87AB87BC8764A052
:100F800075A0C30165E070E00E9449222C01F6E0E3
:100F90004F0E511C440C551C440C551C400E511E48
:100FA000D80154962D913D914D915C915797C70171
:100FB000B6010E949A22A50194010E946123F201C8
:100FC0006083718382839383FFEF6F1A7F0AD80156
:100FD00095967C926E929497F80112A613A614A689
:100FE00015A620E030E040E450E460A171A182A1A8
:100FF00093A10E9461234B015C0120E030E040E4BA
:1010000050E4D80158966D917D918D919C915B979C
:101010000E94612320E030E0A9010E949B222B0165
:101020003C0120E030E040E450E4F801648D758D2F
:10103000868D978D0E9461239B01AC01C301B20193
:101040000E949B229B01AC01C501B4010E949B221E
:101050004B015C01D8019A966D937D938D939C937F
:101060009D9729813A814B815C816D817E818F8141
:1010700098850E949F299B01AC016D857E858F8597
:1010800098890E949B222B013C01A501940169854E
:101090007A858B859C850E949F299B01AC01C301A9
:1010A000B2010E949B22F80162AB73AB84AB95AB9B
:1010B000C48AD58AE68AF78A60960FB6F894DEBFAE
:1010C0000FBECDBFDF91CF911F910F91FF90EF9099
:1010D000DF90CF90BF90AF909F908F907F906F9058
:1010E0005F904F900895FB01DC0111961C921E92B7
:1010F00013961C921E92129715961C921E9214978C
:101100008617970749F0608171816115710521F09B
:10111000448155810C94821A08952F923F924F92E8
:101120005F926F927F928F929F92AF92BF92CF9277
:10113000DF92EF92FF920F931F93CF93DF93CDB780
:10114000DEB727970FB6F894DEBF0FBECDBFE82EEF
:101150006B834F8369010E94ED1D4B015C016E2C76
:10116000660CF12C1E82772473945F81452F50E02A
:101170005D834C831801412C512C4F81F41608F0EB
:1011800097C070922C04E0924E0410922D0410929D
:101190004F046B818AE895E0CADD0E942B1F709294
:1011A0002C04E0924E0410922D0410924F04809172
:1011B0002B048111FCCF2C813D812F193109213263
:1011C000310514F020E230E0213208F020E2709284
:1011D0002B0470922A048FEF809329041092280424
:1011E000820F80932704709206048091060486295A
:1011F0008093060480910504813071F410920504F7
:10120000809106048093BB008091BC0083FDF8CFE1
:1012100095EC9093BC0003C0E5EEE093BC00809198
:101220002B048130E1F380912804821710F420917F
:101230002804A7E0B4E0E2EDF3E08E2F42ED53E0A6
:10124000841B821718F48D918193F7CF1092FB03C2
:101250002093FA039091FA038091FB03981711F100
:101260000115110591F4A6012E81420F511D27FD94
:101270005A955A8349838AE895E016DDE981FA8117
:1012800080832E812F5F2E83E5CF0E94ED1DDC0130
:10129000CB0188199909AA09BB0982159305A405F0
:1012A000B50508F38F81813208F080E2F80E65CF32
:1012B000FE8001151105D9F00E94ED1DDC01CB0166
:1012C00088199909AA09BB0920E030E08017910725
:1012D000A207B30760F05F81252F30E08F2D0F2C20
:1012E000000C990B8217930714F4FF24FA948F2DA6
:1012F00027960FB6F894DEBF0FBECDBFDF91CF911A
:101300001F910F91FF90EF90DF90CF90BF90AF9023
:101310009F908F907F906F905F904F903F902F9015
:1013200008951F920F920FB60F9211240BB60F92D1
:101330002F933F934F935F936F937F938F939F93DD
:10134000AF93BF93EF93FF938091B900887F80366E
:1013500009F49CC068F5883209F45BC090F48031D0
:1013600009F454C038F4882309F4F6C0883009F42D
:101370004DC0F5C0883109F44CC0803209F45DC01D
:10138000EEC0803409F468C048F4803309F455C0D5
:10139000883309F0E4C080932904D8C0803509F46B
:1013A0004FC0883509F45DC0883409F0D8C0D6C074
:1013B000883909F4C7C0A8F4883709F467C038F43D
:1013C000883609F463C0803709F460C0C8C0883823
:1013D00009F4B8C0803909F45FC0803809F0BFC093
:1013E0005BC0803B09F486C038F4803A09F466C0DB
:1013F000883A09F47FC0B3C0803C09F4A7C0883C98
:1014000009F4A4C0883B09F48AC0A9C080910604ED
:1014100010C09091280480912704981770F5E091EE
:10142000280481E08E0F80932804F0E0E95FFB4FF1
:1014300080818093BB0085EC86C0809329048EC098
:10144000E091280481E08E0F809328048091BB00F6
:10145000F0E0E95FFB4F808390912804809127049E
:101460006EC0E091280481E08E0F80932804809163
:10147000BB00F0E0E95FFB4F808380912A0481117B
:101480006DC081E08093050484EA61C083E08093AD
:101490002B041092D103CFCF8091D103803208F07A
:1014A00051C0E091D10381E08E0F8093D1038091F0
:1014B000BB00F0E0EF54FC4F8083BDCF85EC809300
:1014C000BC0010922B048091D103803230F4E09163
:1014D000D103F0E0EF54FC4F10826091D10370E033
:1014E000E091AF03F091B00381EB93E01995109276
:1014F000D10335C084E080932B041092AE03109288
:10150000AD03E091AB03F091AC0319958091AD036D
:10151000811105C081E08093AD0310928B03E091AF
:10152000AE0381E08E0F8093AE03F0E0E557FC4FF1
:1015300080818093BB009091AE038091AD0398179A
:1015400008F479CF85E88093BC0009C085EC8093CE
:10155000BC0010922B0403C01092290463DBFF919E
:10156000EF91BF91AF919F918F917F916F915F911B
:101570004F913F912F910F900BBE0F900FBE0F9088
:101580001F901895FF920F931F93CF93DF93CDB7C2
:10159000DEB763970FB6F894DEBF0FBECDBF809164
:1015A0007706811120C06BE572E0CE0101960E94A2
:1015B0005C1CCE0101960E94A014CE0101960E94EF
:1015C0001B1C60E27EE480E090E00E94B51D639603
:1015D0000FB6F894DEBF0FBECDBFDF91CF911F9144
:1015E0000F91FF90089580E594E00E94071B0397F8
:1015F0000CF069C06AE070E080E090E00E94B51DE8
:101600000E94901D0E94B4140E94901D8091380782
:10161000811178C02091890330918A03C90165E066
:1016200070E00E944922892B09F046C040915D0676
:1016300050915E0660915F067091600622E0CE01D7
:101640000D960E94201C2091A6053091A70540917F
:10165000A8055091A9056091960570919705809114
:101660009805909199050E949B22AB01BC0122E054
:10167000CE0101960E94201CBE016F5F7F4FCE01FC
:10168000079631DDCE0107960E941419BE01635FF3
:101690007F4F0E94521A0E94A014CE010796E0DBF1
:1016A000CE0101960E941B1CCE010D960E941B1CB0
:1016B0002091890330918A032E5F3F4F30938A0334
:1016C0002093890384CF60918803FF24F3946F25CE
:1016D0006093880383E00E94141D0E9436198B01D9
:1016E000011581E0180709F484C0013081E0180772
:1016F00009F460C080913807811146C0C8010E947A
:10170000AD1978CF0E94721840915D0650915E0627
:1017100060915F067091600684E896E0A3DB8B0120
:101720009C0142E050E061E070E080E090E00E94C7
:10173000E8184091610650916206609163067091CD
:10174000640680EC96E08EDB8B019C0141E050E06A
:1017500060E070E082E090E00E94E8184091650649
:101760005091660660916706709168068CEF96E06E
:1017700079DB8B019C0142E050E060E070E081E0A9
:1017800090E00E94E81846CF70E080E090E00E9470
:10179000402920E030E04FE753E40E94612360934A
:1017A000A6057093A7058093A8059093A9050E94AC
:1017B0007E18A4CFF09238071092A6051092A705C4
:1017C0001092A8051092A9056B8B0E947E180E94AA
:1017D0008E1F1092AE050E94B414F092AE050E94C6
:1017E00072180E94381881E492E00E941F1F6B89D2
:1017F00081CF80913807882361F01092A60510925E
:10180000A7051092A8051092A9056B8B0E947E185F
:101810006B89109238076B8B0E94721888E292E0F5
:10182000E4CF2F923F924F925F926F927F928F926E
:101830009F92AF92BF92CF92DF92EF92FF920F935F
:101840001F93CF93DF93CDB7DEB7C059D1090FB641
:10185000F894DEBF0FBECDBF40E052EC61E070E017
:101860008DEE94E096DA40E855E260E070E080E5C5
:1018700094E08FDA8DEE94E00E94481A80E594E0BF
:101880000E94481A0E942C1A8BE692E00E941F1FA9
:1018900081B18F6081B91092200189E0809321018C
:1018A000809173008260809373001092A60510925D
:1018B000A7051092A8051092A9050E9472180E940F
:1018C0007A1488E18093B800F3D7EBD76EE170E02B
:1018D00080E090E00E94B51DDDD741E061E080E14D
:1018E0000E94991F86E00E94941FBFD740E060E0ED
:1018F00080E00E94991F95D785D7B82E74D7E82E1F
:1019000063D7F82E8FE753D758D788E650D748D7F4
:1019100064E170E080E090E00E94B51D35D7811150
:101920003EC081E08093CC058FE293E00E941F1FB0
:1019300010E01093770686E992E00E941F1F109135
:101940007706111135C01093770684E090E09093EC
:101950007606809375060E9438188091770681116B
:1019600024C080E293E00E941F1FC057DF4F0FB6D4
:10197000F894DEBF0FBECDBFDF91CF911F910F91C5
:10198000FF90EF90DF90CF90BF90AF909F908F909F
:101990007F906F905F904F903F902F90089577D6F3
:1019A000182F81111DC182E0BDCF80E193E0DBCF14
:1019B0008DEB92E00E941F1F0E94ED1D4B015C0108
:1019C00004C0D2D7019709F4FCC00E94ED1DDC01D0
:1019D000CB0188199909AA09BB0980339547A1054C
:1019E000B10578F31092AE051092450610924606A6
:1019F00010924706109248061092490610924A0625
:101A000010924B0610924C0610924D0610924E0604
:101A100010924F061092500684E6282E312CBFC03B
:101A200020E030E048EC52E460915106709152069B
:101A300080915306909154060E9461239B01AC0152
:101A40006091390670913A0680913B0690913C0670
:101A50000E949B226093390670933A0680933B065E
:101A600090933C0620E030E048EC52E4609155064B
:101A70007091560680915706909158060E946123F6
:101A80009B01AC0160913D0670913E0680913F063E
:101A9000909140060E949B2260933D0670933E0603
:101AA00080933F069093400620E030E048EC52E4FB
:101AB0006091590670915A0680915B0690915C0680
:101AC0000E9461239B01AC01609141067091420626
:101AD00080914306909144060E949B2260934106A8
:101AE00070934206809343069093440620915D06CE
:101AF00030915E0640915F06509160066091450608
:101B00007091460680914706909148060E949B225C
:101B10006B017C01609345067093460680934706EF
:101B200090934806209161063091620640916306C9
:101B3000509164066091490670914A0680914B0667
:101B400090914C060E949B222B013C016093490618
:101B500070934A0680934B0690934C06209165063D
:101B600030916606409167065091680660914D0677
:101B700070914E0680914F06909150060E949B22D4
:101B80004B015C0160934D0670934E0680934F06A7
:101B90009093500681E0281A310809F488C0E4D6F1
:101BA000019709F03DCF60EF72E0CE0101960E94EF
:101BB0005C1CCE010196C4D6CE0101960E941B1C6E
:101BC000C2CE60EF72E0CE0101960E945C1CCE0195
:101BD0000196B6D6CE0101960E941B1C10E0B3CE32
:101BE00083E00E94D3200E94CE200E94C9200E9440
:101BF000BF200E94B52083E00E94AB200E94A62057
:101C00000E94A1200E949B208B2D0E9491208E2D4E
:101C10000E9487208F2D0E947D20E12CF12CF7015E
:101C2000EA5CFE4FE491A1E8B0E0AC0FBD1FAE0D41
:101C3000B11DEC9321E02E0D8FEFE81AF80A83E036
:101C40008E1568F7CD57DF4F6881C358D04070E0DC
:101C5000CB01029630E0821793070CF700E0CE57D5
:101C6000DF4F2881C258D040CF57DF4F4881C1583D
:101C7000D04081E890E08C0F9D1F03960E94A31F27
:101C800020E080E090E0F701EA5CFE4FE491A1E8FB
:101C9000B0E0AC0FBD1FA80FB91FEC932F5F8FEF03
:101CA000E81AF80A2430C0F5822F90E0ECCF20E04B
:101CB00030E048EC52E4C701B6010E946123609312
:101CC000450670934606809347069093480620E0A9
:101CD00030E048EC52E4C301B2010E9461236093FA
:101CE000490670934A0680934B0690934C0620E079
:101CF00030E048EC52E4C501B4010E9461236093D6
:101D00004D0670934E0680934F069093500681E0E7
:101D10008093AE0529D617CECD57DF4F6881C358C3
:101D2000D04070E0AB014E5F5F4F822F90E04817CC
:101D300059070CF0A8CF00E0CE57DF4F2881C258DA
:101D4000D040CF57DF4F4881C158D04081E890E064
:101D50008C0F9D1F03960E94A31F0E948E1F0E943E
:101D60006320682FCE0101960E9455200E944422D4
:101D70000E943F220E943A220E9435220E948E1F1A
:101D80000E942F2281E00E94881F0E94292220E0C9
:101D900080E090E0F701EA5CFE4FE491A1E8B0E05A
:101DA000AC0FBD1FA80FB91FEC932F5F8FEFE81A80
:101DB000F80A243018F4822F90E0ECCFCD57DF4F93
:101DC0006881C358D04070E0AB014E5F5F4F822FF7
:101DD00090E048175907F4F600E0CE57DF4F28810E
:101DE000C258D040CF57DF4F4881C158D04081E81A
:101DF00090E08C0F9D1F03960E94A31F20E080E0BF
:101E000090E0F701EA5CFE4FE491A1E8B0E0AC0F8E
:101E1000BD1FA80FB91FEC932F5F8FEFE81AF80AC8
:101E2000243018F4822F90E0ECCFCD57DF4F68813B
:101E3000C358D04070E0AB014E5F5F4F822F90E0FF
:101E400048175907F4F600E0CE57DF4F2881C258F3
:101E5000D040CF57DF4F4881C158D04081E890E053
:101E60008C0F9D1F03960E94A31F20E080E090E04E
:101E7000F701EA5CFE4FE491A1E8B0E0AC0FBD1FB2
:101E8000A80FB91FEC932F5F8FEFE81AF80A2430E0
:101E900018F4822F90E0ECCFCD57DF4F6881C35804
:101EA000D04070E0AB014E5F5F4F822F90E048174B
:101EB0005907F4F600E0CE57DF4F2881C258D040D2
:101EC000CF57DF4F4881C158D04081E890E08C0F58
:101ED0009D1F03960E94A31F0E94632083309105DB
:101EE000D8F3682FCE0101960E9455200E94B5219B
:101EF00020E080E090E0F701EA5CFE4FE491A1E889
:101F0000B0E0AC0FBD1FA80FB91FEC932F5F8FEF90
:101F1000E81AF80A243018F4822F90E0ECCFCD575D
:101F2000DF4F6881C358D04070E0AB014E5F5F4F18
:101F3000822F90E048175907F4F6CE57DF4F2881DB
:101F4000C258D040CF57DF4F4881C158D04081E8B8
:101F500090E08C0F9D1F03960E94CA210E9463206F
:101F600083309105D8F3682FCE0101960E94552049
:101F70000E94B521F701EA5CFE4F80E020E030E0EE
:101F80009491A1E8B0E0AC0FBD1FA20FB31F9C93CA
:101F90008F5F843020F4282F30E03196F1CFCD5779
:101FA000DF4F6881C358D04070E0AB014E5F5F4F98
:101FB000282F30E04217530784F700E0CE57DF4F59
:101FC0002881C258D040CF57DF4F4881C158D040F8
:101FD00081E890E08C0F9D1F03960E94A31F80E074
:101FE0000E94881F8AE290E09093BA058093B90519
:101FF0000E948E1F0E94B5211092CC0581E00E94A4
:10200000881F1092AE0581E08093CA058091B905C2
:102010009091BA059093CE058093CD058AE792E022
:102020000E941F1F86CC8F929F92AF92BF92CF9239
:10203000DF92EF92FF920F931F93CF93DF93EC0108
:102040001C8A1D8A1E8A1F8A188E81960E94C506C8
:102050001CAAFE01E558FF4F80E090E0A0E8BFE336
:1020600080839183A283B3831482158216821782A0
:102070001086118612861386148615861686178694
:102080007096118210821382128215821482369603
:102090001182108213821282158214823696108267
:1020A0001182128213821482158216821782108680
:1020B0001186128613868E0102511F4F80E090E038
:1020C000A0E0BFE3F80180839183A283B3831482ED
:1020D0001582168217821086118612861386148640
:1020E000158616861786108A118A128A138A148A10
:1020F000158A168A178A15A214A2108E118E128EB6
:10210000138E148E158E168E178E10A211A212A287
:1021100013A20E94901DF80166AB77AB80AF91AF20
:10212000045C1F4F812C912C80E8A82E8EE3B82EE2
:10213000F80180829182A282B38214821582168273
:102140001782C12C90E4D92E9CE9E92E97E4F92E50
:10215000C086D186E286F386148615861686178693
:10216000108A118A128A138A148A158A168A178A83
:1021700015A214A2108E118E128E138E148E158E2F
:10218000168E178E10A211A212A213A20E94901DE9
:10219000F80166AB77AB80AF91AF045C1F4FF801DD
:1021A00080829182A282B382148215821682178263
:1021B000C086D186E286F386148615861686178633
:1021C000108A118A128A138A148A158A168A178A23
:1021D00015A214A2108E118E128E138E148E158ECF
:1021E000168E178E10A211A212A213A20E94901D89
:1021F000F80166AB77AB80AF91AFCE55DE4F81E093
:102200008883DF91CF911F910F91FF90EF90DF9026
:10221000CF90BF90AF909F908F900895CF93DF9312
:10222000EC011EA21FA218A619A6188A198A1A8ADA
:102230001B8A1C8A1D8A1E8A1F8A1DA21CA2188E38
:10224000198E1A8E1B8E1C8E1D8E1E8E1F8E18A22E
:1022500019A21AA21BA20E94901D6EAB7FAB88AF81
:1022600099AFDF91CF9108954F925F926F927F92D5
:102270008F929F92AF92BF92CF92DF92EF92FF9296
:102280006B017C0120E030E040E85FE30E941F2406
:1022900018160CF055C0A701960160E070E080E8C8
:1022A0009FE30E9461236B017C014B015C01E89478
:1022B000B7F828ED3FE049E45FE30E949F292B0136
:1022C0003C0120E030E040E85FE3C501B4010E943A
:1022D0009A229B01AC01C701B6010E949F296B01A4
:1022E0007C012BE438EC47E85DE3C501B4010E94B2
:1022F0009F2923EA32E94AE75EE30E949B229B0181
:10230000AC01C701B6010E949F299B01AC01C3012A
:10231000B2010E949A229B01AC016AED7FE089EC38
:102320009FE30E949A22FF90EF90DF90CF90BF90A2
:10233000AF909F908F907F906F905F904F90089597
:1023400046015701E894B7F828ED3FE049E45FE320
:10235000C701B6010E949F292B013C0120E030E01B
:1023600040E85FE3C501B4010E949A229B01AC01E1
:10237000C701B6010E949F296B017C012BE438EC58
:1023800047E85DE3C501B4010E949F2923EA32E9D1
:102390004AE75EE30E949B229B01AC01C701B601A4
:1023A0000E949F299B01AC01C301B201BACF1F92C9
:1023B0000F920FB60F9211240BB60F922F933F93EB
:1023C0004F936F937F938F939F93EF93FF9382B17C
:1023D000807F82B98091870390E00196837099276E
:1023E00080938703FC01EE0FFF1FEE50FC4F20810E
:1023F0003181309329012093280142B121E030E05E
:10240000B90102C0660F771F8A95E2F7CB01842BD2
:1024100082B9FF91EF919F918F917F916F914F9131
:102420003F912F910F900BBE0F900FBE0F901F90FA
:1024300018950F931F93CF93DF93EC01FC01EE0FE0
:10244000FF1FEE0FFF1FEA56FA4F10821182128211
:10245000138220E030E0A9016091A6057091A705E4
:102460008091A8059091A9050E949B2220E034E765
:1024700040E656E40E949F290E94CE238B01035E12
:102480001A4BB80180E090E00E943E292DEC3CE51B
:1024900048EC56E40E941F2418166CF4CC0FDD1F84
:1024A000CE50DC4F8EE294E699838883DF91CF9102
:1024B0001F910F9108950D3185E4180738F4CC0F62
:1024C000DD1FCE50DC4F8DE195E4EECFFE01EE0F27
:1024D000FF1FEE50FC4F11830083E8CFCF92DF92B5
:1024E000EF92FF920F931F93CF93DF93EC01CB01F9
:1024F000BA018E01000F111F000F111F0A561A4F4B
:10250000F80120813181428153810E949B226B011D
:102510007C0120E030E040E85FE30E941F241816B1
:102520000CF04BC080E090E0A0E8BFE3F8018083AE
:102530009183A283B3836C017D012091A605309124
:10254000A7054091A8055091A905C701B6010E94B1
:102550009B2220E034E740E656E40E949F290E9437
:10256000CE238B01035E1A4BB80180E090E00E94FD
:102570003E292DEC3CE548EC56E40E941F24181639
:102580008CF4CC0FDD1FCE50DC4F8EE294E69983A5
:102590008883DF91CF911F910F91FF90EF90DF9093
:1025A000CF9008950D31F5E41F0768F4CC0FDD1FBF
:1025B000CE50DC4F8DE195E4EACFF801C082D182A4
:1025C000E282F382BACFFE01EE0FFF1FEE50FC4F06
:1025D00011830083DECFEF92FF920F931F93CF936F
:1025E000DF931F92CDB7DEB77A0189019E012F5F7D
:1025F0003F4F41E00E948D08882339F029812E77D2
:1026000030E035952795F70120830F90DF91CF912A
:102610001F910F91FF90EF9008950F931F930E94C9
:10262000ED1D609358047093590480935A0490935D
:102630005B04E0915004F09151040084F185E02D99
:1026400080E594E0199597FF1FC00E94ED1D009151
:1026500058041091590420915A0430915B04DC0114
:10266000CB01801B910BA20BB30B00915404109172
:102670005504209156043091570480179107A20702
:10268000B307B8F28FEF9FEF1F910F910895AF92AC
:10269000BF92DF92EF92FF920F931F93CF93DF933E
:1026A0001F921F92CDB7DEB788E090E00E9484248D
:1026B000D82E192FA12CB12CF501E255F64F4491DB
:1026C000F501E155F64F2491750183E0E80EF11C08
:1026D000F501E055F64FE491EE2351F1AE2EB12C09
:1026E000E33058F0B5018D2D912F2A8349830E9444
:1026F000B125D82E192F49812A81AD2DB12F80E027
:1027000090E08A159B0548F4F701E80FF91FE255A0
:10271000F64FE491ED930196F4CF00E0B5018D2DD5
:10272000912F0E94A31FAE0CBF1C811117C010C0B7
:1027300084E0A80EB11CF701E255F64FE491E130B8
:1027400039F442E368E38091B7050E947C1E06C01D
:102750008D2D912F0E94192580E00AC080ECA816CB
:10276000B10408F4A9CF8D2D912F0E94192581E085
:102770000F900F90DF91CF911F910F91FF90EF90ED
:10278000DF90BF90AF9008950F9301E020E040E00C
:1027900069E877E085E292E00E94A31F0F91089517
:1027A00021E041E06AE68091B7050C94D51E482FE0
:1027B00065E28091B7050C947C1E20E045E06AE656
:1027C0008091B7050C94D51ECF93DF93C6E9D5E071
:1027D00028EE33E048EB55E062E089A1FCDE8AA1F7
:1027E000DF91CF910895CF93DF93C6E9D5E028EE2E
:1027F00033E048EB55E061E089A1EDDE8AA1DF918D
:10280000CF910895CF93DF93C6E9D5E028EE33E06A
:1028100048EB55E060E089A1DEDE8AA1DF91CF912F
:102820000895EF92FF920F931F93CF93DF931F9220
:10283000CDB7DEB786E9E82E85E0F82E08EE13E086
:102840009E012F5F3F4F41E060E0F70181A10E94B0
:102850008D0889818170F70182A30F90DF91CF915C
:102860001F910F91FF90EF9008950F931F93CF93B7
:10287000DF93C6E9D5E008EE13E028EB35E041E050
:102880006FE689A10E948D088AA1DF91CF911F91E7
:102890000F91089520E046E06BE68091B7050C9417
:1028A000D51E21E047E06BE68091B7050C94D51E5C
:1028B0000F93CF93DF93C6E9D5E001E023E042E038
:1028C0006BE689A10E948B1E00E022E044E06BE1F0
:1028D00089A10E948B1E22E044E06CE189A10E9444
:1028E0008B1E20E046E06BE689A1DF91CF910F912E
:1028F0000C94D51E1092FB031092FA0310922D0433
:1029000010924F0410922B0481E080932A041092BD
:10291000050461E084E10E94141D61E085E10E94EC
:10292000141DE9EBF0E080818E7F808380818D7FB4
:10293000808388E48093B80085E48093BC00089588
:10294000CF93DF93FC01448155816081718180E5E3
:1029500094E0F7D5EC0186E493E00E940E1F8C0F03
:102960009D1FDF91CF9108952F923F924F925F92DA
:102970006F927F928F929F92AF92BF92CF92DF928F
:10298000EF92FF920F931F93CF93DF93CDB7DEB7F4
:10299000A0970FB6F894DEBF0FBECDBF8091CA05D9
:1029A00081111BC081E090E0A0960FB6F894DEBFC5
:1029B0000FBECDBFDF91CF911F910F91FF90EF9090
:1029C000DF90CF90BF90AF909F908F907F906F904F
:1029D0005F904F903F902F9008950E9463209093B6
:1029E000D0058093CF056091CD057091CE058617F7
:1029F000970798F38115944009F4F4C281ED95E0AE
:102A00000E9455200E948E1FB1ED2B2EB5E03B2E6B
:102A10002114310409F40AC3E1EDF5E0C480D12C9E
:102A2000DC2CCC248581C80ED11CE084F12CFE2C3A
:102A3000EE248185E80EF11C048510E0102F00279C
:102A40008585080F111D608170E0762F66278181D2
:102A5000680F711D072E000C880B990B0E944029EE
:102A600020E030E040E858E30E949F292B013C0120
:102A700060931106709312068093130690931406C8
:102A8000B601DD0C880B990B0E94402920E030E054
:102A900040E858E30E949F294B015C0160931506B2
:102AA000709316068093170690931806B701FF0CD3
:102AB000880B990B0E94402920E030E040E858E361
:102AC0000E949F296F83788789879A876093190668
:102AD00070931A0680931B0690931C06B801110F81
:102AE000880B990B0E94402920E030E040E858E331
:102AF0000E949F296B877C878D879E8760931D0628
:102B000070931E0680931F06909320069B01AC01D4
:102B1000C501B4010E949F296B017C012F8138857A
:102B200049855A85C301B2010E949F299B01AC01CE
:102B3000C701B6010E949A229B01AC010E949B2210
:102B40006F87788B898B9A8B60932D0670932E06F6
:102B500080932F0690933006A5019401C301B20122
:102B60000E949F296B017C012B853C854D855E85EC
:102B70006F81788589859A850E949F299B01AC0188
:102B8000C701B6010E949B229B01AC010E949B22BF
:102B90006B8B7C8B8D8B9E8B609331067093320692
:102BA0008093330690933406A3019201C301B201CE
:102BB0000E949F296B017C01A5019401C501B4010C
:102BC0000E949F299B01AC01C701B6010E949A2275
:102BD0006B017C012F81388549855A85CA01B9016D
:102BE0000E949F299B01AC01C701B6010E949A2255
:102BF0006B017C012B853C854D855E85CA01B90141
:102C00000E949F299B01AC01C701B6010E949B2233
:102C10006B8F7C8F8D8F9E8F6093350670933606F9
:102C20008093370690933806232809F404C2E1ED17
:102C3000F5E0048D10E0102F0027858D080F111D81
:102C4000109322060093210660A170E0762F66277C
:102C500081A1DB01A80FB11DB8A3AF8FB0932406EB
:102C6000A093230664A170E0762F662785A11B013F
:102C7000280E311C3092260620922506A3019201CF
:102C8000C301B2010E949B226F8B788F898F9A8F2C
:102C9000A5019401C501B4010E949B226B017C0136
:102CA0002F89388D498D5A8DC301B2010E949F2909
:102CB0002B013C01A7019601C501B4010E949F2987
:102CC0009B01AC01C301B2010E949B2220E030E0D5
:102CD00040E85FE30E949A224B015C01A701960144
:102CE0006F81788589859A850E949F296B017C0177
:102CF0002F89388D498D5A8D6B857C858D859E8574
:102D00000E949F299B01AC01C701B6010E949A2233
:102D1000A50194010E940E234B015C01609369069A
:102D200070936A0680936B0690936C062B8D3C8D96
:102D30004D8D5E8DCA01B9010E949F296B017C01F6
:102D40002B893C894D895E89CA01B9010E949F295E
:102D5000A70196010E949B220E942E249B01AC0198
:102D60006F85788989899A890E9461237DDA2B0190
:102D70003C0160936D0670936E0680936F0690938E
:102D800070062F85388949895A89CA01B9010E947C
:102D90009F299B01AC01C701B6010E949B220E94A2
:102DA0002E249B01AC016B897C898D899E890E94B0
:102DB00061235ADA6F8B788F898F9A8F60937106AF
:102DC000709372068093730690937406B801110F86
:102DD000880B990B0E9440296B017C0120E030E0B8
:102DE00040E056E46F85788989899A890E949F29F5
:102DF0009B01AC01C701B6010E949A220E94C9231F
:102E000078876F8370932806609327062F8D38A1EB
:102E1000B901330F880B990B0E9440296B017C018B
:102E200020E030E040E056E46B897C898D899E8902
:102E30000E949F299B01AC01C701B6010E949A2202
:102E40000E94C9237C876B8770932A0660932906AA
:102E5000B101330C880B990B0E9440296B017C0156
:102E600020E030E040E056E46B8D7C8D8D8D9E8DB2
:102E70000E949F299B01AC01C701B6010E949A22C2
:102E80000E94C9238B0170932C0660932B068091BE
:102E9000AE05882309F4C0C020915D0630915E061E
:102EA00040915F0650916006C501B4010E949A22CC
:102EB0004B015C0120E030E0A9010E941F2418169C
:102EC0000CF0BEC020E030E040E05FE3C501B4019B
:102ED0000E943A2987FF42C0209161063091620624
:102EE0004091630650916406C301B2010E949A2288
:102EF0004B015C0120E030E0A9010E941F2418165C
:102F00000CF0AAC020E030E040E05FE3C501B4016E
:102F10000E943A2987FF22C02091650630916606FB
:102F200040916706509168066F89788D898D9A8DDA
:102F30000E949A224B015C0120E030E0A9010E942E
:102F40001F2418160CF05DC020E030E040E05FE385
:102F5000C501B4010E943A2987FD5EC086E793E06F
:102F60006ED7809127069091280698878F83A0912D
:102F70002906B0912A06BC87AB8700912B061091D9
:102F80002C062F813885B901330F880B990B0E94CD
:102F90004029609351067093520680935306909394
:102FA0005406AB85BC85BD01BB0F880B990B0E94F5
:102FB0004029609355067093560680935706909368
:102FC0005806B801110F880B990B0E944029609395
:102FD000590670935A0680935B0690935C0680E0D6
:102FE00090E0E2CC9BD769E473E0CE01019664D413
:102FF000CE010196A5DCCE0101961DD482E090E0C1
:10300000D3CC20E030E040E05FEBC501B4010E948A
:103010001F2418160CF0A2CF8CE0E9E6F6E0ADE52F
:10302000B6E001900D928A95E1F7ABCFE091B7053C
:10303000F091B805F3CCE091B705F091B805F9CD62
:1030400020E030E040E05FEBC501B4010E941F24A6
:1030500018160CF083CF40CF20E030E040E05FEB6B
:10306000C501B4010E941F2418160CF077CF54CF6D
:103070007BDC80915D0690915E06A0915F06B09129
:1030800060068093900690939106A0939206B09369
:1030900093068091610690916206A0916306B091BB
:1030A00064068093CC069093CD06A093CE06B09391
:1030B000CF068091650690916606A0916706B09153
:1030C00068068093080790930907A0930A07B093B6
:1030D0000B0784E896E0A2D880EC96E09FD88CEFAE
:1030E00096E09CC880E090E0A4D981E090E0A1D96E
:1030F00082E090E09ED983E090E09BC94F925F927E
:103100006F927F92AF92BF92CF92DF92EF92FF9237
:103110000F931F93CF93DF934090A6055090A70580
:103120006090A8057090A90586E9E82E85E0F82E44
:1031300002EF13E09DE1C92E95E4D92E2EE2A22ED6
:1031400024E6B22EF70161917191819191917F01F5
:10315000A30192010E949B2220E034E740E656E45E
:103160000E949F290E94CE23EB01C35EDA4BBE0171
:1031700080E090E00E943E292DEC3CE548EC56E4CE
:103180000E941F241816C4F4F801B182A0820E5FB9
:103190001F4FF3E00A3F1F07A9F6DF91CF911F9160
:1031A0000F91FF90EF90DF90CF90BF90AF907F9006
:1031B0006F905F904F900895CD31F5E4DF0720F4D4
:1031C000F801D182C082E3CFF801D183C083DFCF81
:1031D000AF92BF92CF92DF92EF92FF920F931F9325
:1031E000CF93DF935B01EA0168017901B901A8017E
:1031F00075D9B701A60183E090E070D9F7FAF09491
:10320000F7F8F094B701A601C50168D9B701A60186
:10321000CE01DF91CF911F910F91FF90EF90DF9042
:10322000CF90BF90AF905AC90F931F93CF93DF9366
:10323000EC010C811D810D5F1F4FB801C3D28823A3
:1032400069F0288139818C819D8161E873E0820F6A
:10325000931F0E94AF261D830C8302C0CE01D9D2DA
:10326000CE01DF91CF911F910F910895FF920F939F
:103270001F93CF93DF9300D01F92CDB7DEB7CDD988
:10328000FC0197FD11C08D32910591F0C0970A970E
:1032900078F0E0915004F09151040680F781E02D20
:1032A00080E594E01995EBCF60E070E0CB014BC076
:1032B00020E030E0A901F12CE130F105F1F0ED3230
:1032C000F105C9F0CF01C0970A97B8F4AAE0B0E0C1
:1032D0000E94532A8F01FF0F220B330BDC01CB011D
:1032E000800F911FA21FB31F9C01AD012053310914
:1032F0004109510902C0FF24F394E0915004F09178
:1033000051040680F781E02D80E594E029833A831B
:103310004B835C83199581D9FC01C09729813A813F
:103320004B815C810A9740F2E130F10529F2FF20E0
:1033300041F066277727CB01621B730B840B950B3B
:1033400002C0CA01B9010F900F900F900F90DF914A
:10335000CF911F910F91FF9008958F929F92AF92FE
:10336000BF92CF92DF92EF92FF920F931F93CF9372
:10337000DF93CDB7DEB7A1970FB6F894DEBF0FBECF
:10338000CDBF6C01990FEE08FF08F7FE30C0E09149
:103390005004F09151040190F081E02D6DE280E540
:1033A00094E019958C0122273327A9012C193D0996
:1033B0004E095F0919A2CE0181967C019AE0892EFF
:1033C000912CA12CB12CCA01B901A50194010E9434
:1033D0005C22605DF70162937F0121153105410593
:1033E000510589F7CF011AD5080F191F1DC0A70174
:1033F000960119A28E010F5D1F4F8AE0C82ED12CB5
:10340000E12CF12CCA01B901A70196010E945C22AE
:10341000605DF80162938F01211531054105510569
:1034200089F7CF01FBD48C0186E493E0F7D4800FB9
:10343000911FA1960FB6F894DEBF0FBECDBFDF91EE
:10344000CF911F910F91FF90EF90DF90CF90BF90A1
:10345000AF909F908F900895E2EEF1E02491ECE917
:10346000F1E08491882399F090E0880F991FFC0186
:10347000E158FE4FA591B491FC01EB59FE4F8591A7
:1034800094918FB7F894EC91E22BEC938FBF089551
:1034900045E050E060E070E0FC01448355836683C2
:1034A00077830895EF92FF920F931F93CF93DF934B
:1034B000EC01FB0184819581E080F1800C811D810C
:1034C000E114F104A9F00097A9F0080F191FB80141
:1034D000CE0178D1882361F0288139818C819D814A
:1034E000B701820F931F0E94AF261D830C8302C079
:1034F000CE018FD1CE01DF91CF911F910F91FF901F
:10350000EF900895EF92FF920F931F93CF93DF9365
:10351000EC017B018A01BA0155D1811103C0CE01B2
:1035200078D107C01D830C83B701888199810E94DF
:10353000AF26CE01DF91CF911F910F91FF90EF90B9
:103540000895CF92DF92EF92FF920F931F93CF9344
:10355000DF936C017A018B01C0E0D0E0CE15DF056E
:1035600089F0D8016D918D01D601ED91FC9101900A
:10357000F081E02DC6011995892B11F47E0102C05E
:103580002196ECCFC701DF91CF911F910F91FF9052
:10359000EF90DF90CF900895FC01A089B1898C91C4
:1035A000A689B78982FD0FC09C91818D8F5F8F7333
:1035B000228D821749F0218DDF01A20FB11D5D968A
:1035C0009C93818F08958C910895FC01918D828D3B
:1035D000981761F0828DDF01A80FB11D5D968C9167
:1035E000928D9F5F9F73928F90E008958FEF9FEF72
:1035F0000895FC01918D828D981731F0828DE80F2E
:10360000F11D858D90E008958FEF9FEF0895FC01E7
:10361000918D228D892F90E0805C9F4F821B9109B4
:103620008F739927089580E594E0F1DF21E0892BDD
:1036300009F420E0822F08958DEE94E0E8DF21E088
:10364000892B09F420E0822F0895FC01848DDF018D
:10365000A80FB11DA35ABF4F2C91848D90E0019605
:103660008F739927848FA689B7892C93A089B189F4
:103670008C9180648C93938D848D981306C00288FE
:10368000F389E02D80818F7D80830895EF92FF92F2
:103690000F931F93CF93DF93EC0181E0888F9B8D75
:1036A0008C8D981305C0E889F989808185FD23C038
:1036B000F62E0B8D10E00F5F1F4F0F731127E02EBA
:1036C0008C8DE8120BC00FB607FCFACFE889F98998
:1036D000808185FFF5CFCE01B8DFF2CF8B8DFE0163
:1036E000E80FF11DE35AFF4FF0820B8FEA89FB8947
:1036F0008081806207C0EE89FF896083E889F9894B
:1037000080818064808381E090E0DF91CF911F9180
:103710000F91FF90EF900895CF93DF93EC01888D88
:103720008823C1F0EA89FB89808185FD05C0A889CD
:10373000B9898C9186FD0EC00FB607FCF5CF80814C
:1037400085FFF2CFA889B9898C9185FFEDCFCE0195
:103750007CDFE8CFDF91CF91089580E090E0892B66
:1037600019F06ADF811120C080E090E0892B19F008
:103770005ADF81111CC080E090E0892B41F080E08D
:1037800090E0892B21F00E940000811113C080E09D
:1037900090E0892BA1F080E090E0892B81F00E94DD
:1037A000000081110AC008950E940000DDCF0E9430
:1037B0000000E1CF0E940000EACF0C9400000895C1
:1037C0000E9495260F931F93CF93DF93EC0188817E
:1037D0009981009729F02A813B812617370788F4C1
:1037E0008B016F5F7F4F0E94B125009761F0998335
:1037F00088831B830A832C813D81232B11F4FC01D8
:10380000108281E001C080E0DF91CF911F910F9184
:103810000895CF93DF93EC0188819981009711F08F
:103820000E941925198218821D821C821B821A820D
:10383000DF91CF910895FC01808191810C9419252D
:10384000EF92FF920F931F93CF93DF93CDB7DEB725
:10385000A1970FB6F894DEBF0FBECDBF7C01CB01A0
:10386000BA01F7011182108213821282158214822A
:1038700042E0420F8E010F5F1F4F0E94B626009755
:1038800061F0FC0101900020E9F73197AF01481B7E
:10389000590BBC01C70136DE02C0C701BADFA196D1
:1038A0000FB6F894DEBF0FBECDBFDF91CF911F9151
:1038B0000F91FF90EF900895FC0111821082138206
:1038C0001282158214826115710549F0FB01019085
:1038D0000020E9F73197AF01461B570B13CE08952F
:1038E0001F920F920FB60F9211240BB60F922F93C7
:1038F0003F934F935F936F937F938F939F93AF9378
:10390000BF93EF93FF9380E594E09FDEFF91EF91EB
:10391000BF91AF919F918F917F916F915F914F91E7
:103920003F912F910F900BBE0F900FBE0F901F90E5
:1039300018951F920F920FB60F9211240BB60F928B
:103940002F933F934F935F936F937F938F939F93A7
:10395000AF93BF93EF93FF9380E594E01DDEFF915B
:10396000EF91BF91AF919F918F917F916F915F91F7
:103970004F913F912F910F900BBE0F900FBE0F9064
:103980001F9018951F920F920FB60F9211240BB62D
:103990000F922F933F934F935F936F937F938F93E8
:1039A0009F93AF93BF93EF93FF938DEE94E04DDE23
:1039B000FF91EF91BF91AF919F918F917F916F9107
:1039C0005F914F913F912F910F900BBE0F900FBEC3
:1039D0000F901F9018951F920F920FB60F921124FF
:1039E0000BB60F922F933F934F935F936F937F93F9
:1039F0008F939F93AF93BF93EF93FF938DEE94E0DC
:103A0000CBDDFF91EF91BF91AF919F918F917F910E
:103A10006F915F914F913F912F910F900BBE0F903F
:103A20000FBE0F901F901895362F90E0FC01E259C1
:103A3000F54F4491FC01E152FE4F2491FC01E75601
:103A4000FE4F9491992309F46AC0442309F454C0A9
:103A500050E0FA013197E231F10508F04DC08827B6
:103A6000EE58FF4F8F4F4AC5809180008F7707C077
:103A7000809180008F7D03C080918000877F80933C
:103A800080003AC084B58F7702C084B58F7D84BD35
:103A900033C08091B0008F7703C08091B0008F7DDC
:103AA0008093B00029C0809190008F7707C08091EB
:103AB00090008F7D03C080919000877F809390005D
:103AC0001BC08091A0008F7707C08091A0008F7DE0
:103AD00003C08091A000877F8093A0000DC08091DB
:103AE00020018F7707C0809120018F7D03C08091D6
:103AF0002001877F80932001E92FF0E0EE0FFF1F68
:103B0000EB59FE4FA591B4918FB7F894EC91311118
:103B100003C020952E2301C02E2B2C938FBF089518
:103B20003FB7F8948091010490910204A09103049E
:103B3000B091040426B5A89B05C02F3F19F001964B
:103B4000A11DB11D3FBFBA2FA92F982F8827820F23
:103B5000911DA11DB11DBC01CD0142E0660F771F73
:103B6000881F991F4A95D1F708958F929F92AF921F
:103B7000BF92CF92DF92EF92FF926B017C01D0DF78
:103B80004B015C01C114D104E104F104E9F0C8DF88
:103B9000DC01CB0188199909AA09BB09883E934029
:103BA000A105B10578F321E0C21AD108E108F108B6
:103BB00088EE880E83E0981EA11CB11CC114D104AC
:103BC000E104F10421F7DECFFF90EF90DF90CF907A
:103BD000BF90AF909F908F9008952FB7F894609109
:103BE000FD037091FE038091FF03909100042FBFAD
:103BF00008951F920F920FB60F9211242F933F93A7
:103C00008F939F93AF93BF938091FD039091FE0399
:103C1000A091FF03B09100043091FC0323E0230F37
:103C20002D3720F40196A11DB11D05C026E8230FF4
:103C30000296A11DB11D2093FC038093FD03909378
:103C4000FE03A093FF03B0930004809101049091C0
:103C50000204A0910304B09104040196A11DB11DBA
:103C60008093010490930204A0930304B09304048E
:103C7000BF91AF919F918F913F912F910F900FBE68
:103C80000F901F901895EF92FF920F931F93CF9371
:103C9000DF931F921F92CDB7DEB7142F91E0909360
:103CA0002C0480934E0410922D0410924F048AE845
:103CB00095E029833A830E9497062981022FE22EFC
:103CC0003A81F32E8E2D801B811740F4F70161910C
:103CD0007F018AE895E00E949706F4CFBCD091E07E
:103CE000811190E0892F0F900F90DF91CF911F915C
:103CF0000F91FF90EF900895CF93DF931F92CDB770
:103D0000DEB749839E012F5F3F4F41E0BCDF0F903C
:103D1000DF91CF910895BF92CF92DF92EF92FF9201
:103D20000F931F93CF93DF931F92CDB7DEB7F82E7B
:103D3000E62EC42EB22ED02E08EE13E09E012F5F89
:103D40003F4F41E00E948D08882319F1EC2DF0E0EF
:103D5000EB19F109319621E030E002C0220F331F48
:103D6000BA94E2F7215031090E2E01C0220F0A94B5
:103D7000EAF78D2D01C0880FEA95EAF7422F4095AA
:103D8000998149232823422B49836E2D8F2DB4DF3F
:103D900001C080E00F90DF91CF911F910F91FF90B4
:103DA000EF90DF90CF90BF900895CF92DF92EF9287
:103DB000FF920F931F93CF93DF931F92CDB7DEB780
:103DC000F82EE62ED42EC22E08EE13E09E012F5FB1
:103DD0003F4F41E00E948D089981CC2041F041E0A5
:103DE00050E001C0440FDA94EAF7492B09C021E002
:103DF00030E0A90101C0440FDA94EAF74095492365
:103E000049836E2D8F2D78DF0F90DF91CF911F9119
:103E10000F91FF90EF90DF90CF900895009761F0A1
:103E2000FC0101900020E9F73197AF01481B590BC5
:103E3000BC0180E594E085CB80E090E00895CF93CD
:103E4000DF93ECDFEC0186E493E0E8DF8C0F9D1F4D
:103E5000DF91CF91089520914F0490914E0421322B
:103E600008F04AC080912B048111FCCF32E03093DE
:103E70002B0431E030932A043FEF30932904109251
:103E8000280420932704AEE2B4E047E054E0FA01AE
:103E90003E2F341B321718F43D913193F9CF109215
:103EA000060420910604990F922B9093060490919A
:103EB0000504913061F410920504909106049093EA
:103EC000BB009091BC0093FDF8CF95EC01C095EE3E
:103ED0009093BC0090912B049230E1F390912904CF
:103EE0009F3F79F080912904803241F0809129042C
:103EF000803331F084E005C081E003C082E001C07E
:103F000083E010922D0410924F0410922C04089517
:103F1000282F47E06AE68091B70547CF21E042E0CD
:103F20006AE68091B70541CF482F6EE68091B705CC
:103F3000E3CE8F714111806261118064482F6DE67C
:103F40008091B705D9CE2F923F924F925F926F9298
:103F50007F928F929F92AF92BF92CF92DF92EF9219
:103F6000FF920F931F93CF93DF933C015B01342E9D
:103F7000C22F202E4F716DE68091B705BDDE8C2FCC
:103F8000D3DF80E190E0C0D46C01002329F080E110
:103F900090E0BAD4582E492EE12CF12CEA14FB04FF
:103FA00008F065C0C7014096A816B90618F4DA2DC6
:103FB000DE1901C0D0E18D2F90E020E031E02C1B14
:103FC00031092817390714F4DC2FD195F301EE0DD0
:103FD000FF1D222059F0952DA52DB42D8A2F891B68
:103FE0008D1730F484918D933196F8CF5E2E4F2E3D
:103FF000252D342D4D2F6FE68091B70544DE8D2E93
:10400000912CC114D10401F1432D4F716DE68091C3
:10401000B70572DE8C2F88DF08EE13E096014D2F76
:104020006FE68091B7050E948D08A401B601852D29
:10403000942D7FD6892B41F0C601FBD42220F9F0C4
:10404000852D942DF6D41BC0E80CF91CCD0FEA1475
:10405000FB0408F0A3CFC11101C03394432D4F716D
:104060006DE68091B70548DE8C2F5EDF97CFC601E5
:10407000E0D4222031F0852D942DDBD402C080E0E5
:1040800001C081E0DF91CF911F910F91FF90EF90E0
:10409000DF90CF90BF90AF909F908F907F906F9068
:1040A0005F904F903F902F9008950F931F93462F4E
:1040B00005E010E09C0164E78091B7050E948D083F
:1040C0001F910F9108950F931F93CF93DF93C6E92C
:1040D000D5E008EE13E028EB35E042E062E789A185
:1040E0000E948D088AA190E0982F88272BA1822B0F
:1040F000DF91CF911F910F9108950F93082F26E024
:1041000046E062E08091B70506DE0F9108950F93B7
:10411000082F26E046E061E08091B705FCDD0F91B5
:1041200008950F93082F26E046E060E08091B705E0
:10413000F2DD0F91089520E040E060E08091B70546
:1041400034CE40E061E78091B705D6CD43E060E72B
:104150008091B705D1CD0F93082F22E044E06BE1A9
:104160008091B705D8DD0F9108950F9303E023E008
:1041700042E06AE18091B705CEDD0F9108950F937B
:1041800001E023E045E06AE18091B705C4DD0F91CD
:10419000089544E069E18091B705AECD42E168E35E
:1041A0008091B705A9CD0F93082F23E042E06BE67D
:1041B0008091B705B0DD0F910895789484B5826041
:1041C00084BD84B5816084BD85B5826085BD85B5BB
:1041D000816085BD80916E00816080936E00109239
:1041E00081008091810082608093810080918100B4
:1041F0008160809381008091800081608093800045
:104200008091B10084608093B1008091B0008160A2
:104210008093B000809191008260809391008091A2
:1042200091008160809391008091900081608093E3
:1042300090008091A10082608093A1008091A100F4
:1042400081608093A1008091A00081608093A00094
:104250008091210182608093210180912101816000
:1042600080932101809120018160809320018091C1
:104270007A00846080937A0080917A0082608093D3
:104280007A0080917A00816080937A0080917A0030
:10429000806880937A001092C1000E94110C0E94E5
:1042A000C20A5BDAFCCFE0E5F4E01382128288EE0A
:1042B00093E0A0E0B0E084839583A683B7832CE0ED
:1042C00032E0318320834DEC50E0558744874CEC3D
:1042D00050E05787468748EC50E0518B408B49ECC3
:1042E00050E0538B428B4AEC50E0558B448B4EECA4
:1042F00050E0578B468B118E128E138E148EEDEE7E
:10430000F4E01382128284839583A683B78331837A
:10431000208325EC30E03587248724EC30E0378794
:10432000268720EC30E0318B208B21EC30E0338B82
:10433000228B22EC30E0358B248B26EC30E0378B5F
:10434000268B118E128E138E148EEAE8F5E01382FE
:10435000128284839583A683B7838CE192E0918354
:10436000808386E995E00C9413100F931F93CF93ED
:10437000DF93C6E9D5E008EE13E028EB35E041E035
:104380006AE389A10E948D088AA1DF91CF911F91D4
:104390000F9108956F927F928F929F92BF92CF92CA
:1043A000DF92EF92FF920F931F93CF93DF934C0115
:1043B0006B01B42EF22E4F716DE68091B7059CDC37
:1043C0008F2DB2DDC0E0D0E0612C77247394CC1542
:1043D000DD0588F5CE014096C816D90618F4EC2CF8
:1043E000EC1A02C080E1E82E8E2D90E093012F1987
:1043F00031092817390714F4EF2CE19494012C0F9C
:104400003D1F08EE13E04E2D6FE68091B7050E9428
:104410008D08CE0DD11DFE0CCC15DD05C0F6F110BA
:1044200001C0B3944B2D4F716DE68091B70564DCEC
:104430008F2D7ADDCCCFDF91CF911F910F91FF901F
:10444000EF90DF90CF90BF909F908F907F906F9074
:10445000089521E043E06AE68091B705A6CC21E00B
:1044600046E06AE68091B705A0CC40E062E2809128
:10447000B70542CC40E560E28091B7053DCC4CE900
:1044800061E28091B70538CC42E06FE18091B705D9
:1044900033CC97FB072E16F4009406D077FD08D096
:1044A00035D007FC05D03EF4909581959F4F089537
:1044B000709561957F4F0895A1E21A2EAA1BBB1B30
:1044C000FD010DC0AA1FBB1FEE1FFF1FA217B307E0
:1044D000E407F50720F0A21BB30BE40BF50B661FF6
:1044E000771F881F991F1A9469F7609570958095BA
:1044F00090959B01AC01BD01CF010895EE0FFF1F08
:10450000881F8BBF0790F691E02D1994AA1BBB1B47
:1045100051E107C0AA1FBB1FA617B70710F0A61BC3
:10452000B70B881F991F5A95A9F780959095BC01E4
:10453000CD0108955058BB27AA270ED07AC76BD754
:1045400030F070D720F031F49F3F11F41EF460C7B3
:104550000EF4E095E7FB56C7E92F7CD780F3BA1736
:10456000620773078407950718F071F49EF594C7E6
:104570000EF4E0950B2EBA2FA02D0B01B90190017E
:104580000C01CA01A0011124FF27591B99F0593FC2
:1045900050F4503E68F11A16F040A22F232F342F0A
:1045A0004427585FF3CF469537952795A795F04058
:1045B0005395C9F77EF41F16BA0B620B730B840B6D
:1045C000BAF09150A1F0FF0FBB1F661F771F881F25
:1045D000C2F70EC0BA0F621F731F841F48F487957D
:1045E00077956795B795F7959E3F08F0B3CF93956C
:1045F000880F08F09927EE0F9795879508950BD7A8
:1046000058F080E891E009F49EEF0CD728F040E8DC
:1046100051E059F45EEF09C0FBC63EC7E92FE078D0
:1046200019D768F3092E052AC1F32617370748075B
:10463000590738F00E2E07F8E02569F0E025E06410
:104640000AC0EF6307F8009407FADB01B9019D0186
:10465000DC01CA01AD01EF9343D0EBD60AD05F91E4
:10466000552331F02BED3FE049E450FD49EC63CF99
:104670000895DF93DD27B92FBF7740E85FE3161673
:10468000170648075B0710F4D92FDDD09F938F934F
:104690007F936F9321D1E8E0F1E0ACD0CAD62F919F
:1046A0003F914F915F9157D6DD2349F09058A2EA90
:1046B0002AED3FE049EC5FE3D0785D274DDFDF91E5
:1046C000B8C60CD0B6C6AED640F0A5D630F021F4B0
:1046D0005F3F19F097C65111E0C69AC6BBD698F352
:1046E0009923C9F35523B1F3951B550BBB27AA2773
:1046F00062177307840738F09F5F5F4F220F331FE5
:10470000441FAA1FA9F333D00E2E3AF0E0E830D0B0
:1047100091505040E695001CCAF729D0FE2F27D0B3
:10472000660F771F881FBB1F261737074807AB0781
:10473000B0E809F0BB0B802DBF01FF2793585F4FF6
:104740002AF09E3F510568F05DC6A7C65F3FECF3B7
:10475000983EDCF3869577956795B795F7959F5FBB
:10476000C9F7880F911D9695879597F90895E1E00F
:10477000660F771F881FBB1F621773078407BA076E
:1047800020F0621B730B840BBA0BEE1F88F7E095C9
:10479000089504D06894B11180C6089563D688F056
:1047A0009F5790F0B92F9927B751A0F0D1F0660F1D
:1047B000771F881F991F1AF0BA95C9F712C0B13038
:1047C00081F06AD6B1E0089567C6672F782F8827F1
:1047D000B85F39F0B93FCCF3869577956795B39577
:1047E000D9F73EF490958095709561957F4F8F4FE6
:1047F0009F4F0895DF93CF931F930F93FF92EF92F4
:10480000DF927B018C01689405C0DA2EEF01A3D5FD
:10481000FE01E894A5912591359145915591AEF30E
:10482000EF019ADEFE019701A801DA9479F7DF9093
:10483000EF90FF900F911F91CF91DF9108955BD57D
:1048400008F48FEF08959B01AC0160E070E080E810
:104850009FE337CF11F40EF4DBC541C003D6D0F38C
:104860009923D9F3CEF39F57550B87FF46D00024E9
:10487000A0E640EA900180585695979528F4805C10
:10488000660F771F881F20F026173707480730F478
:10489000621B730B840B202931294A2BA695179490
:1048A0000794202531254A2758F7660F771F881F60
:1048B00020F026173707480730F4620B730B840B80
:1048C000200D311D411DA09581F7B901842F91580C
:1048D000880F9695879508959B01AC0130C59F3F41
:1048E00031F0915020F4879577956795B795880FAB
:1048F000911D9695879597F9089591505040660FB0
:10490000771F881FD2F70895CF93DF9382309105E8
:1049100010F482E090E0E0913F07F091400720E042
:1049200030E0C0E0D0E0309711F14081518148176C
:104930005907C0F04817590761F482819381209785
:1049400019F09B838A832BC09093400780933F0785
:1049500026C02115310519F04217530718F49A01A2
:10496000BE01DF01EF010280F381E02DDCCF2115D4
:10497000310509F1281B390B2430310590F41296CA
:104980008D919C9113976115710521F0FB01938323
:10499000828304C09093400780933F07FD013296C5
:1049A00044C0FD01E20FF31F81939193225031091E
:1049B0002D933C933AC020913D0730913E07232B25
:1049C00041F4209102023091030230933E0720937C
:1049D0003D0720910002309101022115310541F47B
:1049E0002DB73EB74091040250910502241B350BB0
:1049F000E0913D07F0913E07E217F307A0F42E1B6C
:104A00003F0B2817390778F0AC014E5F5F4F241732
:104A1000350748F04E0F5F1F50933E0740933D0708
:104A20008193919302C0E0E0F0E0CF01DF91CF915C
:104A300008950F931F93CF93DF93009709F48CC0D1
:104A4000FC0132971382128200913F0710914007B8
:104A50000115110581F420813181820F931F20916E
:104A60003D0730913E072817390779F5F0933E0747
:104A7000E0933D0771C0D80140E050E0AE17BF079A
:104A800050F412962D913C911397AD0121153105EB
:104A900009F1D901F3CF9D01DA01338322836081CB
:104AA0007181860F971F8217930769F4EC012881A3
:104AB0003981260F371F2E5F3F4F318320838A8134
:104AC0009B8193838283452B29F4F0934007E093E5
:104AD0003F0742C01396FC93EE931297ED01499164
:104AE00059919E01240F351FE217F30771F480815D
:104AF0009181840F951F029611969C938E938281CB
:104B0000938113969C938E931297E0E0F0E0D80186
:104B100012968D919C911397009719F0F8018C01D2
:104B2000F6CF8D919C9198012E5F3F4F820F931F7E
:104B300020913D0730913E072817390769F43097D7
:104B400029F41092400710923F0702C0138212828C
:104B500010933E0700933D07DF91CF911F910F9176
:104B600008956F927F928F929F92AF92BF92CF9251
:104B7000DF92EF92FF920F931F93CF93DF93EC019D
:104B8000009781F4CB01DF91CF911F910F91FF909E
:104B9000EF90DF90CF90BF90AF909F908F907F90DD
:104BA0006F90B2CEFC01E60FF71F9C012250310935
:104BB000E217F30708F4A8C0D9010D911C911197D1
:104BC00006171707A8F00530110508F49BC0C801A7
:104BD00004978617970708F495C002501109061B21
:104BE000170B019311936D937C93CF0122DF8AC041
:104BF0005B01A01AB10A4C01800E911EA0913F07E3
:104C0000B091400740E050E0E12CF12C109709F4FE
:104C10004AC0A815B905D1F56D907C901197630134
:104C200082E0C80ED11CCA14DB0480F1A3014A192A
:104C30005B096A0182E0C80ED11C1296BC901297E3
:104C40001396AC91B5E0CB16D10440F0B282A383A9
:104C500051834083D9016D937C930AC00E5F1F4F2F
:104C6000C301800F911FF90191838083EB2DFA2FEF
:104C7000E114F10431F0D7011396FC93EE931297EF
:104C800041C0F0934007E0933F073CC08D919C9159
:104C900011974817590708F4AC017D0112960D9041
:104CA000BC91A02DB3CF80913D0790913E07881510
:104CB0009905E1F446175707C8F4809100029091D6
:104CC0000102009741F48DB79EB7409104025091C4
:104CD0000502841B950BE817F907B0F4F0933E0723
:104CE000E0933D07F901718360830CC0CB010CDEBA
:104CF0007C01009749F0A801BE0128D0CE0199DEC1
:104D0000C70104C0CE0102C080E090E0DF91CF91E6
:104D10001F910F91FF90EF90DF90CF90BF90AF90D9
:104D20009F908F907F906F90089581E090E0F8942D
:104D3000D3C3FB01DC0104C08D910190801921F4E3
:104D400041505040C8F7881B990B0895FB01DC01C6
:104D500002C001900D9241505040D8F70895FB01D8
:104D6000DC0101900D920020E1F70895EF920F937E
:104D70001F93CF93DF93E80147FD02C034E001C0E9
:104D800034E1E42F440FFF0BF7FF03C0F195E195E9
:104D9000F109E32E022F2E2FAE0107D0CE01DF91B5
:104DA000CF911F910F91EF9008954F925F926F9264
:104DB0007F929F92AF92BF92CF92DF92EF92FF923B
:104DC0000F931F93CF93DF93CDB7DEB729970FB61D
:104DD000F894DEBF0FBECDBF6A01122FB02E2BE3B9
:104DE000201720F0FF24F394F00E02C0BCE3FB2E4A
:104DF0000F2D27E0AE014F5F5F4F64D1AC01898179
:104E0000982F9970913031F0E1FC06C0E0FE06C0A9
:104E100090E205C09DE203C09BE201C090E0EE2D50
:104E2000E07183FF3CC0911102C083E001C084E0C7
:104E3000811718F4212F281B01C020E0E1110BC0BD
:104E4000F601822F30E2882319F031938150FBCF95
:104E5000C20ED11C20E0992329F0D6019C93F601C3
:104E600031966F01C6010396E2FE0AC03EE4D60108
:104E70003C9341E411964C93119712963C9306C0D3
:104E80003EE6F601308341E641833283FC01322F56
:104E900040E2332309F442C041933150FACF82FFFC
:104EA00044C0911102C083E001C084E0811718F46E
:104EB000212F281B01C020E0E1110BC0F601822F39
:104EC00030E2882319F031938150FBCFC20ED11C00
:104ED00020E0992329F0D6019C93F60131966F01C9
:104EE000C6010396E2FE0BC039E4D6013C933EE4D2
:104EF00011963C93119736E412963C9307C039E61D
:104F0000F60130833EE6318336E63283FC01322FF0
:104F100040E2332319F041933150FBCFFC01E20F03
:104F2000F11D10828EEF9FEFB7C0F1E0911101C02B
:104F3000F0E06F2F70E01416150624F49A012F5F2D
:104F40003F4F02C021E030E0260F371FBB2029F081
:104F50006B2D70E06F5F7F4F02C060E070E0260F46
:104F6000371F612F70E0261737071CF4121B212F03
:104F700001C020E03E2D387159F4D601322F60E295
:104F8000332319F06D933150FBCFC20ED11C20E0BA
:104F9000FF2331F0D6019C93B6016F5F7F4F6B0109
:104FA000E1110BC0F601922F30E3992319F03193F0
:104FB0009150FBCFC20ED11C20E09F2D940F3A815F
:104FC000782F7071A72E84FF03C0313309F49150FC
:104FD000191624F4993018F098E001C091E0E42FFC
:104FE000852F57FF02C0E0E080E06E2F782FE0E0D1
:104FF000F0E0AEE29A2E3A01691A71082A01461AC7
:10500000570A0B2D10E01195019511096F3F8FEF95
:10501000780729F4D6019C92C60101966C014617C7
:10502000570784F0661677066CF47F01E40CF51CD4
:10503000A1E0B0E0AC0FBD1FEA0EFB1ED701119638
:10504000BC9002C090E3B92E615071093196C6013F
:1050500001967C016017710724F0D601BC926C01A7
:10506000D5CF6417750741F4363320F4353321F476
:10507000A11002C081E3B82EF601B082F701822FA1
:1050800090E2882319F091938150FBCFF701E20F52
:10509000F11D108280E090E029960FB6F894DEBFF3
:1050A0000FBECDBFDF91CF911F910F91FF90EF9079
:1050B000DF90CF90BF90AF909F907F906F905F9068
:1050C0004F900895283008F027E03327DA01990F30
:1050D000311D87FD916000966105710539F43260DC
:1050E0002E5F3D9330E32A95E1F708959F3F30F01E
:1050F00080387105610509F03C5F3C5F3D9391305C
:1051000008F08068911DDF93CF931F930F93FF9258
:10511000EF92192F987F9695E92F96959695E90F1E
:10512000FF27E25FF44F99273327EE24FF24A701DE
:10513000E70105900894079428F4360FE71EF81E3F
:10514000491F511D660F771F881F991F0694A1F7ED
:105150000590079428F4E70EF81E491F561FC11D3D
:10516000770F881F991F661F0694A1F70590079473
:1051700028F4F80E491F561FC71FD11D880F991F0D
:10518000661F771F0694A1F70590079420F4490F36
:10519000561FC71FD81F990F661F771F881F0694B9
:1051A000A9F784911095177041F0D695C79557953A
:1051B0004795F794E7941A95C1F7E4EBFAE0689401
:1051C0001590159135916591959105907FE27395B4
:1051D000E118F10A430B560BC90BD009C0F7E10CDB
:1051E000F11E431F561FC91FD01D7EF4703311F4EA
:1051F0008A95E6CFE894015030F0080F0AF40027B2
:10520000021708F4202F2395022F7A3328F079E330
:105210007D932A95E9F710C07D932A9589F6069427
:1052200097956795379517951794E118F10A430BF1
:10523000560BC90BD00998F023957E9173957A335C
:1052400008F070E37C932013B8F77E9170617D9332
:1052500030F0839571E37D9370E32A95E1F7112493
:10526000EF90FF900F911F91CF91DF91992787FDCC
:105270009095089540D008F481E00895E89409C01D
:1052800097FB3EF490958095709561957F4F8F4F79
:105290009F4F9923A9F0F92F96E9BB279395F6958F
:1052A000879577956795B795F111F8CFFAF4BB0F0D
:1052B00011F460FF1BC06F5F7F4F8F4F9F4F16C071
:1052C000882311F096E911C0772321F09EE8872FFB
:1052D000762F05C0662371F096E8862F70E060E0B7
:1052E0002AF09A95660F771F881FDAF7880F969530
:1052F000879597F90895990F0008550FAA0BE0E8D4
:10530000FEEF16161706E807F907C0F01216130687
:10531000E407F50798F0621B730B840B950B39F4C7
:105320000A2661F0232B242B252B21F408950A262D
:1053300009F4A140A6958FEF811D811D08950BD022
:1053400078C069D028F06ED018F0952309F05AC0C3
:105350005FC01124A2C07ED0A0F3959FD1F3950F1A
:1053600050E0551F629FF001729FBB27F00DB11DE9
:10537000639FAA27F00DB11DAA1F649F6627B00D79
:10538000A11D661F829F2227B00DA11D621F739F62
:10539000B00DA11D621F839FA00D611D221F749F70
:1053A0003327A00D611D231F849F600D211D822FB7
:1053B000762F6A2F11249F5750408AF0E1F08823FE
:1053C0004AF0EE0FFF1FBB1F661F771F881F91500B
:1053D0005040A9F79E3F510570F014C05EC05F3F7A
:1053E000ECF3983EDCF3869577956795B795F7953E
:1053F000E7959F5FC1F7FE2B880F911D96958795C6
:1054000097F9089597F99F6780E870E060E0089544
:105410009FEF80EC089500240A94161617061806CC
:105420000906089500240A941216130614060506A8
:105430000895092E0394000C11F4882352F0BB0F39
:1054400040F4BF2B11F460FF04C06F5F7F4F8F4F9C
:105450009F4F089557FD9058440F551F59F05F3FD7
:1054600071F04795880F97FB991F61F09F3F79F086
:1054700087950895121613061406551FF2CF469508
:10548000F1DF08C0161617061806991FF1CF86958A
:105490007105610508940895E894BB27662777276E
:1054A000CB0197F9089509D0A59F900DB49F900D59
:1054B000A49F800D911D11240895A29FB001B39F58
:1054C000C001A39F700D811D1124911DB29F700D0D
:0C54D000811D1124911D0895F894FFCF58
:1054DC00000041078000E80300000000461BA11AF1
:1054EC00071BE51AF91A8C1B0000000097066806CA
:1054FC000A0654064506440650494420636F6E74F0
:10550C00726F6C6C6572732064697361626C656434
:10551C000050494420636F6E74726F6C6C657273CB
:10552C00207265656E61626C65640044726F6E65B5
:10553C00206E6F74207265616479000A0A0A5374D4
:10554C00617274696E67207570004D5055207374CC
:10555C006172746564207570207375636365737311
:10556C0066756C6C79004D5055207374617274655E
:10557C00640A57616974696E6720666F7220636193
:10558C006C6962726174696F6E2E2E2E00576169A0
:10559C0074696E6720666F72206779726F73636FC0
:1055AC007065206D6561737572656D656E747320C1
:1055BC00746F2073746162696C697A652E2E2E008B
:1055CC004D505520646964206E6F7420696E697447
:1055DC0069616C697A652070726F7065726C7900A4
:1055EC0044726F6E65206973207265616479210065
:1055FC0053746172747570206661696C6564004DDA
:10560C005055206661696C656420746F20737461F9
:10561C007274207570000D0A00546865204D505549
:10562C002773204649464F20686173206F76657258
:10563C00666C6F77656420616E64206265656E20B0
:10564C007265736574004655555555434B4B4B4B22
:06565C00002020200000E8
:020000023000CC
:10E000000D9489F10D94B2F10D94B2F10D94B2F129
:10E010000D94B2F10D94B2F10D94B2F10D94B2F1F0
:10E020000D94B2F10D94B2F10D94B2F10D94B2F1E0
:10E030000D94B2F10D94B2F10D94B2F10D94B2F1D0
:10E040000D94B2F10D94B2F10D94B2F10D94B2F1C0
:10E050000D94B2F10D94B2F10D94B2F10D94B2F1B0
:10E060000D94B2F10D94B2F10D94B2F10D94B2F1A0
:10E070000D94B2F10D94B2F10D94B2F10D94B2F190
:10E080000D94B2F10D94B2F10D94B2F10D94B2F180
:10E090000D94B2F10D94B2F10D94B2F10D94B2F170
:10E0A0000D94B2F10D94B2F10D94B2F10D94B2F160
:10E0B0000D94B2F10D94B2F10D94B2F10D94B2F150
:10E0C0000D94B2F10D94B2F10D94B2F10D94B2F140
:10E0D0000D94B2F10D94B2F10D94B2F10D94B2F130
:10E0E0000D94B2F141546D656761323536300041AF
:10E0F000726475696E6F206578706C6F72657220DE
:10E1000073746B3530305632206279204D4C530099
:10E11000426F6F746C6F616465723E004875683F52
:10E1200000436F6D70696C6564206F6E203D200048
:10E130004350552054797065202020203D20005FF9
:10E140005F4156525F415243485F5F3D2000415658
:10E1500052204C696243205665723D20004743437C
:10E160002056657273696F6E203D20004350552024
:10E1700049442020202020203D20004C6F7720663D
:10E18000757365202020203D20004869676820665F
:10E190007573652020203D200045787420667573D6
:10E1A00065202020203D20004C6F636B2066757336
:10E1B000652020203D20004D617220203720323024
:10E1C000313300312E362E3800342E332E350056A2
:10E1D00023202020414444522020206F7020636F70
:10E1E00064652020202020696E73747275637469E1
:10E1F0006F6E2061646472202020496E74657272B3
:10E20000757074006E6F20766563746F7200726A49
:10E210006D702020006A6D70200057686174207056
:10E220006F72743A00506F7274206E6F7420737541
:10E2300070706F72746564004D7573742062652030
:10E2400061206C6574746572002000577269747483
:10E25000696E672045450052656164696E672045B7
:10E26000450045452065727220636E743D00504F35
:10E27000525400303D5A65726F2061646472003FF1
:10E280003D43505520737461747300403D454550C3
:10E29000524F4D207465737400423D426C696E6B41
:10E2A000204C454400453D44756D70204545505215
:10E2B0004F4D00463D44756D7020464C415348001B
:10E2C000483D48656C70004C3D4C69737420492F83
:10E2D0004F20506F72747300513D51756974005234
:10E2E0003D44756D702052414D00563D73686F7707
:10E2F00020696E7465727275707420566563746FF0
:10E30000727300593D506F727420626C696E6B00BD
:10E310002A0011241FBECFEFD1E2DEBFCDBF01E046
:10E320000CBF12E0A0E0B2E0EEE1FDEF03E00BBFB6
:10E3300002C007900D92A030B107D9F712E0A0E01B
:10E34000B2E001C01D92AE30B107E1F70F9460F367
:10E350000D948DFE01E20EBF0FEF0DBF11241FBE05
:10E360000D9460F30D9400F020E030E040ED57E0B4
:10E3700005C0FA013197F1F72F5F3F4F2817390792
:10E38000C0F308959C01260F311DC901A0E0B0E043
:10E390002F5F3F4FABBFFC018791882361F08093D3
:10E3A000C6008091C00086FFFCCF8091C0008064D1
:10E3B0008093C000EACF08958DE08093C6008091DD
:10E3C000C00086FFFCCF8091C00080648093C000B5
:10E3D0008AE08093C6008091C00086FFFCCF8091C8
:10E3E000C00080648093C00008950F94C2F10F9420
:10E3F000DCF10895FC019081992359F09093C600B7
:10E400008091C00086FFFCCF8091C0008064809323
:10E41000C0003196992379F70895282F982F929567
:10E420009F70892F805D8A3308F0895F8093C600D2
:10E430008091C00086FFFCCF8091C00080648093F3
:10E44000C000822F8F70982F905D9A3308F0995FEB
:10E450009093C6008091C00086FFFCCF8091C000E1
:10E4600080648093C00008959C01FB01853691056E
