:100000000C942F050C9477170C949E170C9457059D
:100010000C9457050C9457050C9457050C945705F0
:100020000C9457050C9457050C9457050C945705E0
:100030000C9457050C9457050C9457050C945705D0
:100040000C94C5170C9457050C947E1A0C94B01A96
:100050000C9457050C9457050C9457050C945705B0
:100060000C94E0110C945705084AD73B3BCE016E27
:1000700084BCBFFDC12F3D6C74319ABD56833DDAFF
:100080003D00C77F11BED9E4BB4C3E916BAAAABE0E
:10009000000000803F0001B202FFFF01900409232D
:1000A000A135016A0206000160080000000000009E
:1000B00000000060044000000001620200000060D7
:1000C0000400400000037B034CCD6C03AB033656A9
:1000D0007600680402CB47A202180400058BC10118
:1000E0000C0400000000037F060CC92C97979703AF
:1000F0008903264666006C022000024004000000CE
:100100000002440400000000024804000000000255
:100110004C040000000002500400000000025404DF
:100120000000000002580400000000025C0400000F
:10013000000002BC040000000001EC0400004000CC
:10014000037F060CC92C9797970402030D355D04B5
:100150000904872D353D00A301000000000107863A
:1001600001FE074105F120283038077E013007469F
:10017000019A074704F1283038076C04F128303819
:100180000216020001FB00003E000B0036000100D9
:10019000020003000000650054FFEF0000FA800039
:1001A0000B128200010002000000000000000000AD
:1001B000000000000000280000FFFF4581FFFFFA5B
:1001C0007200000000000003E80000000100017F51
:1001D000FFFFFE8001001B00000000000000000087
:1001E0000000000000003E03304000000002CAE3AF
:1001F000093E8000002000000000000000400000D8
:10020000006000000041FF000000000B2A00001603
:100210005500002182FD872650FD800000001F0050
:100220000000058000000000000001000000020046
:100230000000030000400000000000046F000265A1
:100240003200005EC040000000000000000000001E
:100250000000000000FB8C6F5DFD5D08D9007C7321
:100260003B006C12CC3200139D3200D0D632000815
:1002700000400001F4FFE68079020000000000D099
:10028000D600002710FB0000004000000000000026
:10029000000000000000000001000000000000015C
:1002A00000010000000000FA36FFBC308E0005FBA4
:1002B000F0FFD95BC8FFD09ABE000010A9FFF41E62
:1002C000B200CEBBF70000000100000004000200F5
:1002D000020200000CFFC280000001800000CF80FD
:1002E00000400000000000000100000000000006C7
:1002F00000000000140000000000000000000000EA
:1003000000000000000000000000000000000000ED
:1003100000000000000000000000000000000000DD
:10032000000000000000000000033F68B679352897
:10033000BCC67ED16C80000000400000000000B20E
:100340006A00000000000000000000000000003F04
:10035000F00000003000000000000000000000007D
:10036000000000000000000000000000000000008D
:1003700000000000000000254D002F706D000005FA
:10038000AE000C02D00000000000650054FFEF003A
:100390000000000000000001000044000000000C0C
:1003A0000000000100000000000065000000540093
:1003B00000FFEF000000000000000000000000004F
:1003C00000000000004000000000000000000000ED
:1003D00000000000004000000000000000000000DD
:1003E000000000000000000001000000020000000A
:1003F00000000000000000000000000000000000FD
:1004000000000000000000000000000000000000EC
:100410000000000000001B000000000000000000C1
:1004200000000000000000000000000000000000CC
:1004300000000000000000000000000000000000BC
:100440000040000000001B00000000000000000051
:10045000000000000000000000000000000000009C
:10046000000000000000000000000000000000008C
:10047000000000000000000000000000000000007C
:100480000000000000D8DCBAA2F1DEB2B8B4A88146
:1004900091F74A907F916AF3F9DBA8F9B0BAA0808E
:1004A000F2CE81F3C2F1C1F2C3F3CCA2B280F1C6A5
:1004B000D880BAA7DFDFDFF2A7C3CBC5B6F087A22B
:1004C000942448703C95406834589B78A2F18392FC
:1004D0002D557DD8B1B4B8A1D09180F270F370F2EF
:1004E0007C80A8F101B09887D943D886C988BAA181
:1004F000F20EB89780F1A9DFDFDFAADFDFDFF2AA13
:10050000C5CDC7A90CC92C97979797F1A9892646FD
:1005100066B0B4BA80ACDEF2CAF1B28C02A9B69869
:1005200000890E161EB8A9B4992C547CB08AA896DE
:10053000365676F1B9AFB4B083C0B8A89711B18F71
:1005400098B9AFF0240844106418F1A329557DAF81
:1005500083B593AFF0002850F1A3869F61A6DADE41
:10056000DFD9FAA38696DB31A6D9F8DFBAA68FC207
:10057000C5C7B28CC1B8A2DFDFDFA3DFDFDFD8D809
:10058000F1B8A8B286B4980D355DB8AA98B0872D99
:10059000353DB2B6BAAF8C96198F9FA70E161EB412
:1005A0009AB8AA872C547CB9A3DEDFDFA3B180F20E
:1005B000C4CDC9F1B8A9B499830D355D89B9A32D0E
:1005C000557DB593A30E161EA92C547CB8B4B0F17A
:1005D0009783A81184A50998A383F0DA240844100E
:1005E0006418D8F1A529557DA58595021A2E3A568D
:1005F0005A4048F9F3A3D9F8F098832408441064CA
:10060000189782A8F111F098A2240844106418DA0F
:10061000F3DED883A59401D9A302F1A2C3C5C7D83C
:10062000F18492A24DDA2AD84869D92AD86855DAD5
:1006300032D85071D932D8705DDA3AD85879D93A6F
:10064000D87893A34DDA2AD84869D92AD86855DAD8
:1006500032D85071D932D8705DDA3AD85879D93A4F
:10066000D878A88A9AF02850789EF38818F19F1DB0
:1006700098A8D908D8C89F129EF315A8DA1210D8E6
:10068000F1AFC8978734B5B994A421F3D922D8F231
:100690002DF3D92AD8F235F3D932D881A46060611C
:1006A000D961D86C6869D969D8747071D971D8B1B9
:1006B000A384193D5DA3831A3E5E9310308110110F
:1006C000B8B0AF8F94F2DA3ED8B49AA88729DAF896
:1006D000D8879A35DAF8D8879A3DDAF8D8B1B9A42C
:1006E0009885022E56A581000C14A397B08AF12D8F
:1006F000D928D84DD948D86DD968D8B1840DDA0E2B
:10070000D8A32983DA2C0ED8A3844983DA2C4C0E83
:10071000D8B8B0A88A9AF520AADADFD8A840AAD01B
:10072000DADED8A860AADAD0DFD8F19786A8319BA4
:10073000069907AB9728889BF00C201440B8B0B4FA
:10074000A88C9CF0042851791D301438B282ABD0AB
:10075000982C505078789BF11AB0F08A9CA82951B7
:10076000798B2951798A2470598B2058718A446970
:10077000388B3940688A6448318B304960A58820BD
:100780000971584468113964493019F1AC002C548E
:100790007CF08CA804285078F1889726A85998AC4A
:1007A0008C02264666F0899CA82951792470594408
:1007B0006938644831A98809205970AB11384069FB
:1007C000A8193148608CA83C415C207C00F18798D6
:1007D0001986A86E767EA999882D557D9EB9A38A23
:1007E000228A6E8A568A5E9FB183062646660E2E40
:1007F0004E6E9DB8AD002C547CF2B18CB499B9A367
:100800002D557D8191AC38AD3AB58391AC2DD92869
:10081000D84DD948D86DD968D88C9DAE29D904AEA9
:10082000D851D904AED879D904D881F39DAD008DC3
:10083000AE1981ADD901D8F2AEDA26D88E912983CE
:10084000A7D9ADADADADF32AD8D8F1B0AC89913E02
:100850005E76F3AC2E2EF1B18C5A9CAC2C28282855
:100860009CAC3018A8988128343C9724A728343CA5
:100870009C24F2B089AC912C4C6C8A9B2DD9D8D891
:1008800051D9D8D879D9D8D8F19E88A331DAD8D817
:10089000912DD928D84DD948D86DD968D8B183932E
:1008A000353D8025DAD8D88569DAD8D8B49381A3C4
:1008B00028343CF3AB8BF8A391B609B4D9ABDEFA7C
:1008C000B0879CB9A3DDF1A3A3A3A395F1A3A3A330
:1008D0009DF1A3A3A3A3F2A3B49080F2A3A3A3A327
:1008E000A3A3A3A3A3A3B2A3A3A3A3A3A3B087B5C6
:1008F00099F1A3A3A398F1A3A3A3A397A3A3A3A34D
:10090000F39BA3A3DCB9A7F1262626D8D8FF0000C5
:1009100000080002010000030407000000000000BE
:100920000000010204081020408001020408102089
:100930000102040810200404040404040404020254
:100940000202020203030303030300000000250068
:1009500028002B0000000000240027002A0000408F
:100960007A10F35A00A0724E18090010A5D4E800BE
:1009700000E87648170000E40B54020000CA9A3BD6
:10098000000000E1F505000080969800000040425C
:100990000F000000A08601000000102700000000EA
:1009A000E803000000006400000000000A000000EE
:1009B00000000100000000002C76D888DC674F089A
:1009C00023DFC1DFAE59E1B1B796E5E3E453C63AA0
:1009D000E651997696E8E6C28426EB898C9B62ED17
:1009E000407C6FFCEFBC9C9F40F2BAA56FA5F490D1
:1009F000055A2AF75C936B6CF9676DC11BFCE0E448
:100A00000D47FEF520E6B500D0ED902E030094359D
:100A100077050080841E080000204E0A000000C8F0
:100A20000C333333330F986E12831141EF8D211441
:100A3000893BE65516CFFEE6DB18D1844B381BF711
:100A40007C1D901DA4BBE424203284725E228100B0
:100A5000C9F124ECA1E53D278D0DF610E01A112413
:100A60001FBECFEFD8E0DEBFCDBF11E0A0E0B1E008
:100A7000EEE8F8E402C005900D92A038B107D9F76E
:100A800025E0A0E8B1E001C01D92AF36B207E1F762
:100A90001AE0CEE5DAE004C02297FE010E94851F2D
:100AA000C835D107C9F70E94241B0C9445240C9427
:100AB000000081E08093040408958F929F92AF928A
:100AC000BF92CF92EF920F931F93CF93DF93CDB747
:100AD000DEB7C059D1090FB6F894DEBF0FBECDBF47
:100AE0005C010E9418146EE170E080E090E00E94CA
:100AF0003E1860E0C5010E941F1421E041E060E162
:100B0000C5010E94111566E0C5010E941C15C501B2
:100B10000E94221520E040E060E0C5010E9411150E
:100B2000C5010E947014C5010E948E14182FC501C2
:100B30000E94B514882EC5010E94DC14982E4FE740
:100B400060E0C5010E94D81360E0C5010E94031453
:100B500048E660E0C5010E94D813C5010E94111447
:100B600064E170E080E090E00E943E18EE24E3949F
:100B700000E020E049E857E065E871E0C5010E9427
:100B80007F16882309F40EC240EC50E065EC70E05B
:100B9000C5010E944717882309F406C263E0C50116
:100BA0000E94261462E1C5010E94E41364E0C501BD
:100BB0000E948E1361E0C5010E94941363E0C50199
:100BC0000E949F1363E0C5010E94AA1363E0C50160
:100BD0000E944A1760E0C5010E94501760E0C501FD
:100BE0000E948714612FC5010E94AA14682DC501B7
:100BF0000E94D114692DC5010E94F814812C912CFA
:100C0000F401EA56FF4FE491A1E8B0E0AC0FBD1F3C
:100C1000A80DB11DEC9381E0880D9FEF891A990A08
:100C2000E3E0E81568F7CD57DF4F4881C358D0405F
:100C300050E09A012E5F3F4F90E02817390704F7E4
:100C4000C12CEE24E394CE57DF4F0881C258D04028
:100C5000CF57DF4F2881C158D04061E870E06C0F5A
:100C60007D1F6D5F7F4FC5010E949E1560E0F401FE
:100C7000EA56FF4FE491A1E8B0E0AC0FBD1FA60F0C
:100C8000B11DEC936F5FFFEF8F1A9F0A643078F30A
:100C9000CD57DF4F4881C358D04050E09A012E5FB6
:100CA0003F4F862F90E0281739070CF7C12CEE2410
:100CB000E394CE57DF4F0881C258D040CF57DF4F63
:100CC0002881C158D04061E870E06C0F7D1F6D5FD6
:100CD0007F4FC5010E949E15C5010E940A14C501DF
:100CE0000E944514482FBE016F5F7F4FC5010E94CF
:100CF000611462E0C5010E94C0136CE9C5010E9445
:100D0000CC1360E5C5010E94C61360E0C5010E94D6
:100D1000D213C5010E940A1461E0C5010E94FC13B0
:100D200061E0C5010E940315C5010E940A1560E03B
:100D3000F401EA56FF4FE491A1E8B0E0AC0FBD1F0B
:100D4000A60FB11DEC936F5F8FEF881A980A64307D
:100D500078F3CD57DF4F4881C358D04050E09A0117
:100D60002E5F3F4F862F90E0281739070CF7C12CD4
:100D7000EE24E394CE57DF4F0881C258D040CF57BE
:100D8000DF4F2881C158D04061E870E06C0F7D1FB3
:100D90006D5F7F4FC5010E949E1560E0F401EA5629
:100DA000FF4FE491A1E8B0E0AC0FBD1FA60FB11D4D
:100DB000EC936F5F9FEF891A990A643078F3CD57EF
:100DC000DF4F4881C358D04050E09A012E5F3F4F1B
:100DD000862F90E0281739070CF7C12CEE24E394F6
:100DE000CE57DF4F0881C258D040CF57DF4F288100
:100DF000C158D04061E870E06C0F7D1F6D5F7F4F80
:100E0000C5010E949E1560E0F401EA56FF4FE4918F
:100E1000A1E8B0E0AC0FBD1FA60FB11DEC936F5F52
:100E2000EFEF8E1A9E0A643078F3CD57DF4F48817A
:100E3000C358D04050E09A012E5F3F4F862F90E07C
:100E4000281739070CF7C12CEE24E394CE57DF4F57
:100E50000881C258D040CF57DF4F2881C158D040B9
:100E600061E870E06C0F7D1F6D5F7F4FC5010E94D0
:100E70009E15C5010E94451483309105D0F3482F7B
:100E8000BE016F5F7F4FC5010E946114C5010E94C2
:100E9000EA1360E0F401EA56FF4FE491A1E8B0E004
:100EA000AC0FBD1FA60FB11DEC936F5FFFEF8F1A44
:100EB0009F0A643078F3CD57DF4F4881C358D04044
:100EC00050E09A012E5F3F4F862F90E02817390798
:100ED0000CF7CE57DF4F0881C258D040CF57DF4FB5
:100EE0002881C158D04061E870E06C0F7D1F6D5FB4
:100EF0007F4FC5010E943415C5010E9445148330FF
:100F00009105D0F3482FBE016F5F7F4FC5010E944E
:100F10006114C5010E94EA13F401EA56FF4F60E034
:100F20008491A1E8B0E0AC0FBD1FA60FB11D8C935A
:100F30006F5F643010F43196F3CFCD57DF4F4881A7
:100F4000C358D04050E09A012E5F3F4F862F90E06B
:100F50002817390784F761E870E06C0F7D1F6D5F1B
:100F60007F4FC12CEE24E394CE57DF4F0881C25847
:100F7000D040CF57DF4F2881C158D040C5010E94D3
:100F80009E1560E0C5010E9403158AE290E0F5011C
:100F900093838283C5010E940A14C5010E94EA134B
:100FA00080E003C081E001C082E0C057DF4F0FB690
:100FB000F894DEBF0FBECDBFDF91CF911F910F918F
:100FC000EF90CF90BF90AF909F908F9008954F92E9
:100FD0005F926F927F928F929F92AF92BF92CF92C9
:100FE000DF92EF92FF926B017C014B015C01E89470
:100FF000B7F828ED3FE049E45FE30E94A41E2B010F
:101000003C0120E030E040E85FE3C501B4010E940C
:101010005E1C9B01AC01C701B6010E94A41E6B01BE
:101020007C012BE438EC47E85DE3C501B4010E9484
:10103000A41E23EA32E94AE75EE30E945F1C9B019B
:10104000AC01C701B6010E94A41E9B01AC01C30103
:10105000B2010E945E1CFF90EF90DF90CF90BF9096
:10106000AF909F908F907F906F905F904F9008957A
:10107000CF92DF92EF92FF926B017C0120E030E093
:1010800040E85FE30E94991E1816BCF4A701960180
:1010900060E070E080E89FE30E94291D0E94E7075E
:1010A0009B01AC016AED7FE089EC9FE30E945E1C2E
:1010B000FF90EF90DF90CF900895C701B601FF90A9
:1010C000EF90DF90CF900C94E707CF93DF93DB0195
:1010D000FA01309719F4EC01E881F981848D90E0F0
:1010E000982F8827258D820F911D11969C938E93A2
:1010F00080A190E0982F882721A1820F911D13963F
:101100009C938E93129784A190E0982F882725A115
:10111000820F911D15969C938E93149780E0DF911A
:10112000CF910895CF93DF93DB01FA01309719F443
:10113000EC01E881F981808190E0982F8827218156
:10114000820F911D11969C938E93848190E0982F2D
:1011500088272581820F911D13969C938E93129759
:10116000808590E0982F88272185820F911D159604
:101170009C938E931497848590E0982F88272585DB
:10118000820F911D17969C938E93169780E0DF91A6
:10119000CF910895FF920F931F93CF93DF93CDB715
:1011A000DEB728970FB6F894DEBF0FBECDBF8B0118
:1011B000BE016F5F7F4F0E949208F82E81114CC0D4
:1011C00069817A81882777FD8095982F0E94C41DB8
:1011D00020E030E040E858E30E94A41EF80160835C
:1011E0007183828393836B817C81882777FD8095CF
:1011F000982F0E94C41D20E030E040E858E30E9490
:10120000A41EF80164837583868397836D817E8134
:10121000882777FD8095982F0E94C41D20E030E03C
:1012200040E858E30E94A41EF80160877187828716
:1012300093876F817885882777FD8095982F0E9406
:10124000C41D20E030E040E858E30E94A41EF801ED
:1012500064877587868797878F2D28960FB6F894B1
:10126000DEBF0FBECDBFDF91CF911F910F91FF90D9
:101270000895AF92BF92CF92DF92EF92FF920F93B9
:101280001F93CF93DF93EB015A018901FA0160812B
:101290007181882777FD8095982F0E94C41D6B016E
:1012A0007C0120E030E040E056E4F801608171818B
:1012B000828193810E94A41E9B01AC01C701B601EB
:1012C0000E945E1C0E94911D79836883F5016281F2
:1012D0007381882777FD8095982F0E94C41D6B012C
:1012E0007C0120E030E040E056E4F8016481758143
:1012F000868197810E94A41E9B01AC01C701B601A3
:101300000E945E1C0E94911D7B836A83F5016481AB
:101310007581882777FD8095982F0E94C41D6B01E9
:101320007C0120E030E040E056E4F8016085718502
:10133000828593850E94A41E9B01AC01C701B60162
:101340000E945E1C0E94911D7D836C8380E0DF9172
:10135000CF911F910F91FF90EF90DF90CF90BF90B2
:10136000AF9008954F925F926F927F928F929F926B
:10137000AF92BF92CF92DF92EF92FF920F931F93A3
:10138000CF93DF93CDB7DEB728970FB6F894DEBFC3
:101390000FBECDBF8B01DA011496CD90DD90ED909C
:1013A000FC9017971C964D905D906D907C901F97C8
:1013B0008D909D90AD90BC90139718968D919D91B6
:1013C0000D90BC91A02D89839A83AB83BC83A3012C
:1013D0009201C701B6010E94A41E6D837E838F8394
:1013E000988729813A814B815C81C501B4010E94B3
:1013F000A41E9B01AC016D817E818F8198850E9426
:101400005E1C9B01AC010E945F1CF801608371832C
:1014100082839383A7019601C501B4010E94A41E93
:101420006D837E838F839887A301920169817A817E
:101430008B819C810E94A41E9B01AC016D817E81E9
:101440008F8198850E945F1C9B01AC010E945F1CEC
:10145000D80114966D937D938D939C931797A50156
:101460009401C501B4010E94A41E4B015C01A701B7
:101470009601C701B6010E94A41E9B01AC01C501E3
:10148000B4010E945E1C6B017C0129813A814B8171
:101490005C81CA01B9010E94A41E9B01AC01C70175
:1014A000B6010E945E1C6B017C01A3019201C30185
:1014B000B2010E94A41E9B01AC01C701B6010E94AB
:1014C0005F1CF801608771878287938780E0289688
:1014D0000FB6F894DEBF0FBECDBFDF91CF911F9145
:1014E0000F91FF90EF90DF90CF90BF90AF909F90C3
:1014F0008F907F906F905F904F9008952F923F92C2
:101500004F925F926F927F928F929F92AF92BF9213
:10151000CF92DF92EF92FF920F931F93CF93DF93BF
:1015200000D000D000D0CDB7DEB71B018A013E83CA
:101530002D83FA01C080D180E280F380A70196015B
:10154000C701B6010E945F1C69837A838B839C83E9
:10155000F80184809580A680B780A5019401C5011B
:10156000B4010E945F1C2B013C01A7019601698117
:101570007A818B819C810E94A41E6B017C01A50154
:101580009401C301B2010E94A41E9B01AC01C701DA
:10159000B6010E945F1C20E030E040E85FE30E945B
:1015A0005E1C6B017C01F8012085318542855385E5
:1015B000C301B2010E94A41E2B013C01F801248545
:1015C00035854685578569817A818B819C810E940A
:1015D000A41E9B01AC01C301B2010E945E1CA701C5
:1015E00096010E94D21CF1016083718382839383F0
:1015F000ED81FE816481758186819781C084D1846B
:10160000E284F3849B01AC010E94A41E4B015C01A7
:10161000A7019601C701B6010E94A41E9B01AC015F
:10162000C501B4010E945F1C0E940B1F9B01AC010D
:10163000ED81FE8160817181828193810E94291DEB
:101640000E943808F1016483758386839783ED8156
:10165000FE816081718182819381C084D184E28422
:10166000F3849B01AC010E94A41E4B015C01A70105
:101670009601C701B6010E94A41E9B01AC01C501E1
:10168000B4010E945F1C0E940B1F9B01AC01ED8105
:10169000FE8164817581868197810E94291D0E9447
:1016A0003808F101608771878287938780E02696EA
:1016B0000FB6F894DEBF0FBECDBFDF91CF911F9163
:1016C0000F91FF90EF90DF90CF90BF90AF909F90E1
:1016D0008F907F906F905F904F903F902F900895E4
:1016E0008F929F92AF92BF92CF92DF92EF92FF9232
:1016F0000F931F93CF93DF938C0184559E4F7C01F2
:10170000E801CC56DE4F680196E5C91A9EEFD90A6A
:101710008091040481110AC0F70120813181F60112
:10172000808191812817390708F4C4C010920404FD
:10173000CE010E94EA136801F8E5CF1AFEEFDF0A36
:10174000F6018083CE010E944514F70191838083C6
:10175000F601208124FD03C081159440A9F4CE0137
:101760000E940A146CE171E08EEC94E0DF91CF915D
:101770001F910F91FF90EF90DF90CF90BF90AF90AF
:101780009F908F900C94951B21FF9BC0680136E5BC
:10179000C31A3EEFD30AF70120813181F60180811F
:1017A00091812817390738F4CE010E944514F701BA
:1017B00091838083F0CFC80182559E4F5C01F60172
:1017C00040815181F701808191818417950780F0D4
:1017D000B501CE010E946114F70180819181F6016B
:1017E00020813181821B930BF70191838083E7CFA6
:1017F0006801F2E1CF1AFEEFDF0AA501B601CE01C2
:101800000E94CA08780136EFE31A3DEFF30AA601F9
:10181000B701CE010E94B209480182E0881A8EEF1A
:10182000980AA501B401CE010E946508B8016E5D59
:101830007D4F9701A601CE010E947E0A68019CEFB0
:10184000C91A9DEFD90A9701A401B601CE010E94E1
:101850003909E801CA5EDD4FF60160817181882790
:1018600077FD8095982F0E94C41D688379838A83B1
:101870009B832496F801EA5FFD4F60817181882780
:1018800077FD8095982F0E94C41D688379838A8391
:101890009B832496F801E85FFD4F60817181882762
:1018A00077FD8095982F0E94C41D688379838A8371
:1018B0009B8307C0CE010E944514F701918380836A
:1018C00027CFDF91CF911F910F91FF90EF90DF9085
:1018D000CF90BF90AF909F908F9008954F925F925E
:1018E0006F927F928F929F92AF92BF92CF92DF9230
:1018F000EF92FF92CF93DF9326E040E052EC61E05D
:1019000070E08EEC94E00E941C1A85E094E00E9446
:10191000681088E18093B80084E193E00E9431145C
:1019200084E193E00E945D058093290381111EC02C
:1019300061E084E193E00E94031543E050E069E533
:1019400075E080E00E94571784E193E00E94EA135B
:101950008093280381E08093270380911603909160
:10196000170390932B0380932A0306C064E371E06E
:101970008EEC94E00E94951B84E6482E512C612C3D
:10198000712C80912703882321F080E891E00E9448
:10199000700BC0901003D0901103E0901203F090F0
:1019A0001303C701B601A30192010E94611FFB014D
:1019B000EE0FFF1FEE0FFF1FE058FE4F80919603C2
:1019C00090919703A0919803B0919903808391839C
:1019D000A283B383C701B6016F5F7F4F8F4F9F4FC5
:1019E0006093100370931103809312039093130379
:1019F000643671058105910520F2A30192010E94D0
:101A0000611F672B682B692B09F0BBCFC0E8D1E0C1
:101A1000812C912C5401699179918991999120E0BF
:101A200030E048EC52E40E94291D9B01AC01C50145
:101A3000B4010E945F1C4B015C0183E0C031D807F8
:101A400051F7C0E8D1E0C12CD12C76016991799190
:101A500089919991A50194010E945E1C9B01AC01A2
:101A60000E94A41E20E030E048EC52E40E94291DB0
:101A70009B01AC01C701B6010E945F1C6B017C0198
:101A800083E0C031D80711F720E030E048E452E4A9
:101A9000C701B6010E94251D87FF73CFDF91CF914B
:101AA000FF90EF90DF90CF90BF90AF909F908F907E
:101AB0007F906F905F904F900895CF93DF9300D009
:101AC00000D000D0CDB7DEB780912703882321F066
:101AD00080E891E00E94700B40919603509197032B
:101AE000609198037091990322E0CE0101960E94C3
:101AF0002D1CBE016F5F7F4F8EEC94E00E94831B14
:101B0000CE0101960E94A71B26960FB6F894DEBF61
:101B10000FBECDBFDF91CF91089566E071E08EEAF0
:101B200093E00E942C131092100310921103109254
:101B300012031092130384E193E00E948A1310921F
:101B4000270380E090E0A0E8BFE380936E039093CA
:101B50006F03A0937003B0937103109272031092FD
:101B6000730310927403109275031092760310920F
:101B70007703109278031092790310927A031092EF
:101B80007B0310927C0310927D0310927F031092CE
:101B90007E031092810310928003109283031092AF
:101BA000820310928503109284031092870310928F
:101BB0008603109289031092880310928A03109270
:101BC0008B0310928C0310928D0310928E0310924F
:101BD0008F0310929003109291031092920310922F
:101BE000930310929403109295030895EF92FF923D
:101BF0000F931F93CF93DF9300D0CDB7DEB7062F9F
:101C0000142F682F85E094E029833A830E94721094
:101C1000602F85E094E00E9429102981022FE22E96
:101C20003A81F32E8E2D801B811740F4F7016191CC
:101C30007F0185E094E00E942910F4CF85E094E0D4
:101C40000E94F31091E0811190E0892F0F900F9086
:101C5000DF91CF911F910F91FF90EF900895CF9357
:101C6000DF931F92CDB7DEB749839E012F5F3F4FB1
:101C700041E00E94F60D0F90DF91CF9108953F92C1
:101C80004F925F926F927F928F929F92AF92BF928C
:101C9000CF92DF92EF92FF920F931F93CF93DF9338
:101CA00000D000D000D0CDB7DEB7682E562E742EEF
:101CB0003A8329830E940F186B017C01312C412C3F
:101CC000872D90E09C838B834801A12CB12C371485
:101CD000B0F5662D85E094E00E947210652D85E0D8
:101CE00094E00E94291085E094E00E94F310662D94
:101CF00085E094E00E9472104B815C814319510988
:101D00004132510514F040E250E0662D85E094E048
:101D10000E94F01085E094E00E94D10F892B59F1C8
:101D20000115110579F10E940F186C197D098E09B2
:101D30009F09681579058A059B0520F11CC00115CE
:101D4000110589F10E940F186C197D098E099F09F0
:101D500020E030E0601771078207930720F1872D9C
:101D600090E0242D332727FD309528173907DCF420
:101D700044244A9418C0872D90E2971508F480E215
:101D8000380EA5CFE981FA81E40DF11D47FCFA95E3
:101D9000FE83ED8385E094E00E94D90FED81FE8102
:101DA00080834394B7CF842D26960FB6F894DEBF78
:101DB0000FBECDBFDF91CF911F910F91FF90EF909C
:101DC000DF90CF90BF90AF909F908F907F906F905B
:101DD0005F904F903F9008950F931F9389019A0150
:101DE00041E00E943F0E1F910F910895DF92EF9204
:101DF000FF920F931F93CF93DF931F92CDB7DEB760
:101E0000D42E79019801AE014F5F5F4F0E94EC0E16
:101E100061E070E001C0660FDA94EAF799819623D9
:101E2000F70190830F90DF91CF911F910F91FF9059
:101E3000EF90DF900895CF92DF92EF92FF920F9391
:101E40001F93CF93DF931F92CDB7DEB7C42ED22E50
:101E50009701AE014F5F5F4F0E94EC0E8823F1F0B7
:101E60004C2D50E04D1951094F5F5F4F61E070E01C
:101E700002C0660F771FDA94E2F761507109042EF1
:101E800001C0660F0A94EAF72981262330E002C0D8
:101E9000359527954A95E2F7F80120830F90DF9159
:101EA000CF911F910F91FF90EF90DF90CF90089509
:101EB000EF92FF920F931F93CF93DF931F92CDB7B3
:101EC000DEB7182F062FF42EE22E20910E0130914E
:101ED0000F01AE014F5F5F4F0E94EC0E898121E040
:101EE00030E00F2C01C0220F0A94EAF7EE2019F01F
:101EF000482F422B03C0422F409548234983602F2F
:101F0000812F0E942F0E0F90DF91CF911F910F9183
:101F1000FF90EF900895DF92EF92FF920F931F933F
:101F2000CF93DF931F92CDB7DEB7F82EE62ED42ED7
:101F3000122F20910E0130910F01AE014F5F5F4FC4
:101F40000E94EC0E882319F14D2D50E0411B5109E0
:101F50004F5F5F4FE1E0F0E002C0EE0FFF1F1A9508
:101F6000E2F73197042E01C0EE0F0A94EAF701C0A0
:101F7000000F4A95EAF74E2F409589814823E023C8
:101F80004E2B49836E2D8F2D0E942F0E01C080E0B5
:101F90000F90DF91CF911F910F91FF90EF90DF9005
:101FA00008958091350490E020913604821B9109B8
:101FB00008952091360480913504281750F4E22FBB
:101FC000F0E0E95CFB4F808190E02F5F20933604C6
:101FD00008958FEF9FEF0895E091360480913504C6
:101FE000E81730F4F0E0E95CFB4F808190E0089561
:101FF0008FEF9FEF08950895CF92DF92EF92FF92B7
:102000000F931F93CF93DF937C01CB018A01209123
:102010001104222389F0EB016B01C40ED51ECC15EF
:10202000DD0569F06991D701ED91FC910190F08196
:10203000E02DC7010995F3CF642F0E94B711C801A5
:10204000DF91CF911F910F91FF90EF90DF90CF9094
:102050000895CF93DF931F92CDB7DEB769832091A8
:1020600011042223D1F020911204203240F021E00B
:1020700030E0FC013383228380E090E015C0809142
:102080001304E82FF0E0EC5EFB4F998190838F5FA3
:10209000809313048093120405C061E0CE01019681
:1020A0000E94B71181E090E00F90DF91CF910895E9
:1020B000FC011382128248EE53E060E070E044833A
:1020C00055836683778382E591E0918380830895C9
:1020D00010923604109235041092130410921204D8
:1020E0000C94FA1081E080931104609334041092F0
:1020F00013041092120408950F93062F21E04091CB
:10210000120464E174E0809134040E946011109222
:10211000130410921204109211040F9108958F92DB
:102120009F92AF92BF92CF92DF92EF92FF920F9366
:102130001F93CF93DF93EC01F62ED42E4801590163
:10214000EE2019F10E9472101E2D143008F013E0D9
:102150001150B8F0E881F98128E0129FB0011124F4
:10216000A501940104C056954795379527956A9522
:10217000D2F7CA01B9010190F081E02DCE01099595
:10218000E7CF60E0CE010E947C104D2D413208F077
:1021900040E22C2D67E374E08F2D0E9418111092FD
:1021A000360480933504DF91CF911F910F91FF90FA
:1021B000EF90DF90CF90BF90AF909F908F90089559
:1021C000CF92EF920F931F93C22EE12C00E010E00C
:1021D00098010E948F101F910F91EF90CF9008955A
:1021E00021E00C94E01061E00C947C1085E094E018
:1021F0000C9458101092C40481E08093C204109291
:10220000C10461E082E10E94031961E083E10E9460
:102210000319E9EBF0E080818E7F808380818D7FE0
:10222000808388E48093B80085E48093BC0008959F
:10223000413208F043C09091C4049111FCCF91E069
:102240009093C4042093C2042FEF2093570410925C
:102250009C04240F20939B049093C3049091C30487
:10226000880F892B8093C3048091C104813061F46D
:102270001092C1048091C3048093BB008091BC0084
:1022800083FDF8CF85EC01C085EE8093BC00809182
:10229000C4048130E1F380919C04841710F44091D0
:1022A0009C042DE934E0FB01D9018A2F821B84179D
:1022B00018F48D918193F9CF842F089580E00895CB
:1022C0000F93413208F04AC09091C4049111FCCFA1
:1022D00092E09093C4040093C2049FEF909357043C
:1022E00010929C0440939B04FB016DE974E0DB01B8
:1022F0009A2F961B941718F491919D93F9CF1092F1
:10230000C3049091C304880F892B8093C3048091E8
:10231000C104813061F41092C1048091C3048093A0
:10232000BB008091BC0083FDF8CF85EC01C085EE39
:102330008093BC00222321F08091C4048230E1F319
:10234000809157048F3F61F080915704803251F0A3
:1023500080915704803341F483E007C081E005C0D9
:1023600080E003C082E001C084E00F9108956132F3
:1023700098F42091C404243089F460937904FC011A
:102380008BE794E0DC012A2F281B261718F42191F3
:102390002D93F9CF80E0089581E0089582E00895BB
:1023A00085ED8093BC008091BC0084FDFCCF109231
:1023B000C404089585EC8093BC001092C404089571
:1023C0001F920F920FB60F9211242F933F934F93AA
:1023D0005F936F937F938F939F93AF93BF93EF938D
:1023E000FF938091B900887F803609F49EC078F50C
:1023F000883209F45DC090F4803109F456C038F495
:10240000882309F4F5C0883009F44FC0F5C088313D
:1024100009F44EC0803209F45FC0EEC0803409F484
:102420006AC058F4803309F457C0883309F0E4C017
:10243000809357040E94DA11DFC0803509F44FC041
:10244000883509F45DC0883409F0D6C0D3C0883916
:1024500009F4C4C0A8F4883709F467C038F4883692
:1024600009F463C0803709F460C0C6C0883809F435
:10247000B5C0803909F45FC0803809F0BDC05BC0C9
:10248000803B09F483C038F4803A09F466C0883A86
:1024900009F47CC0B1C0803C09F4A4C0883C09F4B4
:1024A000A1C0883B09F487C0A7C08091C30410C0B5
:1024B00090919C0480919B04981770F5E0919C0486
:1024C00081E08E0F80939C04F0E0E356FB4F808107
:1024D0008093BB0085EC83C0809357048BC0E09150
:1024E0009C0481E08E0F80939C048091BB00F0E0FF
:1024F000E356FB4F808390919C0480919B046BC0BA
:10250000E0919C0481E08E0F80939C048091BB003D
:10251000F0E0E356FB4F80838091C20481116AC0D2
:1025200081E08093C10484EA5EC083E08093C404A8
:1025300010925804CFCF80915804803208F04EC0DA
:10254000E091580481E08E0F809358048091BB0085
:10255000F0E0E75AFB4F8083BDCF0E94DA118091F3
:102560005804803230F4E0915804F0E0E75AFB4F11
:1025700010826091580470E0E091BD04F091BE04B7
:1025800089E594E009951092580436C084E0809360
:10259000C40410927A0410927904E091BF04F0917F
:1025A000C004099580917904811105C081E0809370
:1025B000790410927B04E0917A0481E08E0F80937D
:1025C0007A04F0E0E558FB4F80818093BB00909146
:1025D0007A0480917904981708F47CCF85E8809379
:1025E000BC000AC085EC8093BC001092C40404C0F7
:1025F000109257040E94D011FF91EF91BF91AF91BB
:102600009F918F917F916F915F914F913F912F910A
:102610000F900FBE0F901F901895613D27E0720735
:102620003CF4683EE3E07E072CF468EE73E002C001
:1026300060ED77E0FC017183608321E024870895D9
:10264000FC01862F28EE33E031832083628373837D
:10265000158661E00C94CA18BF92CF92DF92EF9278
:10266000FF920F931F93CF93DF93CDB7DEB72E97D3
:102670000FB6F894DEBF0FBECDBF2FEF3FEFFC01CA
:1026800033832283318B208B378F268F35A724A766
:1026900028E0E4E1F1E0DC01D89601900D922A9562
:1026A000E1F7FC01E05BFF4F118210827B018C019E
:1026B00084E0C82ED12C9EE0B92EF7016191719172
:1026C0007F01CE0101960E942013FE013196D801B0
:1026D0008B2D01900D928A95E1F768EE73E0C801A9
:1026E0000E940D13F1E0CF1AD108025F1F4FC114F1
:1026F000D10419F72E960FB6F894DEBF0FBECDBFEA
:10270000DF91CF911F910F91FF90EF90DF90CF90CD
:10271000BF90089528E6FC0120830895462F69E1C3
:10272000FC0180810C942F0E0F93062F23E045E0CF
:102730006AE1FC0180810E948B0F0F9108950F9335
:10274000062F23E042E06AE1FC0180810E948B0FAA
:102750000F9108950F93062F22E044E06BE1FC01F6
:1027600080810E948B0F0F9108950F93062F22E016
:1027700044E06CE1FC0180810E948B0F0F91089571
:10278000462F6FE1FC0180810C942F0E462F60E2F2
:10279000FC0180810C942F0E462F61E2FC018081A8
:1027A0000C942F0E462F62E2FC0180810C942F0EB8
:1027B000643048F4262F220F260F2B5D622FFC0178
:1027C00080810C942F0E0895462F68E3FC018081D0
:1027D0000C942F0ECF93DF93EC0120910E013091DA
:1027E0000F01AC014F5F5F4F6AE388810E94EC0EDE
:1027F0008981DF91CF910895262F46E06AE6FC019A
:1028000080810C94580F262F45E06AE6FC018081F8
:102810000C94580F21E042E06AE6FC0180810C94A0
:10282000580F21E041E06AE6FC0180810C94580FCA
:1028300021E047E06BE6FC0180810C94580F262FC5
:1028400046E06BE6FC0180810C94580F0F93062F35
:1028500023E042E06BE6FC0180810E948B0F0F9128
:102860000895CF93DF93EC0161E00E94261460E0AD
:10287000CE010E94AA1360E0CE010E94B51360E071
:10288000CE01DF91CF910C941F140F931F93CF9320
:10289000DF93EC0100910E0110910F019C012F5F5D
:1028A0003F4F42E062E788810E943F0E898190E0BD
:1028B000982F88272A81822BDF91CF911F910F912A
:1028C00008950F931F939B0100910E0110910F012A
:1028D00064E7FC0180810E943F0E1F910F910895D3
:1028E0000F931F93CF93DF93EC0100910E01109192
:1028F0000F019C012F5F3F4F40E060E088810E9404
:10290000F60E8981DF91CF911F910F910895262FA7
:1029100040E060E0FC0180810C94580FEF92FF9240
:102920000F931F93CF93DF93EC01E0900E01F09093
:102930000F018C010F5F1F4F26E046E060E08881A9
:102940000E941B0F8981DF91CF911F910F91FF9002
:10295000EF9008950F93062F26E046E060E0FC011B
:1029600080810E948B0F0F910895EF92FF920F9339
:102970001F93CF93DF93EC01E0900E01F0900F01D5
:102980008C010F5F1F4F26E046E061E088810E94C6
:102990001B0F8981DF91CF911F910F91FF90EF90D5
:1029A00008950F93062F26E046E061E0FC01808148
:1029B0000E948B0F0F910895EF92FF920F931F9338
:1029C000CF93DF93EC01E0900E01F0900F018C01AA
:1029D0000F5F1F4F26E046E062E088810E941B0FD8
:1029E0008981DF91CF911F910F91FF90EF90089512
:1029F0000F93062F26E046E062E0FC0180810E94F2
:102A00008B0F0F910895262F47E06AE6FC01808125
:102A10000C94580F21E043E06AE6FC0180810C949D
:102A2000580F6F712111606241116064462F6DE68D
:102A3000FC0180810C942F0E462F6EE6FC018081F4
:102A40000C942F0ECF93DF93EC0120910E01309167
:102A50000F01AC014F5F5F4F6FE688810E94EC0E63
:102A60008981DF91CF9108955F926F927F928F92CB
:102A70009F92AF92BF92CF92DF92EF92FF920F930D
:102A80001F93CF93DF937C015B016A01622E702E4E
:102A900020E040E0662D0E941115602FC7010E94C2
:102AA0001C15C0E0D0E0812C99249394CC15DD0551
:102AB000A8F5CE014096C816D90618F45C2C5C1A0D
:102AC00002C0A0E15A2E252D30E0C40187199109DA
:102AD0008217930714F4572C519400910E01109112
:102AE0000F0195012C0F3D1F452D6FE6F7018081E9
:102AF0000E943F0EC50DD11D750CCC15DD05B0F63D
:102B0000711001C0639420E040E0662DC7010E946F
:102B10001115672DC7010E941C15C8CFDF91CF91F9
:102B20001F910F91FF90EF90DF90CF90BF90AF90EB
:102B30009F908F907F906F905F9008952F923F921B
:102B40004F925F926F927F928F929F92AF92BF92BD
:102B5000CF92DF92EF92FF920F931F93CF93DF9369
:102B600000D000D01F92CDB7DEB79D838C837B83CE
:102B70006A834A01322ED02EE98220E040E0632DA4
:102B80000E941115602F8C819D810E941C15E98087
:102B9000EE2029F080E190E00E94AA1F5C01CC2089
:102BA00031F080E190E00E94AA1F582E492EE12CBE
:102BB000F12CE814F90408F07AC0C7014096881691
:102BC000990618F4282C2E1802C010E1212E222D6F
:102BD00030E080E091E08D1991098217930714F499
:102BE0002D2C2194EA81FB81EE0DFF1DCC2059F0A4
:102BF000852DA52DB42D9A2F981B921530F4949104
:102C00009D933196F8CF5E2E4F2E252D342D422DDB
:102C10006FE6AC81BD818C910E94F60D622C712C07
:102C2000B981BB2369F1A114B10451F120E040E066
:102C3000632D8C819D810E9411156D2D8C819D814C
:102C40000E941C1500910E0110910F019501422D5B
:102C50006FE6EC81FD8180810E943F0EA301B501EA
:102C6000852D942D0E949B21892B51F0C5010E9436
:102C70004220CC2049F1852D942D0E94422024C071
:102C8000E60CF71CD20CE814F90408F092CFD1102E
:102C900001C0339420E040E0632D8C819D810E942F
:102CA00011156D2D8C819D810E941C1582CFF9819B
:102CB000FF2319F0C5010E944220CC2039F0852D58
:102CC000942D0E94422002C080E001C081E00F905C
:102CD0000F900F900F900F90DF91CF911F910F9158
:102CE000FF90EF90DF90CF90BF90AF909F908F902C
:102CF0007F906F905F904F903F902F900895CF926C
:102D0000EF920F93CC24C3940E949E150F91EF90E5
:102D1000CF9008952F923F924F925F926F927F9241
:102D20008F929F92AF92BF92CF92DF92EF92FF92DB
:102D30000F931F93CF93DF9300D01F92CDB7DEB7D1
:102D40004C017B836A833A01D22E222331F088E042
:102D500090E00E94AA1F182FF92E212C312C261446
:102D6000370408F051C0EA81FB81E20DF31DC10177
:102D700003965C01DD20C1F04491F10131968A8116
:102D80009B81E80FF91F0491F1013296E80FF91FBA
:102D90005490511044C0F4E02F0E311CEA81FB81A5
:102DA000EA0DFB1D84910DC0408101815280EA81B2
:102DB000FB81E80FF91F51100DC084E0280E311C73
:102DC00080818130D1F442E368E3F40180810E9484
:102DD0002F0EC5CF1E2FFF2E452C512CC12CEE24BB
:102DE000E394242FA201612F7F2DC4010E949E1520
:102DF00012012A0C3B1C8111B2CFDD2061F0812F22
:102E00009F2D0E94422007C0DD2039F0812F9F2D89
:102E10000E94422002C080E024C081E022C0252C14
:102E2000312CF2E0F51548F4B101812F9F2D498333
:102E30000E94D120182FF92E4981812F9F2DA0E0CB
:102E4000B0E02A813B812A0D3B1DA215B30520F677
:102E5000F901EA0FFB1F5491FC015193CF01119628
:102E6000F4CF0F900F900F90DF91CF911F910F91A2
:102E7000FF90EF90DF90CF90BF90AF909F908F909A
:102E80007F906F905F904F903F902F90089521E03A
:102E90000C948A16462F60E7FC0180810C942F0E5B
:102EA000462F61E7FC0180810C942F0E089582303B
:102EB000E8F4E82FF0E0EE0FFF1FE05FFE4F7183B4
:102EC0006083813041F0809169008C7F842B8093F6
:102ED0006900E89A089580916900440F551F440FD6
:102EE000551F837F842B80936900E99A08951F9270
:102EF0000F920FB60F9211242F933F934F935F932E
:102F00006F937F938F939F93AF93BF93EF93FF93B1
:102F1000E0911001F09111010995FF91EF91BF919E
:102F2000AF919F918F917F916F915F914F913F9161
:102F30002F910F900FBE0F901F9018951F920F9218
:102F40000FB60F9211242F933F934F935F936F937C
:102F50007F938F939F93AF93BF93EF93FF93E091F2
:102F60001201F09113010995FF91EF91BF91AF917B
:102F70009F918F917F916F915F914F913F912F9191
:102F80000F900FBE0F901F9018951F920F920FB6C3
:102F90000F9211242F933F938F939F93AF93BF93DF
:102FA0008091C6049091C704A091C804B091C9044F
:102FB0003091C50423E0230F2D3720F40196A11D85
:102FC000B11D05C026E8230F0296A11DB11D209357
:102FD000C5048093C6049093C704A093C804B0931B
:102FE000C9048091CA049091CB04A091CC04B09103
:102FF000CD040196A11DB11D8093CA049093CB040A
:10300000A093CC04B093CD04BF91AF919F918F91C9
:103010003F912F910F900FBE0F901F9018952FB7D3
:10302000F8946091C6047091C7048091C80490918F
:10303000C9042FBF08953FB7F8948091CA049091B6
:10304000CB04A091CC04B091CD0426B5A89B05C0BB
:103050002F3F19F00196A11DB11D3FBF6627782FA4
:10306000892F9A2F620F711D811D911D42E0660FFD
:10307000771F881F991F4A95D1F70895CF92DF9245
:10308000EF92FF92CF93DF936B017C010E941B189C
:10309000EB01C114D104E104F10489F00E945D1C2C
:1030A0000E941B186C1B7D0B683E734090F381E0FF
:1030B000C81AD108E108F108C851DC4FEACFDF9106
:1030C000CF91FF90EF90DF90CF900895789484B5E2
:1030D000826084BD84B5816084BD85B5826085BD14
:1030E00085B5816085BDEEE6F0E0808181608083FA
:1030F000E1E8F0E0108280818260808380818160DD
:103100008083E0E8F0E0808181608083E1EBF0E0A3
:10311000808184608083E0EBF0E080818160808347
:10312000EAE7F0E080818460808380818260808330
:103130008081816080838081806880831092C1005B
:103140000895833081F028F4813099F08230A1F025
:1031500008958730A9F08830B9F08430D1F4809197
:1031600080008F7D03C0809180008F7780938000E6
:10317000089584B58F7702C084B58F7D84BD08958E
:103180008091B0008F7703C08091B0008F7D8093D5
:10319000B0000895CF93DF9390E0FC01EE5DF64F11
:1031A0002491FC01EA5CF64F8491882349F190E078
:1031B000880F991FFC01EC5AF64FA591B491865BDC
:1031C000964FFC01C591D4919FB7611108C0F89446
:1031D0008C91209582238C93888182230AC062304F
:1031E00051F4F8948C91322F309583238C938881FD
:1031F000822B888304C0F8948C91822B8C939FBF80
:10320000DF91CF9108950F931F93CF93DF931F9278
:10321000CDB7DEB7282F30E0F901E25FF64F849199
:10322000F901EE5DF64F1491F901EA5CF64F049155
:103230000023C9F0882321F069830E94A1186981C5
:10324000E02FF0E0EE0FFF1FE65BF64FA591B49183
:103250009FB7F8948C91611103C01095812301C030
:10326000812B8C939FBF0F90DF91CF911F910F9176
:103270000895FC01818D228D90E0805C9F4F821B20
:1032800091098F7399270895FC01918D828D98176C
:1032900031F0828DE80FF11D858D90E008958FEF5C
:1032A0009FEF0895FC01918D828D981761F0828DBA
:1032B000DF01A80FB11D5D968C91928D9F5F9F736A
:1032C000928F90E008958FEF9FEF089586ED9AE139
:1032D000892B49F080E090E0892B29F00E94D61AD2
:1032E00081110C9400000895FC01848DDF01A80F6A
:1032F000B11DA35ABF4F2C91848D90E001968F731E
:103300009927848FA689B7892C93A089B1898C913C
:1033100080648C93938D848D981306C00288F38902
:10332000E02D80818F7D80830895CF93DF93EC0122
:10333000888D8823C9F0EA89FB89808185FD05C0D5
:10334000A889B9898C9186FD0FC00FB607FCF5CF0F
:10335000808185FFF2CFA889B9898C9185FFEDCF57
:10336000CE010E947419E7CFDF91CF910895CF92DB
:10337000DF92FF920F931F93CF93DF931F92CDB7EE
:10338000DEB76C0181E0D60158968C9358975B9616
:103390009C915B975C968C915C97981307C05096B4
:1033A000ED91FC915197808185FD2EC0F601038D32
:1033B00010E00F5F1F4F0F731127F02EF601848D61
:1033C000F81211C00FB607FCF9CFD6015096ED9157
:1033D000FC915197808185FFF1CFC60169830E94DE
:1033E00074196981EBCF838DE80FF11DE35AFF4F0C
:1033F0006083D6015B960C935B975296ED91FC919E
:103400005397808180620CC0D6015696ED91FC9155
:10341000579760835096ED91FC915197808180641D
:10342000808381E090E00F90DF91CF911F910F9109
:10343000FF90DF90CF900895BF92CF92DF92EF92EE
:10344000FF92CF93DF93EC016A017B01B22EE889F2
:10345000F98982E08083411581EE58076105710585
:10346000A1F060E079E08DE390E0A70196010E9471
:10347000611F2150310941095109569547953795EA
:103480002795211580E1380798F0E889F98910829D
:1034900060E874E88EE190E0A70196010E94611F48
:1034A000215031094109510956954795379527957E
:1034B000EC85FD853083EE85FF852083188EEC89B1
:1034C000FD89B082EA89FB89808180618083EA89F5
:1034D000FB89808188608083EA89FB89808180689C
:1034E0008083EA89FB8980818F7D8083DF91CF9102
:1034F000FF90EF90DF90CF90BF9008951F920F92B2
:103500000FB60F9211242F938F939F93EF93FF93F6
:10351000E091DE04F091DF048081E091E404F09119
:10352000E50482FD12C090818091E7048F5F8F7364
:103530002091E804821751F0E091E704F0E0E253B3
:10354000FB4F958F8093E70401C08081FF91EF913D
:103550009F918F912F910F900FBE0F901F901895F4
:103560001F920F920FB60F9211242F933F934F93F8
:103570005F936F937F938F939F93AF93BF93EF93DB
:10358000FF938EEC94E00E947419FF91EF91BF912C
:10359000AF919F918F917F916F915F914F913F91EB
:1035A0002F910F900FBE0F901F9018958EEC94E006
:1035B0000E94391921E0892B09F420E0822F089517
:1035C0001092D1041092D00488EE93E0A0E0B0E015
:1035D0008093D2049093D304A093D404B093D504E1
:1035E00082E691E09093CF048093CE0485EC90E046
:1035F0009093DB048093DA0484EC90E09093DD04F4
:103600008093DC0480EC90E09093DF048093DE04F0
:1036100081EC90E09093E1048093E00482EC90E0F0
:103620009093E3048093E20486EC90E09093E504A9
:103630008093E4041092E7041092E8041092E904E5
:103640001092EA04089508950E9466180E94231BB0
:103650000E946E0CC6E6D9E10E945D0D2097E1F351
:103660000E946619F9CFCF92DF92EF92FF920F93EB
:103670001F93CF93DF937C016A01EB0100E010E020
:103680000C151D0571F06991D701ED91FC91019028
:10369000F081E02DC7010995892B19F00F5F1F4FAD
:1036A000EFCFC801DF91CF911F910F91FF90EF9065
:1036B000DF90CF9008956115710581F0DB010D90C9
:1036C0000020E9F7AD0141505109461B570BDC01C1
:1036D000ED91FC910280F381E02D099480E090E06F
:1036E0000895DC01ED91FC91DB0114964D915C9104
:1036F00015976D917C910280F381E02D09946EE61F
:1037000071E00C945B1B0F931F93CF93DF93EC013D
:103710000E94711B8C01CE010E947F1B800F911FA4
:10372000DF91CF911F910F9108950F931F93CF9326
:10373000DF93EC010E945B1B8C01CE010E947F1B7A
:10374000800F911FDF91CF911F910F910895FC0180
:10375000808191810C944220CF93DF93EC0188818A
:103760009981009711F00E944220198218821D82CF
:103770001C821B821A82DF91CF9108950F931F93B1
:10378000CF93DF93EC018B016F5F7F4F888199812D
:103790000E94D120009731F0998388831B830A838C
:1037A00081E001C080E0DF91CF911F910F910895DA
:1037B000CF93DF93EC0188819981892B29F08A814D
:1037C0009B818617970760F4CE010E94BE1B882359
:1037D00041F08C819D81892B19F4E881F981108257
:1037E00081E0DF91CF910895EF92FF920F931F93A5
:1037F000CF93DF93EC017B018A01BA010E94D81BB1
:10380000811104C0CE010E94AC1B07C01D830C8334
:10381000B701888199810E94B121CE01DF91CF91BA
:103820001F910F91FF90EF900895CF93DF93EC01DC
:103830006115710561F0FB0101900020E9F7AF010E
:1038400041505109461B570B0E94F41B02C00E94B5
:10385000AC1BCE01DF91CF910895EF92FF920F93B1
:103860001F93CF93DF93CDB7DEB7A1970FB6F89430
:10387000DEBF0FBECDBF7C01CB01BA01F7011182C3
:103880001082138212821582148242E0420F8E014E
:103890000F5F1F4F0E94891FBC01C7010E94151CAA
:1038A000A1960FB6F894DEBF0FBECDBFDF91CF91CA
:1038B0001F910F91FF90EF90089508955058BB27E6
:1038C000AA270ED0FCC1EDD130F0F2D120F031F4B6
:1038D0009F3F11F41EF4BDC10EF4E095E7FBB3C1A8
:1038E000E92FFED180F3BA176207730784079507A3
:1038F00018F071F49EF516C20EF4E0950B2EBA2F57
:10390000A02D0B01B90190010C01CA01A0011124E5
:10391000FF27591B99F0593F50F4503E68F11A1691
:10392000F040A22F232F342F4427585FF3CF469522
:1039300037952795A795F0405395C9F77EF41F1644
:10394000BA0B620B730B840BBAF09150A1F0FF0F0E
:10395000BB1F661F771F881FC2F70EC0BA0F621FFA
:10396000731F841F48F4879577956795B795F795EA
:103970009E3F08F0B3CF9395880F08F09927EE0F7C
:103980009795879508958DD158F080E891E009F4D6
:103990009EEF8ED128F040E851E059F45EEF09C067
:1039A00058C1C0C1E92FE0789BD168F3092E052AE0
:1039B000C1F3261737074807590738F00E2E07F8C6
:1039C000E02569F0E025E0640AC0EF6307F80094A1
:1039D00007FADB01B9019D01DC01CA01AD01EF93DA
:1039E00047D06DD10AD05F91552331F02BED3FE0E8
:1039F00049E450FD49EC63CF0895DF93DD27B92FEB
:103A0000BF7740E85FE31616170648075B0710F418
:103A1000D92F93D19F938F937F936F933AD2E8E6F8
:103A2000F0E01AD14CD12F913F914F915F9198D1F5
:103A3000DD2349F09058A2EA2AED3FE049EC5FE32C
:103A4000D0785D274DDFDF913AC1D9D008F481E00D
:103A500008950CD034C12CD140F023D130F021F4A2
:103A60005F3F19F0F0C051115EC1F3C039D198F336
:103A70009923C9F35523B1F3951B550BBB27AA27EF
:103A800062177307840738F09F5F5F4F220F331F61
:103A9000441FAA1FA9F333D00E2E3AF0E0E830D02D
:103AA00091505040E695001CCAF729D0FE2F27D030
:103AB000660F771F881FBB1F261737074807AB07FE
:103AC000B0E809F0BB0B802DBF01FF2793585F4F73
:103AD0002AF09E3F510568F0B6C025C15F3FECF368
:103AE000983EDCF3869577956795B795F7959F5F38
:103AF000C9F7880F911D9695879597F90895E1E08C
:103B0000660F771F881FBB1F621773078407BA07EA
:103B100020F0621B730B840BBA0BEE1F88F7E09545
:103B2000089504D06894B111FEC00895E1D088F0E2
:103B30009F5790F0B92F9927B751A0F0D1F0660F99
:103B4000771F881F991F1AF0BA95C9F712C0B130B4
:103B500081F0E8D0B1E00895E5C0672F782F88277D
:103B6000B85F39F0B93FCCF3869577956795B395F3
:103B7000D9F73EF490958095709561957F4F8F4F62
:103B80009F4F0895E89409C097FB3EF49095809567
:103B9000709561957F4F8F4F9F4F9923A9F0F92F13
:103BA00096E9BB279395F695879577956795B79591
:103BB000F111F8CFFAF4BB0F11F460FF1BC06F5F77
:103BC0007F4F8F4F9F4F16C0882311F096E911C089
:103BD000772321F09EE8872F762F05C0662371F0AA
:103BE00096E8862F70E060E02AF09A95660F771FBE
:103BF000881FDAF7880F9695879597F90895990F9A
:103C00000008550FAA0BE0E8FEEF16161706E807A6
:103C1000F907C0F012161306E407F50798F0621BC7
:103C2000730B840B950B39F40A2661F0232B242B9C
:103C3000252B21F408950A2609F4A140A6958FEFBB
:103C4000811D811D089597F99F6780E870E060E00D
:103C500008959FEF80EC0895DF93CF931F930F9308
:103C6000FF92EF92DF927B018C01689405C0DA2EFF
:103C7000EF0176D0FE01E894A5912591359145910B
:103C80005591AEF3EF012CDEFE019701A801DA9405
:103C900079F7DF90EF90FF900F911F91CF91DF9117
:103CA000089500240A9416161706180609060895A2
:103CB00000240A9412161306140605060895092E08
:103CC0000394000C11F4882352F0BB0F40F4BF2B77
:103CD00011F460FF04C06F5F7F4F8F4F9F4F0895B7
:103CE00057FD9058440F551F59F05F3F71F04795AD
:103CF000880F97FB991F61F09F3F79F08795089592
:103D0000121613061406551FF2CF4695F1DF08C0B0
:103D1000161617061806991FF1CF869571056105CD
:103D200008940895E894BB2766277727CB0197F975
:103D3000089565DF08F48FEF08959B01AC0160E002
:103D400070E080E89FE385CE0BD0B9CFAADF28F0E2
:103D5000AFDF18F0952309F076CF7BCF1124E3CFA6
:103D6000BFDFA0F3959FD1F3950F50E0551F629FE1
:103D7000F001729FBB27F00DB11D639FAA27F00DC4
:103D8000B11DAA1F649F6627B00DA11D661F829FEB
:103D90002227B00DA11D621F739FB00DA11D621FD0
:103DA000839FA00D611D221F749F3327A00D611DED
:103DB000231F849F600D211D822F762F6A2F1124CF
:103DC0009F5750408AF0E1F088234AF0EE0FFF1F22
:103DD000BB1F661F771F881F91505040A9F79E3F59
:103DE000510570F030CF9FCF5F3FECF3983EDCF38E
:103DF000869577956795B795F795E7959F5FC1F796
:103E0000FE2B880F911D9695879597F9089511F4CB
:103E10000EF41FCF41C06CDFD0F39923D9F3CEF35A
:103E20009F57550B87FF46D00024A0E640EA90013B
:103E300080585695979528F4805C660F771F881FE9
:103E400020F026173707480730F4621B730B840BEA
:103E5000202931294A2BA69517940794202531252E
:103E60004A2758F7660F771F881F20F02617370755
:103E7000480730F4620B730B840B200D311D411D7C
:103E8000A09581F7B901842F9158880F9695879551
:103E900008959B01AC0158CF9F3F31F0915020F421
:103EA000879577956795B795880F911D9695879516
:103EB00097F9089591505040660F771F881FD2F7E9
:103EC0000895A1E21A2EAA1BBB1BFD010DC0AA1F5B
:103ED000BB1FEE1FFF1FA217B307E407F50720F073
:103EE000A21BB30BE40BF50B661F771F881F991FEE
:103EF0001A9469F760957095809590959B01AC0137
:103F0000BD01CF010895EE0FFF1F0590F491E02D44
:103F10000994EF920F931F93CF93DF93E80147FF2C
:103F200002C034E101C034E0E42FFF27E7FDF09543
:103F3000F7FF03C0F195E195F109E32E022F2E2F33
:103F4000AE010E94B821CE01DF91CF911F910F9158
:103F5000EF900895CF93DF938230910510F482E0C3
:103F600090E0E0916D05F0916E0520E030E0A0E07A
:103F7000B0E0309739F14081518148175907B8F0C6
:103F80004817590771F482819381109729F013968D
:103F90009C938E9312972CC090936E0580936D0521
:103FA00027C02115310531F04217530718F0A90138
:103FB000DB0101C0EF019A01BD01DF010280F38145
:103FC000E02DD7CF21153105F9F0281B390B24300E
:103FD000310580F48A819B816115710521F0FB0117
:103FE0009383828304C090936E0580936D05FE01D8
:103FF000329644C0FE01E20FF31F81939193225049
:104000003109398328833AC020916B0530916C05C2
:10401000232B41F4209102013091030130936C0570
:1040200020936B052091000130910101211531058C
:1040300041F42DB73EB74091040150910501241B76
:10404000350BE0916B05F0916C05E217F307A0F4D6
:104050002E1B3F0B2817390778F0AC014E5F5F4FDE
:104060002417350748F04E0F5F1F50936C0540939F
:104070006B058193919302C0E0E0F0E0CF01DF9106
:10408000CF910895CF93DF93009709F487C0FC0187
:10409000329713821282C0916D05D0916E052097E0
:1040A00081F420813181280F391F80916B05909117
:1040B0006C058217930779F5F0936C05E0936B0517
:1040C0006DC0DE0120E030E0AE17BF0750F412965D
:1040D0004D915C9113979D014115510509F1DA014C
:1040E000F3CFB383A28340815181840F951F8A1738
:1040F0009B0771F48D919C911197840F951F0296E7
:104100009183808312968D919C91139793838283E0
:104110002115310529F4F0936E05E0936D053EC03D
:10412000D9011396FC93EE9312974D915D91A40FD4
:10413000B51FEA17FB0779F480819181840F951FE1
:104140000296D90111969C938E9382819381139646
:104150009C938E931297E0E0F0E08A819B81009718
:1041600019F0FE01EC01F9CFCE01029628813981C8
:10417000820F931F20916B0530916C05281739072A
:1041800069F4309729F410926E0510926D0502C003
:1041900013821282D0936C05C0936B05DF91CF918F
:1041A0000895A0E0B0E0E7EDF0E20C941224EC01F9
:1041B000CB01209719F40E94AA1FB8C0FE01E60F98
:1041C000F71F9E0122503109E217F30708F4ACC033
:1041D000D9010D911C91119706171707B8F00530FA
:1041E000110508F49FC0A80144505109461757070C
:1041F00008F498C002501109061B170B0193119384
:104200006D937C93CF010E9442208CC05B01A01A69
:10421000B10A4E01800E911EA0916D05B0916E0500
:10422000612C712C60E070E0109709F449C0A8156A
:10423000B905C9F5ED90FC901197670142E0C40EF5
:10424000D11CCA14DB0478F147018A189B08640169
:1042500042E0C40ED11C1296BC9012971396AC91FA
:10426000B5E0CB16D10440F0B282A3839182808264
:10427000D9018D939C9309C00E5F1F4F0E0D1F1D1A
:10428000F90111830083EB2DFA2F6115710531F0CF
:10429000DB011396FC93EE93129744C0F0936E05E6
:1042A000E0936D053FC06D917C911197661677067E
:1042B00008F43B01BD0112960D90BC91A02DB4CF26
:1042C00060916B0570916C0568157905E9F46816C5
:1042D0007906D0F44091000150910101411551053A
:1042E00041F44DB75EB76091040170910501461B22
:1042F000570BE417F507C0F4F0936C05E0936B05DA
:10430000F901918380830EC00E94AA1F7C0100974F
:1043100059F0A801BE010E94A821CE010E944220AE
:10432000C70104C0CE0102C080E090E0CDB7DEB787
:10433000EEE00C942E24FB01DC0104C08D91019071
:10434000801921F441505040C8F7881B990B0895FB
:10435000FB01DC0102C001900D9241505040D8F7A2
:104360000895FB01DC0101900D920020E1F7089512
:104370006F927F929F92AF92BF92CF92DF92EF9215
:10438000FF920F931F93CF93DF93CDB7DEB729979B
:104390000FB6F894DEBF0FBECDBF6A01B22E102F4C
:1043A0000C3320F4FF24F394F00E02C04CE3F42EFF
:1043B0000F2D27E0AE014F5F5F4F0E9436237981BA
:1043C000272F2970213031F0E1FC06C0E0FC06C047
:1043D00060E005C06DE203C06BE201C060E2AE2D9B
:1043E000A07173FF36C0662311F084E001C083E042
:1043F0008B1510F4B81A01C0B12CA1110BC0F60135
:104400008B2D90E2882319F091938150FBCFCB0C38
:10441000D11CB12C662331F0F601608396012F5F29
:104420003F4F6901C6010396E2FE05C02EE4F60186
:10443000208331E404C02EE6F601208331E6318387
:104440002283FC012B2D30E22223F1F13193215004
:10445000FBCF72FF40C0662311F084E001C083E00F
:104460008B1510F4B81A01C0B12CA1110BC0F601C4
:104470008B2D90E2882319F091938150FBCFCB0CC8
:10448000D11CB12C662331F0F601608396012F5FB9
:104490003F4F6901C6010396E2FE07C029E4F60119
:1044A00020832EE4218326E406C029E6F60120833A
:1044B0002EE6218326E62283FC012B2D30E22223E7
:1044C00019F031932150FBCFFC01EB0DF11D10824F
:1044D0008EEF9FEFB7C0B1E0611101C0B0E04B2F8C
:1044E00050E01816190624F49C012F5F3F4F02C0BC
:1044F00021E030E0240F351F112329F0412F50E037
:104500004F5F5F4F02C040E050E0420F531F2B2D22
:1045100030E04217530714F4B41A01C0B12C2E2D09
:10452000287159F4F6012B2D30E2222319F0319332
:104530002150FBCFCB0CD11CB12CBB2331F0F601A9
:10454000608396012F5F3F4F6901A1110BC0F601F7
:104550002B2D30E3222319F031932150FBCFCB0CCC
:10456000D11CB12CF80E0A81372F3071A32E74FFA5
:1045700003C0013309F4FA941F142CF42F2D2930B1
:1045800018F028E001C021E0682F392F97FF02C002
:1045900060E030E0462F532F612C712C3EE2932EC9
:1045A000BC01621B71099B01DC01A41BB50BE1E09E
:1045B000F0E0EC0FFD1FAE0FBF1FE12EF12CF194C8
:1045C000E194F1084F3FFFEF5F0731F4F60190826D
:1045D000B6016F5F7F4F6B01841795074CF024176E
:1045E000350734F4BD01660D771DFB01118101C053
:1045F00010E341505109FFEF6F1A7F0AB6016F5F58
:104600007F4F4E155F0524F0F60110836B01DACF62
:104610004817590739F4063320F4053319F4A1106B
:1046200001C011E3F6011083FB018B2D90E288237A
:1046300019F091938150FBCFFB01EB0DF11D10821E
:1046400080E090E029960FB6F894DEBF0FBECDBF94
:10465000DF91CF911F910F91FF90EF90DF90CF905E
:10466000BF90AF909F907F906F900895283008F092
:1046700027E03327DA01990F311D87FD91600096FD
:104680006105710539F432602E5F3D9330E32A9560
:10469000E1F708959F3F30F080387105610509F01A
:1046A0003C5F3C5F3D93913008F08068911DDF9343
:1046B000CF931F930F93FF92EF92192F987F9695A8
:1046C000E92F96959695E90FFF27E854F64F99271D
:1046D0003327EE24FF24A701E701059008940794EF
:1046E00028F4360FE71EF81E491F511D660F771F6D
:1046F000881F991F0694A1F70590079428F4E70EE8
:10470000F81E491F561FC11D770F881F991F661F6E
:104710000694A1F70590079428F4F80E491F561F38
:10472000C71FD11D880F991F661F771F0694A1F719
:104730000590079420F4490F561FC71FD81F990FE3
:10474000661F771F881F0694A9F78491109517702C
:1047500041F0D695C79557954795F794E7941A95E4
:10476000C1F7EEE5F9E068941590159135916591E2
:10477000959105907FE27395E118F10A430B560B72
:10478000C90BD009C0F7E10CF11E431F561FC91F0A
:10479000D01D7EF4703311F48A95E6CFE894015071
:1047A00030F0080F0AF40027021708F4202F239591
:1047B000022F7A3328F079E37D932A95E9F710C028
:1047C0007D932A9589F60694979567953795179561
:1047D0001794E118F10A430B560BC90BD00998F056
:1047E00023957E9173957A3308F070E37C932013C0
:1047F000B8F77E9170617D9330F0839571E37D937E
:1048000070E32A95E1F71124EF90FF900F911F912B
:10481000CF91DF91992787FD909508952F923F9230
:104820004F925F926F927F928F929F92AF92BF92C0
:10483000CF92DF92EF92FF920F931F93CF93DF936C
:10484000CDB7DEB7CA1BDB0B0FB6F894DEBF0FBEC9
:10485000CDBF09942A88398848885F846E847D8416
:104860008C849B84AA84B984C884DF80EE80FD8018
:104870000C811B81AA81B981CE0FD11D0FB6F8948E
:0E488000DEBF0FBECDBFED010895F894FFCF4F
:10488E0000006F0580000200030004000500E8032D
:10489E005617561700000100020003004D50552018
:1048AE004649464F20686173206F766572666C6F5D
:1048BE00776564004D505520696E697469616C6945
:1048CE007A6174696F6E206661696C6564000000C0
:1048DE0000002910FC0FD10FD90FEC0FFB0F0000B9
:1048EE000000B719331B39195219441995190D0ABD
:1048FE00006E616E00696E66006F7666002E0000B7
:00000001FF
