:100000000C94B2040C9484180C94AB180C94DA047D
:100010000C94DA040C94DA040C94DA040C94DA04E8
:100020000C94DA040C94DA040C94DA040C94DA04D8
:100030000C94DA040C94DA040C94DA040C94DA04C8
:100040000C94D2180C94DA040C948B1B0C94BD1BEA
:100050000C94DA040C94DA040C94DA040C94DA04A8
:100060000C94ED120C94DA04084AD73B3BCE016E97
:1000700084BCBFFDC12F3D6C74319ABD56833DDAFF
:100080003D00C77F11BED9E4BB4C3E916BAAAABE0E
:10009000000000803F0001B202FFFF01900409232D
:1000A000A135016A0206000160080000000000009E
:1000B00000000060044000000001620200000060D7
:1000C0000400400000037B034CCD6C03AB033656A9
:1000D0007600680402CB47A202180400058BC10118
:1000E0000C0400000000037F060CC92C97979703AF
:1000F0008903264666006C022000024004000000CE
:100100000002440400000000024804000000000255
:100110004C040000000002500400000000025404DF
:100120000000000002580400000000025C0400000F
:10013000000002BC040000000001EC0400004000CC
:10014000037F060CC92C9797970402030D355D04B5
:100150000904872D353D00A301000000000107863A
:1001600001FE074105F120283038077E013007469F
:10017000019A074704F1283038076C04F128303819
:100180000216020001FB00003E000B0036000100D9
:10019000020003000000650054FFEF0000FA800039
:1001A0000B128200010002000000000000000000AD
:1001B000000000000000280000FFFF4581FFFFFA5B
:1001C0007200000000000003E80000000100017F51
:1001D000FFFFFE8001001B00000000000000000087
:1001E0000000000000003E03304000000002CAE3AF
:1001F000093E8000002000000000000000400000D8
:10020000006000000041FF000000000B2A00001603
:100210005500002182FD872650FD800000001F0050
:100220000000058000000000000001000000020046
:100230000000030000400000000000046F000265A1
:100240003200005EC040000000000000000000001E
:100250000000000000FB8C6F5DFD5D08D9007C7321
:100260003B006C12CC3200139D3200D0D632000815
:1002700000400001F4FFE68079020000000000D099
:10028000D600002710FB0000004000000000000026
:10029000000000000000000001000000000000015C
:1002A00000010000000000FA36FFBC308E0005FBA4
:1002B000F0FFD95BC8FFD09ABE000010A9FFF41E62
:1002C000B200CEBBF70000000100000004000200F5
:1002D000020200000CFFC280000001800000CF80FD
:1002E00000400000000000000100000000000006C7
:1002F00000000000140000000000000000000000EA
:1003000000000000000000000000000000000000ED
:1003100000000000000000000000000000000000DD
:10032000000000000000000000033F68B679352897
:10033000BCC67ED16C80000000400000000000B20E
:100340006A00000000000000000000000000003F04
:10035000F00000003000000000000000000000007D
:10036000000000000000000000000000000000008D
:1003700000000000000000254D002F706D000005FA
:10038000AE000C02D00000000000650054FFEF003A
:100390000000000000000001000044000000000C0C
:1003A0000000000100000000000065000000540093
:1003B00000FFEF000000000000000000000000004F
:1003C00000000000004000000000000000000000ED
:1003D00000000000004000000000000000000000DD
:1003E000000000000000000001000000020000000A
:1003F00000000000000000000000000000000000FD
:1004000000000000000000000000000000000000EC
:100410000000000000001B000000000000000000C1
:1004200000000000000000000000000000000000CC
:1004300000000000000000000000000000000000BC
:100440000040000000001B00000000000000000051
:10045000000000000000000000000000000000009C
:10046000000000000000000000000000000000008C
:10047000000000000000000000000000000000007C
:100480000000000000D8DCBAA2F1DEB2B8B4A88146
:1004900091F74A907F916AF3F9DBA8F9B0BAA0808E
:1004A000F2CE81F3C2F1C1F2C3F3CCA2B280F1C6A5
:1004B000D880BAA7DFDFDFF2A7C3CBC5B6F087A22B
:1004C000942448703C95406834589B78A2F18392FC
:1004D0002D557DD8B1B4B8A1D09180F270F370F2EF
:1004E0007C80A8F101B09887D943D886C988BAA181
:1004F000F20EB89780F1A9DFDFDFAADFDFDFF2AA13
:10050000C5CDC7A90CC92C97979797F1A9892646FD
:1005100066B0B4BA80ACDEF2CAF1B28C02A9B69869
:1005200000890E161EB8A9B4992C547CB08AA896DE
:10053000365676F1B9AFB4B083C0B8A89711B18F71
:1005400098B9AFF0240844106418F1A329557DAF81
:1005500083B593AFF0002850F1A3869F61A6DADE41
:10056000DFD9FAA38696DB31A6D9F8DFBAA68FC207
:10057000C5C7B28CC1B8A2DFDFDFA3DFDFDFD8D809
:10058000F1B8A8B286B4980D355DB8AA98B0872D99
:10059000353DB2B6BAAF8C96198F9FA70E161EB412
:1005A0009AB8AA872C547CB9A3DEDFDFA3B180F20E
:1005B000C4CDC9F1B8A9B499830D355D89B9A32D0E
:1005C000557DB593A30E161EA92C547CB8B4B0F17A
:1005D0009783A81184A50998A383F0DA240844100E
:1005E0006418D8F1A529557DA58595021A2E3A568D
:1005F0005A4048F9F3A3D9F8F098832408441064CA
:10060000189782A8F111F098A2240844106418DA0F
:10061000F3DED883A59401D9A302F1A2C3C5C7D83C
:10062000F18492A24DDA2AD84869D92AD86855DAD5
:1006300032D85071D932D8705DDA3AD85879D93A6F
:10064000D87893A34DDA2AD84869D92AD86855DAD8
:1006500032D85071D932D8705DDA3AD85879D93A4F
:10066000D878A88A9AF02850789EF38818F19F1DB0
:1006700098A8D908D8C89F129EF315A8DA1210D8E6
:10068000F1AFC8978734B5B994A421F3D922D8F231
:100690002DF3D92AD8F235F3D932D881A46060611C
:1006A000D961D86C6869D969D8747071D971D8B1B9
:1006B000A384193D5DA3831A3E5E9310308110110F
:1006C000B8B0AF8F94F2DA3ED8B49AA88729DAF896
:1006D000D8879A35DAF8D8879A3DDAF8D8B1B9A42C
:1006E0009885022E56A581000C14A397B08AF12D8F
:1006F000D928D84DD948D86DD968D8B1840DDA0E2B
:10070000D8A32983DA2C0ED8A3844983DA2C4C0E83
:10071000D8B8B0A88A9AF520AADADFD8A840AAD01B
:10072000DADED8A860AADAD0DFD8F19786A8319BA4
:10073000069907AB9728889BF00C201440B8B0B4FA
:10074000A88C9CF0042851791D301438B282ABD0AB
:10075000982C505078789BF11AB0F08A9CA82951B7
:10076000798B2951798A2470598B2058718A446970
:10077000388B3940688A6448318B304960A58820BD
:100780000971584468113964493019F1AC002C548E
:100790007CF08CA804285078F1889726A85998AC4A
:1007A0008C02264666F0899CA82951792470594408
:1007B0006938644831A98809205970AB11384069FB
:1007C000A8193148608CA83C415C207C00F18798D6
:1007D0001986A86E767EA999882D557D9EB9A38A23
:1007E000228A6E8A568A5E9FB183062646660E2E40
:1007F0004E6E9DB8AD002C547CF2B18CB499B9A367
:100800002D557D8191AC38AD3AB58391AC2DD92869
:10081000D84DD948D86DD968D88C9DAE29D904AEA9
:10082000D851D904AED879D904D881F39DAD008DC3
:10083000AE1981ADD901D8F2AEDA26D88E912983CE
:10084000A7D9ADADADADF32AD8D8F1B0AC89913E02
:100850005E76F3AC2E2EF1B18C5A9CAC2C28282855
:100860009CAC3018A8988128343C9724A728343CA5
:100870009C24F2B089AC912C4C6C8A9B2DD9D8D891
:1008800051D9D8D879D9D8D8F19E88A331DAD8D817
:10089000912DD928D84DD948D86DD968D8B183932E
:1008A000353D8025DAD8D88569DAD8D8B49381A3C4
:1008B00028343CF3AB8BF8A391B609B4D9ABDEFA7C
:1008C000B0879CB9A3DDF1A3A3A3A395F1A3A3A330
:1008D0009DF1A3A3A3A3F2A3B49080F2A3A3A3A327
:1008E000A3A3A3A3A3A3B2A3A3A3A3A3A3B087B5C6
:1008F00099F1A3A3A398F1A3A3A3A397A3A3A3A34D
:10090000F39BA3A3DCB9A7F1262626D8D8FF0000C5
:1009100000080002010000030407000000000000BE
:100920000000010204081020408001020408102089
:100930000102040810200404040404040404020254
:100940000202020203030303030300000000250068
:1009500028002B0000000000240027002A009A0E27
:100960000312ED1B11241FBECFEFD8E0DEBFCDBFB9
:1009700011E0A0E0B1E0EAE5F7E402C005900D92D5
:10098000AC3AB107D9F725E0ACEAB1E001C01D925D
:10099000A33DB207E1F719E0C4E6D9E004C022970D
:1009A000FE010E946921CE35D107C9F70E94311C92
:1009B0000C94AB230C94000081E0809368040895AC
:1009C0008F929F92AF92BF92CF92EF920F931F930D
:1009D000CF93DF93CDB7DEB7C059D1090FB6F894E6
:1009E000DEBF0FBECDBF5C010E9425156EE170E039
:1009F00080E090E00E944B1960E0C5010E942C1538
:100A000021E041E060E1C5010E941E1666E0C501DB
:100A10000E942916C5010E942F1620E040E060E0E8
:100A2000C5010E941E16C5010E947D15C5010E94C8
:100A30009B15182FC5010E94C215882EC5010E9462
:100A4000E915982E4FE760E0C5010E94E51460E0CB
:100A5000C5010E94101548E660E0C5010E94E5143A
:100A6000C5010E941E1564E170E080E090E00E94E4
:100A70004B19EE24E39400E020E049E857E065E8F4
:100A800071E0C5010E948C17882309F40EC240EC66
:100A900050E065EC70E0C5010E945418882309F409
:100AA00006C263E0C5010E94331562E1C5010E94E0
:100AB000F11464E0C5010E949B1461E0C5010E942D
:100AC000A11463E0C5010E94AC1463E0C5010E945B
:100AD000B71463E0C5010E94571860E0C5010E9489
:100AE0005D1860E0C5010E949415612FC5010E9448
:100AF000B715682DC5010E94DE15692DC5010E943C
:100B00000516812C912CF401EA56FF4FE491A1E8DF
:100B1000B0E0AC0FBD1FA80DB11DEC9381E0880DB6
:100B20009FEF891A990AE3E0E81568F7CD57DF4F80
:100B30004881C358D04050E09A012E5F3F4F90E06B
:100B40002817390704F7C12CEE24E394CE57DF4F62
:100B50000881C258D040CF57DF4F2881C158D040BC
:100B600061E870E06C0F7D1F6D5F7F4FC5010E94D3
:100B7000AB1660E0F401EA56FF4FE491A1E8B0E063
:100B8000AC0FBD1FA60FB11DEC936F5FFFEF8F1A67
:100B90009F0A643078F3CD57DF4F4881C358D04067
:100BA00050E09A012E5F3F4F862F90E028173907BB
:100BB0000CF7C12CEE24E394CE57DF4F0881C258C6
:100BC000D040CF57DF4F2881C158D04061E870E056
:100BD0006C0F7D1F6D5F7F4FC5010E94AB16C50175
:100BE0000E941715C5010E945215482FBE016F5F64
:100BF0007F4FC5010E946E1562E0C5010E94CD14B1
:100C00006CE9C5010E94D91460E5C5010E94D314A6
:100C100060E0C5010E94DF14C5010E94171561E064
:100C2000C5010E94091561E0C5010E941016C501A9
:100C30000E94171660E0F401EA56FF4FE491A1E824
:100C4000B0E0AC0FBD1FA60FB11DEC936F5F8FEF2F
:100C5000881A980A643078F3CD57DF4F4881C3581B
:100C6000D04050E09A012E5F3F4F862F90E028172A
:100C700039070CF7C12CEE24E394CE57DF4F0881DF
:100C8000C258D040CF57DF4F2881C158D04061E8CB
:100C900070E06C0F7D1F6D5F7F4FC5010E94AB162A
:100CA00060E0F401EA56FF4FE491A1E8B0E0AC0F38
:100CB000BD1FA60FB11DEC936F5F9FEF891A990AB4
:100CC000643078F3CD57DF4F4881C358D04050E0AF
:100CD0009A012E5F3F4F862F90E0281739070CF7B7
:100CE000C12CEE24E394CE57DF4F0881C258D04088
:100CF000CF57DF4F2881C158D04061E870E06C0FBA
:100D00007D1F6D5F7F4FC5010E94AB1660E0F4014F
:100D1000EA56FF4FE491A1E8B0E0AC0FBD1FA60F6B
:100D2000B11DEC936F5FEFEF8E1A9E0A643078F37B
:100D3000CD57DF4F4881C358D04050E09A012E5F15
:100D40003F4F862F90E0281739070CF7C12CEE246F
:100D5000E394CE57DF4F0881C258D040CF57DF4FC2
:100D60002881C158D04061E870E06C0F7D1F6D5F35
:100D70007F4FC5010E94AB16C5010E9452158330FA
:100D80009105D0F3482FBE016F5F7F4FC5010E94D0
:100D90006E15C5010E94F71460E0F401EA56FF4F9A
:100DA000E491A1E8B0E0AC0FBD1FA60FB11DEC931C
:100DB0006F5FFFEF8F1A9F0A643078F3CD57DF4FD4
:100DC0004881C358D04050E09A012E5F3F4F862F94
:100DD00090E0281739070CF7CE57DF4F0881C2582B
:100DE000D040CF57DF4F2881C158D04061E870E034
:100DF0006C0F7D1F6D5F7F4FC5010E944116C501BD
:100E00000E94521583309105D0F3482FBE016F5FC9
:100E10007F4FC5010E946E15C5010E94F714F401B1
:100E2000EA56FF4F60E08491A1E8B0E0AC0FBD1F2F
:100E3000A60FB11D8C936F5F643010F43196F3CF21
:100E4000CD57DF4F4881C358D04050E09A012E5F04
:100E50003F4F862F90E02817390784F761E870E04C
:100E60006C0F7D1F6D5F7F4FC12CEE24E394CE5736
:100E7000DF4F0881C258D040CF57DF4F2881C1587B
:100E8000D040C5010E94AB1660E0C5010E9410165B
:100E90008AE290E0F50193838283C5010E941715D1
:100EA000C5010E94F71480E003C081E001C082E028
:100EB000C057DF4F0FB6F894DEBF0FBECDBFDF9136
:100EC000CF911F910F91EF90CF90BF90AF909F90D7
:100ED0008F9008954F925F926F927F928F929F9220
:100EE000AF92BF92CF92DF92EF92FF926B017C01A3
:100EF0004B015C01E894B7F828ED3FE049E45FE37B
:100F00000E9484202B013C0120E030E040E85FE3B8
:100F1000C501B4010E943E1E9B01AC01C701B60190
:100F20000E9484206B017C012BE438EC47E85DE3F0
:100F3000C501B4010E94842023EA32E94AE75EE356
:100F40000E943F1E9B01AC01C701B6010E94842094
:100F50009B01AC01C301B2010E943E1EFF90EF90C5
:100F6000DF90CF90BF90AF909F908F907F906F90C9
:100F70005F904F900895CF92DF92EF92FF926B01B6
:100F80007C0120E030E040E85FE30E947920181601
:100F9000BCF4A701960160E070E080E89FE30E9446
:100FA000091F0E946A079B01AC016AED7FE089EC92
:100FB0009FE30E943E1EFF90EF90DF90CF90089538
:100FC000C701B601FF90EF90DF90CF900C946A07B5
:100FD000CF93DF93DB01FA01309719F4EC01E8813C
:100FE000F981848D90E0982F8827258D820F911D9F
:100FF00011969C938E9380A190E0982F882721A131
:10100000820F911D13969C938E93129784A190E06A
:10101000982F882725A1820F911D15969C938E935A
:10102000149780E0DF91CF910895CF93DF93DB0198
:10103000FA01309719F4EC01E881F981808190E0A0
:10104000982F88272181820F911D11969C938E9352
:10105000848190E0982F88272581820F911D139617
:101060009C938E931297808590E0982F88272185F6
:10107000820F911D15969C938E931497848590E012
:10108000982F88272585820F911D17969C938E9304
:10109000169780E0DF91CF910895FF920F931F93F1
:1010A000CF93DF93CDB7DEB728970FB6F894DEBFA6
:1010B0000FBECDBF8B01BE016F5F7F4F0E94150831
:1010C000F82E81114CC069817A81882777FD80953F
:1010D000982F0E94A41F20E030E040E858E30E94CF
:1010E0008420F80160837183828393836B817C8188
:1010F000882777FD8095982F0E94A41F20E030E07C
:1011000040E858E30E948420F80164837583868355
:1011100097836D817E81882777FD8095982F0E9427
:10112000A41F20E030E040E858E30E948420F8014A
:1011300060877187828793876F817885882777FD9D
:101140008095982F0E94A41F20E030E040E858E3EB
:101150000E948420F80164877587868797878F2D82
:1011600028960FB6F894DEBF0FBECDBFDF91CF91AA
:101170001F910F91FF900895AF92BF92CF92DF928F
:10118000EF92FF920F931F93CF93DF93EB015A01DE
:101190008901FA0160817181882777FD8095982FF8
:1011A0000E94A41F6B017C0120E030E040E056E487
:1011B000F80160817181828193810E9484209B016A
:1011C000AC01C701B6010E943E1E0E94711F7983C7
:1011D0006883F50162817381882777FD8095982F58
:1011E0000E94A41F6B017C0120E030E040E056E447
:1011F000F80164817581868197810E9484209B011A
:10120000AC01C701B6010E943E1E0E94711F7B8384
:101210006A83F50164817581882777FD8095982F11
:101220000E94A41F6B017C0120E030E040E056E406
:10123000F80160857185828593850E9484209B01D9
:10124000AC01C701B6010E943E1E0E94711F7D8342
:101250006C8380E0DF91CF911F910F91FF90EF9011
:10126000DF90CF90BF90AF9008954F925F926F92B2
:101270007F928F929F92AF92BF92CF92DF92EF9226
:10128000FF920F931F93CF93DF93CDB7DEB72897CD
:101290000FB6F894DEBF0FBECDBF8B01DA011496F6
:1012A000CD90DD90ED90FC9017971C964D905D9041
:1012B0006D907C901F978D909D90AD90BC901397F2
:1012C00018968D919D910D90BC91A02D89839A8344
:1012D000AB83BC83A3019201C701B6010E948420A5
:1012E0006D837E838F83988729813A814B815C81CE
:1012F000C501B4010E9484209B01AC016D817E81F7
:101300008F8198850E943E1E9B01AC010E943F1E6A
:10131000F8016083718382839383A7019601C501DD
:10132000B4010E9484206D837E838F839887A301FC
:10133000920169817A818B819C810E9484209B012A
:10134000AC016D817E818F8198850E943F1E9B013B
:10135000AC010E943F1ED80114966D937D938D932E
:101360009C931797A5019401C501B4010E948420A4
:101370004B015C01A7019601C701B6010E948420C0
:101380009B01AC01C501B4010E943E1E6B017C01B2
:1013900029813A814B815C81CA01B9010E94842074
:1013A0009B01AC01C701B6010E943E1E6B017C018E
:1013B000A3019201C301B2010E9484209B01AC01F0
:1013C000C701B6010E943F1EF801608771878287BE
:1013D000938780E028960FB6F894DEBF0FBECDBF8E
:1013E000DF91CF911F910F91FF90EF90DF90CF9001
:1013F000BF90AF909F908F907F906F905F904F9035
:1014000008952F923F924F925F926F927F928F92A8
:101410009F92AF92BF92CF92DF92EF92FF920F9383
:101420001F93CF93DF9300D000D000D0CDB7DEB7AD
:101430001B018A013E832D83FA01C080D180E280A6
:10144000F380A7019601C701B6010E943F1E698380
:101450007A838B839C83F80184809580A680B780F3
:10146000A5019401C501B4010E943F1E2B013C015E
:10147000A701960169817A818B819C810E948420D9
:101480006B017C01A5019401C301B2010E9484207B
:101490009B01AC01C701B6010E943F1E20E030E075
:1014A00040E85FE30E943E1E6B017C01F80120854D
:1014B000318542855385C301B2010E9484202B01EE
:1014C0003C01F801248535854685578569817A81F7
:1014D0008B819C810E9484209B01AC01C301B201DD
:1014E0000E943E1EA70196010E94B21EF101608378
:1014F000718382839383ED81FE816481758186810E
:101500009781C084D184E284F3849B01AC010E9462
:1015100084204B015C01A7019601C701B6010E941E
:1015200084209B01AC01C501B4010E943F1E0E94B2
:10153000EB209B01AC01ED81FE8160817181828194
:1015400093810E94091F0E94BB07F1016483758388
:1015500086839783ED81FE81608171818281938191
:10156000C084D184E284F3849B01AC010E94842076
:101570004B015C01A7019601C701B6010E948420BE
:101580009B01AC01C501B4010E943F1E0E94EB20EB
:101590009B01AC01ED81FE8164817581868197811B
:1015A0000E94091F0E94BB07F10160877187828733
:1015B000938780E026960FB6F894DEBF0FBECDBFAE
:1015C000DF91CF911F910F91FF90EF90DF90CF901F
:1015D000BF90AF909F908F907F906F905F904F9053
:1015E0003F902F9008954F925F926F927F928F92CB
:1015F0009F92AF92BF92CF92DF92EF92FF920F93A2
:101600001F93CF93DF93EC01FC01EC53FE4F8081DD
:101610008823D9F0CE0187539E4F7C018E010F5451
:101620001E4F6E0199E3C91A9EEFD90A8091680492
:1016300081110EC0F70120813181F60180819181F5
:101640002817390708F44FC103C081E090E052C168
:1016500010926804C8010E94F7146E01FBE3CF1AD0
:10166000FEEFDF0AF6018083C8010E945215F701E0
:1016700091838083F601208124FD03C0811594406D
:1016800031F4C8010E94171582E090E033C121FDBA
:1016900003C080E090E02EC15E01F9E3AF1AFEEFD7
:1016A000BF0ACE0185539E4F6C013E0191E5691A38
:1016B0009EEF790A4E01E5E58E1AEEEF9E0AF501DE
:1016C00040815181F701808191818417950750F104
:1016D000B601C8010E946E150E942819F4012081EC
:1016E0003181AB01421B530BF301518340830E94B4
:1016F0002819F4016083718382839383F50120812B
:101700003181F70180819181821B930B91838083CA
:1017100082179307A0F26CE171E082E395E00E94EA
:101720008B1CCDCFA6015E01F5EFAF1AFDEFBF0A0E
:10173000B501C8010E944D08A5017E0139EDE31AEB
:101740003DEFF30AB701C8010E943509A6016E01F9
:1017500085EEC81A8DEFD80AB601C8010E94E807C5
:101760009701A501BE01635B7D4FC8010E94010A7C
:101770009701A6017E019FEDE91A9DEFF90AB701D5
:10178000C8010E94BC084E01EFEB8E1AEDEF9E0AD5
:10179000FE01E15CFD4F91828082F70160817181E1
:1017A000882777FD8095982F0E94A41FF4016083FD
:1017B0007183828393838E010B5B1D4F7E976081C3
:1017C0007181882777FD8095982F0E94A41FF801CA
:1017D00060837183828393830C5F1F4FB097608116
:1017E0007181882777FD8095982F0E94A41FF801AA
:1017F0006083718382839383EF59F1098081882309
:1018000009F447CF35966081718180E090E00E94B5
:10181000A21F2B013C0100E010E05E01FFEBAF1ABC
:10182000FDEFBF0AFE01ED5CFD4F20813181428159
:101830005381F50160817181828193810E943E1EF6
:101840006B017C01F50160837183828393835E0168
:10185000F3EBAF1AFDEFBF0AE35AF10920813181A2
:1018600042815381F50160817181828193810E945F
:101870003E1EF50160837183828393835E01F7EAE4
:10188000AF1AFDEFBF0AF4012191319141915191BD
:101890004F01C701B6010E943F1E20E030E040E04A
:1018A0005FE30E948420A30192010E94842020E033
:1018B00034E244E759E40E94091F9B01AC01F501A1
:1018C00060817181828193810E943F1EF501608356
:1018D0007183828393830F5F1F4F2496033011051A
:1018E00009F09BCFD6CEC8010E945215F701918313
:1018F00080839CCEDF91CF911F910F91FF90EF904D
:10190000DF90CF90BF90AF909F908F907F906F901F
:101910005F904F9008952F923F924F925F926F92F7
:101920007F928F929F92AF92BF92CF92DF92EF926F
:10193000FF920F931F93CF93DF93CDB7DEB72C9712
:101940000FB6F894DEBF0FBECDBF9C878B870E9479
:101950001C196B017C010E941C196C197D098E09F0
:101960009F09603375478105910528F48B859C8517
:101970000E94F30AF0CF6CE271E082E395E00E94EE
:101980008B1C18EE812E13E0912EAB84BC848DEC61
:10199000A81A8DEFB80A2B843C849FEB291A9DEF7F
:1019A000390ACB84DC84E9ECCE1AEDEFDE0A8B85B4
:1019B0009C858B5B9D4F9A838983EB84FC8495EC9B
:1019C000E91A9DEFF90AEB85FC85E75BFD4FFC8387
:1019D000EB830B851C8502561E4F8B859C85835B94
:1019E0009D4F9E838D836B847C849EE5691A9EEF58
:1019F000790AEB85FC85EF5AFD4FF887EF834B841E
:101A00005C84FAE54F1AFEEF5F0A8B859C858B5A42
:101A10009D4F9A8789878B859C850E94F30A892B25
:101A200031F068E371E082E395E00E948B1C20E0D6
:101A300030E04AE754E4F101608171818281938151
:101A40000E94091F9B01AC01F501608171818281B7
:101A500093810E943F1EF50160837183828393838B
:101A600020E030E04AE754E4E981FA816081718145
:101A7000828193810E94091F9B01AC01F601608164
:101A80007181828193810E943F1EF6016083718380
:101A90008283938320E030E04AE754E4EB81FC81C9
:101AA00060817181828193810E94091F9B01AC0139
:101AB000F70160817181828193810E943F1EF7014D
:101AC000608371838283938320E030E04AE754E4AB
:101AD000ED81FE8160817181828193810E94091F65
:101AE0009B01AC01F80160817181828193810E9428
:101AF0003F1EF801608371838283938320E030E08E
:101B00004AE754E4EF81F885608171818281938195
:101B10000E94091F9B01AC01F301608171818281E8
:101B200093810E943F1EF3016083718382839383BC
:101B300020E030E04AE754E4E985FA85608171816C
:101B4000828193810E94091F9B01AC01F201608197
:101B50007181828193810E943F1EF20160837183B3
:101B600082839383F1E08F1A910809F054CF81EEBC
:101B70009AE7A4EBB1E4F50180839183A283B38358
:101B800088EB9EE1ADE6B1ECF60180839183A28300
:101B9000B3838FE29DE2AFE9B3ECF70180839183D9
:101BA000A283B38388EB9EE1A7EAB1E4F8018083C6
:101BB0009183A283B38388EB9EE1A5E4BFE3F301A5
:101BC00080839183A283B3838FE892ECA5EFBEEB71
:101BD000F20180839183A283B383EB85FC85E75A6E
:101BE000FD4F1082118212821382EB85FC85E35A2D
:101BF000FD4F1082118212821382EB85FC85EF5912
:101C0000FD4F1082118212821382EB85FC85E6550E
:101C1000FE4F81E080832C960FB6F894DEBF0FBE96
:101C2000CDBFDF91CF911F910F91FF90EF90DF908B
:101C3000CF90BF90AF909F908F907F906F905F906C
:101C40004F903F902F90089526E040E052EC61E0E5
:101C500070E082E395E00E94291B6DE371E082E36E
:101C600095E00E948B1C89E694E00E94751188E142
:101C70008093B8008DE593E00E943E158DE593E0DA
:101C80000E94E0048093720381111FC061E08DE522
:101C900093E00E94101643E050E06CED74E080E0A9
:101CA0000E9464188DE593E00E94F71480937103FD
:101CB0001092560381E08093700380915F039091AE
:101CC000600390937403809373036AE471E082E38A
:101CD00095E00E948B1C8CEA91E00E948B0C811194
:101CE0000DC068E671E082E395E00E948B1C68E716
:101CF00071E082E395E00E947E1CF9CF08958CEAA2
:101D000091E00E94F30A8091670491E08927809313
:101D10006704882371F04091050450910604609196
:101D200007047091080422E030E082E395E00C940F
:101D30002B1E089566E071E081E194E00E94391461
:101D400010923C0310923D0310923E0310923F0309
:101D50008DE593E00E9497141092700380E090E06C
:101D6000A0E8BFE38093B7039093B803A093B903AF
:101D7000B093BA031092BB031092BC031092BD0340
:101D80001092BE031092BF031092C0031092C103C1
:101D90001092C2031092C3031092C4031092C503A1
:101DA0001092C6031092C8031092C7031092CA0380
:101DB0001092C9031092CC031092CB031092CE0361
:101DC0001092CD031092D0031092CF031092D20341
:101DD0001092D1031092D3031092D4031092D50322
:101DE0001092D6031092D7031092D8031092D90301
:101DF0001092DA031092DB031092DC031092DD03E1
:101E00001092DE030895EF92FF920F931F93CF93EA
:101E1000DF9300D0CDB7DEB7062F142F682F89E6E9
:101E200094E029833A830E947F11602F89E694E031
:101E30000E9436112981022FE22E3A81F32E8E2D37
:101E4000801B811740F4F70161917F0189E694E0DE
:101E50000E943611F4CF89E694E00E94001291E0CE
:101E6000811190E0892F0F900F90DF91CF911F91FA
:101E70000F91FF90EF900895CF93DF931F92CDB70E
:101E8000DEB749839E012F5F3F4F41E00E94030F61
:101E90000F90DF91CF9108953F924F925F926F9292
:101EA0007F928F929F92AF92BF92CF92DF92EF92EA
:101EB000FF920F931F93CF93DF9300D000D000D0F9
:101EC000CDB7DEB7682E562E742E3A8329830E9432
:101ED0001C196B017C01312C412C872D90E09C83D7
:101EE0008B834801A12CB12C3714B0F5662D89E6FF
:101EF00094E00E947F11652D89E694E00E943611DE
:101F000089E694E00E940012662D89E694E00E9422
:101F10007F114B815C81431951094132510514F005
:101F200040E250E0662D89E694E00E94FD1189E6CA
:101F300094E00E94DE10892B59F10115110579F109
:101F40000E941C196C197D098E099F096815790575
:101F50008A059B0520F11CC00115110589F10E941D
:101F60001C196C197D098E099F0920E030E060176B
:101F700071078207930720F1872D90E0242D3327E6
:101F800027FD309528173907DCF444244A9418C0FB
:101F9000872D90E2971508F480E2380EA5CFE981ED
:101FA000FA81E40DF11D47FCFA95FE83ED8389E685
:101FB00094E00E94E610ED81FE8180834394B7CFC8
:101FC000842D26960FB6F894DEBF0FBECDBFDF91ED
:101FD000CF911F910F91FF90EF90DF90CF90BF9026
:101FE000AF909F908F907F906F905F904F903F90B9
:101FF00008950F931F9389019A0141E00E944C0FAD
:102000001F910F910895DF92EF92FF920F931F930C
:10201000CF93DF931F92CDB7DEB7D42E790198010D
:10202000AE014F5F5F4F0E94F90F61E070E001C0A9
:10203000660FDA94EAF799819623F70190830F905F
:10204000DF91CF911F910F91FF90EF90DF90089556
:10205000CF92DF92EF92FF920F931F93CF93DF9374
:102060001F92CDB7DEB7C42ED22E9701AE014F5FBF
:102070005F4F0E94F90F8823F1F04C2D50E04D196D
:1020800051094F5F5F4F61E070E002C0660F771F3C
:10209000DA94E2F761507109042E01C0660F0A94C8
:1020A000EAF72981262330E002C0359527954A9525
:1020B000E2F7F80120830F90DF91CF911F910F91EC
:1020C000FF90EF90DF90CF900895EF92FF920F93E3
:1020D0001F93CF93DF931F92CDB7DEB7182F062F34
:1020E000F42EE22E20910E0130910F01AE014F5FD0
:1020F0005F4F0E94F90F898121E030E00F2C01C071
:10210000220F0A94EAF7EE2019F0482F422B03C061
:10211000422F409548234983602F812F0E943C0F16
:102120000F90DF91CF911F910F91FF90EF90089545
:10213000DF92EF92FF920F931F93CF93DF931F9243
:10214000CDB7DEB7F82EE62ED42E122F20910E0139
:1021500030910F01AE014F5F5F4F0E94F90F88234E
:1021600019F14D2D50E0411B51094F5F5F4FE1E0E8
:10217000F0E002C0EE0FFF1F1A95E2F73197042E30
:1021800001C0EE0F0A94EAF701C0000F4A95EAF782
:102190004E2F409589814823E0234E2B49836E2D95
:1021A0008F2D0E943C0F01C080E00F90DF91CF91F6
:1021B0001F910F91FF90EF90DF9008958091990407
:1021C00090E020919A04821B9109089520919A042D
:1021D00080919904281750F4E22FF0E0E556FB4F68
:1021E000808190E02F5F20939A0408958FEF9FEFF6
:1021F0000895E0919A0480919904E81730F4F0E092
:10220000E556FB4F808190E008958FEF9FEF089592
:102210000895CF92DF92EF92FF920F931F93CF9387
:10222000DF937C01CB018A0120917504222389F080
:10223000EB016B01C40ED51ECC15DD0569F069916B
:10224000D701ED91FC910190F081E02DC701099536
:10225000F3CF642F0E94C412C801DF91CF911F9168
:102260000F91FF90EF90DF90CF900895CF93DF9381
:102270001F92CDB7DEB76983209175042223D1F078
:1022800020917604203240F021E030E0FC013383DD
:10229000228380E090E015C080917704E82FF0E081
:1022A000E858FB4F998190838F5F809377048093E8
:1022B000760405C061E0CE0101960E94C41281E05F
:1022C00090E00F90DF91CF910895FC01138212826C
:1022D00048EE53E060E070E0448355836683778383
:1022E00080E891E091838083089510929A0410927F
:1022F000990410927704109276040C94071281E0EE
:102300008093750460939804109277041092760479
:1023100008950F93062F21E04091760468E774E05A
:10232000809198040E946D121092770410927604A6
:10233000109275040F9108958F929F92AF92BF9261
:10234000CF92DF92EF92FF920F931F93CF93DF9381
:10235000EC01F62ED42E48015901EE2019F10E940D
:102360007F111E2D143008F013E01150B8F0E881F1
:10237000F98128E0129FB0011124A501940104C045
:1023800056954795379527956A95D2F7CA01B901B1
:102390000190F081E02DCE010995E7CF60E0CE01FC
:1023A0000E9489114D2D413208F040E22C2D6BE93D
:1023B00074E08F2D0E94251210929A048093990444
:1023C000DF91CF911F910F91FF90EF90DF90CF9011
:1023D000BF90AF909F908F900895CF92EF920F9300
:1023E0001F93C22EE12C00E010E098010E949C1186
:1023F0001F910F91EF90CF90089521E00C94ED1173
:1024000061E00C94891189E694E00C9465111092B6
:10241000280581E0809326051092250561E082E180
:102420000E94101A61E083E10E94101AE9EBF0E0CB
:1024300080818E7F808380818D7F808388E48093FC
:10244000B80085E48093BC000895413208F043C091
:10245000909128059111FCCF91E09093280520934D
:1024600026052FEF2093BB0410920005240F209324
:10247000FF049093270590912705880F892B80935F
:10248000270580912505813061F410922505809102
:1024900027058093BB008091BC0083FDF8CF85ECBD
:1024A00001C085EE8093BC00809128058130E1F366
:1024B00080910005841710F44091000521E035E07B
:1024C000FB01D9018A2F821B841718F48D91819307
:1024D000F9CF842F089580E008950F93413208F0DA
:1024E0004AC0909128059111FCCF92E09093280565
:1024F000009326059FEF9093BB0410920005409334
:10250000FF04FB0161E075E0DB019A2F961B941735
:1025100018F491919D93F9CF10922705909127057A
:10252000880F892B8093270580912505813061F4E0
:1025300010922505809127058093BB008091BC00F7
:1025400083FDF8CF85EC01C085EE8093BC0022238B
:1025500021F0809128058230E1F38091BB048F3F08
:1025600061F08091BB04803251F08091BB048033D4
:1025700041F483E007C081E005C080E003C082E051
:1025800001C084E00F910895613298F420912805EC
:10259000243089F46093DD04FC018FED94E0DC01CC
:1025A0002A2F281B261718F421912D93F9CF80E0AC
:1025B000089581E0089582E0089585ED8093BC0040
:1025C0008091BC0084FDFCCF10922805089585EC15
:1025D0008093BC001092280508951F920F920FB6A9
:1025E0000F9211242F933F934F935F936F937F9399
:1025F0008F939F93AF93BF93EF93FF938091B90015
:10260000887F803609F49EC078F5883209F45DC071
:1026100090F4803109F456C038F4882309F4F5C0E9
:10262000883009F44FC0F5C0883109F44EC08032BB
:1026300009F45FC0EEC0803409F46AC058F48033F6
:1026400009F457C0883309F0E4C08093BB040E94AA
:10265000E712DFC0803509F44FC0883509F45DC04A
:10266000883409F0D6C0D3C0883909F4C4C0A8F4AE
:10267000883709F467C038F4883609F463C08037B6
:1026800009F460C0C6C0883809F4B5C0803909F4BF
:102690005FC0803809F0BDC05BC0803B09F483C0D7
:1026A00038F4803A09F466C0883A09F47CC0B1C0B5
:1026B000803C09F4A4C0883C09F4A1C0883B09F41B
:1026C00087C0A7C08091270510C090910005809118
:1026D000FF04981770F5E091000581E08E0F80935C
:1026E0000005F0E0EF5FFA4F80818093BB0085EC3E
:1026F00083C08093BB048BC0E091000581E08E0F06
:10270000809300058091BB00F0E0EF5FFA4F80837B
:10271000909100058091FF046BC0E091000581E07D
:102720008E0F809300058091BB00F0E0EF5FFA4FC1
:1027300080838091260581116AC081E08093250500
:1027400084EA5EC083E0809328051092BC04CFCF5A
:102750008091BC04803208F04EC0E091BC0481E05E
:102760008E0F8093BC048091BB00F0E0E354FB4FDC
:102770008083BDCF0E94E7128091BC04803230F488
:10278000E091BC04F0E0E354FB4F10826091BC0484
:1027900070E0E0912105F09122058DEB94E0099520
:1027A0001092BC0436C084E0809328051092DE04A9
:1027B0001092DD04E0912305F091240509958091A4
:1027C000DD04811105C081E08093DD041092DF04F7
:1027D000E091DE0481E08E0F8093DE04F0E0E152B0
:1027E000FB4F80818093BB009091DE048091DD04DB
:1027F000981708F47CCF85E88093BC000AC085EC6C
:102800008093BC001092280504C01092BB040E9463
:10281000DD12FF91EF91BF91AF919F918F917F91C9
:102820006F915F914F913F912F910F900FBE0F903D
:102830001F901895613D27E072073CF4683EE3E085
:102840007E072CF468EE73E002C060ED77E0FC01D7
:102850007183608321E024870895FC01862F28EE90
:1028600033E03183208362837383158661E00C94A7
:10287000D719BF92CF92DF92EF92FF920F931F93DF
:10288000CF93DF93CDB7DEB72E970FB6F894DEBFA8
:102890000FBECDBF2FEF3FEFFC0133832283318B7F
:1028A000208B378F268F35A724A728E0E4E1F1E0BD
:1028B000DC01D89601900D922A95E1F7FC01E05BCE
:1028C000FF4F118210827B018C0184E0C82ED12C35
:1028D0009EE0B92EF701619171917F01CE010196C1
:1028E0000E942D14FE013196D8018B2D01900D927E
:1028F0008A95E1F768EE73E0C8010E941A14F1E0CE
:10290000CF1AD108025F1F4FC114D10419F72E96B8
:102910000FB6F894DEBF0FBECDBFDF91CF911F91F0
:102920000F91FF90EF90DF90CF90BF90089528E631
:10293000FC0120830895462F69E1FC0180810C94FD
:102940003C0F0F93062F23E045E06AE1FC018081F4
:102950000E9498100F9108950F93062F23E042E0F4
:102960006AE1FC0180810E9498100F9108950F93F5
:10297000062F22E044E06BE1FC0180810E94981068
:102980000F9108950F93062F22E044E06CE1FC01C3
:1029900080810E9498100F910895462F6FE1FC01ED
:1029A00080810C943C0F462F60E2FC0180810C94E6
:1029B0003C0F462F61E2FC0180810C943C0F462FB6
:1029C00062E2FC0180810C943C0F643048F4262FB5
:1029D000220F260F2B5D622FFC0180810C943C0F8F
:1029E0000895462F68E3FC0180810C943C0FCF933F
:1029F000DF93EC0120910E0130910F01AC014F5F8C
:102A00005F4F6AE388810E94F90F8981DF91CF913E
:102A10000895262F46E06AE6FC0180810C9465103B
:102A2000262F45E06AE6FC0180810C94651021E0C8
:102A300042E06AE6FC0180810C94651021E041E0EF
:102A40006AE6FC0180810C94651021E047E06BE6AA
:102A5000FC0180810C946510262F46E06BE6FC019A
:102A600080810C9465100F93062F23E042E06BE603
:102A7000FC0180810E9498100F910895CF93DF93FD
:102A8000EC0161E00E94331560E0CE010E94B714B2
:102A900060E0CE010E94C21460E0CE01DF91CF91D0
:102AA0000C942C150F931F93CF93DF93EC0100919F
:102AB0000E0110910F019C012F5F3F4F42E062E732
:102AC00088810E944C0F898190E0982F88272A8165
:102AD000822BDF91CF911F910F9108950F931F9338
:102AE0009B0100910E0110910F0164E7FC018081B0
:102AF0000E944C0F1F910F9108950F931F93CF9336
:102B0000DF93EC0100910E0110910F019C012F5FEA
:102B10003F4F40E060E088810E9403108981DF918F
:102B2000CF911F910F910895262F40E060E0FC01A6
:102B300080810C946510EF92FF920F931F93CF93B7
:102B4000DF93EC01E0900E01F0900F018C010F5F1C
:102B50001F4F26E046E060E088810E9428108981AE
:102B6000DF91CF911F910F91FF90EF9008950F93F8
:102B7000062F26E046E060E0FC0180810E9498106C
:102B80000F910895EF92FF920F931F93CF93DF93CE
:102B9000EC01E0900E01F0900F018C010F5F1F4FD0
:102BA00026E046E061E088810E9428108981DF915B
:102BB000CF911F910F91FF90EF9008950F93062FE3
:102BC00026E046E061E0FC0180810E9498100F91B0
:102BD0000895EF92FF920F931F93CF93DF93EC0131
:102BE000E0900E01F0900F018C010F5F1F4F26E067
:102BF00046E062E088810E9428108981DF91CF91B0
:102C00001F910F91FF90EF9008950F93062F26E0EC
:102C100046E062E0FC0180810E9498100F910895C7
:102C2000262F47E06AE6FC0180810C94651021E0C4
:102C300043E06AE6FC0180810C9465106F712111FC
:102C4000606241116064462F6DE6FC0180810C9446
:102C50003C0F462F6EE6FC0180810C943C0FCF9315
:102C6000DF93EC0120910E0130910F01AC014F5F19
:102C70005F4F6FE688810E94F90F8981DF91CF91C4
:102C800008955F926F927F928F929F92AF92BF92C0
:102C9000CF92DF92EF92FF920F931F93CF93DF9328
:102CA0007C015B016A01622E702E20E040E0662DFF
:102CB0000E941E16602FC7010E942916C0E0D0E0B6
:102CC000812C99249394CC15DD05A8F5CE0140966E
:102CD000C816D90618F45C2C5C1A02C0A0E15A2E62
:102CE000252D30E0C401871991098217930714F448
:102CF000572C519400910E0110910F0195012C0F4A
:102D00003D1F452D6FE6F70180810E944C0FC50DD8
:102D1000D11D750CCC15DD05B0F6711001C06394A2
:102D200020E040E0662DC7010E941E16672DC701F6
:102D30000E942916C8CFDF91CF911F910F91FF906C
:102D4000EF90DF90CF90BF90AF909F908F907F904B
:102D50006F905F9008952F923F924F925F926F9283
:102D60007F928F929F92AF92BF92CF92DF92EF921B
:102D7000FF920F931F93CF93DF9300D000D01F9249
:102D8000CDB7DEB79D838C837B836A834A01322E65
:102D9000D02EE98220E040E0632D0E941E16602FB5
:102DA0008C819D810E942916E980EE2029F080E126
:102DB00090E00E946D215C01CC2031F080E190E038
:102DC0000E946D21582E492EE12CF12CE814F904B3
:102DD00008F07AC0C70140968816990618F4282C86
:102DE0002E1802C010E1212E222D30E080E091E06B
:102DF0008D1991098217930714F42D2C2194EA81DF
:102E0000FB81EE0DFF1DCC2059F0852DA52DB42D95
:102E10009A2F981B921530F494919D933196F8CF88
:102E20005E2E4F2E252D342D422D6FE6AC81BD81B7
:102E30008C910E94030F622C712CB981BB2369F124
:102E4000A114B10451F120E040E0632D8C819D81FB
:102E50000E941E166D2D8C819D810E942916009165
:102E60000E0110910F019501422D6FE6EC81FD815D
:102E700080810E944C0FA301B501852D942D0E94E5
:102E80005E23892B51F0C5010E940522CC2049F117
:102E9000852D942D0E94052224C0E60CF71CD20C2F
:102EA000E814F90408F092CFD11001C0339420E067
:102EB00040E0632D8C819D810E941E166D2D8C81BA
:102EC0009D810E94291682CFF981FF2319F0C50147
:102ED0000E940522CC2039F0852D942D0E940522D8
:102EE00002C080E001C081E00F900F900F900F9022
:102EF0000F90DF91CF911F910F91FF90EF90DF9096
:102F0000CF90BF90AF909F908F907F906F905F9089
:102F10004F903F902F900895CF92EF920F93CC2433
:102F2000C3940E94AB160F91EF90CF9008952F920B
:102F30003F924F925F926F927F928F929F92AF9249
:102F4000BF92CF92DF92EF92FF920F931F93CF9396
:102F5000DF9300D01F92CDB7DEB74C017B836A832D
:102F60003A01D22E222331F088E090E00E946D21B8
:102F7000182FF92E212C312C2614370408F051C0BB
:102F8000EA81FB81E20DF31DC10103965C01DD20A6
:102F9000C1F04491F10131968A819B81E80FF91FBC
:102FA0000491F1013296E80FF91F5490511044C07A
:102FB000F4E02F0E311CEA81FB81EA0DFB1D8491A8
:102FC0000DC0408101815280EA81FB81E80FF91F29
:102FD00051100DC084E0280E311C80818130D1F465
:102FE00042E368E3F40180810E943C0FC5CF1E2FAD
:102FF000FF2E452C512CC12CEE24E394242FA2014A
:10300000612F7F2DC4010E94AB1612012A0C3B1CBC
:103010008111B2CFDD2061F0812F9F2D0E9405220A
:1030200007C0DD2039F0812F9F2D0E94052202C0AC
:1030300080E024C081E022C0252C312CF2E0F5157F
:1030400048F4B101812F9F2D49830E949422182FAB
:10305000F92E4981812F9F2DA0E0B0E02A813B818C
:103060002A0D3B1DA215B30520F6F901EA0FFB1F3F
:103070005491FC015193CF011196F4CF0F900F9012
:103080000F90DF91CF911F910F91FF90EF90DF9004
:10309000CF90BF90AF909F908F907F906F905F90F8
:1030A0004F903F902F90089521E00C949717462F52
:1030B00060E7FC0180810C943C0F462F61E7FC0126
:1030C00080810C943C0F08958230E8F4E82FF0E002
:1030D000EE0FFF1FE05FFE4F71836083813041F090
:1030E000809169008C7F842B80936900E89A089511
:1030F00080916900440F551F440F551F837F842B17
:1031000080936900E99A08951F920F920FB60F926B
:1031100011242F933F934F935F936F937F938F93DC
:103120009F93AF93BF93EF93FF93E0911001F091C2
:1031300011010995FF91EF91BF91AF919F918F91EF
:103140007F916F915F914F913F912F910F900FBEA3
:103150000F901F9018951F920F920FB60F92112487
:103160002F933F934F935F936F937F938F939F938F
:10317000AF93BF93EF93FF93E0911201F09113018E
:103180000995FF91EF91BF91AF919F918F917F91A1
:103190006F915F914F913F912F910F900FBE0F90C4
:1031A0001F9018951F920F920FB60F9211242F9314
:1031B0003F938F939F93AF93BF9380912A059091F4
:1031C0002B05A0912C05B0912D053091290523E008
:1031D000230F2D3720F40196A11DB11D05C026E84F
:1031E000230F0296A11DB11D2093290580932A0566
:1031F00090932B05A0932C05B0932D0580912E055F
:1032000090912F05A0913005B09131050196A11D37
:10321000B11D80932E0590932F05A0933005B09398
:103220003105BF91AF919F918F913F912F910F9059
:103230000FBE0F901F9018952FB7F89460912A0534
:1032400070912B0580912C0590912D052FBF08952D
:103250003FB7F89480912E0590912F05A0913005ED
:10326000B091310526B5A89B05C02F3F19F00196F6
:10327000A11DB11D3FBF6627782F892F9A2F620F9E
:10328000711D811D911D42E0660F771F881F991FD8
:103290004A95D1F70895CF92DF92EF92FF92CF93A4
:1032A000DF936B017C010E942819EB01C114D1044A
:1032B000E104F10489F00E943D1E0E9428196C1B54
:1032C0007D0B683E734090F381E0C81AD108E10895
:1032D000F108C851DC4FEACFDF91CF91FF90EF901A
:1032E000DF90CF900895789484B5826084BD84B5D2
:1032F000816084BD85B5826085BD85B5816085BDF1
:10330000EEE6F0E0808181608083E1E8F0E0108209
:10331000808182608083808181608083E0E8F0E04A
:10332000808181608083E1EBF0E080818460808334
:10333000E0EBF0E0808181608083EAE7F0E080816B
:1033400084608083808182608083808181608083CB
:103350008081806880831092C1000895833081F05D
:1033600028F4813099F08230A1F008958730A9F0D7
:103370008830B9F08430D1F4809180008F7D03C013
:10338000809180008F7780938000089584B58F7737
:1033900002C084B58F7D84BD08958091B0008F7781
:1033A00003C08091B0008F7D8093B0000895CF93CB
:1033B000DF9390E0FC01EE5DF64F2491FC01EA5CA6
:1033C000F64F8491882349F190E0880F991FFC0102
:1033D000EC5AF64FA591B491865B964FFC01C591CE
:1033E000D4919FB7611108C0F8948C9120958223E5
:1033F0008C93888182230AC0623051F4F8948C91B6
:10340000322F309583238C938881822B888304C04C
:10341000F8948C91822B8C939FBFDF91CF9108956C
:103420000F931F93CF93DF931F92CDB7DEB7282F53
:1034300030E0F901E25FF64F8491F901EE5DF64F5D
:103440001491F901EA5CF64F04910023C9F0882336
:1034500021F069830E94AE196981E02FF0E0EE0F40
:10346000FF1FE65BF64FA591B4919FB7F8948C913E
:10347000611103C01095812301C0812B8C939FBFE4
:103480000F90DF91CF911F910F910895FC01818DD5
:10349000228D90E0805C9F4F821B91098F7399274A
:1034A0000895FC01918D828D981731F0828DE80F7F
:1034B000F11D858D90E008958FEF9FEF0895FC0139
:1034C000918D828D981761F0828DDF01A80FB11D5B
:1034D0005D968C91928D9F5F9F73928F90E008957F
:1034E0008FEF9FEF089583EE9BE1892B49F080E0F9
:1034F00090E0892B29F00E94E31B81110C940000BD
:103500000895FC01848DDF01A80FB11DA35ABF4FA0
:103510002C91848D90E001968F739927848FA689D2
:10352000B7892C93A089B1898C9180648C93938DF9
:10353000848D981306C00288F389E02D80818F7DE9
:1035400080830895CF93DF93EC01888D8823C9F0A1
:10355000EA89FB89808185FD05C0A889B9898C919C
:1035600086FD0FC00FB607FCF5CF808185FFF2CF37
:10357000A889B9898C9185FFEDCFCE010E94811A6F
:10358000E7CFDF91CF910895CF92DF92FF920F9313
:103590001F93CF93DF931F92CDB7DEB76C0181E00D
:1035A000D60158968C9358975B969C915B975C9646
:1035B0008C915C97981307C05096ED91FC915197B0
:1035C000808185FD2EC0F601038D10E00F5F1F4F37
:1035D0000F731127F02EF601848DF81211C00FB66B
:1035E00007FCF9CFD6015096ED91FC91519780815F
:1035F00085FFF1CFC60169830E94811A6981EBCFF3
:10360000838DE80FF11DE35AFF4F6083D6015B966F
:103610000C935B975296ED91FC9153978081806259
:103620000CC0D6015696ED91FC9157976083509649
:10363000ED91FC91519780818064808381E090E0DE
:103640000F90DF91CF911F910F91FF90DF90CF905E
:103650000895BF92CF92DF92EF92FF92CF93DF93C4
:10366000EC016A017B01B22EE889F98982E080834E
:10367000411581EE580761057105A1F060E079E020
:103680008DE390E0A70196010E9445212150310968
:10369000410951095695479537952795211580E1A0
:1036A000380798F0E889F989108260E874E88EE1BB
:1036B00090E0A70196010E9445212150310941095E
:1036C00051095695479537952795EC85FD853083AB
:1036D000EE85FF852083188EEC89FD89B082EA890A
:1036E000FB89808180618083EA89FB898081886091
:1036F0008083EA89FB89808180688083EA89FB89ED
:1037000080818F7D8083DF91CF91FF90EF90DF905C
:10371000CF90BF9008951F920F920FB60F92112471
:103720002F938F939F93EF93FF93E0914205F09136
:1037300043058081E0914805F091490582FD12C062
:10374000908180914B058F5F8F7320914C0582177C
:1037500051F0E0914B05F0E0EE5CFA4F958F8093CD
:103760004B0501C08081FF91EF919F918F912F9127
:103770000F900FBE0F901F9018951F920F920FB6CB
:103780000F9211242F933F934F935F936F937F93E7
:103790008F939F93AF93BF93EF93FF9382E395E053
:1037A0000E94811AFF91EF91BF91AF919F918F91EC
:1037B0007F916F915F914F913F912F910F900FBE2D
:1037C0000F901F90189582E395E00E94461A21E021
:1037D000892B09F420E0822F08951092350510926C
:1037E000340588EE93E0A0E0B0E080933605909336
:1037F0003705A0933805B093390580E991E090939F
:1038000033058093320585EC90E090933F058093DB
:103810003E0584EC90E0909341058093400580EC58
:1038200090E0909343058093420581EC90E0909363
:1038300045058093440582EC90E090934705809382
:10384000460586EC90E090934905809348051092D8
:103850004B0510924C0510924D0510924E0508959F
:1038600008950E9473190E94301C0E94240EC3E721
:10387000DAE10E947F0E2097E1F30E94731AF9CFDC
:10388000CF92DF92EF92FF920F931F93CF93DF932C
:103890007C016A01EB0100E010E00C151D0571F0E0
:1038A0006991D701ED91FC910190F081E02DC70164
:1038B0000995892B19F00F5F1F4FEFCFC801DF91DA
:1038C000CF911F910F91FF90EF90DF90CF900895CF
:1038D0006115710581F0DB010D900020E9F7AD0164
:1038E00041505109461B570BDC01ED91FC910280C0
:1038F000F381E02D099480E090E008950C94681C19
:10390000DC01ED91FC910190F081E02D09946CE9CE
:1039100071E00C94681C0F931F93CF93DF93EC011D
:103920000E94681C8C01CE010E94871C800F911F91
:10393000DF91CF911F910F9108958F929F92AF9237
:10394000BF92CF92DF92EF92FF920F931F93CF938C
:10395000DF93CDB7DEB7A1970FB6F894DEBF0FBEE9
:10396000CDBF7C01C42EE52FCB01D22E19A221E0C0
:103970002D1510F02AE0D22E8E010F5D1F4F8D2CD9
:10398000912CA12CB12C6C2D7E2FA50194010E94AD
:1039900045218C2DD29E80191124015011098A30A5
:1039A00014F4805D01C0895CF80180832115310524
:1039B0004105510521F0C22EE32FCA01E4CFB80121
:1039C000C7010E94681CA1960FB6F894DEBF0FBE17
:1039D000CDBFDF91CF911F910F91FF90EF90DF90BE
:1039E000CF90BF90AF909F908F900895CF92DF922D
:1039F000EF92FF920F931F93CF93DF93EC016A0135
:103A00007B012115310579F4E881F9810190F0817C
:103A1000E02D642FDF91CF911F910F91FF90EF90D8
:103A2000DF90CF9009942A303105E9F477FF1AC06E
:103A30006DE20E94801C8C0144275527BA014C1965
:103A40005D096E097F092AE0CE010E949D1C800F4E
:103A5000911FDF91CF911F910F91FF90EF90DF9019
:103A6000CF9008952AE0B701A601CE01DF91CF9152
:103A70001F910F91FF90EF90DF90CF900C949D1CC1
:103A80004F925F926F927F928F929F92AF92BF926E
:103A9000CF92DF92EF92FF920F931F93CF93DF931A
:103AA000EC016A017B01B22E9A01AB01C701B6019C
:103AB0000E942C21882319F06FE971E027C02601AC
:103AC0003701E89477F82FEF3FEF4FE75FE7C30147
:103AD000B2010E942C2181110DC02FEF3FEF4FE763
:103AE0005FE7C301B2010E94051F18161CF463EAC8
:103AF00071E00CC02FEF3FEF4FE75FE4C701B60165
:103B00000E9479201816ACF467EA71E0CE01DF91CB
:103B1000CF911F910F91FF90EF90DF90CF90BF90CA
:103B2000AF909F908F907F906F905F904F900C948C
:103B3000681C2FEF3FEF4FE75FECC701B6010E9413
:103B4000051F87FDE1CF20E030E0A901C701B601E4
:103B50000E94051F87FF0AC06DE2CE010E94801CF3
:103B60008C01F7FAF094F7F8F09402C000E010E04E
:103B7000A12C60E070E080E09FE3AB1441F020E016
:103B800030E040E251E40E94091FA394F6CF9B016C
:103B9000AC01C701B6010E943F1E6B017C010E946F
:103BA000761F2B013C010E94A21F9B01AC01C701A3
:103BB000B6010E943E1E6B017C012AE0B301A20106
:103BC000CE010E949D1C080F191FBB2039F06AE22C
:103BD00071E0CE010E94681C080F191F7B2C772012
:103BE00041F120E030E040E251E4C701B6010E941B
:103BF00084206B017C010E94711F4B01AA2497FC59
:103C0000A094BA2C2AE030E0B501A401CE010E94B4
:103C1000F61C080F191FC501B4010E94A41F9B01C7
:103C2000AC01C701B6010E943E1E6B017C017A9473
:103C3000D6CFC801DF91CF911F910F91FF90EF90E8
:103C4000DF90CF90BF90AF909F908F907F906F90BC
:103C50005F904F9008950F931F93CF93DF93EC01E4
:103C60000E94401D8C01CE010E94871C800F911F75
:103C7000DF91CF911F910F91089508955058BB2760
:103C8000AA270ED0FCC1EDD130F0F2D120F031F4F2
:103C90009F3F11F41EF4BDC10EF4E095E7FBB3C1E4
:103CA000E92FFED180F3BA176207730784079507DF
:103CB00018F071F49EF516C20EF4E0950B2EBA2F93
:103CC000A02D0B01B90190010C01CA01A001112422
:103CD000FF27591B99F0593F50F4503E68F11A16CE
:103CE000F040A22F232F342F4427585FF3CF46955F
:103CF00037952795A795F0405395C9F77EF41F1681
:103D0000BA0B620B730B840BBAF09150A1F0FF0F4A
:103D1000BB1F661F771F881FC2F70EC0BA0F621F36
:103D2000731F841F48F4879577956795B795F79526
:103D30009E3F08F0B3CF9395880F08F09927EE0FB8
:103D40009795879508958DD158F080E891E009F412
:103D50009EEF8ED128F040E851E059F45EEF09C0A3
:103D600058C1C0C1E92FE0789BD168F3092E052A1C
:103D7000C1F3261737074807590738F00E2E07F802
:103D8000E02569F0E025E0640AC0EF6307F80094DD
:103D900007FADB01B9019D01DC01CA01AD01EF9316
:103DA00047D06DD10AD05F91552331F02BED3FE024
:103DB00049E450FD49EC63CF0895DF93DD27B92F27
:103DC000BF7740E85FE31616170648075B0710F455
:103DD000D92F93D19F938F937F936F933AD2E8E635
:103DE000F0E01AD14CD12F913F914F915F9198D132
:103DF000DD2349F09058A2EA2AED3FE049EC5FE369
:103E0000D0785D274DDFDF913AC1D9D008F481E049
:103E100008950CD034C12CD140F023D130F021F4DE
:103E20005F3F19F0F0C051115EC1F3C039D198F372
:103E30009923C9F35523B1F3951B550BBB27AA272B
:103E400062177307840738F09F5F5F4F220F331F9D
:103E5000441FAA1FA9F333D00E2E3AF0E0E830D069
:103E600091505040E695001CCAF729D0FE2F27D06C
:103E7000660F771F881FBB1F261737074807AB073A
:103E8000B0E809F0BB0B802DBF01FF2793585F4FAF
:103E90002AF09E3F510568F0B6C025C15F3FECF3A4
:103EA000983EDCF3869577956795B795F7959F5F74
:103EB000C9F7880F911D9695879597F90895E1E0C8
:103EC000660F771F881FBB1F621773078407BA0727
:103ED00020F0621B730B840BBA0BEE1F88F7E09582
:103EE000089504D06894B111FEC00895E1D088F01F
:103EF0009F5790F0B92F9927B751A0F0D1F0660FD6
:103F0000771F881F991F1AF0BA95C9F712C0B130F0
:103F100081F0E8D0B1E00895E5C0672F782F8827B9
:103F2000B85F39F0B93FCCF3869577956795B3952F
:103F3000D9F73EF490958095709561957F4F8F4F9E
:103F40009F4F0895E89409C097FB3EF490958095A3
:103F5000709561957F4F8F4F9F4F9923A9F0F92F4F
:103F600096E9BB279395F695879577956795B795CD
:103F7000F111F8CFFAF4BB0F11F460FF1BC06F5FB3
:103F80007F4F8F4F9F4F16C0882311F096E911C0C5
:103F9000772321F09EE8872F762F05C0662371F0E6
:103FA00096E8862F70E060E02AF09A95660F771FFA
:103FB000881FDAF7880F9695879597F90895990FD6
:103FC0000008550FAA0BE0E8FEEF16161706E807E3
:103FD000F907C0F012161306E407F50798F0621B04
:103FE000730B840B950B39F40A2661F0232B242BD9
:103FF000252B21F408950A2609F4A140A6958FEFF8
:10400000811D811D089597F99F6780E870E060E049
:1040100008959FEF80EC0895DF93CF931F930F9344
:10402000FF92EF92DF927B018C01689405C0DA2E3B
:10403000EF0176D0FE01E894A59125913591459147
:104040005591AEF3EF012CDEFE019701A801DA9441
:1040500079F7DF90EF90FF900F911F91CF91DF9153
:10406000089500240A9416161706180609060895DE
:1040700000240A9412161306140605060895092E44
:104080000394000C11F4882352F0BB0F40F4BF2BB3
:1040900011F460FF04C06F5F7F4F8F4F9F4F0895F3
:1040A00057FD9058440F551F59F05F3F71F04795E9
:1040B000880F97FB991F61F09F3F79F087950895CE
:1040C000121613061406551FF2CF4695F1DF08C0ED
:1040D000161617061806991FF1CF8695710561050A
:1040E00008940895E894BB2766277727CB0197F9B2
:1040F000089565DF08F48FEF08959B01AC0160E03F
:1041000070E080E89FE385CE0BD0B9CFAADF28F01E
:10411000AFDF18F0952309F076CF7BCF1124E3CFE2
:10412000BFDFA0F3959FD1F3950F50E0551F629F1D
:10413000F001729FBB27F00DB11D639FAA27F00D00
:10414000B11DAA1F649F6627B00DA11D661F829F27
:104150002227B00DA11D621F739FB00DA11D621F0C
:10416000839FA00D611D221F749F3327A00D611D29
:10417000231F849F600D211D822F762F6A2F11240B
:104180009F5750408AF0E1F088234AF0EE0FFF1F5E
:10419000BB1F661F771F881F91505040A9F79E3F95
:1041A000510570F030CF9FCF5F3FECF3983EDCF3CA
:1041B000869577956795B795F795E7959F5FC1F7D2
:1041C000FE2B880F911D9695879597F9089511F408
:1041D0000EF41FCF45C06CDFD0F39923D9F3CEF393
:1041E0009F57550B87FF4AD00024A0E640EA900174
:1041F00080585695979528F4805C660F771F881F26
:1042000020F026173707480730F4621B730B840B26
:10421000202931294A2BA69517940794202531256A
:104220004A2758F7660F771F881F20F02617370791
:10423000480730F4620B730B840B200D311D411DB8
:10424000A09581F7B901842F9158880F969587958D
:1042500008959B01AC0158CFB2DE880B990B0895ED
:104260009F3F31F0915020F4879577956795B795EA
:10427000880F911D9695879597F908959150504014
:10428000660F771F881FD2F70895A1E21A2EAA1B86
:10429000BB1BFD010DC0AA1FBB1FEE1FFF1FA217F6
:1042A000B307E407F50720F0A21BB30BE40BF50BF3
:1042B000661F771F881F991F1A9469F7609570957C
:1042C000809590959B01AC01BD01CF010895EE0F43
:1042D000FF1F0590F491E02D0994CF93DF93823076
:1042E000910510F482E090E0E091D105F091D205C3
:1042F00020E030E0A0E0B0E0309739F1408151811A
:1043000048175907B8F04817590771F4828193810B
:10431000109729F013969C938E9312972CC090932C
:10432000D2058093D10527C02115310531F0421700
:10433000530718F0A901DB0101C0EF019A01BD018B
:10434000DF010280F381E02DD7CF21153105F9F08F
:10435000281B390B2430310580F48A819B8161153B
:10436000710521F0FB019383828304C09093D205F1
:104370008093D105FE01329644C0FE01E20FF31F87
:104380008193919322503109398328833AC0209137
:10439000CF053091D005232B41F4209102013091BB
:1043A00003013093D0052093CF0520910001309177
:1043B00001012115310541F42DB73EB740910401AB
:1043C00050910501241B350BE091CF05F091D005EC
:1043D000E217F307A0F42E1B3F0B2817390778F0DC
:1043E000AC014E5F5F4F2417350748F04E0F5F1F3B
:1043F0005093D0054093CF058193919302C0E0E0A4
:10440000F0E0CF01DF91CF910895CF93DF93009734
:1044100009F487C0FC01329713821282C091D10542
:10442000D091D205209781F420813181280F391F46
:104430008091CF059091D0058217930779F5F0937D
:10444000D005E093CF056DC0DE0120E030E0AE176F
:10445000BF0750F412964D915C9113979D01411541
:10446000510509F1DA01F3CFB383A2834081518171
:10447000840F951F8A179B0771F48D919C9111975A
:10448000840F951F02969183808312968D919C9143
:104490001397938382832115310529F4F093D20574
:1044A000E093D1053EC0D9011396FC93EE93129789
:1044B0004D915D91A40FB51FEA17FB0779F4808138
:1044C0009181840F951F0296D90111969C938E932A
:1044D0008281938113969C938E931297E0E0F0E093
:1044E0008A819B81009719F0FE01EC01F9CFCE0182
:1044F000029628813981820F931F2091CF05309138
:10450000D0052817390769F4309729F41092D2059D
:104510001092D10502C013821282D093D005C093AD
:10452000CF05DF91CF910895A0E0B0E0EAE9F2E293
:104530000C947823EC01CB01209719F40E946D2193
:10454000B8C0FE01E60FF71F9E0122503109E217A5
:10455000F30708F4ACC0D9010D911C91119706170F
:104560001707B8F00530110508F49FC0A8014450A2
:1045700051094617570708F498C002501109061B45
:10458000170B019311936D937C93CF010E94052229
:104590008CC05B01A01AB10A4E01800E911EA09141
:1045A000D105B091D205612C712C60E070E01097BC
:1045B00009F449C0A815B905C9F5ED90FC9011970B
:1045C000670142E0C40ED11CCA14DB0478F1470134
:1045D0008A189B08640142E0C40ED11C1296BC905C
:1045E00012971396AC91B5E0CB16D10440F0B2828D
:1045F000A38391828082D9018D939C9309C00E5F21
:104600001F4F0E0D1F1DF90111830083EB2DFA2F93
:104610006115710531F0DB011396FC93EE9312974F
:1046200044C0F093D205E093D1053FC06D917C91D9
:1046300011976616770608F43B01BD0112960D909E
:10464000BC91A02DB4CF6091CF057091D0056815B5
:104650007905E9F468167906D0F44091000150918B
:1046600001014115510541F44DB75EB76091040158
:1046700070910501461B570BE417F507C0F4F09342
:10468000D005E093CF05F901918380830EC00E948D
:104690006D217C01009759F0A801BE010E946B2397
:1046A000CE010E940522C70104C0CE0102C080E0F5
:1046B00090E0CDB7DEB7EEE00C949423FB01DC0173
:1046C00004C08D910190801921F441505040C8F7E9
:1046D000881B990B0895FB01DC0102C001900D922B
:1046E00041505040D8F708952F923F924F925F92D9
:1046F0006F927F928F929F92AF92BF92CF92DF92F2
:10470000EF92FF920F931F93CF93DF93CDB7DEB756
:10471000CA1BDB0B0FB6F894DEBF0FBECDBF0994EA
:104720002A88398848885F846E847D848C849B8441
:10473000AA84B984C884DF80EE80FD800C811B814F
:10474000AA81B981CE0FD11D0FB6F894DEBF0FBE7E
:0A475000CDBFED010895F894FFCFEE
:10475A000000D30580000200030004000500E803FE
:10476A0063186318000001000200030054686973AB
:10477A0020697320736C6F772E2E2E0043616C694B
:10478A0062726174696E67004655434B00537461E7
:10479A007274696E67204D50550057616974696E6D
:1047AA006720666F72206461746120746F2073746D
:1047BA006162696C697A65005374617274757020FC
:1047CA006661696C65642E002031200000000000DB
:1047DA0036110911DE10E610F91008110000000068
:1047EA00C41A401C461A5F1A511AA21A0D0A006E00
:0C47FA00616E00696E66006F766600005C
:00000001FF
