:100000005AC500000C94B50A0C948A0A0C945F0A35
:100010000C94340A0C94090A0C94DE090C94B3096C
:100020000C94880979C5000077C5000075C50000EB
:1000300073C5000071C500006FC500006DC50000EC
:100040006BC5000069C5000067C5000065C50000FC
:1000500063C5000061C500005FC500000C943E0947
:100060005BC50000FCC70000D1C7000055C50000FB
:1000700053C5000051C500004FC500004DC500002C
:100080004BC5000049C5000047C5000045C500003C
:1000900094C7000069C700003FC500000C94A70C7E
:1000A0003BC5000039C5000037C5000035C500005C
:1000B00033C5000031C500002FC500000C946B0F44
:1000C0002BC5000029C5000027C5000025C500007C
:1000D00023C5000021C500001FC500001DC500008C
:1000E0001BC5000087088A0879087D088108C108B7
:1000F0008E08920898089C08A008A608AA08AE08CE
:10010000C108B408B808BC08084AD73B3BCE016E0A
:1001100084BCBFFDC12F3D6C74319ABD56833DDA5E
:100120003D00C77F11BED9E4BB4C3E916BAAAABE6D
:10013000000000803F0000002200250028002B0066
:100140002E003100340002010000050108010B01FE
:1001500000002100240027002A002D003000330079
:1001600001010000040107010A0105050505070555
:1001700008080808020202020A0A08080404040423
:10018000010101010101010103030303030303034F
:10019000040707070C0C0C0C0C0C0C0C02020202DE
:1001A00006060606060606060B0B0B0B0B0B0B0BC7
:1001B0000102102020080810204010204080020179
:1001C000020108040201010204081020408080405E
:1001D000201008040201800402018040201008045D
:1001E00002010804020101020408102040800102FB
:1001F00004081020408001B202FFFF01900409238F
:10020000A135016A0206000160080000000000003C
:100210000000006004400000000162020000006075
:100220000400400000037B034CCD6C03AB03365647
:100230007600680402CB47A202180400058BC101B6
:100240000C0400000000037F060CC92C979797034D
:100250008903264666006C0220000240040000006C
:1002600000024404000000000248040000000002F4
:100270004C0400000000025004000000000254047E
:100280000000000002580400000000025C040000AE
:10029000000002BC040000000001EC04000040006B
:1002A000037F060CC92C9797970402030D355D0454
:1002B0000904872D353D00A30100000000010786D9
:1002C00001FE074105F120283038077E013007463E
:1002D000019A074704F1283038076C04F1283038B8
:1002E0000216020001FB00003E000B003600010078
:1002F000020003000000650054FFEF0000FA8000D8
:100300000B1282000100020000000000000000004B
:10031000000000000000280000FFFF4581FFFFFAF9
:100320007200000000000003E80000000100017FEF
:10033000FFFFFE8001001B00000000000000000025
:100340000000000000003E03304000000002CAE34D
:10035000093E800000200000000000000040000076
:10036000006000000041FF000000000B2A000016A2
:100370005500002182FD872650FD800000001F00EF
:1003800000000580000000000000010000000200E5
:100390000000030000400000000000046F00026540
:1003A0003200005EC04000000000000000000000BD
:1003B0000000000000FB8C6F5DFD5D08D9007C73C0
:1003C0003B006C12CC3200139D3200D0D6320008B4
:1003D00000400001F4FFE68079020000000000D038
:1003E000D600002710FB00000040000000000000C5
:1003F00000000000000000000100000000000001FB
:1004000000010000000000FA36FFBC308E0005FB42
:10041000F0FFD95BC8FFD09ABE000010A9FFF41E00
:10042000B200CEBBF7000000010000000400020093
:10043000020200000CFFC280000001800000CF809B
:100440000040000000000000010000000000000665
:100450000000000014000000000000000000000088
:10046000000000000000000000000000000000008C
:10047000000000000000000000000000000000007C
:10048000000000000000000000033F68B679352836
:10049000BCC67ED16C80000000400000000000B2AD
:1004A0006A00000000000000000000000000003FA3
:1004B000F00000003000000000000000000000001C
:1004C000000000000000000000000000000000002C
:1004D00000000000000000254D002F706D00000599
:1004E000AE000C02D00000000000650054FFEF00D9
:1004F0000000000000000001000044000000000CAB
:100500000000000100000000000065000000540031
:1005100000FFEF00000000000000000000000000ED
:10052000000000000040000000000000000000008B
:10053000000000000040000000000000000000007B
:1005400000000000000000000100000002000000A8
:10055000000000000000000000000000000000009B
:10056000000000000000000000000000000000008B
:100570000000000000001B00000000000000000060
:10058000000000000000000000000000000000006B
:10059000000000000000000000000000000000005B
:1005A0000040000000001B000000000000000000F0
:1005B000000000000000000000000000000000003B
:1005C000000000000000000000000000000000002B
:1005D000000000000000000000000000000000001B
:1005E0000000000000D8DCBAA2F1DEB2B8B4A881E5
:1005F00091F74A907F916AF3F9DBA8F9B0BAA0802D
:10060000F2CE81F3C2F1C1F2C3F3CCA2B280F1C643
:10061000D880BAA7DFDFDFF2A7C3CBC5B6F087A2C9
:10062000942448703C95406834589B78A2F183929A
:100630002D557DD8B1B4B8A1D09180F270F370F28D
:100640007C80A8F101B09887D943D886C988BAA11F
:10065000F20EB89780F1A9DFDFDFAADFDFDFF2AAB1
:10066000C5CDC7A90CC92C97979797F1A98926469C
:1006700066B0B4BA80ACDEF2CAF1B28C02A9B69808
:1006800000890E161EB8A9B4992C547CB08AA8967D
:10069000365676F1B9AFB4B083C0B8A89711B18F10
:1006A00098B9AFF0240844106418F1A329557DAF20
:1006B00083B593AFF0002850F1A3869F61A6DADEE0
:1006C000DFD9FAA38696DB31A6D9F8DFBAA68FC2A6
:1006D000C5C7B28CC1B8A2DFDFDFA3DFDFDFD8D8A8
:1006E000F1B8A8B286B4980D355DB8AA98B0872D38
:1006F000353DB2B6BAAF8C96198F9FA70E161EB4B1
:100700009AB8AA872C547CB9A3DEDFDFA3B180F2AC
:10071000C4CDC9F1B8A9B499830D355D89B9A32DAC
:10072000557DB593A30E161EA92C547CB8B4B0F118
:100730009783A81184A50998A383F0DA24084410AC
:100740006418D8F1A529557DA58595021A2E3A562B
:100750005A4048F9F3A3D9F8F09883240844106468
:10076000189782A8F111F098A2240844106418DAAE
:10077000F3DED883A59401D9A302F1A2C3C5C7D8DB
:10078000F18492A24DDA2AD84869D92AD86855DA74
:1007900032D85071D932D8705DDA3AD85879D93A0E
:1007A000D87893A34DDA2AD84869D92AD86855DA77
:1007B00032D85071D932D8705DDA3AD85879D93AEE
:1007C000D878A88A9AF02850789EF38818F19F1D4F
:1007D00098A8D908D8C89F129EF315A8DA1210D885
:1007E000F1AFC8978734B5B994A421F3D922D8F2D0
:1007F0002DF3D92AD8F235F3D932D881A4606061BB
:10080000D961D86C6869D969D8747071D971D8B157
:10081000A384193D5DA3831A3E5E931030811011AD
:10082000B8B0AF8F94F2DA3ED8B49AA88729DAF834
:10083000D8879A35DAF8D8879A3DDAF8D8B1B9A4CA
:100840009885022E56A581000C14A397B08AF12D2D
:10085000D928D84DD948D86DD968D8B1840DDA0EC9
:10086000D8A32983DA2C0ED8A3844983DA2C4C0E22
:10087000D8B8B0A88A9AF520AADADFD8A840AAD0BA
:10088000DADED8A860AADAD0DFD8F19786A8319B43
:10089000069907AB9728889BF00C201440B8B0B499
:1008A000A88C9CF0042851791D301438B282ABD04A
:1008B000982C505078789BF11AB0F08A9CA8295156
:1008C000798B2951798A2470598B2058718A44690F
:1008D000388B3940688A6448318B304960A588205C
:1008E0000971584468113964493019F1AC002C542D
:1008F0007CF08CA804285078F1889726A85998ACE9
:100900008C02264666F0899CA829517924705944A6
:100910006938644831A98809205970AB1138406999
:10092000A8193148608CA83C415C207C00F1879874
:100930001986A86E767EA999882D557D9EB9A38AC1
:10094000228A6E8A568A5E9FB183062646660E2EDE
:100950004E6E9DB8AD002C547CF2B18CB499B9A305
:100960002D557D8191AC38AD3AB58391AC2DD92808
:10097000D84DD948D86DD968D88C9DAE29D904AE48
:10098000D851D904AED879D904D881F39DAD008D62
:10099000AE1981ADD901D8F2AEDA26D88E9129836D
:1009A000A7D9ADADADADF32AD8D8F1B0AC89913EA1
:1009B0005E76F3AC2E2EF1B18C5A9CAC2C282828F4
:1009C0009CAC3018A8988128343C9724A728343C44
:1009D0009C24F2B089AC912C4C6C8A9B2DD9D8D830
:1009E00051D9D8D879D9D8D8F19E88A331DAD8D8B6
:1009F000912DD928D84DD948D86DD968D8B18393CD
:100A0000353D8025DAD8D88569DAD8D8B49381A362
:100A100028343CF3AB8BF8A391B609B4D9ABDEFA1A
:100A2000B0879CB9A3DDF1A3A3A3A395F1A3A3A3CE
:100A30009DF1A3A3A3A3F2A3B49080F2A3A3A3A3C5
:100A4000A3A3A3A3A3A3B2A3A3A3A3A3A3B087B564
:100A500099F1A3A3A398F1A3A3A3A397A3A3A3A3EB
:100A6000F39BA3A3DCB9A7F1262626D8D8FF000064
:100A70000A0B02090C0D0E08070304010000000018
:100A80000000000000000000000000000000000066
:100A90000000000000000000000012111000000023
:100AA0000000000000000000000000000000000046
:100AB000000000006B1D11241FBECFEFD1E2DEBF8E
:100AC000CDBF00E00CBF12E0A0E0B2E0E8EFF9E437
:100AD00000E00BBF02C007900D92A439B107D9F70F
:100AE00026E0A4E9B2E001C01D92A136B207E1F709
:100AF00015E0CBE5D5E000E006C021970109802F85
:100B0000FE010E94941FCA35D10780E00807A9F7AB
:100B10000E94B5150C94FA2473CAFC01A089B1890E
:100B20008C91A689B78982FD0FC09C91818D8F5FC2
:100B30008F73228D821749F0218DDF01A20FB11D25
:100B40005D969C93818F08958C910895FC01918D01
:100B5000828D981761F0828DDF01A80FB11D5D961F
:100B60008C91928D9F5F9F73928F90E008958FEF8D
:100B70009FEF0895FC01918D828D981731F0828D41
:100B8000E80FF11D858D90E008958FEF9FEF089598
:100B9000FC01918D228D892F90E0805C9F4F821BFC
:100BA00091098F73992708958EE593E0F1DF21E095
:100BB000892B09F420E0822F08958BEF93E0E8DF82
:100BC00021E0892B09F420E0822F0895FC01848D17
:100BD000DF01A80FB11DA35ABF4F2C91848D90E067
:100BE00001968F739927848FA689B7892C93A08942
:100BF000B1898C9180648C93938D848D981306C0F9
:100C00000288F389E02D80818F7D80830895EF92A3
:100C1000FF920F931F93CF93DF93EC0181E0888FB6
:100C20009B8D8C8D981305C0E889F989808185FD9D
:100C300023C0F62E0B8D10E00F5F1F4F0F7311278F
:100C4000E02E8C8DE8120BC00FB607FCFACFE889B6
:100C5000F989808185FFF5CFCE01B8DFF2CF8B8D8A
:100C6000FE01E80FF11DE35AFF4FF0820B8FEA8976
:100C7000FB898081806207C0EE89FF896083E889F3
:100C8000F98980818064808381E090E0DF91CF9159
:100C90001F910F91FF90EF900895CF93DF93EC0198
:100CA000888D8823C1F0EA89FB89808185FD05C094
:100CB000A889B9898C9186FD0EC00FB607FCF5CFC7
:100CC000808185FFF2CFA889B9898C9185FFEDCF0E
:100CD000CE017CDFE8CFDF91CF91089580E090E0F6
:100CE000892B19F06ADF811120C080E090E0892B08
:100CF00019F05ADF81111CC080E090E0892B41F08F
:100D000080E090E0892B21F00E940000811113C047
:100D100080E090E0892BA1F080E090E0892B81F0C9
:100D20000E94000081110AC008950E940000DDCFDA
:100D30000E940000E1CF0E940000EACF0C94000066
:100D4000089508958091940290E020919502821B6D
:100D50009109089585ED8093BC008091BC0084FDCD
:100D6000FCCF1092390308954091C402262F30E041
:100D7000240F311D21323105DCF420913903243058
:100D8000C9F4FC0180E090E0861758F43091C40269
:100D90002191DC01AE55BD4FA30FB11D2C930196DF
:100DA000F3CF8091C402680F6093C40280E008957D
:100DB00081E0089582E008950895E0919502809180
:100DC0009402E81730F4F0E0E751FD4F808190E0A5
:100DD00008958FEF9FEF089590919502809194026E
:100DE000981750F4E92FF0E0E751FD4F208130E0F3
:100DF0009F5F9093950202C02FEF3FEFC9010895C6
:100E0000CF92DF92EF92FF920F931F93CF93DF93D6
:100E10007C01262F972F8A0180913A03882391F035
:100E2000C62FD72F6E01C40ED51ECC15DD0569F077
:100E30006991D701ED91FC910190F081E02DC701FE
:100E40001995F3CF642F822F8FDFC801DF91CF91E7
:100E50001F910F91FF90EF90DF90CF900895CF9367
:100E6000DF931F92CDB7DEB7698320913A03222327
:100E7000D1F020915D03203240F021E030E0FC0110
:100E80003383228380E090E014C080913B03E82FFD
:100E9000F0E0E45CFC4F998190838F5F80933B038B
:100EA00080935D0304C061E0CE0101965DDF81E0C7
:100EB00090E00F90DF91CF91089581E0809312032D
:100EC00008954F925F926F927F928F929F92AF920E
:100ED000BF92CF92DF92EF92FF926B017C014B01A8
:100EE0005C01E894B7F828ED3FE049E45FE30E9435
:100EF0002D242B013C0120E030E040E85FE3C501F8
:100F0000B4010E94B01F9B01AC01C701B6010E9451
:100F10002D246B017C012BE438EC47E85DE3C5012F
:100F2000B4010E942D2423EA32E94AE75EE30E94DD
:100F3000B11F9B01AC01C701B6010E942D249B018A
:100F4000AC01C301B2010E94B01FFF90EF90DF908F
:100F5000CF90BF90AF909F908F907F906F905F9059
:100F60004F9008950E94AB231F920F920FB60F92DD
:100F700011240BB60F922F933F934F935F936F9370
:100F80007F938F939F93AF93BF93EF93FF938EE5E0
:100F900093E01CDEFF91EF91BF91AF919F918F91F4
:100FA0007F916F915F914F913F912F910F900BBE69
:100FB0000F900FBE0F901F9018951F920F920FB6B3
:100FC0000F9211240BB60F922F933F934F935F9381
:100FD0006F937F938F939F93AF93BF93EF93FF9301
:100FE0008EE593E09ADDFF91EF91BF91AF919F91D4
:100FF0008F917F916F915F914F913F912F910F90C2
:101000000BBE0F900FBE0F901F9018951F920F925E
:101010000FB60F9211240BB60F922F933F934F935D
:101020005F936F937F938F939F93AF93BF93EF9350
:10103000FF938BEF93E0CADDFF91EF91BF91AF91EA
:101040009F918F917F916F915F914F913F912F91E0
:101050000F900BBE0F900FBE0F901F9018951F9210
:101060000F920FB60F9211240BB60F922F933F934E
:101070004F935F936F937F938F939F93AF93BF93A0
:10108000EF93FF938BEF93E048DDFF91EF91BF91DA
:10109000AF919F918F917F916F915F914F913F9110
:1010A0002F910F900BBE0F900FBE0F901F901895B1
:1010B000362F90E0FC01E259F54F4491FC01E055D8
:1010C000FE4F2491FC01E659FE4F9491992309F4B7
:1010D0006BC0442309F455C050E0FA013197E23166
:1010E000F10508F04EC08827EE58FF4F8F4F0C9443
:1010F000941F809180008F7707C0809180008F7D42
:1011000003C080918000877F809380003AC084B5BF
:101110008F7702C084B58F7D84BD33C08091B000CD
:101120008F7703C08091B0008F7D8093B00029C07D
:10113000809190008F7707C0809190008F7D03C0D1
:1011400080919000877F809390001BC08091A000C9
:101150008F7707C08091A0008F7D03C08091A00091
:10116000877F8093A0000DC0809120018F7707C0FA
:10117000809120018F7D03C080912001877F809323
:101180002001E92FF0E0EE0FFF1FEA5CFE4FA59172
:10119000B4918FB7F894EC91311103C020952E23B0
:1011A00001C02E2B2C938FBF08953FB7F8948091E8
:1011B0000E0390910F03A0911003B091110326B577
:1011C000A89B05C02F3F19F00196A11DB11D3FBF7F
:1011D000BA2FA92F982F8827820F911DA11DB11D0D
:1011E000BC01CD0142E0660F771F881F991F4A9509
:1011F000D1F708958F929F92AF92BF92CF92DF92D4
:10120000EF92FF926B017C01D0DF4B015C01C114B6
:10121000D104E104F104E9F0C8DFDC01CB01881955
:101220009909AA09BB09883E9340A105B10578F345
:1012300021E0C21AD108E108F10888EE880E83E0A7
:10124000981EA11CB11CC114D104E104F10421F7C2
:10125000DECFFF90EF90DF90CF90BF90AF909F9048
:101260008F9008952FB7F89460910A0370910B0343
:1012700080910C0390910D032FBF08951F920F9240
:101280000FB60F9211242F933F938F939F93AF9399
:10129000BF9380910A0390910B03A0910C03B0912E
:1012A0000D033091090323E0230F2D3720F401961D
:1012B000A11DB11D05C026E8230F0296A11DB11D79
:1012C0002093090380930A0390930B03A0930C03CC
:1012D000B0930D0380910E0390910F03A091100322
:1012E000B09111030196A11DB11D80930E0390933F
:1012F0000F03A0931003B0931103BF91AF919F917F
:101300008F913F912F910F900FBE0F901F901895C6
:101310001F920F920FB60F9211240BB60F922F93BC
:101320003F934F935F936F937F938F939F93AF936D
:10133000BF93EF93FF93E0910E02F0910F02199586
:10134000FF91EF91BF91AF919F918F917F916F919D
:101350005F914F913F912F910F900BBE0F900FBE59
:101360000F901F9018951F920F920FB60F92112495
:101370000BB60F922F933F934F935F936F937F938F
:101380008F939F93AF93BF93EF93FF93E0910C02E2
:10139000F0910D021995FF91EF91BF91AF919F913F
:1013A0008F917F916F915F914F913F912F910F900E
:1013B0000BBE0F900FBE0F901F9018951F920F92AB
:1013C0000FB60F9211240BB60F922F933F934F93AA
:1013D0005F936F937F938F939F93AF93BF93EF939D
:1013E000FF93E0910202F09103021995FF91EF91B2
:1013F000BF91AF919F918F917F916F915F914F912D
:101400003F912F910F900BBE0F900FBE0F901F902A
:1014100018951F920F920FB60F9211240BB60F92D0
:101420002F933F934F935F936F937F938F939F93EC
:10143000AF93BF93EF93FF93E0910002F09101020D
:101440001995FF91EF91BF91AF919F918F917F91EE
:101450006F915F914F913F912F910F900BBE0F9025
:101460000FBE0F901F9018951F920F920FB60F92FC
:1014700011240BB60F922F933F934F935F936F936B
:101480007F938F939F93AF93BF93EF93FF93E091DD
:101490000A02F0910B021995FF91EF91BF91AF9164
:1014A0009F918F917F916F915F914F913F912F917C
:1014B0000F900BBE0F900FBE0F901F9018951F92AC
:1014C0000F920FB60F9211240BB60F922F933F93EA
:1014D0004F935F936F937F938F939F93AF93BF933C
:1014E000EF93FF93E0910802F09109021995FF91A3
:1014F000EF91BF91AF919F918F917F916F915F918C
:101500004F913F912F910F900BBE0F900FBE0F90F8
:101510001F9018951F920F920FB60F9211240BB6C1
:101520000F922F933F934F935F936F937F938F937C
:101530009F93AF93BF93EF93FF93E0910602F091D7
:1015400007021995FF91EF91BF91AF919F918F91F4
:101550007F916F915F914F913F912F910F900BBEB3
:101560000F900FBE0F901F9018951F920F920FB6FD
:101570000F9211240BB60F922F933F934F935F93CB
:101580006F937F938F939F93AF93BF93EF93FF934B
:10159000E0910402F09105021995FF91EF91BF913E
:1015A000AF919F918F917F916F915F914F913F91FB
:1015B0002F910F900BBE0F900FBE0F901F9018959C
:1015C000EF92FF920F931F93CF93DF931F921F927F
:1015D000CDB7DEB7142F91E090933A0380935C036C
:1015E00010923B0310925D0388E994E029833A83CB
:1015F00036DC2981022FE22E3A81F32E8E2D801BBC
:10160000811738F4F70161917F0188E994E027DCC4
:10161000F5CFCED491E0811190E0892F0F900F90FB
:10162000DF91CF911F910F91FF90EF900895CF938D
:10163000DF931F92CDB7DEB749839E012F5F3F4FE7
:1016400041E0BEDF0F90DF91CF9108952F923F923E
:101650004F925F926F927F928F929F92AF92BF92C2
:10166000CF92DF92EF92FF920F931F93CF93DF936E
:10167000CDB7DEB727970FB6F894DEBF0FBECDBF4C
:10168000E82E6B834F836901EDDD4B015C016E2C0D
:10169000660CF12C1E82772473945F81452F50E0F5
:1016A0005D834C831801412C512C4F81F41608F0B6
:1016B00095C070923A03E0925C0310923B03109243
:1016C0005D036B8188E994E0CADB72D470923A03BF
:1016D000E0925C0310923B0310925D03809139030A
:1016E0008111FCCF2C813D812F1931092132310527
:1016F00014F020E230E0213208F020E27092390349
:10170000709238038FEF8093370310923603820F65
:10171000809335037092140380911403862980937B
:10172000140380911303813071F41092130380919C
:1017300014038093BB008091BC0083FDF8CF95EC2F
:101740009093BC0003C0E5EEE093BC0080913903A8
:101750008130E1F380913603821710F42091360333
:10176000A5E1B3E0E9EEF2E08E2F49EE52E0841BF2
:10177000821718F48D918193F7CF109295022093E0
:1017800094029091940280919502981709F10115A5
:10179000110591F4A6012E81420F511D27FD5A9586
:1017A0005A83498388E994E017DBE981FA818083D1
:1017B0002E812F5F2E83E5CF55DDDC01CB0188190B
:1017C0009909AA09BB0982159305A405B50510F36B
:1017D0008F81813208F080E2F80E67CFFE8001151C
:1017E0001105D1F03FDDDC01CB0188199909AA0967
:1017F000BB0920E030E080179107A207B30760F033
:101800005F81252F30E08F2D0F2C000C990B821754
:10181000930714F4FF24FA948F2D27960FB6F894AB
:10182000DEBF0FBECDBFDF91CF911F910F91FF9013
:10183000EF90DF90CF90BF90AF909F908F907F9070
:101840006F905F904F903F902F900895BF92CF92EE
:10185000DF92EF92FF920F931F93CF93DF931F922C
:10186000CDB7DEB7F82EE62EC42EB22ED02E08EE5F
:1018700013E09E012F5F3F4F41E0E8DE882319F11E
:10188000EC2DF0E0EB19F109319621E030E002C0D7
:10189000220F331FBA94E2F7215031090E2E01C0F6
:1018A000220F0A94EAF78D2D01C0880FEA95EAF716
:1018B000422F4095998149232823422B49836E2D3D
:1018C0008F2DB5DE01C080E00F90DF91CF911F9189
:1018D0000F91FF90EF90DF90CF90BF900895CF923F
:1018E000DF92EF92FF920F931F93CF93DF931F929C
:1018F000CDB7DEB7F82EE62ED42EC22E08EE13E0BA
:101900009E012F5F3F4F41E0A1DE9981CC2041F045
:1019100041E050E001C0440FDA94EAF7492B09C0D6
:1019200021E030E0A90101C0440FDA94EAF74095C4
:10193000492349836E2D8F2D7ADE0F90DF91CF9151
:101940001F910F91FF90EF90DF90CF9008951F921D
:101950000F920FB60F9211240BB60F922F933F9355
:101960004F935F936F937F938F939F93AF93BF93A7
:10197000EF93FF938091B900887F803609F49CC073
:1019800068F5883209F45BC090F4803109F454C0E2
:1019900038F4882309F4F6C0883009F44DC0F5C046
:1019A000883109F44CC0803209F45DC0EEC0803447
:1019B00009F468C048F4803309F455C0883309F04D
:1019C000E4C080933703D8C0803509F44FC0883510
:1019D00009F45DC0883409F0D8C0D6C0883909F44C
:1019E000C7C0A8F4883709F467C038F4883609F40A
:1019F00063C0803709F460C0C8C0883809F4B8C033
:101A0000803909F45FC0803809F0BFC05BC0803BFB
:101A100009F486C038F4803A09F466C0883A09F4BB
:101A20007FC0B3C0803C09F4A7C0883C09F4A4C0BF
:101A3000883B09F48AC0A9C08091140310C090911A
:101A4000360380913503981770F5E091360381E0F5
:101A50008E0F80933603F0E0EB5EFC4F8081809325
:101A6000BB0085EC86C0809337038EC0E0913603BF
:101A700081E08E0F809336038091BB00F0E0EB5E37
:101A8000FC4F808390913603809135036EC0E091C6
:101A9000360381E08E0F809336038091BB00F0E027
:101AA000EB5EFC4F80838091380381116DC081E033
:101AB0008093130384EA61C083E08093390310921A
:101AC000E802CFCF8091E802803208F051C0E09167
:101AD000E80281E08E0F8093E8028091BB00F0E085
:101AE000E853FD4F8083BDCF85EC8093BC001092FE
:101AF00039038091E802803230F4E091E802F0E0AE
:101B0000E853FD4F10826091E80270E0E091C60258
:101B1000F091C70288EC92E019951092E80235C066
:101B200084E0809339031092C5021092C402E091C0
:101B3000C202F091C30219958091C402811105C0BF
:101B400081E08093C4021092A202E091C50281E07C
:101B50008E0F8093C502F0E0EE55FD4F808180939B
:101B6000BB009091C5028091C402981708F479CF08
:101B700085E88093BC0009C085EC8093BC0010927E
:101B8000390303C010923703E5D8FF91EF91BF915D
:101B9000AF919F918F917F916F915F914F913F9105
:101BA0002F910F900BBE0F900FBE0F901F901895A6
:101BB000880F991FFC01EA56FD4F208131812133A6
:101BC000354720F020E335E731832083FC01EA56D6
:101BD000FD4F808191818D31954420F48DE195E414
:101BE0009183808308950F931F93CF93DF938C018C
:101BF000CB01BA01E801CC0FDD1FCA56DD4F20E052
:101C00003CE440E456E40E942D240E94E420288114
:101C10003981620F731F79836883C801DF91CF9187
:101C20001F910F91C5CF4F925F926F927F92AF92AB
:101C3000BF92CF92DF92EF92FF920F931F93CF93B9
:101C4000DF935B016A01E90127013801B801A701AF
:101C5000CADFB801A701C501C6DF77FA709477F82B
:101C60007094B301A201C601BEDFB301A201CE018F
:101C7000DF91CF911F910F91FF90EF90DF90CF9068
:101C8000BF90AF907F906F905F904F90ACCF0F93CD
:101C90001F93CF93DF938C01CB01BA01E801CC0FE6
:101CA000DD1FCA56DD4F20E03CE440E456E40E94CC
:101CB0002D240E94E420635E7A4B79836883C801F7
:101CC000DF91CF911F910F9173CF61E08EE593E08B
:101CD0000C9407062F923F924F925F926F927F92E1
:101CE0008F929F92AF92BF92CF92DF92EF92FF922C
:101CF0000F931F93CF93DF9300D01F92CDB7DEB722
:101D00001C016A017B0151DA8101025C1F4FF8015D
:101D100080809180A280B380681979098A099B0923
:101D200028EE33E040E050E00E94721F49015A0162
:101D3000F8012083318342835383F10100A511A56B
:101D4000C80165E070E00E945F1FFC01EE0FFF1FFD
:101D5000EE0FFF1FE20DF31DC2A6D3A6E4A6F5A663
:101D6000A7019601F10164857585868597850E9496
:101D7000B01F6B017C01F101648B758B868B978B97
:101D8000C501B4010E94CC234B015C019B01AC0155
:101D9000C701B6010E942D24F101248D358D468D99
:101DA000578D0E94B11F2B013C01F101648F758F8B
:101DB000868F978F20A131A142A153A1C701B601FF
:101DC0000E94B01FA50194010E9477204B015C0185
:101DD000F101608F718F828F938F208131814281D9
:101DE0005381C701B6010E942D2469837A838B83B6
:101DF0009C83F1012481358146815781C301B20161
:101E00000E942D249B01AC0169817A818B819C8188
:101E10000E94B11F2B013C01F101208531854285D3
:101E20005385C501B4010E942D249B01AC01C3015F
:101E3000B2010E94B11FF10164A375A386A397A309
:101E4000C0A2D1A2E2A2F3A20F5F1F4F11A700A769
:101E50000F900F900F900F90DF91CF911F910F91E6
:101E6000FF90EF90DF90CF90BF90AF909F908F90BA
:101E70007F906F905F904F903F902F900895CF92FA
:101E8000DF92EF92FF926B017C0120E030E040E8AE
:101E90005FE30E9435211816B4F4A701960160E0B3
:101EA00070E080E89FE30E9477200BD89B01AC0193
:101EB0006AED7FE089EC9FE30E94B01FFF90EF90F6
:101EC000DF90CF900895C701B601FF90EF90DF90AB
:101ED000CF900C9461071F920F920FB60F921124AE
:101EE0000BB60F922F933F934F936F937F938F93E4
:101EF0009F93EF93FF9382B1807F82B98091A1027B
:101F000090E00196837099278093A102FC01EE0F67
:101F1000FF1FEA56FD4F2081318130932901209324
:101F2000280142B121E030E0B90102C0660F771FFD
:101F30008A95E2F7CB01842B82B9FF91EF919F91B3
:101F40008F917F916F914F913F912F910F900BBE89
:101F50000F900FBE0F901F901895CF92DF92EF92C7
:101F6000FF920F931F93CF93DF936C017A018B0144
:101F7000C0E0D0E0CE15DF0589F0D8016D918D016C
:101F8000D601ED91FC910190F081E02DC6011995EB
:101F9000892B11F47E0102C02196ECCFC701DF919D
:101FA000CF911F910F91FF90EF90DF90CF90089508
:101FB00020915D0390915C03213208F04AC080912A
:101FC00039038111FCCF32E03093390331E0309393
:101FD00038033FEF309337031092360320933503D5
:101FE000ACE3B3E045E153E0FA013E2F341B321776
:101FF00018F43D913193F9CF1092140320911403FA
:10200000990F922B9093140390911303913061F4E4
:1020100010921303909114039093BB009091BC0015
:1020200093FDF8CF95EC01C095EE9093BC00909194
:1020300039039230E1F3909137039F3F79F080911B
:102040003703803241F080913703803331F084E0F0
:1020500005C081E003C082E001C083E010923B0331
:1020600010925D0310923A0308950F931F93CF933C
:10207000DF93C4EAD4E008EE13E020EB34E042E062
:1020800062E78B85E3DA8C8590E0982F88272D8591
:10209000822BDF91CF911F910F9108950F931F9382
:1020A000CF93DF93C4EAD4E008EE13E020EB34E0F2
:1020B00041E06AE38B85CADA8C85DF91CF911F916D
:1020C0000F91089521E042E06AE68091AF0407CCC9
:1020D0000F931F93462F08EE13E09C0164E7809155
:1020E000AF04B4DA1F910F910895482F6EE68091E6
:1020F000AF049DCA2F923F924F925F926F927F9250
:102100008F929F92AF92BF92CF92DF92EF92FF9207
:102110000F931F93CF93DF933C015B01342EC22FAB
:10212000202E4F716DE68091AF0481DA8C2FDDDFB8
:1021300080E190E00E949A216C01002331F080E15F
:1021400090E00E949A21582E492EE12CF12CEA149D
:10215000FB0408F067C0C7014096A816B90618F43A
:10216000DA2DDE1901C0D0E18D2F90E020E031E0C2
:102170002C1B31092817390714F4DC2FD195F301F2
:10218000EE0DFF1D222059F0952DA52DB42D8A2F7F
:10219000891B8D1730F484918D933196F8CF5E2E84
:1021A0004F2E252D342D4D2F6FE68091AF0408DA88
:1021B0008D2E912CC114D10411F1432D4F716DE678
:1021C0008091AF0434DA8C2F90DF08EE13E0960193
:1021D0004D2F6FE68091AF0439DAA401B601852D49
:1021E000942D0E94AF23892B51F0C6010E942F220B
:1021F000222011F1852D942D0E942F221DC0E80C64
:10220000F91CCD0FEA14FB0408F0A1CFC11101C0E5
:102210003394432D4F716DE68091AF0408DA8C2F13
:1022200064DF95CFC6010E942F22222039F0852D30
:10223000942D0E942F2202C080E001C081E0DF9136
:10224000CF911F910F91FF90EF90DF90CF90BF90B3
:10225000AF909F908F907F906F905F904F903F9046
:102260002F900895EF92FF920F931F93CF93DF93D8
:102270001F92CDB7DEB77A0189019E012F5F3F4FD4
:1022800041E0E4D9882339F029812E7730E0359573
:102290002795F70120830F90DF91CF911F910F9128
:1022A000FF90EF9008950F931F930E94320960935F
:1022B0006603709367038093680390936903E091CA
:1022C0005E03F0915F030084F185E02D8EE593E0DD
:1022D000199597FF1FC00E94320900916603109163
:1022E00067032091680330916903DC01CB01801BF7
:1022F000910BA20BB30B0091620310916303209129
:1023000064033091650380179107A207B307B8F201
:102310008FEF9FEF1F910F910895FC0180819181B4
:102320000C942F22EF92FF920F931F93CF93DF9382
:10233000EC01198218821B821A821D821C8261158F
:102340007105A9F17B01FB0101900020E9F73197AC
:102350008F01061B170BB8016F5F7F4F80E090E085
:102360000E94C722009759F0998388831B830A83B0
:102370002C813D81232B81F4FC0110820DC08881CA
:102380009981009711F00E942F22198218821D82D4
:102390001C821B821A820BC01D830C83B701DF9144
:1023A000CF911F910F91FF90EF900C94C523DF9177
:1023B000CF911F910F91FF90EF9008952F923F9230
:1023C0004F925F926F927F928F929F92AF92BF9245
:1023D000CF92DF92EF92FF920F931F93CF93DF93F1
:1023E000CDB7DEB7A0970FB6F894DEBF0FBECDBF56
:1023F0008091C204811113C081E090E057C3209105
:10240000C7043091C8048091C5049091C604281770
:10241000390748F42ADE9093C8048093C70480915A
:102420001203882361F31092120338DE8093C304F1
:102430001CDE9C019093C8048093C7049091C30450
:1024400094FD03C02115344021F43CDE82E090E08D
:102450002DC391FD03C080E090E028C36091C504C6
:102460007091C6048091C7049091C804861797079D
:10247000A8F189EC94E02CDE0E94D5082091A904F3
:102480003091AA04621B730B7093AE046093AD0489
:102490000E94D5086093A9047093AA048093AB04AA
:1024A0009093AC048091C7049091C8042091C50416
:1024B0003091C604821B930B9093C8048093C70489
:1024C00068E572E0CE0101962DDFBE016F5F7F4FA0
:1024D00089E1FBDBCE01019620DFC0CF89EC94E0DF
:1024E000892B29F4E091AF04F091B00402C0E9EC2B
:1024F000F4E0C480D12CDC2CCC248581C80ED11C06
:10250000E084F12CFE2CEE248185E80EF11C04857C
:1025100010E0102F00278585080F111D608170E0E5
:10252000762F66278181680F711D072E000C880B9E
:10253000990B0E94CE2320E030E040E858E30E944F
:102540002D244B015C016093090570930A0580936B
:102550000B0590930C05B601DD0C880B990B0E94BE
:10256000CE2320E030E040E858E30E942D242B01E8
:102570003C0160930D0570930E0580930F059093B9
:102580001005B701FF0C880B990B0E94CE2320E0A9
:1025900030E040E858E30E942D246F8378878987D4
:1025A0009A87609311057093120580931305909399
:1025B0001405B801110F880B990B0E94CE2320E05F
:1025C00030E040E858E30E942D246B877C878D879C
:1025D0009E87609315057093160580931705909359
:1025E00018059B01AC01C301B2010E942D246B01AF
:1025F0007C012F81388549855A85C501B4010E9427
:102600002D249B01AC01C701B6010E94B01F9B01A4
:10261000AC010E94B11F6F87788B898B9A8B609376
:102620002505709326058093270590932805A3011F
:102630009201C501B4010E942D246B017C012B8500
:102640003C854D855E856F81788589859A850E9458
:102650002D249B01AC01C701B6010E94B11F9B0153
:10266000AC010E94B11F6B8B7C8B8D8B9E8B60931A
:10267000290570932A0580932B0590932C05A501BD
:102680009401C501B4010E942D246B017C01A301BA
:102690009201C301B2010E942D249B01AC01C7012C
:1026A000B6010E94B01F6B017C012F8138854985DE
:1026B0005A85CA01B9010E942D249B01AC01C701B2
:1026C000B6010E94B01F6B017C012B853C854D85B6
:1026D0005E85CA01B9010E942D249B01AC01C7018E
:1026E000B6010E94B11F6F8B788F898F9A8F60938C
:1026F0002D0570932E0580932F059093300589EC5E
:1027000094E0892B29F4E091AF04F091B00402C069
:10271000E9ECF4E0648D70E0762F6627858DDB01AF
:10272000A80FB11DBC8FAB8FB0931A05A0931905EC
:1027300020A0312C322C222481A1280E311C309271
:102740001C0520921B0504A110E0102F002785A175
:10275000080F111D10931E0500931D05A50194017E
:10276000C501B4010E94B11F6B017C01A30192015C
:10277000C301B2010E94B11F6D8F7E8F8F8F98A30E
:10278000A5019401C701B6010E942D244B015C01F3
:10279000A30192016D8D7E8D8F8D98A10E942D24B5
:1027A0009B01AC01C501B4010E94B11F20E030E0E3
:1027B00040E85FE30E94B01F4B015C012F81388528
:1027C00049855A856D8D7E8D8F8D98A10E942D240F
:1027D0002B013C012B853C854D855E85C701B601EB
:1027E0000E942D249B01AC01C301B2010E94B01FC5
:1027F000A50194010E942420609357057093580509
:102800008093590590935A052F89388D498D5A8D9B
:10281000CA01B9010E942D246B017C012B893C89DE
:102820004D895E89CA01B9010E942D24A701960134
:102830000E94B11F0E9444219B01AC016F857889E1
:1028400089899A890E9477201ADB60935B057093CF
:102850005C0580935D0590935E052F8538894989D5
:102860005A89CA01B9010E942D24A70196010E942C
:10287000B11F0E9444219B01AC016B897C898D8929
:102880009E890E947720FBDA60935F057093600554
:102890008093610590936205EB8DFC8DBF01FF0F66
:1028A000880B990B0E94CE236B017C0120E030E065
:1028B00040E056E46F85788989899A890E942D24A1
:1028C0009B01AC01C701B6010E94B01F0E94DF202E
:1028D0004B015C017093200560931F05B101330C1F
:1028E000880B990B0E94CE236B017C0120E030E025
:1028F00040E056E46B897C898D899E890E942D2455
:102900009B01AC01C701B6010E94B01F0E94DF20ED
:102910006B017C017093220560932105B801110FB2
:10292000880B990B0E94CE232B013C0120E030E064
:1029300040E056E46F89788D898D9A8D0E942D2410
:102940009B01AC01C301B2010E94B01F0E94DF20B5
:102950002B013C0170932405609323058BE495E0E3
:1029600090934A0580934905B401990C880B990B03
:102970000E94CE2360934B0570934C0580934D05C8
:1029800090934E05B601DD0C880B990B0E94CE2367
:1029900060934F05709350058093510590935205B5
:1029A000B201550C880B990B0E94CE2360935305FE
:1029B0007093540580935505909356058091A80413
:1029C000882309F448CD6091AD047091AE0480E095
:1029D00090E00E94CC232B013C018BE4E82E85E0A3
:1029E000F82E00E010E098012C553B4F6901F901E9
:1029F000E357FF4F2081318142815381D7016D918F
:102A00007D918D919C910E94B01F4B015C01F7015B
:102A100060837183828393831601F3EB2F0E311C45
:102A2000F601E756FF4F2081318142815381D10168
:102A30006D917D918D919C910E94B01FF1016083F9
:102A4000718382839383FFEBCF0ED11CD7012D912D
:102A50003D914D915D917D01C501B4010E94B11F71
:102A600020E030E040E05FE30E942D24A3019201CA
:102A70000E942D2420E034E244E759E40E947720AC
:102A80009B01AC01F60160817181828193810E947A
:102A9000B11FD6016D937D938D939C9313970C5F1B
:102AA0001F4F0C30110509F09ECFD5CCA0960FB664
:102AB000F894DEBF0FBECDBFDF91CF911F910F9174
:102AC000FF90EF90DF90CF90BF90AF909F908F904E
:102AD0007F906F905F904F903F902F900895CF928E
:102AE000DF92EF92FF92CF93DF9300D000D0CDB76B
:102AF000DEB7682F70E080E090E00E94CE2320E0F7
:102B000030E04FE753E40E9477206B017C01AB017A
:102B1000BC0180E090E0BBD8B701A60181E090E065
:102B2000B6D8B701A60182E090E0B1D8B701A601FE
:102B300083E090E0ACD865E872E0CE010196F2DB6C
:102B4000BE016F5F7F4F8FEFC0D8CE010196E5DBEE
:102B500026960FB6F894DEBF0FBECDBFDF91CF91A2
:102B6000FF90EF90DF90CF900895CF93DF93CDB794
:102B7000DEB7C459D1090FB6F894DEBF0FBECDBF82
:102B8000789484B5826084BD84B5816084BD85B548
:102B9000826085BD85B5816085BD80916E00816054
:102BA00080936E00109281008091810082608093FA
:102BB00081008091810081608093810080918000FC
:102BC0008160809380008091B10084608093B10027
:102BD0008091B00081608093B0008091910082600C
:102BE0008093910080919100816080939100809109
:102BF00090008160809390008091A100826080931A
:102C0000A1008091A10081608093A1008091A0002B
:102C100081608093A00080912101826080932101D6
:102C20008091210181608093210180912001816048
:102C30008093200180917A00846080937A00809153
:102C40007A00826080937A0080917A00816080931C
:102C50007A0080917A00806880937A001092C10097
:102C6000E0910B04F0910C0422E02083E091070432
:102C7000F09108041082E0910904F0910A0480E1C7
:102C8000808310921304E0910F04F091100496E0F9
:102C90009083E0910D04F0910E0480818061808327
:102CA000E0910D04F0910E04808188608083E091B2
:102CB0000D04F0910E04808180688083E0910D0402
:102CC000F0910E0480818F7D8083E0916E03F091FE
:102CD0006F032083E0916A03F0916B031082E0910F
:102CE0006C03F0916D038FEC808310927603E0917A
:102CF0007203F09173039083E0917003F09171037C
:102D0000808180618083E0917003F0917103808104
:102D100088608083E0917003F09171038081806806
:102D20008083E0917003F091710380818F7D8083B7
:102D300085E090E0A0E0B0E08093FF039093000472
:102D4000A0930104B0930204809362039093630301
:102D5000A0936403B0936503E3EBF1E02491EDE607
:102D6000F1E08491882399F090E0880F991FFC018D
:102D7000E05BFE4FA591B491FC01EA5CFE4F8591AA
:102D800094918FB7F894EC91E22BEC938FBF81B1C3
:102D90008F6081B91092200189E080932101809198
:102DA00073008260809373000DE115E41093970225
:102DB0000093960280E090E00E94D80D1093990253
:102DC0000093980281E090E00E94D80D10939B023E
:102DD00000939A0282E090E00E94D80D10939D0229
:102DE00000939C0283E090E00E94D80D81E08093E4
:102DF0009605109295021092940210923B03109245
:102E00005D0310923903809338031092130361E03D
:102E100084E10E94580861E085E10E945808809191
:102E2000B9008E7F8093B9008091B9008D7F809327
:102E3000B90088E48093B80085E48093BC0088E101
:102E40008093B80001E023E042E06BE68091AF049C
:102E50000E94260C00E022E044E06BE18091AF0488
:102E60000E94260C22E044E06CE18091AF040E94B5
:102E7000260C20E046E06BE68091AF040E946F0CC8
:102E800021E047E06BE68091AF040E946F0C6EE199
:102E900070E080E090E00E94FA0820E046E06BE6F7
:102EA0008091AF040E946F0C40E76DE68091AF0403
:102EB0000E94170B86E019D908EE13E020EB34E0EE
:102EC00041E06FE68091AF040E94260B40E06DE682
:102ED0008091AF040E94170B9E012F5F3F4F41E08E
:102EE00060E08091AF040E94260B898181708093FD
:102EF000B00428EE33E040EB54E060E08091AF0492
:102F0000B1D97090B00428EE33E040EB54E061E0BA
:102F10008091AF04A7D98090B00428EE33E040EB55
:102F200054E062E08091AF049DD99090B0044FE7E7
:102F300065E28091AF040E94170B20E045E06AE64D
:102F40008091AF040E946F0C48E665E28091AF0467
:102F50000E94170B21E041E06AE68091AF040E94D5
:102F60006F0C64E170E080E090E00E94FA0801E0FC
:102F700020E040E069E877E085EE92E0BBD8882366
:102F800009F4C8C288E090E00E949A215C0100E048
:102F900010E0F801EB5DFD4F4491F801EA5DFD4F53
:102FA0002491680183E0C80ED11CF801E95DFD4F52
:102FB000E491EE23B1F1EE2EF12CE330C8F0B7012D
:102FC000C501CC56DF4F2883C459D040CD56DF4FC2
:102FD0004883C359D0400E94C7225C01CD56DF4FC1
:102FE0004881C359D040CC56DF4F2881C459D040C6
:102FF000D50180E090E08E159F0548F4F601E80FBA
:10300000F91FEB5DFD4FE491ED930196F4CF00E0E5
:10301000B701C5016FD887010C0D1D1D811115C0A9
:103020000FC00C5F1F4FF601EB5DFD4FE491E130E7
:1030300039F442E368E38091AF040E94170B05C0A6
:10304000C5010E942F2282E066C2003C110508F4EF
:10305000A0CFC5010E942F2203E023E042E06BE6EF
:103060008091AF040E94260C42E168E38091AF0496
:103070000E94170B44E069E18091AF040E94170B96
:1030800001E023E045E06AE18091AF040E94260C54
:1030900003E023E042E06AE18091AF040E94260C45
:1030A00022E044E06BE18091AF040E94260C43E0F3
:1030B00060E78091AF040E94170B40E061E78091C8
:1030C000AF040E94170B20E040E060E08091AF0465
:1030D0000E946F0C072D26E046E060E08091AF046F
:1030E0000E94260C082D26E046E061E08091AF04A6
:1030F0000E94260C092D26E046E062E08091AF0494
:103100000E94260CE12CF12CF701EA50FE4FE491CD
:10311000A1E8B0E0AC0FBD1FAE0DB11DEC9381E096
:103120008E0D9FEFE91AF90A23E02E1568F7CD57A7
:10313000DF4F6881C358D04070E09B012E5F3F4F46
:1031400090E02817390704F700E0CE57DF4F2881B9
:10315000C258D040CF57DF4F4881C158D04081E896
:1031600090E08C0F9D1F03960E947A1080E0F7017B
:10317000EA50FE4FE491A1E8B0E0AC0FBD1FA80FEC
:10318000B11DEC938F5F9FEFE91AF90A843078F351
:10319000CD57DF4F6881C358D04070E0AB014E5F20
:1031A0005F4F282F30E0421753070CF700E0CE574F
:1031B000DF4F2881C258D040CF57DF4F4881C158D8
:1031C000D04081E890E08C0F9D1F03960E947A10FA
:1031D0000E9462100E943510682FCE0101960E9455
:1031E000681042E06FE18091AF040E94170B4CE938
:1031F00061E28091AF040E94170B40E560E280918C
:10320000AF040E94170B40E062E28091AF040E947D
:10321000170B0E94621021E046E06AE68091AF043D
:103220000E946F0C21E047E06AE68091AF040E94A3
:103230006F0C21E043E06AE68091AF040E946F0CBE
:1032400080E0F701EA50FE4FE491A1E8B0E0AC0F56
:10325000BD1FA80FB11DEC938F5F2FEFE21AF20A8A
:10326000843078F3CD57DF4F6881C358D04070E089
:10327000AB014E5F5F4F282F30E0421753070CF72A
:1032800000E0CE57DF4F2881C258D040CF57DF4FE4
:103290004881C158D04081E890E08C0F9D1F039673
:1032A0000E947A1080E0F701EA50FE4FE491A1E815
:1032B000B0E0AC0FBD1FA80FB11DEC938F5F9FEF67
:1032C000E91AF90A843078F3CD57DF4F6881C35883
:1032D000D04070E0AB014E5F5F4F282F30E04217C7
:1032E00053070CF700E0CE57DF4F2881C258D0407B
:1032F000CF57DF4F4881C158D04081E890E08C0F14
:103300009D1F03960E947A1080E0F701EA50FE4F5D
:10331000E491A1E8B0E0AC0FBD1FA80FB11DEC9384
:103320008F5F2FEFE21AF20A843078F3CD57DF4F28
:103330006881C358D04070E0AB014E5F5F4F282FCB
:1033400030E0421753070CF700E0CE57DF4F2881DB
:10335000C258D040CF57DF4F4881C158D04081E894
:1033600090E08C0F9D1F03960E947A100E943510EA
:1033700083309105D8F3682FCE0101960E94681022
:103380000E944E1080E0F701EA50FE4FE491A1E860
:10339000B0E0AC0FBD1FA80FB11DEC938F5F9FEF86
:1033A000E91AF90A843078F3CD57DF4F3880C358D3
:1033B000D040832C912CA4014E5F5F4F282F30E02A
:1033C0004217530704F7CE57DF4FB880C258D0409A
:1033D000CF57DF4F2880C158D040422D4F716DE646
:1033E0008091AF040E94170B8B2D0E947510C12C89
:1033F000D12C612C7724739421E8422E512C4C0E51
:103400005D1E23E0420E511CC814D90498F5C60174
:1034100040968816990618F4A32CAC1802C080E1D7
:10342000A82E8A2D90E093012B193109281739070E
:1034300014F4AB2CA19492012C0D3D1D08EE13E069
:103440004A2D6FE68091AF040E94260BCA0CD11C56
:10345000BA0CC814D904C0F6B11001C02394422D8F
:103460004F716DE68091AF040E94170B8B2D0E9467
:103470007510CACF0E94351083309105D8F3682F9C
:10348000CE0101960E9468100E944E10F701EA508A
:10349000FE4F80E09491A1E8B0E0AC0FBD1FA80FF3
:1034A000B11D9C938F5F843010F43196F3CFCD57CC
:1034B000DF4F6881C358D04070E0AB014E5F5F4F73
:1034C000282F30E04217530784F700E0CE57DF4F34
:1034D0002881C258D040CF57DF4F4881C158D040D3
:1034E00081E890E08C0F9D1F03960E947A1020E0E7
:1034F00047E06AE68091AF040E946F0C8AE290E098
:103500009093B2048093B1040E9462100E944E1006
:1035100080E001C081E08093C404811124C021E0D7
:1035200047E06AE68091AF040E946F0C8DE597E05A
:10353000909301028093000280916A0083608093DF
:103540006A00EC9A0E944E108093C3041092A80463
:1035500081E08093C2048091B1049091B204909371
:10356000C6048093C5040E9432096B017C010E944D
:103570003209DC01CB018C199D09AE09BF098033EA
:103580009547A105B105B0F40E94DE11019779F7C6
:1035900068E372E0CE0101960E949211BE016F5F56
:1035A0007F4F88E10E94650ECE0101960E948D1129
:1035B00080E03FC104E610E00E94DE11019791F423
:1035C00068E372E0CE0101960E949211BE016F5F26
:1035D0007F4F88E10E94650ECE0101960E948D11F9
:1035E00081E027C120E030E04AE754E460914B05D8
:1035F00070914C0580914D0590914E0578D59B01B9
:10360000AC01609131057091320580913305909144
:103610003405A7D460933105709332058093330548
:103620009093340520E030E04AE754E460914F0580
:1036300070915005809151059091520558D59B018C
:10364000AC016091350570913605809137059091F8
:10365000380587D460933505709336058093370518
:103660009093380520E030E04AE754E46091530538
:1036700070915405809155059091560538D59B0160
:10368000AC016091390570913A0580913B059091AC
:103690003C0567D46093390570933A0580933B05E8
:1036A00090933C0520E030E04AE754E460915705F0
:1036B000709158058091590590915A0518D59B0134
:1036C000AC0160913D0570913E0580913F05909160
:1036D000400547D460933D0570933E0580933F05B8
:1036E0009093400520E030E04AE754E460915B05A8
:1036F00070915C0580915D0590915E05F8D49B0109
:10370000AC01609141057091420580914305909113
:10371000440527D460934105709342058093430587
:103720009093440520E030E04AE754E460915F055F
:10373000709160058091610590916205D8D49B01DC
:10374000AC016091450570914605809147059091C7
:10375000480507D460934505709346058093470557
:10376000909348050150110909F026CF81EE9AE7A0
:10377000A4EBB1E48093310590933205A093330517
:10378000B093340588EB9EE1ADE6B1EC809335054E
:1037900090933605A0933705B09338058FE29DE2EC
:1037A000AFE9B3EC8093390590933A05A0933B05BC
:1037B000B0933C0588EB9EE1A7EAB1E480933D0518
:1037C00090933E05A0933F05B093400588EB9EE1A2
:1037D000A5E4BFE38093410590934205A093430580
:1037E000B09344058FE892ECA5EFBEEB80934505BE
:1037F00090934605A0934705B09348051092630542
:103800001092640510926505109266051092670586
:10381000109268051092690510926A0510926B0566
:1038200010926C0510926D0510926E0581E08093E8
:10383000A8048093960584E090E09093950580938A
:10384000940580913D0590913E05A0913F05B09172
:1038500040058093A3059093A405A093A505B0937C
:10386000A6058091410590914205A0914305B09134
:1038700044058093E5059093E605A093E705B09392
:10388000E8058091450590914605A0914705B091C6
:1038900048058093270690932806A0932906B093A5
:1038A0002A06DD24D39462E972E0CE0101960E94DB
:1038B0009211BE016F5F7F4F8FEF0E94650ECE01A8
:1038C00001960E948D1180919605882309F494C079
:1038D00062E972E0CE0101960E949211BE016F5F13
:1038E0007F4F8FE00E94650ECE0101960E948D11E0
:1038F0008EE593E00E94C8051816190614F560912C
:103900009E026D2560939E0283E00E9458080E94EB
:103910005311FC0197FD13C08D32910509F475C058
:10392000C0970A9708F471C0E0915E03F0915F03BD
:103930000680F781E02D8EE593E01995E8CF80E0D1
:10394000CED80E94DE1140915705509158056091E4
:10395000590570915A0587E995E00E946A0E7B012E
:103960008C0122E030E041E050E063E070E080E074
:1039700090E00E94130E40915B0550915C056091B0
:103980005D0570915E0589ED95E00E946A0E7B01F0
:103990008C0123E030E042E050E061E070E080E044
:1039A00090E00E94130E40915F0550916005609178
:1039B0006105709162058BE196E00E946A0E7B01C1
:1039C0008C0122E030E040E050E063E070E081E014
:1039D00090E00E94130E80919F029091A0020196A8
:1039E0008436910529F09093A00280939F0204C031
:1039F0001092A00210929F026AE070E080E090E0D6
:103A00000E94FA080E946E064ECF20E030E0A90125
:103A100010E0E130F105E1F0ED32F105C1F0CF0148
:103A2000C0970A97A8F4AAE0B0E0CBD74F01FF0FE8
:103A3000AA08BB08DC01CB01880D991DAA1DBB1D7E
:103A40009C01AD01205331094109510901C011E028
:103A5000E0915E03F0915F030680F781E02D8EE533
:103A600093E0CC56DF4F2883C459D040CF56DF4F68
:103A70003883C159D040CD56DF4F4883C359D04019
:103A8000CE56DF4F5883C259D04019950E9453112A
:103A9000FC01C097CC56DF4F2881C459D040CF5687
:103AA000DF4F3881C159D040CD56DF4F4881C359CF
:103AB000D040CE56DF4F5881C259D0400A9708F403
:103AC000A8CFE130F10509F4A4CF822F112309F426
:103AD00037CF819535CFCF93DF93EEE5F3E01382B7
:103AE000128288EE93E0A0E0B0E084839583A68301
:103AF000B7832CE132E0318320834DEC50E05587D1
:103B000044874CEC50E05787468748EC50E0518B97
:103B1000408B49EC50E0538B428B4AEC50E0558B84
:103B2000448B4EEC50E0578B468B118E128E138EC9
:103B3000148EEBEFF3E01382128284839583A683C5
:103B4000B7833183208325EC30E03587248724EC4C
:103B500030E03787268720EC30E0318B208B21EC5A
:103B600030E0338B228B22EC30E0358B248B26EC3B
:103B700030E0378B268B118E128E138E148EE8E96F
:103B8000F4E01382128284839583A683B7838CE248
:103B900092E091838083E4EAF4E010821182128241
:103BA000138288E68387168E80E090E0A0E8BFE36A
:103BB0008093090590930A05A0930B05B0930C051B
:103BC00010920D0510920E0510920F05109210051F
:103BD00010921105109212051092130510921405FF
:103BE00010921505109216051092170510921805DF
:103BF00010921A051092190510921C0510921B05BF
:103C000010921E0510921D051092200510921F059E
:103C1000109222051092210510922405109223057E
:103C2000109225051092260510922705109228055E
:103C30001092290510922A0510922B0510922C053E
:103C400010922D0510922E0510922F05109230051E
:103C500010929705109298051092990510929A0566
:103C600010929B0510929C0510929D0510929E0546
:103C700010929F051092A0051092A1051092A20526
:103C80001092A3051092A4051092A5051092A60506
:103C90001092A7051092A8051092A9051092AA05E6
:103CA0001092AB051092AC051092AD051092AE05C6
:103CB0001092AF051092B0051092B1051092B205A6
:103CC0001092B3051092B4051092B5051092B60586
:103CD0001092B7051092B8051092B9051092BA0566
:103CE0001092BB051092BC051092BD051092BE0546
:103CF000C1E0D0E0D093C005C093BF051092C105CC
:103D00001092C2051092C3051092C4050E94D508F6
:103D10006093D5057093D6058093D7059093D80509
:103D20001092D9051092DA051092DB051092DC058D
:103D30001092DD051092DE051092DF051092E0056D
:103D40001092E1051092E2051092E3051092E4054D
:103D50001092E5051092E6051092E7051092E8052D
:103D60001092E9051092EA051092EB051092EC050D
:103D70001092ED051092EE051092EF051092F005ED
:103D80001092F1051092F2051092F3051092F405CD
:103D90001092F5051092F6051092F7051092F805AD
:103DA0001092F9051092FA051092FB051092FC058D
:103DB0001092FD051092FE051092FF05109200066C
:103DC000D0930206C09301061092030610920406D7
:103DD00010920506109206060E94D50860931706F9
:103DE000709318068093190690931A0610921B067A
:103DF00010921C0610921D0610921E0610921F06AD
:103E0000109220061092210610922206109223068C
:103E1000109224061092250610922606109227066C
:103E2000109228061092290610922A0610922B064C
:103E300010922C0610922D0610922E0610922F062C
:103E4000109230061092310610923206109233060C
:103E500010923406109235061092360610923706EC
:103E6000109238061092390610923A0610923B06CC
:103E700010923C0610923D0610923E0610923F06AC
:103E8000109240061092410610924206D0934406CA
:103E9000C0934306109245061092460610924706BC
:103EA000109248060E94D5086093590670935A06EE
:103EB00080935B0690935C06DF91CF91089597FB0A
:103EC000072E16F4009406D077FD08D035D007FCF5
:103ED00005D03EF4909581959F4F0895709561951A
:103EE0007F4F0895A1E21A2EAA1BBB1BFD010DC036
:103EF000AA1FBB1FEE1FFF1FA217B307E407F5079A
:103F000020F0A21BB30BE40BF50B661F771F881F75
:103F1000991F1A9469F760957095809590959B010B
:103F2000AC01BD01CF010895EE0FFF1F881F8BBFAD
:103F30000790F691E02D1994AA1BBB1B51E107C015
:103F4000AA1FBB1FA617B70710F0A61BB70B881F29
:103F5000991F5A95A9F780959095BC01CD010895B8
:103F60005058BB27AA270ED0F2C4E3D430F0E8D4CF
:103F700020F031F49F3F11F41EF4D8C40EF4E09504
:103F8000E7FBCEC4E92FF4D480F3BA1762077307B6
:103F90008407950718F071F49EF50CC50EF4E095B2
:103FA0000B2EBA2FA02D0B01B90190010C01CA01F3
:103FB000A0011124FF27591B99F0593F50F4503E9E
:103FC00068F11A16F040A22F232F342F4427585F90
:103FD000F3CF469537952795A795F0405395C9F7A8
:103FE0007EF41F16BA0B620B730B840BBAF0915060
:103FF000A1F0FF0FBB1F661F771F881FC2F70EC0FF
:10400000BA0F621F731F841F48F4879577956795D1
:10401000B795F7959E3F08F0B3CF9395880F08F0BA
:104020009927EE0F97958795089583D458F080E8E7
:1040300091E009F49EEF84D428F040E851E059F46F
:104040005EEF09C073C4B6C4E92FE07891D468F379
:10405000092E052AC1F3261737074807590738F0F4
:104060000E2E07F8E02569F0E025E0640AC0EF6352
:1040700007F8009407FADB01B9019D01DC01CA01D0
:10408000AD01EF9343D063D40AD05F91552331F053
:104090002BED3FE049E450FD49EC63CF0895DF93F9
:1040A000DD27B92FBF7740E85FE3161617064807EC
:1040B0005B0710F4D92FDDD09F938F937F936F937D
:1040C00021D1E8E0F1E0ACD042D42F913F914F9163
:1040D0005F91CFD3DD2349F09058A2EA2AED3FE06B
:1040E00049EC5FE3D0785D274DDFDF9130C40CD021
:1040F0002EC426D440F01DD430F021F45F3F19F0D7
:104100000FC4511158C412C433D498F39923C9F37E
:104110005523B1F3951B550BBB27AA2762177307CD
:10412000840738F09F5F5F4F220F331F441FAA1F81
:10413000A9F333D00E2E3AF0E0E830D09150504041
:10414000E695001CCAF729D0FE2F27D0660F771FEF
:10415000881FBB1F261737074807AB07B0E809F0D1
:10416000BB0B802DBF01FF2793585F4F2AF09E3F66
:10417000510568F0D5C31FC45F3FECF3983EDCF3F4
:10418000869577956795B795F7959F5FC9F7880FDF
:10419000911D9695879597F90895E1E0660F771F31
:1041A000881FBB1F621773078407BA0720F0621BC2
:1041B000730B840BBA0BEE1F88F7E095089504D0BB
:1041C0006894B111F8C30895DBD388F09F5790F03D
:1041D000B92F9927B751A0F0D1F0660F771F881F2C
:1041E000991F1AF0BA95C9F712C0B13081F0E2D325
:1041F000B1E00895DFC3672F782F8827B85F39F0C3
:10420000B93FCCF3869577956795B395D9F73EF48A
:1042100090958095709561957F4F8F4F9F4F089532
:10422000DF93CF931F930F93FF92EF92DF927B0167
:104230008C01689405C0DA2EEF011BD3FE01E894CF
:10424000A5912591359145915591AEF3EF019ADEF7
:10425000FE019701A801DA9479F7DF90EF90FF90C3
:104260000F911F91CF91DF910895D3D208F48FEF72
:1042700008959B01AC0160E070E080E89FE337CFD8
:1042800011F40EF453C341C07BD3D0F39923D9F377
:10429000CEF39F57550B87FF46D00024A0E640EA97
:1042A000900180585695979528F4805C660F771F8B
:1042B000881F20F026173707480730F4621B730B5E
:1042C000840B202931294A2BA69517940794202581
:1042D00031254A2758F7660F771F881F20F02617C9
:1042E0003707480730F4620B730B840B200D311D28
:1042F000411DA09581F7B901842F9158880F96959B
:10430000879508959B01AC01A8C29F3F31F0915061
:1043100020F4879577956795B795880F911D9695A9
:10432000879597F9089591505040660F771F881F21
:10433000D2F70895CF93DF938230910510F482E095
:1043400090E0E0915F06F091600620E030E0C0E090
:10435000D0E0309711F14081518148175907C0F0E2
:104360004817590761F482819381209719F09B8344
:104370008A832BC09093600680935F0626C0211528
:10438000310519F04217530718F49A01BE01DF01F5
:10439000EF010280F381E02DDCCF2115310509F119
:1043A000281B390B2430310590F412968D919C9185
:1043B00013976115710521F0FB019383828304C07B
:1043C0009093600680935F06FD01329644C0FD0124
:1043D000E20FF31F81939193225031092D933C9367
:1043E0003AC020915D0630915E06232B41F4209166
:1043F00012023091130230935E0620935D062091E5
:104400001002309111022115310541F42DB73EB74C
:104410004091140250911502241B350BE0915D066A
:10442000F0915E06E217F307A0F42E1B3F0B28174E
:10443000390778F0AC014E5F5F4F2417350748F01D
:104440004E0F5F1F50935E0640935D0681939193DC
:1044500002C0E0E0F0E0CF01DF91CF9108950F932B
:104460001F93CF93DF93009709F48CC0FC01329720
:104470001382128200915F061091600601151105EA
:1044800081F420813181820F931F20915D0630914C
:104490005E062817390779F5F0935E06E0935D060E
:1044A00071C0D80140E050E0AE17BF0750F412963B
:1044B0002D913C911397AD012115310509F1D901D9
:1044C000F3CF9D01DA013383228360817181860FEE
:1044D000971F8217930769F4EC0128813981260F11
:1044E000371F2E5F3F4F318320838A819B819383C7
:1044F0008283452B29F4F0936006E0935F0642C067
:104500001396FC93EE931297ED01499159919E01F8
:10451000240F351FE217F30771F480819181840F16
:10452000951F029611969C938E9382819381139688
:104530009C938E931297E0E0F0E0D80112968D9153
:104540009C911397009719F0F8018C01F6CF8D918B
:104550009C9198012E5F3F4F820F931F20915D0623
:1045600030915E062817390769F4309729F41092C4
:10457000600610925F0602C01382128210935E06DC
:1045800000935D06DF91CF911F910F9108956F9277
:104590007F928F929F92AF92BF92CF92DF92EF92D3
:1045A000FF920F931F93CF93DF93EC01009781F459
:1045B000CB01DF91CF911F910F91FF90EF90DF9092
:1045C000CF90BF90AF909F908F907F906F90B2CE22
:1045D000FC01E60FF71F9C0122503109E217F30797
:1045E00008F4A8C0D9010D911C911197061717075F
:1045F000A8F00530110508F49BC0C8010497861780
:10460000970708F495C002501109061B170B019378
:1046100011936D937C93CF0122DF8AC05B01A01AB6
:10462000B10A4C01800E911EA0915F06B091600608
:1046300040E050E0E12CF12C109709F44AC0A81595
:10464000B905D1F56D907C901197630182E0C80E99
:10465000D11CCA14DB0480F1A3014A195B096A0169
:1046600082E0C80ED11C1296BC9012971396AC91A2
:10467000B5E0CB16D10440F0B282A38351834083CE
:10468000D9016D937C930AC00E5F1F4FC301800F49
:10469000911FF90191838083EB2DFA2FE114F1042E
:1046A00031F0D7011396FC93EE93129741C0F0932B
:1046B0006006E0935F063CC08D919C91119748176E
:1046C000590708F4AC017D0112960D90BC91A02D04
:1046D000B3CF80915D0690915E0688159905E1F44F
:1046E00046175707C8F48091100290911102009765
:1046F00041F48DB79EB74091140250911502841B6E
:10470000950BE817F907B0F4F0935E06E0935D06A9
:10471000F901718360830CC0CB010CDE7C01009732
:1047200049F0A801BE0128D0CE0199DEC70104C01E
:10473000CE0102C080E090E0DF91CF911F910F91F8
:10474000FF90EF90DF90CF90BF90AF909F908F90B1
:104750007F906F90089581E090E0F8944BC1FB0149
:10476000DC0104C08D910190801921F4415050402A
:10477000C8F7881B990B0895FB01DC0102C001906A
:104780000D9241505040D8F70895FB01DC01019093
:104790000D920020E1F70895E89409C097FB3EF4DC
:1047A00090958095709561957F4F8F4F9F4F99237E
:1047B000A9F0F92F96E9BB279395F69587957795FC
:1047C0006795B795F111F8CFFAF4BB0F11F460FFBC
:1047D0001BC06F5F7F4F8F4F9F4F16C0882311F014
:1047E00096E911C0772321F09EE8872F762F05C028
:1047F000662371F096E8862F70E060E02AF09A95C3
:10480000660F771F881FDAF7880F9695879597F9B7
:104810000895990F0008550FAA0BE0E8FEEF161651
:104820001706E807F907C0F012161306E407F507A4
:1048300098F0621B730B840B950B39F40A2661F018
:10484000232B242B252B21F408950A2609F4A140BB
:10485000A6958FEF811D811D08950BD078C069D07A
:1048600028F06ED018F0952309F05AC05FC01124CB
:10487000A2C07ED0A0F3959FD1F3950F50E0551FB5
:10488000629FF001729FBB27F00DB11D639FAA27A5
:10489000F00DB11DAA1F649F6627B00DA11D661FF4
:1048A000829F2227B00DA11D621F739FB00DA11D15
:1048B000621F839FA00D611D221F749F3327A00DCF
:1048C000611D231F849F600D211D822F762F6A2F6B
:1048D00011249F5750408AF0E1F088234AF0EE0FF0
:1048E000FF1FBB1F661F771F881F91505040A9F7FD
:1048F0009E3F510570F014C05EC05F3FECF3983EE0
:10490000DCF3869577956795B795F795E7959F5F63
:10491000C1F7FE2B880F911D9695879597F90895FD
:1049200097F99F6780E870E060E008959FEF80EC62
:10493000089500240A941616170618060906089505
:1049400000240A9412161306140605060895092E6B
:104950000394000C11F4882352F0BB0F40F4BF2BDA
:1049600011F460FF04C06F5F7F4F8F4F9F4F08951A
:1049700057FD9058440F551F59F05F3F71F0479510
:10498000880F97FB991F61F09F3F79F087950895F5
:10499000121613061406551FF2CF4695F1DF08C014
:1049A000161617061806991FF1CF86957105610531
:1049B00008940895E894BB2766277727CB0197F9D9
:1049C000089509D0A59F900DB49F900DA49F800DD0
:1049D000911D11240895A29FB001B39FC001A39F10
:1049E000700D811D1124911DB29F700D811D112428
:0849F000911D0895F894FFCF1A
:1049F800A106A106A106A106A106A106A106A10677
:104A0800000061068000E803000000000706AD0F03
:104A1800C805A605BA054D06000000002F070007C7
:104A2800A206EC06DD06DC064D50552064696420BC
:104A38006E6F7420696E697469616C697A6520703B
:104A4800726F7065726C7900546865204D505527F7
:104A580073204649464F20686173206F76657266F9
:104A68006C6F77656420616E64206265656E207284
:104A78006573657400746872757374206368616E19
:044A8800676500005E
:00000001FF
