:100000005AC5000089C5000087C5000085C50000ED
:1000100083C5000081C500007FC500007DC50000CC
:100020007BC5000079C5000077C5000075C50000DC
:1000300073C5000071C500006FC500006DC50000EC
:100040006BC5000069C5000067C5000065C50000FC
:1000500063C5000061C500005FC500000C944C1032
:100060005BC500000C947E0D0C94550D55C5000029
:1000700053C5000051C500004FC500004DC500002C
:100080004BC5000049C5000047C5000045C500003C
:100090000C942C0D0C94030D3FC500000C946312BE
:1000A0003BC5000039C5000037C5000035C500005C
:1000B00033C5000031C500002FC500000C94F01BB3
:1000C0002BC5000029C5000027C5000025C500007C
:1000D00023C5000021C500001FC500001DC500008C
:1000E0001BC50000950F980F870F8B0F8F0FCF0F39
:1000F0009C0FA00FA60FAA0FAE0FB40FB80FBC0F26
:10010000CF0FC20FC60FCA0F084AD73B3BCE016EB6
:1001100084BCBFFDC12F3D6C74319ABD56833DDA5E
:100120003D00C77F11BED9E4BB4C3E916BAAAABE6D
:10013000000000803F0000002200250028002B0066
:100140002E003100340002010000050108010B01FE
:1001500000002100240027002A002D003000330079
:1001600001010000040107010A0105050505070555
:1001700008080808020202020A0A08080404040423
:10018000010101010101010103030303030303034F
:10019000040707070C0C0C0C0C0C0C0C02020202DE
:1001A00006060606060606060B0B0B0B0B0B0B0BC7
:1001B0000102102020080810204010204080020179
:1001C000020108040201010204081020408080405E
:1001D000201008040201800402018040201008045D
:1001E00002010804020101020408102040800102FB
:1001F000040810204080FB00003E000B0036000188
:1002000000020003000000650054FFEF0000FA80C8
:10021000000B12820001000200000000000000003C
:1002200000000000000000280000FFFF4581FFFFE4
:10023000FA7200000000000003E800000001000165
:100240007FFFFFFE8001001B000000000000000097
:10025000000000000000003E03304000000002CA21
:10026000E3093E8000002000000000000000400084
:1002700000006000000041FF000000000B2A0000A9
:10028000165500002182FD872650FD800000001FCA
:1002900000000005800000000000000100000002D6
:1002A000000000030000400000000000046F000296
:1002B000653200005EC04000000000000000000049
:1002C000000000000000FB8C6F5DFD5D08D9007C24
:1002D000733B006C12CC3200139D3200D0D632003A
:1002E0000800400001F4FFE68079020000000000F1
:1002F000D0D600002710FB000000400000000000E6
:1003000000000000000000000001000000000000EC
:100310000100010000000000FA36FFBC308E00052D
:10032000FBF0FFD95BC8FFD09ABE000010A9FFF414
:100330001EB200CEBBF70000000100000004000266
:1003400000020200000CFFC280000001800000CF0C
:1003500080004000000000000001000000000000DC
:100360000600000000140000000000000000000073
:10037000000000000000000000000000000000007D
:10038000000000000000000000000000000000006D
:1003900000000000000000000000033F68B679354F
:1003A00028BCC67ED16C8000000040000000000028
:1003B000B26A000000000000000000000000000021
:1003C0003FF00000003000000000000000000000CE
:1003D000000000000000000000000000000000001D
:1003E0000000000000000000254D002F706D00008F
:1003F00005AE000C02D00000000000650054FFEFC5
:1004000000000000000000000100004400000000A7
:100410000C00000001000000000000650000005416
:100420000000FFEF000000000000000000000000DE
:10043000000000000000400000000000000000007C
:10044000000000000000400000000000000000006C
:100450000000000000000000000100000002000099
:10046000000000000000000000000000000000008C
:10047000000000000000000000000000000000007C
:10048000000000000000001B000000000000000051
:10049000000000000000000000000000000000005C
:1004A000000000000000000000000000000000004C
:1004B000000040000000001B0000000000000000E1
:1004C000000000000000000000000000000000002C
:1004D000000000000000000000000000000000001C
:1004E000000000000000000000000000000000000C
:1004F000000000000000D8DCBAA2F1DEB2B8B4A857
:100500008191F74A907F916AF3F9DBA8F9B0BAA01C
:1005100080F2CE81F3C2F1C1F2C3F3CCA2B280F17A
:10052000C6D880BAA7DFDFDFF2A7C3CBC5B6F08796
:10053000A2942448703C95406834589B78A2F1837B
:10054000922D557DD8B1B4B8A1D09180F270F370DE
:10055000F27C80A8F101B09887D943D886C988BABF
:10056000A1F20EB89780F1A9DFDFDFAADFDFDFF2AB
:10057000AAC5CDC7A90CC92C97979797F1A9892629
:100580004666B0B4BA80ACDEF2CAF1B28C02A9B64B
:100590009800890E161EB8A9B4992C547CB08AA86C
:1005A00096365676F1B9AFB4B083C0B8A89711B1FA
:1005B0008F98B9AFF0240844106418F1A329557D31
:1005C000AF83B593AFF0002850F1A3869F61A6DA00
:1005D000DEDFD9FAA38696DB31A6D9F8DFBAA68F7B
:1005E000C2C5C7B28CC1B8A2DFDFDFA3DFDFDFD8AF
:1005F000D8F1B8A8B286B4980D355DB8AA98B0877E
:100600002D353DB2B6BAAF8C96198F9FA70E161E28
:10061000B49AB8AA872C547CB9A3DEDFDFA3B180DB
:10062000F2C4CDC9F1B8A9B499830D355D89B9A3D8
:100630002D557DB593A30E161EA92C547CB8B4B0CD
:10064000F19783A81184A50998A383F0DA240844BC
:10065000106418D8F1A529557DA58595021A2E3A62
:10066000565A4048F9F3A3D9F8F098832408441067
:1006700064189782A8F111F098A224084410641815
:10068000DAF3DED883A59401D9A302F1A2C3C5C7CA
:10069000D8F18492A24DDA2AD84869D92AD8685567
:1006A000DA32D85071D932D8705DDA3AD85879D95F
:1006B0003AD87893A34DDA2AD84869D92AD8685508
:1006C000DA32D85071D932D8705DDA3AD85879D93F
:1006D0003AD878A88A9AF02850789EF38818F19F23
:1006E0001D98A8D908D8C89F129EF315A8DA121031
:1006F000D8F1AFC8978734B5B994A421F3D922D8DB
:10070000F22DF3D92AD8F235F3D932D881A460601A
:1007100061D961D86C6869D969D8747071D971D898
:10072000B1A384193D5DA3831A3E5E9310308110FE
:1007300011B8B0AF8F94F2DA3ED8B49AA88729DA0C
:10074000F8D8879A35DAF8D8879A3DDAF8D8B1B967
:10075000A49885022E56A581000C14A397B08AF1A7
:100760002DD928D84DD948D86DD968D8B1840DDA9B
:100770000ED8A32983DA2C0ED8A3844983DA2C4C13
:100780000ED8B8B0A88A9AF520AADADFD8A840AA6D
:10079000D0DADED8A860AADAD0DFD8F19786A831FF
:1007A0009B069907AB9728889BF00C201440B8B0A3
:1007B000B4A88C9CF0042851791D301438B282AB57
:1007C000D0982C505078789BF11AB0F08A9CA829C8
:1007D00051798B2951798A2470598B2058718A4418
:1007E00069388B3940688A6448318B304960A58804
:1007F000200971584468113964493019F1AC002C52
:10080000547CF08CA804285078F1889726A8599831
:10081000AC8C02264666F0899CA82951792470592F
:10082000446938644831A98809205970AB113840AF
:1008300069A8193148608CA83C415C207C00F18794
:10084000981986A86E767EA999882D557D9EB9A3A4
:100850008A228A6E8A568A5E9FB183062646660E73
:100860002E4E6E9DB8AD002C547CF2B18CB499B96B
:10087000A32D557D8191AC38AD3AB58391AC2DD97E
:1008800028D84DD948D86DD968D88C9DAE29D904BF
:10089000AED851D904AED879D904D881F39DAD0032
:1008A0008DAE1981ADD901D8F2AEDA26D88E912954
:1008B00083A7D9ADADADADF32AD8D8F1B0AC89914D
:1008C0003E5E76F3AC2E2EF1B18C5A9CAC2C2828CF
:1008D000289CAC3018A8988128343C9724A7283449
:1008E0003C9C24F2B089AC912C4C6C8A9B2DD9D8BD
:1008F000D851D9D8D879D9D8D8F19E88A331DAD8A7
:10090000D8912DD928D84DD948D86DD968D8B18378
:1009100093353D8025DAD8D88569DAD8D8B4938163
:10092000A328343CF3AB8BF8A391B609B4D9ABDE62
:10093000FAB0879CB9A3DDF1A3A3A3A395F1A3A368
:10094000A39DF1A3A3A3A3F2A3B49080F2A3A3A3B6
:10095000A3A3A3A3A3A3A3B2A3A3A3A3A3A3B08767
:10096000B599F1A3A3A398F1A3A3A3A397A3A3A3CA
:10097000A3F39BA3A3DCB9A7F1262626D8D8FF03AF
:100980007B034CCD6C03AB0336567600680402CB78
:1009900047A202180400058BC1010C0400000000EE
:1009A000037F060CC92C9797970389032646660098
:1009B0006C02200002400400000000024404000019
:1009C000000002480400000000024C040000000087
:1009D000025004000000000254040000000002580D
:1009E0000400000000025C040000000002BC0400DF
:1009F00000000001EC0400004000037F060CC92C3D
:100A00009797970402030D355D040904872D353D42
:100A100000A3010000000001078601FE074105F167
:100A200020283038077E01300746019A074704F135
:100A3000283038076C04F128303802160200010013
:100A4000000A0B02090C0D0E080703040100000048
:100A50000000000000000000000000000000000096
:100A60000000000000000000000000121110000053
:100A70000000000000000000000000000000000076
:100A8000000000000001B202FFFF0190040923A151
:100A900035016A0206000160080000000000000045
:100AA00000006004400000000162020000006004D9
:100AB00000400000911E11241FBECFEFD1E2DEBF27
:100AC000CDBF00E00CBF13E0A0E0B2E0E6E5FAE441
:100AD00000E00BBF02C007900D92A035B107D9F717
:100AE00027E0A0E5B3E001C01D92AD33B207E1F706
:100AF00015E0CBE5D5E000E006C021970109802F85
:100B0000FE010E94C31FCA35D10780E00807A9F77C
:100B10000E941A1E0C94292573CA0F931F93CF931A
:100B2000DF93EC01FC01EE0FFF1FEE0FFF1FE05AF9
:100B3000FA4F108211821282138220E030E0A90164
:100B400060917005709171058091720590917305A7
:100B50000E94E01F20E034E740E656E40E945C2457
:100B60000E9413218B01035E1A4BB80180E090E0D4
:100B70000E94FB232DEC3CE548EC56E40E946421E6
:100B800018166CF4CC0FDD1FC05BDC4F8EE294E6D0
:100B900099838883DF91CF911F910F9108950D3133
:100BA00085E4180738F4CC0FDD1FC05BDC4F8DE106
:100BB00095E4EECFFE01EE0FFF1FE05BFC4F1183CB
:100BC0000083E8CFCF92DF92EF92FF920F931F93B3
:100BD000CF93DF93EC01CB01BA018E01000F111FFF
:100BE000000F111F005A1A4FF801208131814281F4
:100BF00053810E94E01F6B017C0120E030E040E85F
:100C00005FE30E94642118160CF04BC080E090E076
:100C1000A0E8BFE3F80180839183A283B3836C01D2
:100C20007D012091700530917105409172055091C0
:100C30007305C701B6010E94E01F20E034E740E6DB
:100C400056E40E945C240E9413218B01035E1A4B20
:100C5000B80180E090E00E94FB232DEC3CE548ECDD
:100C600056E40E94642118168CF4CC0FDD1FC05B83
:100C7000DC4F8EE294E699838883DF91CF911F91B8
:100C80000F91FF90EF90DF90CF9008950D31F5E434
:100C90001F0768F4CC0FDD1FC05BDC4F8DE195E4CE
:100CA000EACFF801C082D182E282F382BACFFE019C
:100CB000EE0FFF1FE05BFC4F11830083DECFCF926E
:100CC000DF92EF92FF920F931F93CF93DF936C010C
:100CD0007A018B01C0E0D0E0CE15DF0589F0D801A4
:100CE0006D918D01D601ED91FC910190F081E02D87
:100CF000C6011995892B11F47E0102C02196ECCF13
:100D0000C701DF91CF911F910F91FF90EF90DF907E
:100D1000CF900895EF92FF920F931F93CF93DF939D
:100D20001F92CDB7DEB77A0189019E012F5F3F4F39
:100D300041E00E94E110882339F029812E7730E0CC
:100D400035952795F70120830F90DF91CF911F9163
:100D50000F91FF90EF9008950F931F930E94401002
:100D600060932204709323048093240490932504B9
:100D7000E0911A04F0911B040084F185E02D8AE1D2
:100D800094E0199597FF1FC00E9440100091220423
:100D9000109123042091240430912504DC01CB011F
:100DA000801B910BA20BB30B00911E0410911F042A
:100DB000209120043091210480179107A207B307E6
:100DC000B8F28FEF9FEF1F910F9108958AE194E0A1
:100DD000E0D621E0892B09F420E0822F089587EBEB
:100DE00094E0D7D621E0892B09F420E0822F0895E2
:100DF000AF92BF92DF92EF92FF920F931F93CF9328
:100E0000DF931F921F92CDB7DEB788E090E00E947B
:100E1000C921D82E192FA12CB12CF501E158F64F7C
:100E20004491F501E058F64F2491750183E0E80EF6
:100E3000F11CF501EF57F64FE491EE2351F1AE2E80
:100E4000B12CE33058F0B5018D2D912F2A834983C1
:100E50000E94F622D82E192F49812A81AD2DB12F5B
:100E600080E090E08A159B0548F4F701E80FF91F30
:100E7000E158F64FE491ED930196F4CF00E0B5010F
:100E80008D2D912F0E94D01CAE0CBF1C811117C05C
:100E900010C084E0A80EB11CF701E158F64FE491B0
:100EA000E13039F442E368E3809181050E94D21079
:100EB00006C08D2D912F0E945E2280E00AC080EC3A
:100EC000A816B10408F4A9CF8D2D912F0E945E229F
:100ED00081E00F900F90DF91CF911F910F91FF90C4
:100EE000EF90DF90BF90AF9008950F9301E020E066
:100EF00040E069E877E086EF91E00E94D01C0F9116
:100F0000089521E041E06AE6809181050C942B125E
:100F1000482F65E2809181050C94D21020E045E0D5
:100F20006AE6809181050C942B12CF93DF93C0E683
:100F3000D5E028EE33E042E855E062E089A1EADE40
:100F40008AA1DF91CF910895CF93DF93C0E6D5E0DA
:100F500028EE33E042E855E061E089A1DBDE8AA1BA
:100F6000DF91CF910895CF93DF93C0E6D5E028EECF
:100F700033E042E855E060E089A1CCDE8AA1DF9150
:100F8000CF910895EF92FF920F931F93CF93DF932A
:100F90001F92CDB7DEB780E6E82E85E0F82E08EE8A
:100FA00013E09E012F5F3F4F41E060E0F70181A118
:100FB0000E94E11089818170F70182A30F90DF9177
:100FC000CF911F910F91FF90EF9008950F931F9372
:100FD000CF93DF93C0E6D5E008EE13E022E835E0DA
:100FE00041E06FE689A10E94E1108AA1DF91CF91D3
:100FF0001F910F91089520E046E06BE680918105F6
:101000000C942B1221E047E06BE6809181050C9453
:101010002B120F93CF93DF93C0E6D5E001E023E0DE
:1010200042E06BE689A10E94E21100E022E044E088
:101030006BE189A10E94E21122E044E06CE189A108
:101040000E94E21120E046E06BE689A1DF91CF919A
:101050000F910C942B121092590310925803109276
:10106000F703109219041092F50381E08093F403C2
:101070001092CF0361E084E129D761E085E126D7B2
:10108000E9EBF0E080818E7F808380818D7F80839B
:1010900088E48093B80085E48093BC000895CF93E2
:1010A000DF93FC0144815581608171818AE194E084
:1010B00006DEEC0142E050E068E272E08AE194E092
:1010C000FEDD8C0F9D1FDF91CF91089580E090E0B1
:1010D00024DD81E090E021DD82E090E01EDD83E010
:1010E00090E01BCDAF92BF92CF92DF92EF92FF9232
:1010F0000F931F93CF93DF935B01EA01680179019E
:10110000B901A8015FDDB701A60183E090E05ADDD7
:10111000F7FAF094F7F8F094B701A601C50152DD93
:10112000B701A601CE01DF91CF911F910F91FF90E2
:10113000EF90DF90CF90BF90AF9044CDFF920F9390
:101140001F93CF93DF9300D01F92CDB7DEB704DE9D
:10115000FC0197FD11C08D32910591F0C0970A975F
:1011600078F0E0911A04F0911B040680F781E02DDD
:101170008AE194E01995EBCF60E070E0CB014BC0C1
:1011800020E030E0A901F12CE130F105F1F0ED3281
:10119000F105C9F0CF01C0970A97B8F4AAE0B0E012
:1011A0000E9410258F01FF0F220B330BDC01CB01B6
:1011B000800F911FA21FB31F9C01AD012053310965
:1011C0004109510902C0FF24F394E0911A04F091FF
:1011D0001B040680F781E02D8AE194E029833A839D
:1011E0004B835C831995B8DDFC01C09729813A8156
:1011F0004B815C810A9740F2E130F10529F2FF2032
:1012000041F066277727CB01621B730B840B950B8C
:1012100002C0CA01B9010F900F900F900F90DF919B
:10122000CF911F910F91FF9008954F925F926F920F
:101230007F92AF92BF92CF92DF92EF92FF920F9385
:101240001F93CF93DF93409070055090710560908D
:1012500072057090730580E6E82E85E0F82E00E5B3
:1012600013E09DE1C92E95E4D92E2EE2A22E24E6AC
:10127000B22EF70161917191819191917F01A3014A
:1012800092010E94E01F20E034E740E656E40E940D
:101290005C240E941321EB01C35EDA4BBE0180E0A7
:1012A00090E00E94FB232DEC3CE548EC56E40E94C4
:1012B00064211816C4F4F801B182A0820E5F1F4F9A
:1012C000F3E008351F07A9F6DF91CF911F910F9129
:1012D000FF90EF90DF90CF90BF90AF907F906F9096
:1012E0005F904F900895CD31F5E4DF0720F4F801C9
:1012F000D182C082E3CFF801D183C083DFCFE3EB9B
:10130000F1E02491EDE6F1E08491882399F090E0FA
:10131000880F991FFC01E05BFE4FA591B491FC0181
:10132000EA5CFE4F859194918FB7F894EC91E22B93
:10133000EC938FBF089545E050E060E070E0FC0161
:1013400044835583668377830895FC01808191816E
:101350000C945E22EF92FF920F931F93CF93DF9333
:10136000EC01198218821B821A821D821C8261156F
:101370007105A9F17B01FB0101900020E9F731978C
:101380008F01061B170BB8016F5F7F4F80E090E065
:101390000E94F622009759F0998388831B830A8361
:1013A0002C813D81232B81F4FC0110820DC08881AA
:1013B0009981009711F00E945E22198218821D8285
:1013C0001C821B821A820BC01D830C83B701DF9124
:1013D000CF911F910F91FF90EF900C94F423DF9128
:1013E000CF911F910F91FF90EF9008952F923F9210
:1013F0004F925F926F927F928F929F92AF92BF9225
:10140000CF92DF92EF92FF920F931F93CF93DF93D0
:10141000CDB7DEB7A0970FB6F894DEBF0FBECDBF35
:101420000E94941D90939A05809399056091970569
:10143000709198058617970798F38115944009F4E1
:1014400088C28BE995E00E94861D0E94B81CBBE90A
:101450002B2EB5E03B2E2114310409F48AC2EBE9AE
:10146000F5E0C480D12CDC2CCC248581C80ED11CA5
:10147000E084F12CFE2CEE248185E80EF11C04851D
:1014800010E0102F00278585080F111D608170E086
:10149000762F66278181680F711D072E000C880B3F
:1014A000990B0E94FD2320E030E040E858E30E94C1
:1014B0005C242B013C016093DB057093DC05809379
:1014C000DD059093DE05B601DD0C880B990B0E94BB
:1014D000FD2320E030E040E858E30E945C244B010B
:1014E0005C016093DF057093E0058093E1059093C4
:1014F000E205B701FF0C880B990B0E94FD2320E049
:1015000030E040E858E30E945C246F837887898745
:101510009A876093E3057093E4058093E5059093C3
:10152000E605B801110F880B990B0E94FD2320E0FE
:1015300030E040E858E30E945C246B877C878D870D
:101540009E876093E7057093E8058093E905909383
:10155000EA059B01AC01C501B4010E945C246B014A
:101560007C012F81388549855A85C301B2010E94CB
:101570005C249B01AC01C701B6010E94DF1F9B01E7
:10158000AC010E94E01F6F87788B898B9A8B6093E8
:10159000F7057093F8058093F9059093FA05A50176
:1015A0009401C301B2010E945C246B017C012B8574
:1015B0003C854D855E856F81788589859A850E94F9
:1015C0005C249B01AC01C701B6010E94E01F9B0196
:1015D000AC010E94E01F6B8B7C8B8D8B9E8B60938C
:1015E000FB057093FC058093FD059093FE05A30118
:1015F0009201C301B2010E945C246B017C01A50130
:101600009401C501B4010E945C249B01AC01C70197
:10161000B6010E94DF1F6B017C012F81388549854F
:101620005A85CA01B9010E945C249B01AC01C70123
:10163000B6010E94DF1F6B017C012B853C854D8527
:101640005E85CA01B9010E945C249B01AC01C701FF
:10165000B6010E94E01F6F8B788F898F9A8F6093FD
:10166000FF057093000680930106909302062328DD
:1016700009F484C1EBE9F5E0248C312C322C2224CE
:10168000858D280E311C3092EC052092EB0560A16F
:1016900070E0762F662781A1DB01A80FB11DBC8FFA
:1016A000AB8FB093EE05A093ED0504A110E0102FD1
:1016B000002785A1080F111D1093F0050093EF0579
:1016C000A3019201C301B2010E94E01F6D8F7E8FC2
:1016D0008F8F98A3A5019401C501B4010E94E01F5A
:1016E0006B017C012D8D3E8D4F8D58A1C301B20140
:1016F0000E945C242B013C01A7019601C501B401A5
:101700000E945C249B01AC01C301B2010E94E01F56
:1017100020E030E040E85FE30E94DF1F4B015C0106
:10172000A70196016F81788589859A850E945C243E
:101730006B017C012D8D3E8D4F8D58A16B857C8575
:101740008D859E850E945C249B01AC01C701B6017A
:101750000E94DF1FA50194010E9453206093290677
:1017600070932A0680932B0690932C062F89388D30
:10177000498D5A8DCA01B9010E945C246B017C011C
:101780002B893C894D895E89CA01B9010E945C247C
:10179000A70196010E94E01F0E9473219B01AC01EA
:1017A0006F85788989899A890E94A6200E94551B95
:1017B00060932D0670932E0680932F06909330062B
:1017C0002F85388949895A89CA01B9010E945C2448
:1017D0009B01AC01C701B6010E94E01F0E9473216A
:1017E0009B01AC016B897C898D899E890E94A62012
:1017F0000E94551B60933106709332068093330626
:1018000090933406B101330C880B990B0E94FD2391
:101810006B017C0120E030E040E056E46F85788980
:1018200089899A890E945C249B01AC01C701B60199
:101830000E94DF1F0E940E214B015C017093F20594
:101840006093F1052B8D3C8DB901330F880B990BFB
:101850000E94FD236B017C0120E030E040E056E473
:101860006B897C898D899E890E945C249B01AC01D7
:10187000C701B6010E94DF1F0E940E216B017C018F
:101880007093F4056093F305B801110F880B990B61
:101890000E94FD232B013C0120E030E040E056E4B3
:1018A0006F89788D898D9A8D0E945C249B01AC0193
:1018B000C301B2010E94DF1F0E940E212B013C01D7
:1018C0007093F6056093F505B401990C880B990B9C
:1018D0000E94FD2360931D0670931E0680931F06D1
:1018E00090932006B601DD0C880B990B0E94FD2316
:1018F000609321067093220680932306909324061A
:10190000B201550C880B990B0E94FD2360932506AC
:1019100070932606809327069093280680E090E037
:10192000A0960FB6F894DEBF0FBECDBFDF91CF916A
:101930001F910F91FF90EF90DF90CF90BF90AF90ED
:101940009F908F907F906F905F904F903F902F90DF
:1019500008950E94B81C6BE272E0CE010196FADC99
:10196000CE0101969CDBCE010196EFDC82E090E097
:10197000D7CFE0918105F091820573CDE09181058B
:10198000F091820579CE8091940581112FDD8091AF
:10199000290690912A06A0912B06B0912C068093DF
:1019A000740690937506A0937606B093770680919F
:1019B0002D0690912E06A0912F06B09130068093AF
:1019C000B8069093B906A093BA06B093BB0680916F
:1019D000310690913206A0913306B091340680937F
:1019E000FC069093FD06A093FE06B093FF0688E6E2
:1019F00096E00E94261B8CEA96E00E94261B80EF50
:101A000096E00C94261B1F920F920FB60F92112492
:101A10000BB60F922F933F934F935F936F937F93E8
:101A20008F939F93AF93BF93EF93FF938AE194E0DB
:101A3000C5D1FF91EF91BF91AF919F918F917F9110
:101A40006F915F914F913F912F910F900BBE0F902F
:101A50000FBE0F901F9018951F920F920FB60F9206
:101A600011240BB60F922F933F934F935F936F9375
:101A70007F938F939F93AF93BF93EF93FF938AE1ED
:101A800094E083D1FF91EF91BF91AF919F918F919E
:101A90007F916F915F914F913F912F910F900BBE6E
:101AA0000F900FBE0F901F9018951F920F920FB6B8
:101AB0000F9211240BB60F922F933F934F935F9386
:101AC0006F937F938F939F93AF93BF93EF93FF9306
:101AD00087EB94E073D1FF91EF91BF91AF919F910C
:101AE0008F917F916F915F914F913F912F910F90C7
:101AF0000BBE0F900FBE0F901F9018951F920F9264
:101B00000FB60F9211240BB60F922F933F934F9362
:101B10005F936F937F938F939F93AF93BF93EF9355
:101B2000FF9387EB94E031D1FF91EF91BF91AF919B
:101B30009F918F917F916F915F914F913F912F91E5
:101B40000F900BBE0F900FBE0F901F901895FC01C9
:101B5000918D828D981761F0828DDF01A80FB11DE4
:101B60005D968C91928D9F5F9F73928F90E0089508
:101B70008FEF9FEF0895FC01918D828D981731F0C2
:101B8000828DE80FF11D858D90E008958FEF9FEF16
:101B90000895FC01918D228D892F90E0805C9F4FEC
:101BA000821B91098F739927089580E090E0892B1B
:101BB00019F015D9811120C080E090E0892B19F02F
:101BC00005D981111CC080E090E0892B41F080E0B4
:101BD00090E0892B21F00E940000811113C080E069
:101BE00090E0892BA1F080E090E0892B81F00E94A9
:101BF000000081110AC008950E940000DDCF0E94FC
:101C00000000E1CF0E940000EACF0C94000008958C
:101C10008091580390E020915903821B9109089507
:101C200085ED8093BC008091BC0084FDFCCF1092B8
:101C3000F503089540917C03262F30E0240F311DD9
:101C400021323105DCF42091F5032430C9F4FC0184
:101C500080E090E0861758F430917C032191DC01FC
:101C6000A65ABC4FA30FB11D2C930196F3CF8091C0
:101C70007C03680F60937C0380E0089581E0089501
:101C800082E008950895E091590380915803E81780
:101C900030F4F0E0EF55FC4F808190E008958FEF35
:101CA0009FEF08959091590380915803981750F42D
:101CB000E92FF0E0EF55FC4F208130E09F5F9093DB
:101CC000590302C02FEF3FEFC9010895CF92DF9271
:101CD000EF92FF920F931F93CF93DF937C01262FF8
:101CE000972F8A018091F603882391F0C62FD72F72
:101CF0006E01C40ED51ECC15DD0569F06991D701C2
:101D0000ED91FC910190F081E02DC7011995F3CF81
:101D1000642F822F8FDFC801DF91CF911F910F9128
:101D2000FF90EF90DF90CF900895CF93DF931F92B5
:101D3000CDB7DEB769832091F6032223D1F020913D
:101D40001904203240F021E030E0FC01338322838B
:101D500080E090E014C08091F703E82FF0E0E850B5
:101D6000FC4F998190838F5F8093F70380931904D0
:101D700004C061E0CE0101965DDF81E090E00F904C
:101D8000DF91CF9108950E94DA23FC01A089B189E7
:101D90008C91A689B78982FD0FC09C91818D8F5F40
:101DA0008F73228D821749F0218DDF01A20FB11DA3
:101DB0005D969C93818F08958C910895FC01848D8C
:101DC000DF01A80FB11DA35ABF4F2C91848D90E065
:101DD00001968F739927848FA689B7892C93A08940
:101DE000B1898C9180648C93938D848D981306C0F7
:101DF0000288F389E02D80818F7D80830895EF92A2
:101E0000FF920F931F93CF93DF93EC0181E0888FB4
:101E10009B8D8C8D981305C0E889F989808185FD9B
:101E200023C0F62E0B8D10E00F5F1F4F0F7311278D
:101E3000E02E8C8DE8120BC00FB607FCFACFE889B4
:101E4000F989808185FFF5CFCE01B8DFF2CF8B8D88
:101E5000FE01E80FF11DE35AFF4FF0820B8FEA8974
:101E6000FB898081806207C0EE89FF896083E889F1
:101E7000F98980818064808381E090E0DF91CF9157
:101E80001F910F91FF90EF900895CF93DF93EC0196
:101E9000888D8823C1F0EA89FB89808185FD05C092
:101EA000A889B9898C9186FD0EC00FB607FCF5CFC5
:101EB000808185FFF2CFA889B9898C9185FFEDCF0C
:101EC000CE017CDFE8CFDF91CF910895362F90E0EF
:101ED000FC01E15CF54F4491FC01E055FE4F24917B
:101EE000FC01E659FE4F9491992309F46BC04423F9
:101EF00009F455C050E0FA013197E231F10508F0DC
:101F00004EC08827EE58FF4F8F4F0C94C31F80910F
:101F100080008F7707C0809180008F7D03C0809103
:101F20008000877F809380003AC084B58F7702C09D
:101F300084B58F7D84BD33C08091B0008F7703C09E
:101F40008091B0008F7D8093B00029C08091900077
:101F50008F7707C0809190008F7D03C080919000A3
:101F6000877F809390001BC08091A0008F7707C06F
:101F70008091A0008F7D03C08091A000877F809317
:101F8000A0000DC0809120018F7707C080912001B3
:101F90008F7D03C080912001877F80932001E92FEE
:101FA000F0E0EE0FFF1FEA5CFE4FA591B4918FB7F2
:101FB000F894EC91311103C020952E2301C02E2BF3
:101FC0002C938FBF08953FB7F8948091C6039091EA
:101FD000C703A091C803B091C90326B5A89B05C04B
:101FE0002F3F19F00196A11DB11D3FBFBA2FA92F98
:101FF000982F8827820F911DA11DB11DBC01CD0115
:1020000042E0660F771F881F991F4A95D1F7089500
:102010008F929F92AF92BF92CF92DF92EF92FF92F8
:102020006B017C01D0DF4B015C01C114D104E104E0
:10203000F104E9F0C8DFDC01CB0188199909AA098C
:10204000BB09883E9340A105B10578F321E0C21A8F
:10205000D108E108F10888EE880E83E0981EA11CE3
:10206000B11CC114D104E104F10421F7DECFFF90CB
:10207000EF90DF90CF90BF90AF909F908F9008959A
:102080002FB7F8946091C2037091C3038091C40389
:102090009091C5032FBF08951F920F920FB60F9214
:1020A00011242F933F938F939F93AF93BF9380916E
:1020B000C2039091C303A091C403B091C5033091B2
:1020C000C10323E0230F2D3720F40196A11DB11D7C
:1020D00005C026E8230F0296A11DB11D2093C10360
:1020E0008093C2039093C303A093C403B093C5032A
:1020F0008091C6039091C703A091C803B091C90312
:102100000196A11DB11D8093C6039093C703A093B0
:10211000C803B093C903BF91AF919F918F913F9135
:102120002F910F900FBE0F901F90189528E6FC017D
:1021300020830895EF92FF920F931F93CF93DF9325
:102140001F921F92CDB7DEB7142F91E09093F60344
:10215000809318041092F7031092190484E595E017
:1021600029833A83E2DD2981022FE22E3A81F32E80
:102170008E2D801B811738F4F70161917F0184E572
:1021800095E0D3DDF5CF0E94541C91E0811190E0E1
:10219000892F0F900F90DF91CF911F910F91FF909A
:1021A000EF900895CF93DF931F92CDB7DEB74983A9
:1021B0009E012F5F3F4F41E0BDDF0F90DF91CF9138
:1021C00008952F923F924F925F926F927F928F92DB
:1021D0009F92AF92BF92CF92DF92EF92FF920F93B6
:1021E0001F93CF93DF93CDB7DEB727970FB6F89441
:1021F000DEBF0FBECDBFE82E6B834F83690140DF8A
:102200004B015C016E2C660CF12C1E8277247394BA
:102210005F81452F50E05D834C831801412C512C88
:102220004F81F41608F096C07092F603E0921804FD
:102230001092F703109219046B8184E595E075DD27
:102240000E94541C7092F603E09218041092F70357
:10225000109219048091F5038111FCCF2C813D81EE
:102260002F1931092132310514F020E230E02132FA
:1022700008F020E27092F5037092F4038FEF8093E0
:10228000F3031092F203820F8093F1037092D00354
:102290008091D00386298093D0038091CF03813031
:1022A00071F41092CF038091D0038093BB00809192
:1022B000BC0083FDF8CF95EC9093BC0003C0E5EE25
:1022C000E093BC008091F5038130E1F38091F2034B
:1022D000821710F42091F203A1EDB3E0E1EAF3E0FC
:1022E0008E2F41EA53E0841B821718F48D9181935D
:1022F000F7CF10925903209358039091580380917F
:102300005903981709F10115110591F4A6012E81C1
:10231000420F511D27FD5A955A83498384E595E064
:10232000C1DCE981FA8180832E812F5F2E83E5CF86
:10233000A7DEDC01CB0188199909AA09BB0982151E
:102340009305A405B50510F38F81813208F080E272
:10235000F80E66CFFE8001151105D1F091DEDC018B
:10236000CB0188199909AA09BB0920E030E0801740
:102370009107A207B30760F05F81252F30E08F2D12
:102380000F2C000C990B8217930714F4FF24FA9476
:102390008F2D27960FB6F894DEBF0FBECDBFDF910D
:1023A000CF911F910F91FF90EF90DF90CF90BF9052
:1023B000AF909F908F907F906F905F904F903F90E5
:1023C0002F900895BF92CF92DF92EF92FF920F93DA
:1023D0001F93CF93DF931F92CDB7DEB7F82EE62E73
:1023E000C42EB22ED02E08EE13E09E012F5F3F4F79
:1023F00041E0E7DE882319F1EC2DF0E0EB19F1095B
:10240000319621E030E002C0220F331FBA94E2F788
:10241000215031090E2E01C0220F0A94EAF78D2DAA
:1024200001C0880FEA95EAF7422F40959981492328
:102430002823422B49836E2D8F2DB4DE01C080E00E
:102440000F90DF91CF911F910F91FF90EF90DF9050
:10245000CF90BF900895CF92DF92EF92FF920F93AB
:102460001F93CF93DF931F92CDB7DEB7F82EE62EE2
:10247000D42EC22E08EE13E09E012F5F3F4F41E0A5
:10248000A0DE9981CC2041F041E050E001C0440F32
:10249000DA94EAF7492B09C021E030E0A90101C034
:1024A000440FDA94EAF74095492349836E2D8F2D26
:1024B00079DE0F90DF91CF911F910F91FF90EF90F8
:1024C000DF90CF9008951F920F920FB60F921124B4
:1024D0000BB60F922F933F934F935F936F937F931E
:1024E0008F939F93AF93BF93EF93FF938091B90026
:1024F000887F803609F49CC068F5883209F45BC097
:1025000090F4803109F454C038F4882309F4F6C0FB
:10251000883009F44DC0F5C0883109F44CC08032D0
:1025200009F45DC0EEC0803409F468C048F480331B
:1025300009F455C0883309F0E4C08093F303D8C090
:10254000803509F44FC0883509F45DC0883409F03E
:10255000D8C0D6C0883909F4C7C0A8F4883709F4B0
:1025600067C038F4883609F463C0803709F460C066
:10257000C8C0883809F4B8C0803909F45FC0803811
:1025800009F0BFC05BC0803B09F486C038F4803AD4
:1025900009F466C0883A09F47FC0B3C0803C09F4EE
:1025A000A7C0883C09F4A4C0883B09F48AC0A9C02C
:1025B0008091D00310C09091F2038091F10398179D
:1025C00070F5E091F20381E08E0F8093F203F0E06A
:1025D000EF52FC4F80818093BB0085EC86C08093D6
:1025E000F3038EC0E091F20381E08E0F8093F2033B
:1025F0008091BB00F0E0EF52FC4F80839091F2039A
:102600008091F1036EC0E091F20381E08E0F809320
:10261000F2038091BB00F0E0EF52FC4F8083809189
:10262000F40381116DC081E08093CF0384EA61C01F
:1026300083E08093F5031092A003CFCF8091A00395
:10264000803208F051C0E091A00381E08E0F8093AA
:10265000A0038091BB00F0E0E058FC4F8083BDCF29
:1026600085EC8093BC001092F5038091A00380322A
:1026700030F4E091A003F0E0E058FC4F108260914C
:10268000A00370E0E0917E03F0917F0380E893E087
:1026900019951092A00335C084E08093F503109241
:1026A0007D0310927C03E0917A03F0917B031995EE
:1026B00080917C03811105C081E080937C0310929E
:1026C0005A03E0917D0381E08E0F80937D03F0E05B
:1026D000E65AFC4F80818093BB0090917D038091EE
:1026E0007C03981708F479CF85E88093BC0009C073
:1026F00085EC8093BC001092F50303C01092F303A5
:102700008FDAFF91EF91BF91AF919F918F917F9160
:102710006F915F914F913F912F910F900BBE0F9052
:102720000FBE0F901F901895CF92DF92EF92FF92FD
:102730000F931F93CF93DF93EC016A017B01E8892C
:10274000F98982E080834115514E61057105B1F030
:1027500060E079E08DE390E0A70196010E94A11F5F
:1027600089019A01015011092109310936952795EE
:1027700017950795980101151041A8F0E889F98986
:10278000108260E874E88EE190E0A70196010E9453
:10279000A11FDA01C9010197A109B109B695A79551
:1027A000979587959C01EC85FD853083EE85FF85A7
:1027B0002083188EEC89FD8986E08083EA89FB8975
:1027C000808180618083EA89FB8980818860808341
:1027D000EA89FB89808180688083EA89FB8980811E
:1027E0008F7D8083DF91CF911F910F91FF90EF90AC
:1027F000DF90CF9008952F923F924F925F926F9209
:102800007F928F929F92AF92BF92CF92DF92EF9280
:10281000FF920F931F93CF93DF9300D000D0CDB7DB
:10282000DEB79E838D83FC0146AB57AB60AF71AFC3
:102830009A01AB0164857585868597850E94DF1FA7
:10284000ED81FE81608B718B828B938BBCDB0D8164
:102850001E810E5B1F4FED80FE80FEE3EF0EF11C2C
:10286000F70120813181621B730BF8017183608352
:10287000AADBF7016083718382839383ED81FE81FC
:1028800080889188A288B3882081318142815381D8
:10289000C501B4010E945C2469837A838B839C8385
:1028A000ED81FE814480558066807780F8016081EB
:1028B000718180E090E00E94FB236B017C019B0111
:1028C000AC01C501B4010E945C2420E030E04AE77D
:1028D00054E40E94A620ED81FE8126A537A540A9DB
:1028E00051A90E94E01F9B01AC01ED81FE8166A70A
:1028F00077A780AB91ABC301B2010E945C249B011E
:10290000AC0169817A818B819C810E94E01F69837F
:102910007A838B839C83ED81FE8140845184628421
:10292000738404A515A5C80165E070E00E948E1FA0
:102930001C01F6E02F0E311C220C331C220C331C20
:102940008D819E81280E391EFC0124893589468996
:102950005789C501B4010E94DF1FA70196010E949B
:10296000A620F10160837183828393830F5F1F4FE1
:10297000ED81FE8115A704A712AA13AA14AA15AA0D
:102980008F01085E1F4F1F01FCE22F0E311CC12C6E
:10299000D12C7601F80161917191819191918F0112
:1029A00020E030E040EA50E40E94A6209B01AC0108
:1029B000C701B6010E94E01F6B017C0102151305DF
:1029C00049F7ED81FE8162AB73AB84AB95AB9B01A4
:1029D000AC01C301B2010E945C249B01AC0169817E
:1029E0007A818B819C810E94E01FED81FE8162AF24
:1029F00073AF84AF95AF848A958AA68AB78A2696E4
:102A00000FB6F894DEBF0FBECDBFDF91CF911F91FF
:102A10000F91FF90EF90DF90CF90BF90AF909F907D
:102A20008F907F906F905F904F903F902F90089580
:102A30000F931F93CF93DF93CDB7DEB727970FB6D2
:102A4000F894DEBF0FBECDBF80916706882319F1D1
:102A50008AE194E09ED803970CF08EC06AE070E0A3
:102A600080E090E0D5DAAFDA809194058111B2C0B0
:102A7000AADA8091340781112CC08091CD03909106
:102A8000CE0301968A30910509F4ADC09093CE0330
:102A90008093CD0313C06BE872E0CE0101960E94D3
:102AA000AA09CE0101960E944F08CE0101960E940C
:102AB000A50960E27EE480E090E0AADA27960FB6EE
:102AC000F894DEBF0FBECDBFDF91CF911F910F9164
:102AD00008950E9466084091290650912A06609147
:102AE0002B0670912C0688E696E085DE8B019C0112
:102AF00060933507709336078093370790933807B4
:102B000042E050E061E070E080E090E00E947208F6
:102B100040912D0650912E0660912F06709130063F
:102B20008CEA96E068DE8B019C0141E050E060E0B9
:102B300070E082E090E00E9472084091310650916E
:102B40003206609133067091340680EF96E053DED2
:102B50008B019C0142E050E060E070E081E090E099
:102B60000E9472088091CD039091CE0301968A3025
:102B7000910509F08BCF37C06091CC0311E061273C
:102B80006093CC0383E0A2D90E949E08611521E0E6
:102B9000720771F1613021E0720709F443C080913E
:102BA0003407882309F45ACF70E080E090E00E9457
:102BB000FD2320E030E04FE753E40E94A62060931D
:102BC00070057093710580937205909373050E9450
:102BD000150944CF0E94F609F6D98091340788235D
:102BE00009F44BCF76CF1092CE031092CD0366CF6F
:102BF00080913407882361F010927005109271055E
:102C000010927205109273056F830E9415096F81EF
:102C1000109234076F830E94660888E592E022D6FE
:102C20006F81BDCF1093340710927005109271051B
:102C300010927205109273056F830E94150998D641
:102C40000E9466080E94C30C81E792E0E8CF2F92B1
:102C50003F924F925F926F927F928F929F92AF922C
:102C6000BF92CF92DF92EF92FF920F931F93CF9379
:102C7000DF93CDB7DEB7C059D1090FB6F894DEBFE8
:102C80000FBECDBF40E052EC61E070E087EB94E016
:102C90004BDD40E855E260E070E08AE194E044DD1D
:102CA00087EB94E00E949B098AE194E00E949B09D3
:102CB0000E947F098BE992E0D5D581B18F6081B9FF
:102CC0001092200189E0809321018091730082603D
:102CD0008093730010927005109271051092720526
:102CE000109273050E9466080E942B0888E1809369
:102CF000B8000E9409080E9402086EE170E080E0BE
:102D000090E086D90E94FB0741E061E080E13DD67A
:102D100086E035D60E94E60740E060E080E035D6E8
:102D20000E94C2070E94B307B82E0E94A407E82E93
:102D30000E949507F82E8FE70E9488070E948E0751
:102D400088E60E9488070E94810764E170E080E0C5
:102D500090E05ED90E947507811132C081E08093B6
:102D6000960588E393E07ED510E01093670684E033
:102D700090E090936606809365060E94C30C809154
:102D80006706811124C089E293E06CD5C057DF4FFC
:102D90000FB6F894DEBF0FBECDBFDF91CF911F916C
:102DA0000F91FF90EF90DF90CF90BF90AF909F90EA
:102DB0008F907F906F905F904F903F902F900895ED
:102DC0000E94F806182F811105C082E0C8CF89E162
:102DD00093E0DBCF83E023D71CD715D709D7FDD6E7
:102DE00083E0F0D6E9D6E2D6DAD68B2DCDD68E2D7D
:102DF000C0D68F2DB3D6E12CF12CF701EB57F54F50
:102E0000E491A1E8B0E0AC0FBD1FAE0DB11DEC9395
:102E100021E02E0D8FEFE81AF80A83E08E1568F78F
:102E2000CD57DF4F6881C358D04070E0CB01029688
:102E300030E0821793070CF700E0CE57DF4F288170
:102E4000C258D040CF57DF4F4881C158D04081E8A9
:102E500090E08C0F9D1F0396A3D520E080E090E0CA
:102E6000F701EB57F54FE491A1E8B0E0AC0FBD1FBF
:102E7000A80FB91FEC932F5F8FEFE81AF80A2430E0
:102E800018F4822F90E0ECCFCD57DF4F6881C35804
:102E9000D04070E0AB014E5F5F4F822F90E048174B
:102EA0005907F4F600E0CE57DF4F2881C258D040D2
:102EB000CF57DF4F4881C158D04081E890E08C0F58
:102EC0009D1F03966DD554D52FD6682FCE01019640
:102ED0001DD60E94881F0E94821F0E947C1F0E9494
:102EE000761F46D5FCD781E03CD5F2D720E080E0C4
:102EF00090E0F701EB57F54FE491A1E8B0E0AC0F9B
:102F0000BD1FA80FB91FEC932F5F8FEFE81AF80AC7
:102F1000243018F4822F90E0ECCFCD57DF4F68813A
:102F2000C358D04070E0AB014E5F5F4F822F90E0FE
:102F300048175907F4F600E0CE57DF4F2881C258F2
:102F4000D040CF57DF4F4881C158D04081E890E052
:102F50008C0F9D1F039624D520E080E090E0F701C0
:102F6000EB57F54FE491A1E8B0E0AC0FBD1FA80FFF
:102F7000B91FEC932F5F8FEFE81AF80A243018F48A
:102F8000822F90E0ECCFCD57DF4F6881C358D040FF
:102F900070E0AB014E5F5F4F822F90E048175907FA
:102FA000F4F600E0CE57DF4F2881C258D040CF570B
:102FB000DF4F4881C158D04081E890E08C0F9D1FC1
:102FC0000396EED420E080E090E0F701EB57F54F58
:102FD000E491A1E8B0E0AC0FBD1FA80FB91FEC93BE
:102FE0002F5F8FEFE81AF80A243018F4822F90E050
:102FF000ECCFCD57DF4F6881C358D04070E0AB01B4
:103000004E5F5F4F822F90E048175907F4F600E0BB
:10301000CE57DF4F2881C258D040CF57DF4F48816D
:10302000C158D04081E890E08C0F9D1F0396B8D422
:103030007BD583309105E0F3682FCE01019666D5EC
:10304000D1D620E080E090E0F701EB57F54FE49116
:10305000A1E8B0E0AC0FBD1FA80FB91FEC932F5F24
:103060008FEFE81AF80A243018F4822F90E0ECCFA2
:10307000CD57DF4F6881C358D04070E0AB014E5F41
:103080005F4F822F90E048175907F4F6CE57DF4F75
:103090002881C258D040CF57DF4F4881C158D04017
:1030A00081E890E08C0F9D1F0396B1D63DD583300B
:1030B0009105E0F3682FCE01019628D593D6F7014C
:1030C000EB57F54F20E080E090E03491A1E8B0E0CC
:1030D000AC0FBD1FA80FB91F3C932F5F243020F405
:1030E000822F90E03196F1CFCD57DF4F6881C358E2
:1030F000D04070E0AB014E5F5F4F822F90E04817E9
:10310000590784F700E0CE57DF4F2881C258D040DE
:10311000CF57DF4F4881C158D04081E890E08C0FF5
:103120009D1F03963DD480E01CD48AE290E09093EA
:103130008405809383051CD455D61092960581E0B2
:1031400010D41092780501E00093940580918305D6
:103150009091840590939805809397058AEA92E070
:1031600081D30093670686EC92E07CD30E944010E6
:103170004B015C0104C00E94F609019789F00E948E
:103180004010DC01CB0188199909AA09BB098033D9
:103190009547A105B10598F4809194058111EBCF75
:1031A00069EF72E0CE0101960E94AA09CE01019654
:1031B0000E944F08CE0101960E94A509D5CD10921C
:1031C000780510920F0610921006109211061092B8
:1031D0001206109213061092140610921506109201
:1031E00016061092170610921806109219061092E1
:1031F0001A0684E6282E312CBAC00E94F6090197DF
:1032000009F4B9C020E030E048EC52E460911D06BA
:1032100070911E0680911F069091200697D79B0102
:10322000AC016091030670910406809105069091AF
:103230000606C6D6609303067093040680930506BF
:103240009093060620E030E048EC52E460912106BD
:1032500070912206809123069091240677D79B01D6
:10326000AC01609107067091080680910906909163
:103270000A06A6D66093070670930806809309068F
:1032800090930A0620E030E048EC52E46091250675
:1032900070912606809127069091280657D79B01AA
:1032A000AC0160910B0670910C0680910D06909117
:1032B0000E0686D660930B0670930C0680930D065F
:1032C00090930E062091290630912A0640912B06F4
:1032D00050912C0660910F06709110068091110696
:1032E000909112066DD66B017C0160930F0670936E
:1032F0001006809311069093120620912D063091AE
:103300002E0640912F065091300660911306709161
:103310001406809115069091160652D62B013C0199
:103320006093130670931406809315069093160607
:103330002091310630913206409133065091340687
:1033400060911706709118068091190690911A06DF
:1033500037D64B015C016093170670931806809373
:10336000190690931A0681E0281A310899F0809185
:103370009405811142CF69EF72E0CE0101960E945F
:10338000AA09CE0101960E944F08CE0101960E9423
:10339000A509EBCC20E030E048EC52E4C701B601CF
:1033A000D5D660930F067093100680931106909304
:1033B000120620E030E048EC52E4C301B201C6D668
:1033C0006093130670931406809315069093160667
:1033D00020E030E048EC52E4C501B401B7D6609378
:1033E0001706709318068093190690931A06109288
:1033F0003506109236061092370610923806109253
:10340000390610923A0610923B0610923C06109232
:103410003D0610923E0610923F061092400681E053
:103420008093780580919405882309F49ECC0E94AE
:10343000F6099BCC8F929F92AF92BF92CF92DF9270
:10344000EF92FF920F931F93CF93DF938C01FC01B8
:10345000148A158A168A178A108E81960E949610F1
:10346000F80114AAE558FF4F80E090E0A0E8BFE320
:1034700080839183A283B38314821582168217827C
:103480001086118612861386148615861686178670
:1034900070961182108213821282158214823696DF
:1034A0001182108213821282158214823696108243
:1034B000118212821382148215821682178210865C
:1034C000118612861386E801C85FDE4F8DECC82E88
:1034D0008CECD82EED2C8DE3F82EC882D982EA82AE
:1034E000FB821C821D821E821F82188619861A8604
:1034F0001B861C861D861E861F86188A198A1A8AB4
:103500001B8A1C8A1D8A1E8A1F8A1DA61CA6188E4D
:10351000198E1A8E1B8E1C8E1D8E1E8E1F8E18A24B
:1035200019A21AA21BA21CA21DA21EA21FA218A6AB
:1035300019A61AA61BA60E94E30FEE96688379834C
:103540008A839B832696C882D982EA82FB821C8268
:103550001D821E821F82812C912C9AEFA92E94E449
:10356000B92E88869986AA86BB861C861D861E86ED
:103570001F86188A198A1A8A1B8A1C8A1D8A1E8A23
:103580001F8A1DA61CA6188E198E1A8E1B8E1C8EC5
:103590001D8E1E8E1F8E18A219A21AA21BA21CA27B
:1035A0001DA21EA21FA218A619A61AA61BA60E943B
:1035B000E30FEE96688379838A839B832696C8827D
:1035C000D982EA82FB821C821D821E821F8288862B
:1035D0009986AA86BB861C861D861E861F86188A2B
:1035E000198A1A8A1B8A1C8A1D8A1E8A1F8A1DA68E
:1035F0001CA6188E198E1A8E1B8E1C8E1D8E1E8E6A
:103600001F8E18A219A21AA21BA21CA21DA21EA2E2
:103610001FA218A619A61AA61BA60E94E30FEE96D3
:10362000688379838A839B83F801EC52FE4F81E0A3
:103630008083DF91CF911F910F91FF90EF90DF90EA
:10364000CF90BF90AF909F908F900895CF93DF93CE
:10365000EC011EA61FA618AA19AA188A198A1A8A86
:103660001B8A1C8A1D8A1E8A1F8A1DA61CA6188EEC
:10367000198E1A8E1B8E1C8E1D8E1E8E1F8E18A2EA
:1036800019A21AA21BA21CA21DA21EA21FA218A64A
:1036900019A61AA61BA60E94E30FEE9668837983EB
:1036A0008A839B83DF91CF9108954F925F926F92AF
:1036B0007F928F929F92AF92BF92CF92DF92EF92C2
:1036C000FF926B017C0120E030E040E85FE3FCD535
:1036D00018160CF050C0A701960160E070E080E879
:1036E0009FE334D56B017C014B015C01E894B7F892
:1036F00028ED3FE049E45FE30E945C242B013C019C
:1037000020E030E040E85FE3C501B40158D49B01FC
:10371000AC01C701B6010E945C246B017C012BE463
:1037200038EC47E85DE3C501B4010E945C2423EA5C
:1037300032E94AE75EE344D49B01AC01C701B6011C
:103740000E945C249B01AC01C301B20138D49B01EF
:10375000AC016AED7FE089EC9FE331D4FF90EF90FC
:10376000DF90CF90BF90AF909F908F907F906F90A1
:103770005F904F90089546015701E894B7F828EDFF
:103780003FE049E45FE3C701B6010E945C242B01DE
:103790003C0120E030E040E85FE3C501B4010FD414
:1037A0009B01AC01C701B6010E945C246B017C0146
:1037B0002BE438EC47E85DE3C501B4010E945C24CA
:1037C00023EA32E94AE75EE3FBD39B01AC01C70180
:1037D000B6010E945C249B01AC01C301B201BDCFC4
:1037E0001F920F920FB60F9211240BB60F922F93C8
:1037F0003F934F936F937F938F939F93EF93FF9399
:1038000082B1807F82B98091CB0390E00196837072
:1038100099278093CB03FC01EE0FFF1FE05BFC4F69
:1038200020813181309329012093280142B121E088
:1038300030E0B90102C0660F771F8A95E2F7CB012D
:10384000842B82B9FF91EF919F918F917F916F911E
:103850004F913F912F910F900BBE0F900FBE0F9085
:103860001F901895CF93DF93009779F0FC0101909A
:103870000020E9F73197AF01481B590BBC018AE1E1
:1038800094E00E945F06EC0102C0C0E0D0E042E09C
:1038900050E068E272E08AE194E00E945F068C0FDB
:1038A0009D1FDF91CF9108952091190490911804E4
:1038B000213208F04AC08091F5038111FCCF32E03B
:1038C0003093F50331E03093F4033FEF3093F3038B
:1038D0001092F2032093F103A8EFB3E041ED53E01F
:1038E000FA013E2F341B321718F43D913193F9CF72
:1038F0001092D0032091D003990F922B9093D00374
:103900009091CF03913061F41092CF039091D00346
:103910009093BB009091BC0093FDF8CF95EC01C053
:1039200095EE9093BC009091F5039230E1F3909165
:10393000F3039F3F79F08091F303803241F080914F
:10394000F303803331F084E005C081E003C082E0FE
:1039500001C083E01092F703109219041092F6034D
:103960000895282F47E06AE6809181050C942B1278
:1039700021E042E06AE6809181050C942B12482FE9
:103980006EE6809181050C94D2108F714111806296
:1039900061118064482F6DE6809181050C94D210EE
:1039A0002F923F924F925F926F927F928F929F924F
:1039B000AF92BF92CF92DF92EF92FF920F931F933D
:1039C000CF93DF933C015B01342EC22F202E4F7129
:1039D0006DE6809181050E94D2108C2FD0DF80E1AE
:1039E00090E0D7D46C01002329F080E190E0D1D49D
:1039F000582E492EE12CF12CEA14FB0408F068C083
:103A0000C7014096A816B90618F4DA2DDE1901C0D0
:103A1000D0E18D2F90E020E031E02C1B31092817F8
:103A2000390714F4DC2FD195F301EE0DFF1D222090
:103A300059F0952DA52DB42D8A2F891B8D1730F4A3
:103A400084918D933196F8CF5E2E4F2E252D342DF7
:103A50004D2F6FE6809181050E949A108D2E912C3A
:103A6000C114D10409F1432D4F716DE68091810598
:103A70000E94D2108C2F83DF08EE13E096014D2FA9
:103A80006FE6809181050E94E110A401B601852DA9
:103A9000942D94D6892B41F0C60110D5222001F136
:103AA000852D942D0BD51CC0E80CF91CCD0FEA1404
:103AB000FB0408F0A1CFC11101C03394432D4F7115
:103AC0006DE6809181050E94D2108C2F58DF94CF33
:103AD000C601F4D4222031F0852D942DEFD402C0FC
:103AE00080E001C081E0DF91CF911F910F91FF90A5
:103AF000EF90DF90CF90BF90AF909F908F907F908E
:103B00006F905F904F903F902F9008950F931F9369
:103B1000462F05E010E09C0164E7809181050E943A
:103B2000E1101F910F9108950F931F93CF93DF938F
:103B3000C0E6D5E008EE13E022E835E042E062E7B7
:103B400089A10E94E1108AA190E0982F88272BA1DB
:103B5000822BDF91CF911F910F9108950F93082F22
:103B600026E046E062E0809181050E94E2110F911B
:103B700008950F93082F26E046E061E080918105CB
:103B80000E94E2110F9108950F93082F26E046E05E
:103B900060E0809181050E94E2110F91089520E07C
:103BA00040E060E0809181050C942B1240E061E7D9
:103BB000809181050C94D21043E060E780918105EB
:103BC0000C94D2100F93082F22E044E06BE1809117
:103BD00081050E94E2110F9108950F9303E023E005
:103BE00042E06AE1809181050E94E2110F910895FF
:103BF0000F9301E023E045E06AE1809181050E9496
:103C0000E2110F91089544E069E1809181050C94DF
:103C1000D21042E168E3809181050C94D2100F9399
:103C2000082F23E042E06BE6809181050E94E211BB
:103C30000F910895789484B5826084BD84B58160C5
:103C400084BD85B5826085BD85B5816085BD809167
:103C50006E00816080936E001092810080918100DF
:103C600082608093810080918100816080938100D7
:103C7000809180008160809380008091B100846099
:103C80008093B1008091B00081608093B0008091FA
:103C90009100826080939100809191008160809377
:103CA0009100809190008160809390008091A100AC
:103CB00082608093A1008091A10081608093A10027
:103CC0008091A00081608093A0008091210182609A
:103CD0008093210180912101816080932101809155
:103CE000200181608093200180917A00846080931C
:103CF0007A0080917A00826080937A0080917A00C5
:103D0000816080937A0080917A00806880937A0045
:103D10001092C1000E9427160E9418150E94D50D0E
:103D2000FBCFEAE1F4E01382128288EE93E0A0E098
:103D3000B0E084839583A683B7832CE032E031839F
:103D400020834DEC50E0558744874CEC50E057877A
:103D5000468748EC50E0518B408B49EC50E0538B48
:103D6000428B4AEC50E0558B448B4EEC50E0578B25
:103D7000468B118E128E138E148EE7EBF4E01382B5
:103D8000128284839583A683B7833183208325ECB5
:103D900030E03587248724EC30E03787268720EC15
:103DA00030E0318B208B21EC30E0338B228B22EC06
:103DB00030E0358B248B26EC30E0378B268B118E50
:103DC000128E138E148EE4E5F5E013821282848342
:103DD0009583A683B7838CE192E09183808380E60C
:103DE00095E028CB0F931F93CF93DF93C0E6D5E0E8
:103DF00008EE13E022E835E041E06AE389A10E9481
:103E0000E1108AA1DF91CF911F910F9108956F92D8
:103E10007F928F929F92BF92CF92DF92EF92FF920A
:103E20000F931F93CF93DF934C016B01B42EF22EAF
:103E30004F716DE6809181050E94D2108F2D9FDD1C
:103E4000C0E0D0E0612C77247394CC15DD0590F5AB
:103E5000CE014096C816D90618F4EC2CEC1A02C014
:103E600080E1E82E8E2D90E093012F19310928175B
:103E7000390714F4EF2CE19494012C0F3D1F08EE48
:103E800013E04E2D6FE6809181050E94E110CE0D6A
:103E9000D11DFE0CCC15DD05C0F6F11001C0B394A8
:103EA0004B2D4F716DE6809181050E94D2108F2DB0
:103EB00066DDCBCFDF91CF911F910F91FF90EF90F7
:103EC000DF90CF90BF909F908F907F906F900895DC
:103ED00021E043E06AE6809181050C942B1221E0F9
:103EE00046E06AE6809181050C942B1240E062E284
:103EF000809181050C94D21040E560E280918105AB
:103F00000C94D2104CE961E2809181050C94D2109E
:103F100042E06FE1809181050C94D21097FB072E4F
:103F200016F4009406D077FD08D035D007FC05D0F4
:103F30003EF4909581959F4F0895709561957F4FC0
:103F40000895A1E21A2EAA1BBB1BFD010DC0AA1FDA
:103F5000BB1FEE1FFF1FA217B307E407F50720F0F2
:103F6000A21BB30BE40BF50B661F771F881F991F6D
:103F70001A9469F760957095809590959B01AC01B6
:103F8000BD01CF010895EE0FFF1F881F8BBF079063
:103F9000F691E02D1994AA1BBB1B51E107C0AA1F83
:103FA000BB1FA617B70710F0A61BB70B881F991FDA
:103FB0005A95A9F780959095BC01CD010895505868
:103FC000BB27AA270ED0F2C4E3D430F0E8D420F007
:103FD00031F49F3F11F41EF4D8C40EF4E095E7FBD2
:103FE000CEC4E92FF4D480F3BA17620773078407AD
:103FF000950718F071F49EF50CC50EF4E0950B2EA4
:10400000BA2FA02D0B01B90190010C01CA01A0012A
:104010001124FF27591B99F0593F50F4503E68F185
:104020001A16F040A22F232F342F4427585FF3CFC6
:10403000469537952795A795F0405395C9F77EF497
:104040001F16BA0B620B730B840BBAF09150A1F0E0
:10405000FF0FBB1F661F771F881FC2F70EC0BA0F66
:10406000621F731F841F48F4879577956795B795EE
:10407000F7959E3F08F0B3CF9395880F08F09927E6
:10408000EE0F97958795089583D458F080E891E0D6
:1040900009F49EEF84D428F040E851E059F45EEF33
:1040A00009C073C4B6C4E92FE07891D468F3092E2F
:1040B000052AC1F3261737074807590738F00E2E8F
:1040C00007F8E02569F0E025E0640AC0EF6307F82F
:1040D000009407FADB01B9019D01DC01CA01AD01C1
:1040E000EF9343D063D40AD05F91552331F02BED89
:1040F0003FE049E450FD49EC63CF0895DF93DD27AD
:10410000B92FBF7740E85FE31616170648075B072D
:1041100010F4D92FDDD09F938F937F936F9321D18C
:10412000E8E0F1E0ACD042D42F913F914F915F9104
:10413000CFD3DD2349F09058A2EA2AED3FE049ECC5
:104140005FE3D0785D274DDFDF9130C40CD02EC403
:1041500026D440F01DD430F021F45F3F19F00FC495
:10416000511158C412C433D498F39923C9F3552379
:10417000B1F3951B550BBB27AA276217730784075A
:1041800038F09F5F5F4F220F331F441FAA1FA9F310
:1041900033D00E2E3AF0E0E830D091505040E69502
:1041A000001CCAF729D0FE2F27D0660F771F881F63
:1041B000BB1F261737074807AB07B0E809F0BB0B52
:1041C000802DBF01FF2793585F4F2AF09E3F510576
:1041D00068F0D5C31FC45F3FECF3983EDCF38695CF
:1041E00077956795B795F7959F5FC9F7880F911DEC
:1041F0009695879597F90895E1E0660F771F881FD8
:10420000BB1F621773078407BA0720F0621B730B8A
:10421000840BBA0BEE1F88F7E095089504D06894DC
:10422000B111F8C30895DBD388F09F5790F0B92FF0
:104230009927B751A0F0D1F0660F771F881F991FFB
:104240001AF0BA95C9F712C0B13081F0E2D3B1E0EB
:104250000895DFC3672F782F8827B85F39F0B93FFB
:10426000CCF3869577956795B395D9F73EF49095FD
:104270008095709561957F4F8F4F9F4F0895DF9385
:10428000CF931F930F93FF92EF92DF927B018C01EC
:10429000689405C0DA2EEF011BD3FE01E894A591C6
:1042A0002591359145915591AEF3EF019ADEFE01CE
:1042B0009701A801DA9479F7DF90EF90FF900F91C2
:1042C0001F91CF91DF910895D3D208F48FEF089515
:1042D0009B01AC0160E070E080E89FE337CF11F410
:1042E0000EF453C341C07BD3D0F39923D9F3CEF35B
:1042F0009F57550B87FF46D00024A0E640EA900167
:1043000080585695979528F4805C660F771F881F14
:1043100020F026173707480730F4621B730B840B15
:10432000202931294A2BA695179407942025312559
:104330004A2758F7660F771F881F20F02617370780
:10434000480730F4620B730B840B200D311D411DA7
:10435000A09581F7B901842F9158880F969587957C
:1043600008959B01AC01A8C29F3F31F0915020F409
:10437000879577956795B795880F911D9695879541
:1043800097F9089591505040660F771F881FD2F714
:104390000895CF93DF938230910510F482E090E08E
:1043A000E0913B07F0913C0720E030E0C0E0D0E036
:1043B000309711F14081518148175907C0F04817D3
:1043C000590761F482819381209719F09B838A8336
:1043D0002BC090933C0780933B0726C021153105E5
:1043E00019F04217530718F49A01BE01DF01EF01DB
:1043F0000280F381E02DDCCF2115310509F1281B66
:10440000390B2430310590F412968D919C911397BD
:104410006115710521F0FB019383828304C09093A1
:104420003C0780933B07FD01329644C0FD01E20F3B
:10443000F31F81939193225031092D933C933AC0FD
:104440002091390730913A07232B41F42091020241
:104450003091030230933A072093390720910002EC
:10446000309101022115310541F42DB73EB740913D
:10447000040250910502241B350BE0913907F0919D
:104480003A07E217F307A0F42E1B3F0B2817390752
:1044900078F0AC014E5F5F4F2417350748F04E0FA0
:1044A0005F1F50933A07409339078193919302C05D
:1044B000E0E0F0E0CF01DF91CF9108950F931F93DB
:1044C000CF93DF93009709F48CC0FC0132971382DD
:1044D000128200913B0710913C070115110581F4F0
:1044E00020813181820F931F2091390730913A0743
:1044F0002817390779F5F0933A07E093390771C027
:10450000D80140E050E0AE17BF0750F412962D914D
:104510003C911397AD012115310509F1D901F3CF74
:104520009D01DA013383228360817181860F971F99
:104530008217930769F4EC0128813981260F371F10
:104540002E5F3F4F318320838A819B8193838283B7
:10455000452B29F4F0933C07E0933B0742C01396A8
:10456000FC93EE931297ED01499159919E01240F0E
:10457000351FE217F30771F480819181840F951F35
:10458000029611969C938E938281938113969C93AD
:104590008E931297E0E0F0E0D80112968D919C91F5
:1045A0001397009719F0F8018C01F6CF8D919C912B
:1045B00098012E5F3F4F820F931F20913907309152
:1045C0003A072817390769F4309729F410923C0705
:1045D00010923B0702C01382128210933A07009395
:1045E0003907DF91CF911F910F9108956F927F92BC
:1045F0008F929F92AF92BF92CF92DF92EF92FF92F3
:104600000F931F93CF93DF93EC01009781F4CB01BD
:10461000DF91CF911F910F91FF90EF90DF90CF909E
:10462000BF90AF909F908F907F906F90B2CEFC0123
:10463000E60FF71F9C0122503109E217F30708F437
:10464000A8C0D9010D911C91119706171707A8F062
:104650000530110508F49BC0C80104978617970719
:1046600008F495C002501109061B170B0193119312
:104670006D937C93CF0122DF8AC05B01A01AB10A3F
:104680004C01800E911EA0913B07B0913C0740E089
:1046900050E0E12CF12C109709F44AC0A815B90597
:1046A000D1F56D907C901197630182E0C80ED11C0A
:1046B000CA14DB0480F1A3014A195B096A0182E094
:1046C000C80ED11C1296BC9012971396AC91B5E00F
:1046D000CB16D10440F0B282A38351834083D90129
:1046E0006D937C930AC00E5F1F4FC301800F911F13
:1046F000F90191838083EB2DFA2FE114F10431F05D
:10470000D7011396FC93EE93129741C0F0933C07A8
:10471000E0933B073CC08D919C9111974817590736
:1047200008F4AC017D0112960D90BC91A02DB3CF81
:104730008091390790913A0788159905E1F4461759
:104740005707C8F48091000290910102009741F44C
:104750008DB79EB74091040250910502841B950BC2
:10476000E817F907B0F4F0933A07E0933907F90135
:10477000718360830CC0CB010CDE7C01009749F093
:10478000A801BE0128D0CE0199DEC70104C0CE0128
:1047900002C080E090E0DF91CF911F910F91FF90D8
:1047A000EF90DF90CF90BF90AF909F908F907F90D1
:1047B0006F90089581E090E0F8944BC1FB01DC011B
:1047C00004C08D910190801921F441505040C8F7E8
:1047D000881B990B0895FB01DC0102C001900D922A
:1047E00041505040D8F70895FB01DC0101900D9233
:1047F0000020E1F70895E89409C097FB3EF49095F6
:104800008095709561957F4F8F4F9F4F9923A9F0A9
:10481000F92F96E9BB279395F69587957795679538
:10482000B795F111F8CFFAF4BB0F11F460FF1BC07C
:104830006F5F7F4F8F4F9F4F16C0882311F096E90F
:1048400011C0772321F09EE8872F762F05C06623BD
:1048500071F096E8862F70E060E02AF09A95660F76
:10486000771F881FDAF7880F9695879597F908952F
:10487000990F0008550FAA0BE0E8FEEF1616170671
:10488000E807F907C0F012161306E407F50798F0D9
:10489000621B730B840B950B39F40A2661F0232BF2
:1048A000242B252B21F408950A2609F4A140A6956E
:1048B0008FEF811D811D08950BD078C069D028F03D
:1048C0006ED018F0952309F05AC05FC01124A2C021
:1048D0007ED0A0F3959FD1F3950F50E0551F629FB6
:1048E000F001729FBB27F00DB11D639FAA27F00D49
:1048F000B11DAA1F649F6627B00DA11D661F829F70
:104900002227B00DA11D621F739FB00DA11D621F54
:10491000839FA00D611D221F749F3327A00D611D71
:10492000231F849F600D211D822F762F6A2F112453
:104930009F5750408AF0E1F088234AF0EE0FFF1FA6
:10494000BB1F661F771F881F91505040A9F79E3FDD
:10495000510570F014C05EC05F3FECF3983EDCF38D
:10496000869577956795B795F795E7959F5FC1F71A
:10497000FE2B880F911D9695879597F9089597F9C5
:104980009F6780E870E060E008959FEF80EC0895F5
:1049900000240A941616170618060906089500241E
:1049A0000A9412161306140605060895092E039498
:1049B000000C11F4882352F0BB0F40F4BF2B11F40C
:1049C00060FF04C06F5F7F4F8F4F9F4F089557FD6B
:1049D0009058440F551F59F05F3F71F04795880F6D
:1049E00097FB991F61F09F3F79F087950895121604
:1049F00013061406551FF2CF4695F1DF08C01616B0
:104A000017061806991FF1CF869571056105089460
:104A10000895E894BB2766277727CB0197F9089577
:104A200009D0A59F900DB49F900DA49F800D911D5E
:104A300011240895A29FB001B39FC001A39F700DE0
:104A4000811D1124911DB29F700D811D1124911D96
:064A50000895F894FFCF69
:104A560000003D078000E80300000000FF0E5F062F
:104A6600C90DA70DBB0D450F00000000950E660E83
:104A7600080E520E430E420E0D0A00546865204D74
:104A860050552773204649464F20686173206F763C
:104A96006572666C6F77656420616E642062656519
:104AA6006E2072657365740050494420636F6E749E
:104AB600726F6C6C6572732064697361626C656495
:104AC6000050494420636F6E74726F6C6C6572732C
:104AD600207265656E61626C65640044726F6E6516
:104AE600206E6F74207265616479000A0A0A537435
:104AF600617274696E67207570004D50552073742D
:104B06006172746564207570207375636365737371
:104B160066756C6C790057616974696E6720666F9B
:104B260072206779726F73636F7065206D6561734C
:104B36007572656D656E747320746F20737461622F
:104B4600696C697A652E2E2E004D50552064696475
:104B5600206E6F7420696E697469616C697A65206C
:104B660070726F7065726C790044726F6E65206941
:104B76007320726561647921005374617274757073
:104B8600206661696C6564004D5055206661696CEC
:104B9600656420746F2073746172742075700000F0
:00000001FF
