:100000005AC5000089C5000087C5000085C50000ED
:1000100083C5000081C500007FC500007DC50000CC
:100020007BC5000079C5000077C5000075C50000DC
:1000300073C5000071C500006FC500006DC50000EC
:100040006BC5000069C5000067C5000065C50000FC
:1000500063C5000061C500005FC500000C9439094C
:100060005BC50000F7C70000CCC7000055C5000005
:1000700053C5000051C500004FC500004DC500002C
:100080004BC5000049C5000047C5000045C500003C
:100090008FC7000064C700003FC500000C944A0BE6
:1000A0003BC5000039C5000037C5000035C500005C
:1000B00033C5000031C500002FC500000C94600D51
:1000C0002BC5000029C5000027C5000025C500007C
:1000D00023C5000021C500001FC500001DC500008C
:1000E0001BC5000082088508740878087C08BC08D5
:1000F00089088D08930897089B08A108A508A908F6
:10010000BC08AF08B308B708084AD73B3BCE016E1E
:1001100084BCBFFDC12F3D6C74319ABD56833DDA5E
:100120003D00C77F11BED9E4BB4C3E916BAAAABE6D
:10013000000000803F0000002200250028002B0066
:100140002E003100340002010000050108010B01FE
:1001500000002100240027002A002D003000330079
:1001600001010000040107010A0105050505070555
:1001700008080808020202020A0A08080404040423
:10018000010101010101010103030303030303034F
:10019000040707070C0C0C0C0C0C0C0C02020202DE
:1001A00006060606060606060B0B0B0B0B0B0B0BC7
:1001B0000102102020080810204010204080020179
:1001C000020108040201010204081020408080405E
:1001D000201008040201800402018040201008045D
:1001E00002010804020101020408102040800102FB
:1001F00004081020408001B202FFFF01900409238F
:10020000A135016A0206000160080000000000003C
:100210000000006004400000000162020000006075
:100220000400400000037B034CCD6C03AB03365647
:100230007600680402CB47A202180400058BC101B6
:100240000C0400000000037F060CC92C979797034D
:100250008903264666006C0220000240040000006C
:1002600000024404000000000248040000000002F4
:100270004C0400000000025004000000000254047E
:100280000000000002580400000000025C040000AE
:10029000000002BC040000000001EC04000040006B
:1002A000037F060CC92C9797970402030D355D0454
:1002B0000904872D353D00A30100000000010786D9
:1002C00001FE074105F120283038077E013007463E
:1002D000019A074704F1283038076C04F1283038B8
:1002E0000216020001FB00003E000B003600010078
:1002F000020003000000650054FFEF0000FA8000D8
:100300000B1282000100020000000000000000004B
:10031000000000000000280000FFFF4581FFFFFAF9
:100320007200000000000003E80000000100017FEF
:10033000FFFFFE8001001B00000000000000000025
:100340000000000000003E03304000000002CAE34D
:10035000093E800000200000000000000040000076
:10036000006000000041FF000000000B2A000016A2
:100370005500002182FD872650FD800000001F00EF
:1003800000000580000000000000010000000200E5
:100390000000030000400000000000046F00026540
:1003A0003200005EC04000000000000000000000BD
:1003B0000000000000FB8C6F5DFD5D08D9007C73C0
:1003C0003B006C12CC3200139D3200D0D6320008B4
:1003D00000400001F4FFE68079020000000000D038
:1003E000D600002710FB00000040000000000000C5
:1003F00000000000000000000100000000000001FB
:1004000000010000000000FA36FFBC308E0005FB42
:10041000F0FFD95BC8FFD09ABE000010A9FFF41E00
:10042000B200CEBBF7000000010000000400020093
:10043000020200000CFFC280000001800000CF809B
:100440000040000000000000010000000000000665
:100450000000000014000000000000000000000088
:10046000000000000000000000000000000000008C
:10047000000000000000000000000000000000007C
:10048000000000000000000000033F68B679352836
:10049000BCC67ED16C80000000400000000000B2AD
:1004A0006A00000000000000000000000000003FA3
:1004B000F00000003000000000000000000000001C
:1004C000000000000000000000000000000000002C
:1004D00000000000000000254D002F706D00000599
:1004E000AE000C02D00000000000650054FFEF00D9
:1004F0000000000000000001000044000000000CAB
:100500000000000100000000000065000000540031
:1005100000FFEF00000000000000000000000000ED
:10052000000000000040000000000000000000008B
:10053000000000000040000000000000000000007B
:1005400000000000000000000100000002000000A8
:10055000000000000000000000000000000000009B
:10056000000000000000000000000000000000008B
:100570000000000000001B00000000000000000060
:10058000000000000000000000000000000000006B
:10059000000000000000000000000000000000005B
:1005A0000040000000001B000000000000000000F0
:1005B000000000000000000000000000000000003B
:1005C000000000000000000000000000000000002B
:1005D000000000000000000000000000000000001B
:1005E0000000000000D8DCBAA2F1DEB2B8B4A881E5
:1005F00091F74A907F916AF3F9DBA8F9B0BAA0802D
:10060000F2CE81F3C2F1C1F2C3F3CCA2B280F1C643
:10061000D880BAA7DFDFDFF2A7C3CBC5B6F087A2C9
:10062000942448703C95406834589B78A2F183929A
:100630002D557DD8B1B4B8A1D09180F270F370F28D
:100640007C80A8F101B09887D943D886C988BAA11F
:10065000F20EB89780F1A9DFDFDFAADFDFDFF2AAB1
:10066000C5CDC7A90CC92C97979797F1A98926469C
:1006700066B0B4BA80ACDEF2CAF1B28C02A9B69808
:1006800000890E161EB8A9B4992C547CB08AA8967D
:10069000365676F1B9AFB4B083C0B8A89711B18F10
:1006A00098B9AFF0240844106418F1A329557DAF20
:1006B00083B593AFF0002850F1A3869F61A6DADEE0
:1006C000DFD9FAA38696DB31A6D9F8DFBAA68FC2A6
:1006D000C5C7B28CC1B8A2DFDFDFA3DFDFDFD8D8A8
:1006E000F1B8A8B286B4980D355DB8AA98B0872D38
:1006F000353DB2B6BAAF8C96198F9FA70E161EB4B1
:100700009AB8AA872C547CB9A3DEDFDFA3B180F2AC
:10071000C4CDC9F1B8A9B499830D355D89B9A32DAC
:10072000557DB593A30E161EA92C547CB8B4B0F118
:100730009783A81184A50998A383F0DA24084410AC
:100740006418D8F1A529557DA58595021A2E3A562B
:100750005A4048F9F3A3D9F8F09883240844106468
:10076000189782A8F111F098A2240844106418DAAE
:10077000F3DED883A59401D9A302F1A2C3C5C7D8DB
:10078000F18492A24DDA2AD84869D92AD86855DA74
:1007900032D85071D932D8705DDA3AD85879D93A0E
:1007A000D87893A34DDA2AD84869D92AD86855DA77
:1007B00032D85071D932D8705DDA3AD85879D93AEE
:1007C000D878A88A9AF02850789EF38818F19F1D4F
:1007D00098A8D908D8C89F129EF315A8DA1210D885
:1007E000F1AFC8978734B5B994A421F3D922D8F2D0
:1007F0002DF3D92AD8F235F3D932D881A4606061BB
:10080000D961D86C6869D969D8747071D971D8B157
:10081000A384193D5DA3831A3E5E931030811011AD
:10082000B8B0AF8F94F2DA3ED8B49AA88729DAF834
:10083000D8879A35DAF8D8879A3DDAF8D8B1B9A4CA
:100840009885022E56A581000C14A397B08AF12D2D
:10085000D928D84DD948D86DD968D8B1840DDA0EC9
:10086000D8A32983DA2C0ED8A3844983DA2C4C0E22
:10087000D8B8B0A88A9AF520AADADFD8A840AAD0BA
:10088000DADED8A860AADAD0DFD8F19786A8319B43
:10089000069907AB9728889BF00C201440B8B0B499
:1008A000A88C9CF0042851791D301438B282ABD04A
:1008B000982C505078789BF11AB0F08A9CA8295156
:1008C000798B2951798A2470598B2058718A44690F
:1008D000388B3940688A6448318B304960A588205C
:1008E0000971584468113964493019F1AC002C542D
:1008F0007CF08CA804285078F1889726A85998ACE9
:100900008C02264666F0899CA829517924705944A6
:100910006938644831A98809205970AB1138406999
:10092000A8193148608CA83C415C207C00F1879874
:100930001986A86E767EA999882D557D9EB9A38AC1
:10094000228A6E8A568A5E9FB183062646660E2EDE
:100950004E6E9DB8AD002C547CF2B18CB499B9A305
:100960002D557D8191AC38AD3AB58391AC2DD92808
:10097000D84DD948D86DD968D88C9DAE29D904AE48
:10098000D851D904AED879D904D881F39DAD008D62
:10099000AE1981ADD901D8F2AEDA26D88E9129836D
:1009A000A7D9ADADADADF32AD8D8F1B0AC89913EA1
:1009B0005E76F3AC2E2EF1B18C5A9CAC2C282828F4
:1009C0009CAC3018A8988128343C9724A728343C44
:1009D0009C24F2B089AC912C4C6C8A9B2DD9D8D830
:1009E00051D9D8D879D9D8D8F19E88A331DAD8D8B6
:1009F000912DD928D84DD948D86DD968D8B18393CD
:100A0000353D8025DAD8D88569DAD8D8B49381A362
:100A100028343CF3AB8BF8A391B609B4D9ABDEFA1A
:100A2000B0879CB9A3DDF1A3A3A3A395F1A3A3A3CE
:100A30009DF1A3A3A3A3F2A3B49080F2A3A3A3A3C5
:100A4000A3A3A3A3A3A3B2A3A3A3A3A3A3B087B564
:100A500099F1A3A3A398F1A3A3A3A397A3A3A3A3EB
:100A6000F39BA3A3DCB9A7F1262626D8D8FF000064
:100A70000A0B02090C0D0E08070304010000000018
:100A80000000000000000000000000000000000066
:100A90000000000000000000000012111000000023
:100AA0000000000000000000000000000000000046
:100AB00000000000161C11241FBECFEFD1E2DEBFE4
:100AC000CDBF00E00CBF13E0A0E0B2E0E4E1F6E44B
:100AD00000E00BBF02C007900D92A035B107D9F717
:100AE00026E0A0E5B3E001C01D92A93FB207E1F7FF
:100AF00015E0CBE5D5E000E006C021970109802F85
:100B0000FE010E94B61DCA35D10780E00807A9F78B
:100B10000E9475140C94082373CAFC01A089B18942
:100B20008C91A689B78982FD0FC09C91818D8F5FC2
:100B30008F73228D821749F0218DDF01A20FB11D25
:100B40005D969C93818F08958C910895FC01918D01
:100B5000828D981761F0828DDF01A80FB11D5D961F
:100B60008C91928D9F5F9F73928F90E008958FEF8D
:100B70009FEF0895FC01918D828D981731F0828D41
:100B8000E80FF11D858D90E008958FEF9FEF089598
:100B9000FC01918D228D892F90E0805C9F4F821BFC
:100BA00091098F739927089582E194E0F1DF21E0A4
:100BB000892B09F420E0822F08958FEA94E0E8DF82
:100BC00021E0892B09F420E0822F0895FC01848D17
:100BD000DF01A80FB11DA35ABF4F2C91848D90E067
:100BE00001968F739927848FA689B7892C93A08942
:100BF000B1898C9180648C93938D848D981306C0F9
:100C00000288F389E02D80818F7D80830895EF92A3
:100C1000FF920F931F93CF93DF93EC0181E0888FB6
:100C20009B8D8C8D981305C0E889F989808185FD9D
:100C300023C0F62E0B8D10E00F5F1F4F0F7311278F
:100C4000E02E8C8DE8120BC00FB607FCFACFE889B6
:100C5000F989808185FFF5CFCE01B8DFF2CF8B8D8A
:100C6000FE01E80FF11DE35AFF4FF0820B8FEA8976
:100C7000FB898081806207C0EE89FF896083E889F3
:100C8000F98980818064808381E090E0DF91CF9159
:100C90001F910F91FF90EF900895CF93DF93EC0198
:100CA000888D8823C1F0EA89FB89808185FD05C094
:100CB000A889B9898C9186FD0EC00FB607FCF5CFC7
:100CC000808185FFF2CFA889B9898C9185FFEDCF0E
:100CD000CE017CDFE8CFDF91CF91089580E090E0F6
:100CE000892B19F06ADF811120C080E090E0892B08
:100CF00019F05ADF81111CC080E090E0892B41F08F
:100D000080E090E0892B21F00E940000811113C047
:100D100080E090E0892BA1F080E090E0892B81F0C9
:100D20000E94000081110AC008950E940000DDCFDA
:100D30000E940000E1CF0E940000EACF0C94000066
:100D400008958091500390E020915103821B9109F6
:100D5000089585ED8093BC008091BC0084FDFCCF9C
:100D60001092ED03089540917903262F30E0240F6F
:100D7000311D21323105DCF42091ED032430C9F41A
:100D8000FC0180E090E0861758F4309179032191BE
:100D9000DC01A95ABC4FA30FB11D2C930196F3CFD0
:100DA00080917903680F6093790380E0089581E072
:100DB000089582E008950895E091510380915003D1
:100DC000E81730F4F0E0E256FC4F808190E008959F
:100DD0008FEF9FEF089590915103809150039817E2
:100DE00050F4E92FF0E0E256FC4F208130E09F5FA5
:100DF0009093510302C02FEF3FEFC9010895CF92A6
:100E0000DF92EF92FF920F931F93CF93DF937C01BA
:100E1000262F972F8A018091EE03882391F0C62F09
:100E2000D72F6E01C40ED51ECC15DD0569F0699172
:100E3000D701ED91FC910190F081E02DC70119954A
:100E4000F3CF642F822F8FDFC801DF91CF911F91E5
:100E50000F91FF90EF90DF90CF900895CF93DF93A5
:100E60001F92CDB7DEB769832091EE032223D1F024
:100E700020911104203240F021E030E0FC01338366
:100E8000228380E090E014C08091EF03E82FF0E02F
:100E9000E051FC4F998190838F5F8093EF038093A3
:100EA000110404C061E0CE0101965DDF81E090E0B5
:100EB0000F90DF91CF9108954F925F926F927F9242
:100EC0008F929F92AF92BF92CF92DF92EF92FF925A
:100ED0006B017C014B015C01E894B7F828ED3FE021
:100EE00049E45FE30E943B222B013C0120E030E01B
:100EF00040E85FE3C501B4010E94BE1D9B01AC0147
:100F0000C701B6010E943B226B017C012BE438EC47
:100F100047E85DE3C501B4010E943B2223EA32E9C0
:100F20004AE75EE30E94BF1D9B01AC01C701B60109
:100F30000E943B229B01AC01C301B2010E94BE1D75
:100F4000FF90EF90DF90CF90BF90AF909F908F90E9
:100F50007F906F905F904F9008950E94B9211F92EB
:100F60000F920FB60F9211240BB60F922F933F934F
:100F70004F935F936F937F938F939F93AF93BF93A1
:100F8000EF93FF9382E194E021DEFF91EF91BF9117
:100F9000AF919F918F917F916F915F914F913F9111
:100FA0002F910F900BBE0F900FBE0F901F901895B2
:100FB0001F920F920FB60F9211240BB60F922F9320
:100FC0003F934F935F936F937F938F939F93AF93D1
:100FD000BF93EF93FF9382E194E09FDDFF91EF9148
:100FE000BF91AF919F918F917F916F915F914F9141
:100FF0003F912F910F900BBE0F900FBE0F901F903F
:1010000018951F920F920FB60F9211240BB60F92E4
:101010002F933F934F935F936F937F938F939F9300
:10102000AF93BF93EF93FF938FEA94E0CFDDFF91EF
:10103000EF91BF91AF919F918F917F916F915F9150
:101040004F913F912F910F900BBE0F900FBE0F90BD
:101050001F9018951F920F920FB60F9211240BB686
:101060000F922F933F934F935F936F937F938F9341
:101070009F93AF93BF93EF93FF938FEA94E04DDD7F
:10108000FF91EF91BF91AF919F918F917F916F9160
:101090005F914F913F912F910F900BBE0F900FBE1C
:1010A0000F901F901895362F90E0FC01E259F54FF4
:1010B0004491FC01E055FE4F2491FC01E659FE4F9E
:1010C0009491992309F46BC0442309F455C050E06E
:1010D000FA013197E231F10508F04EC08827EE5849
:1010E000FF4F8F4F0C94B61D809180008F7707C003
:1010F000809180008F7D03C080918000877F8093E6
:1011000080003AC084B58F7702C084B58F7D84BDDE
:1011100033C08091B0008F7703C08091B0008F7D85
:101120008093B00029C0809190008F7707C0809194
:1011300090008F7D03C080919000877F8093900006
:101140001BC08091A0008F7707C08091A0008F7D89
:1011500003C08091A000877F8093A0000DC0809184
:1011600020018F7707C0809120018F7D03C080917F
:101170002001877F80932001E92FF0E0EE0FFF1F11
:10118000EA5CFE4FA591B4918FB7F894EC913111C0
:1011900003C020952E2301C02E2B2C938FBF0895C2
:1011A0003FB7F8948091C3039091C403A091C50305
:1011B000B091C60326B5A89B05C02F3F19F0019634
:1011C000A11DB11D3FBFBA2FA92F982F8827820FCD
:1011D000911DA11DB11DBC01CD0142E0660F771F1D
:1011E000881F991F4A95D1F708958F929F92AF92C9
:1011F000BF92CF92DF92EF92FF926B017C01D0DF22
:101200004B015C01C114D104E104F104E9F0C8DF31
:10121000DC01CB0188199909AA09BB09883E9340D2
:10122000A105B10578F321E0C21AD108E108F1085F
:1012300088EE880E83E0981EA11CB11CC114D10455
:10124000E104F10421F7DECFFF90EF90DF90CF9023
:10125000BF90AF909F908F9008952FB7F8946091B2
:10126000BF037091C0038091C1039091C2032FBF4F
:1012700008951F920F920FB60F9211242F933F9350
:101280008F939F93AF93BF938091BF039091C003BF
:10129000A091C103B091C2033091BE0323E0230F9C
:1012A0002D3720F40196A11DB11D05C026E8230F9E
:1012B0000296A11DB11D2093BE038093BF0390939E
:1012C000C003A093C103B093C2038091C303909164
:1012D000C403A091C503B091C6030196A11DB11D21
:1012E0008093C3039093C403A093C503B093C60334
:1012F000BF91AF919F918F913F912F910F900FBE12
:101300000F901F901895EF92FF920F931F93CF931A
:10131000DF931F921F92CDB7DEB7142F91E0909309
:10132000EE03809310041092EF03109211048CE4EA
:1013300095E029833A8392DD2981022FE22E3A81BA
:10134000F32E8E2D801B811738F4F70161917F01F8
:101350008CE495E083DDF5CF15D491E0811190E028
:10136000892F0F900F90DF91CF911F910F91FF90D8
:10137000EF900895CF93DF931F92CDB7DEB74983E7
:101380009E012F5F3F4F41E0BEDF0F90DF91CF9175
:1013900008952F923F924F925F926F927F928F9219
:1013A0009F92AF92BF92CF92DF92EF92FF920F93F4
:1013B0001F93CF93DF93CDB7DEB727970FB6F8947F
:1013C000DEBF0FBECDBFE82E6B834F83690145DFC3
:1013D0004B015C016E2C660CF12C1E8277247394F9
:1013E0005F81452F50E05D834C831801412C512CC7
:1013F0004F81F41608F095C07092EE03E09210044D
:101400001092EF03109211046B818CE495E026DDBD
:10141000B9D37092EE03E09210041092EF03109291
:1014200011048091ED038111FCCF2C813D812F1996
:1014300031092132310514F020E230E0213208F088
:1014400020E27092ED037092EC038FEF8093EB0338
:101450001092EA03820F8093E9037092C80380918F
:10146000C80386298093C8038091C703813071F433
:101470001092C7038091C8038093BB008091BC0089
:1014800083FDF8CF95EC9093BC0003C0E5EEE093AC
:10149000BC008091ED038130E1F38091EA03821773
:1014A00010F42091EA03A9ECB3E0EEE9F3E08E2F0B
:1014B0004EE953E0841B821718F48D918193F7CF86
:1014C0001092510320935003909150038091510347
:1014D000981709F10115110591F4A6012E81420F0B
:1014E000511D27FD5A955A8349838CE495E073DC9E
:1014F000E981FA8180832E812F5F2E83E5CFADDED7
:10150000DC01CB0188199909AA09BB098215930549
:10151000A405B50510F38F81813208F080E2F80E42
:1015200067CFFE8001151105D1F097DEDC01CB01FC
:1015300088199909AA09BB0920E030E080179107B2
:10154000A207B30760F05F81252F30E08F2D0F2CAD
:10155000000C990B8217930714F4FF24FA948F2D33
:1015600027960FB6F894DEBF0FBECDBFDF91CF91A7
:101570001F910F91FF90EF90DF90CF90BF90AF90B1
:101580009F908F907F906F905F904F903F902F90A3
:101590000895BF92CF92DF92EF92FF920F931F9325
:1015A000CF93DF931F92CDB7DEB7F82EE62EC42E71
:1015B000B22ED02E08EE13E09E012F5F3F4F41E088
:1015C000E8DE882319F1EC2DF0E0EB19F1093196F2
:1015D00021E030E002C0220F331FBA94E2F721501D
:1015E00031090E2E01C0220F0A94EAF78D2D01C099
:1015F000880FEA95EAF7422F4095998149232823DD
:10160000422B49836E2D8F2DB5DE01C080E00F90F7
:10161000DF91CF911F910F91FF90EF90DF90CF90CE
:10162000BF900895CF92DF92EF92FF920F931F9396
:10163000CF93DF931F92CDB7DEB7F82EE62ED42ED0
:10164000C22E08EE13E09E012F5F3F4F41E0A1DE66
:101650009981CC2041F041E050E001C0440FDA9480
:10166000EAF7492B09C021E030E0A90101C0440F8D
:10167000DA94EAF74095492349836E2D8F2D7ADE5F
:101680000F90DF91CF911F910F91FF90EF90DF901E
:10169000CF9008951F920F920FB60F9211240BB6A0
:1016A0000F922F933F934F935F936F937F938F93FB
:1016B0009F93AF93BF93EF93FF938091B900887F7F
:1016C000803609F49CC068F5883209F45BC090F458
:1016D000803109F454C038F4882309F4F6C0883006
:1016E00009F44DC0F5C0883109F44CC0803209F4CA
:1016F0005DC0EEC0803409F468C048F4803309F45A
:1017000055C0883309F0E4C08093EB03D8C080351E
:1017100009F44FC0883509F45DC0883409F0D8C099
:10172000D6C0883909F4C7C0A8F4883709F467C05F
:1017300038F4883609F463C0803709F460C0C8C043
:10174000883809F4B8C0803909F45FC0803809F0DE
:10175000BFC05BC0803B09F486C038F4803A09F40E
:1017600066C0883A09F47FC0B3C0803C09F4A7C0C2
:10177000883C09F4A4C0883B09F48AC0A9C08091C0
:10178000C80310C09091EA038091E903981770F59F
:10179000E091EA0381E08E0F8093EA03F0E0E753E3
:1017A000FC4F80818093BB0085EC86C08093EB0367
:1017B0008EC0E091EA0381E08E0F8093EA0380916E
:1017C000BB00F0E0E753FC4F80839091EA038091E7
:1017D000E9036EC0E091EA0381E08E0F8093EA0393
:1017E0008091BB00F0E0E753FC4F80838091EC03D5
:1017F00081116DC081E08093C70384EA61C083E0FA
:101800008093ED0310929D03CFCF80919D03803292
:1018100008F051C0E0919D0381E08E0F80939D03FD
:101820008091BB00F0E0E358FC4F8083BDCF85EC96
:101830008093BC001092ED0380919D03803230F4C0
:10184000E0919D03F0E0E358FC4F108260919D030E
:1018500070E0E0917B03F0917C038DE793E01995B4
:1018600010929D0335C084E08093ED0310927A03BB
:1018700010927903E0917703F091780319958091A4
:101880007903811105C081E0809379031092570399
:10189000E0917A0381E08E0F80937A03F0E0E95AB9
:1018A000FC4F80818093BB0090917A0380917903F3
:1018B000981708F479CF85E88093BC0009C085ECBF
:1018C0008093BC001092ED0303C01092EB0341DA49
:1018D000FF91EF91BF91AF919F918F917F916F9108
:1018E0005F914F913F912F910F900BBE0F900FBEC4
:1018F0000F901F9018954F925F926F927F928F92E8
:101900009F92AF92BF92CF92DF92EF92FF920F938E
:101910001F93CF93DF9300D01F92CDB7DEB78C011A
:10192000FC0140A351A362A373A39A01AB01648598
:101930007585868597850E94BE1DF801608B718B29
:10194000828B938B2DDCF80120A531A5621B730BD4
:1019500075A764A725DCF80160A771A782A793A7E4
:10196000408851886288738864A575A580E090E0FE
:101970000E94DA216B017C019B01AC01C301B20121
:101980000E943B2220E030E04AE754E40E94851E9A
:10199000F801208D318D428D538D0E94BF1D4B016A
:1019A0005C01F801608F718F828F938F2489358954
:1019B00046895789C301B2010E94BE1DA701960145
:1019C0000E94851E6B017C01F801648F758F868FE4
:1019D000978F2081318142815381C301B2010E94DE
:1019E0003B2269837A838B839C83F8012481358130
:1019F00046815781C501B4010E943B229B01AC0185
:101A000069817A818B819C810E94BF1D4B015C01A1
:101A1000F8012085318542855385C701B6010E94B2
:101A20003B229B01AC01C501B4010E94BF1DF8011E
:101A300064A375A386A397A3448A558A668A778A86
:101A40000F900F900F900F90DF91CF911F910F91FA
:101A5000FF90EF90DF90CF90BF90AF909F908F90CE
:101A60007F906F905F904F900895CF92DF92EF92AA
:101A7000FF926B017C0120E030E040E85FE30E94D0
:101A8000431F1816B4F4A701960160E070E080E8E7
:101A90009FE30E94851E10DA9B01AC016AED7FE096
:101AA00089EC9FE30E94BE1DFF90EF90DF90CF90E6
:101AB0000895C701B601FF90EF90DF90CF90FCC969
:101AC0001F920F920FB60F9211240BB60F922F9305
:101AD0003F934F936F937F938F939F93EF93FF93D6
:101AE00082B1807F82B98091560390E00196837025
:101AF000992780935603FC01EE0FFF1FE351F94F26
:101B000020813181309329012093280142B121E0C5
:101B100030E0B90102C0660F771F8A95E2F7CB016A
:101B2000842B82B9FF91EF919F918F917F916F915B
:101B30004F913F912F910F900BBE0F900FBE0F90C2
:101B40001F901895CF93DF93009771F0FC010190DF
:101B50000020E9F73197AF01481B590BBC0182E126
:101B600094E08ED1EC0102C0C0E0D0E042E050E051
:101B70006FE173E082E194E083D18C0F9D1FDF91D0
:101B8000CF9108952091110490911004213208F012
:101B90004AC08091ED038111FCCF32E03093ED0318
:101BA00031E03093EC033FEF3093EB031092EA0304
:101BB0002093E903A0EFB3E049EC53E0FA013E2F94
:101BC000341B321718F43D913193F9CF1092C803AA
:101BD0002091C803990F922B9093C8039091C7034B
:101BE000913061F41092C7039091C8039093BB00A9
:101BF0009091BC0093FDF8CF95EC01C095EE9093C9
:101C0000BC009091ED039230E1F39091EB039F3F84
:101C100079F08091EB03803241F08091EB038033C7
:101C200031F084E005C081E003C082E001C083E0C0
:101C30001092EF03109211041092EE03089521E028
:101C400042E06AE680917705EDCC482F6EE6809100
:101C5000770590CB2F923F924F925F926F927F9237
:101C60008F929F92AF92BF92CF92DF92EF92FF92AC
:101C70000F931F93CF93DF933C015B01342EC22F50
:101C8000202E4F716DE68091770574DB8C2FDDDFA0
:101C900080E190E00E94A81F6C01002331F080E1F8
:101CA00090E00E94A81F582E492EE12CF12CEA1436
:101CB000FB0408F067C0C7014096A816B90618F4DF
:101CC000DA2DDE1901C0D0E18D2F90E020E031E067
:101CD0002C1B31092817390714F4DC2FD195F30197
:101CE000EE0DFF1D222059F0952DA52DB42D8A2F24
:101CF000891B8D1730F484918D933196F8CF5E2E29
:101D00004F2E252D342D4D2F6FE680917705FBDA70
:101D10008D2E912CC114D10411F1432D4F716DE61C
:101D20008091770527DB8C2F90DF08EE13E096017A
:101D30004D2F6FE6809177052CDBA401B601852D30
:101D4000942D0E94BD21892B51F0C6010E943D2097
:101D5000222011F1852D942D0E943D201DC0E80CFC
:101D6000F91CCD0FEA14FB0408F0A1CFC11101C08A
:101D70003394432D4F716DE680917705FBDA8C2FFC
:101D800064DF95CFC6010E943D20222039F0852DC9
:101D9000942D0E943D2002C080E001C081E0DF91CF
:101DA000CF911F910F91FF90EF90DF90CF90BF9058
:101DB000AF909F908F907F906F905F904F903F90EB
:101DC0002F9008950F931F93462F05E010E09C017C
:101DD00064E780917705DDDA1F910F9108950F93E5
:101DE0001F93CF93DF93C8E5D5E008EE13E028E713
:101DF00035E042E062E78F8DCCDA88A190E0982F41
:101E0000882729A1822BDF91CF911F910F910895EF
:101E1000EF92FF920F931F93CF93DF931F92CDB753
:101E2000DEB77A0189019E012F5F3F4F41E0B1DAB1
:101E3000882339F029812E7730E035952795F701F1
:101E400020830F90DF91CF911F910F91FF90EF9022
:101E50000895CF93DF93FC014481558160817181A6
:101E600082E194E00DD0EC0142E050E06FE173E0DC
:101E700082E194E005D08C0F9D1FDF91CF910895F2
:101E8000CF92DF92EF92FF920F931F93CF93DF9346
:101E90006C017A018B01C0E0D0E0CE15DF0589F03E
:101EA000D8016D918D01D601ED91FC910190F081E9
:101EB000E02DC6011995892B11F47E0102C02196EF
:101EC000ECCFC701DF91CF911F910F91FF90EF9061
:101ED000DF90CF900895CF93DF93EC01FC01EE0FDC
:101EE000FF1FEE0FFF1FE85AFA4F2091680530914F
:101EF000690540916A0550916B056081718182810D
:101F000093810E94BF1D20E034E740E656E40E9422
:101F10003B220E94F21E635E7A4BCE01880F991F0E
:101F20006B332DE7720730F4FC01E351F94F7183F5
:101F3000608307C02EE234E6FC01E351F94F3183A0
:101F40002083FC01E351F94F808191818D319544CB
:101F500020F48DE195E491838083DF91CF91089502
:101F6000CF92DF92EF92FF920F931F93CF93DF9365
:101F70008C01CB01BA01E801CC0FDD1FCC0FDD1FB6
:101F8000C85ADA4F288139814A815B810E94BF1D7E
:101F90006B017C0120E030E040E85FE30E94431FDA
:101FA00018162CF0C882D982EA82FB8208C080E031
:101FB00090E0A0E8BFE388839983AA83BB83C8012C
:101FC000DF91CF911F910F91FF90EF90DF90CF9015
:101FD00082CFCF93DF93C8E5D5E0188219821A82A9
:101FE0001B8280E090E077DF1C821D821E821F82B0
:101FF00081E090E070DF188619861A861B8682E0E1
:1020000090E069DF1C861D861E861F8683E090E0B7
:10201000DF91CF9160CFAF92BF92CF92DF92EF92DC
:10202000FF920F931F93CF93DF935B01EA01680147
:102030007901B901A80194DFB701A60183E090E01E
:102040008FDFF7FAF094F7F8F094B701A601C50115
:1020500087DFB701A601CE01DF91CF911F910F91CC
:10206000FF90EF90DF90CF90BF90AF9079CF0F931C
:102070001F93F3D860931A0470931B0480931C047D
:1020800090931D04E0911204F09113040084F185F3
:10209000E02D82E194E0199597FF1EC0DED80091F3
:1020A0001A0410911B0420911C0430911D04DC01C2
:1020B000CB01801B910BA20BB30B00911604109166
:1020C0001704209118043091190480179107A20772
:1020D000B307C0F28FEF9FEF1F910F910895682F04
:1020E0008091E8068823F9F070E080E090E00E949B
:1020F000DC2120E030E04FE753E40E94851E60932E
:1021000068057093690580936A0590936B0580E07C
:1021100090E0E1DE81E090E0DEDE82E090E0DBDE78
:1021200083E090E0D8CE0895EF92FF920F931F9333
:10213000CF93DF93EC01198218821B821A821D82D1
:102140001C8261157105A9F17B01FB010190002042
:10215000E9F731978F01061B170BB8016F5F7F4FAF
:1021600080E090E00E94D520009759F09983888301
:102170001B830A832C813D81232B81F4FC01108277
:102180000DC088819981009711F00E943D2019822D
:1021900018821D821C821B821A820BC01D830C8335
:1021A000B701DF91CF911F910F91FF90EF900C94A9
:1021B000D321DF91CF911F910F91FF90EF90089560
:1021C0002F923F924F925F926F927F928F929F9247
:1021D000AF92BF92CF92DF92EF92FF920F931F9335
:1021E000CF93DF93CDB7DEB7A0970FB6F894DEBFDD
:1021F0000FBECDBF80918A05882309F4C3C2EFDDED
:102200009093900580938F0580918F059091900514
:1022100020918D0530918E058217930780F38115EB
:10222000944081F40CDD62E273E0CE0101967CDF24
:10223000CE0101960EDE89819A810E943D2082E0C6
:1022400090E0A2C260918D0570918E0580918F05FE
:10225000909190058617970740F181E995E0B2DDEE
:102260000E94D0082091710530917205621B730B9A
:1022700070937605609375050E94D0086093710590
:1022800070937205809373059093740580918F0508
:102290009091900520918D0530918E05821B930BB6
:1022A0009093900580938F05CDCF81E995E0892BA0
:1022B00029F4E0917705F091780502C0E1E9F5E0B5
:1022C000C480D12CDC2CCC248581C80ED11CE084A8
:1022D000F12CFE2CEE248185E80EF11C048510E023
:1022E000102F00278585080F111D608170E0762F63
:1022F00066278181680F711D072E000C880B990BD2
:102300000E94DC2120E030E040E858E30E943B22BC
:102310004B015C016093D1057093D2058093D30586
:102320009093D405B601DD0C880B990B0E94DC213B
:1023300020E030E040E858E30E943B222B013C01C2
:102340006093D5057093D6058093D7059093D805F3
:10235000B701FF0C880B990B0E94DC2120E030E0D4
:1023600040E858E30E943B226F83788789879A87E9
:102370006093D9057093DA058093DB059093DC05B3
:10238000B801110F880B990B0E94DC2120E030E08E
:1023900040E858E30E943B226B877C878D879E87AD
:1023A0006093DD057093DE058093DF059093E00573
:1023B0009B01AC01C301B2010E943B226B017C0175
:1023C0002F81388549855A85C501B4010E943B2279
:1023D0009B01AC01C701B6010E94BE1D9B01AC016F
:1023E0000E94BF1D6F87788B898B9A8B6093ED0558
:1023F0007093EE058093EF059093F005A301920191
:10240000C501B4010E943B226B017C012B853C85F8
:102410004D855E856F81788589859A850E943B22EE
:102420009B01AC01C701B6010E94BF1D9B01AC011D
:102430000E94BF1D6B8B7C8B8D8B9E8B6093F105F7
:102440007093F2058093F3059093F405A501940130
:10245000C501B4010E943B226B017C01A3019201E2
:10246000C301B2010E943B229B01AC01C701B6012E
:102470000E94BE1D6B017C012F81388549855A85DC
:10248000CA01B9010E943B229B01AC01C701B60100
:102490000E94BE1D6B017C012B853C854D855E85B0
:1024A000CA01B9010E943B229B01AC01C701B601E0
:1024B0000E94BF1D6F8B788F898F9A8F6093F5056F
:1024C0007093F6058093F7059093F80581E995E000
:1024D000892B29F4E0917705F091780502C0E1E9B4
:1024E000F5E0648D70E0762F6627858DDB01A80FFF
:1024F000B11DBC8FAB8FB093E205A093E10520A086
:10250000312C322C222481A1280E311C3092E4057A
:102510002092E30504A110E0102F002785A1080FE9
:10252000111D1093E6050093E505A5019401C50171
:10253000B4010E94BF1D6B017C01A3019201C30184
:10254000B2010E94BF1D6D8F7E8F8F8F98A3A50152
:102550009401C701B6010E943B224B015C01A3011B
:1025600092016D8D7E8D8F8D98A10E943B229B01E3
:10257000AC01C501B4010E94BF1D20E030E040E87D
:102580005FE30E94BE1D4B015C012F8138854985A8
:102590005A856D8D7E8D8F8D98A10E943B222B01D7
:1025A0003C012B853C854D855E85C701B6010E94A7
:1025B0003B229B01AC01C301B2010E94BE1DA501DB
:1025C00094010E94321E60931F0670932006809330
:1025D0002106909322062F89388D498D5A8DCA0184
:1025E000B9010E943B226B017C012B893C894D89FA
:1025F0005E89CA01B9010E943B22A70196010E948F
:10260000BF1D0E94521F9B01AC016F85788989898B
:102610009A890E94851E29DA609323067093240606
:1026200080932506909326062F85388949895A89F3
:10263000CA01B9010E943B22A70196010E94BF1D59
:102640000E94521F9B01AC016B897C898D899E89F8
:102650000E94851E0ADA60932706709328068093ED
:10266000290690932A062B8D3C8DB901330F880BD8
:10267000990B0E94DC216B017C0120E030E040E0FE
:1026800056E46F85788989899A890E943B229B014B
:10269000AC01C701B6010E94BE1D0E94ED1E4B0198
:1026A0005C017093E8056093E705B101330C880B7A
:1026B000990B0E94DC216B017C0120E030E040E0BE
:1026C00056E46B897C898D899E890E943B229B01FF
:1026D000AC01C701B6010E94BE1D0E94ED1E6B0138
:1026E0007C017093EA056093E905B801110F880B2E
:1026F000990B0E94DC212B013C0120E030E040E0FE
:1027000056E46F89788D898D9A8D0E943B229B01BA
:10271000AC01C301B2010E94BE1D0E94ED1E2B013F
:102720003C017093EC056093EB05B401990C880BA8
:10273000990B0E94DC21609313067093140680931A
:10274000150690931606B601DD0C880B990B0E94B6
:10275000DC216093170670931806809319069093F6
:102760001A06B201550C880B990B0E94DC2160936C
:102770001B0670931C0680931D0690931E0680E036
:1027800090E002C081E090E0A0960FB6F894DEBF22
:102790000FBECDBFDF91CF911F910F91FF90EF90B2
:1027A000DF90CF90BF90AF909F908F907F906F9071
:1027B0005F904F903F902F90089502DD80911F060B
:1027C00090912006A0912106B091220680936A067E
:1027D00090936B06A0936C06B0936D0680912306D0
:1027E00090912406A0912506B09126068093980624
:1027F00090939906A0939A06B0939B068091270622
:1028000090912806A0912906B0912A068093C606C9
:102810009093C706A093C806B093C9061092760697
:1028200010927706109278061092790610926E0632
:1028300010926F0610927006109271061092720636
:102840001092730610927406109275060E94D008BA
:102850006093860670938706809388069093890616
:102860001092A4061092A5061092A6061092A70632
:1028700010929C0610929D0610929E0610929F0642
:102880001092A0061092A1061092A2061092A30622
:102890000E94D0086093B4067093B5068093B60684
:1028A0009093B7061092D2061092D3061092D406D7
:1028B0001092D5061092CA061092CB061092CC0642
:1028C0001092CD061092CE061092CF061092D0062E
:1028D0001092D1060E94D0086093E2067093E3063E
:1028E0008093E4069093E5060895CF93DF93CDB7E8
:1028F000DEB7C459D1090FB6F894DEBF0FBECDBF05
:10290000789484B5826084BD84B5816084BD85B5CA
:10291000826085BD85B5816085BD80916E008160D6
:1029200080936E001092810080918100826080937C
:10293000810080918100816080938100809180007E
:102940008160809380008091B10084608093B100A9
:102950008091B00081608093B0008091910082608E
:10296000809391008091910081608093910080918B
:1029700090008160809390008091A100826080939C
:10298000A1008091A10081608093A1008091A000AE
:1029900081608093A0008091210182608093210159
:1029A00080912101816080932101809120018160CB
:1029B0008093200180917A00846080937A008091D6
:1029C0007A00826080937A0080917A00816080939F
:1029D0007A0080917A00806880937A001092C1001A
:1029E000E091BF04F091C00422E02083E091BB0499
:1029F000F091BC041082E091BD04F091BE0480E12E
:102A000080831092C704E091C304F091C40496E05F
:102A10009083E091C104F091C20480818061808341
:102A2000E091C104F091C204808188608083E091CC
:102A3000C104F091C204808180688083E091C10468
:102A4000F091C20480818F7D8083E0912204F09117
:102A500023042083E0911E04F0911F041082E09172
:102A60002004F09121048FEC808310922A04E091DD
:102A70002604F09127049083E0912404F09125042A
:102A8000808180618083E0912404F091250480811D
:102A900088608083E0912404F0912504808180681F
:102AA0008083E0912404F091250480818F7D8083D0
:102AB00085E090E0A0E0B0E08093B3049093B4048C
:102AC000A093B504B093B6048093160490931704B2
:102AD000A0931804B0931904E3EBF1E02491EDE620
:102AE000F1E08491882399F090E0880F991FFC0110
:102AF000E05BFE4FA591B491FC01EA5CFE4F85912D
:102B000094918FB7F894EC91E22BEC938FBF88E20D
:102B100092E018D881B18F6081B91092200189E0CC
:102B200080932101809173008260809373001092E2
:102B300068051092690510926A0510926B0549DAD2
:102B400010925103109250031092EF03109211044F
:102B50001092ED0381E08093EC031092C70361E0D3
:102B600084E10E94530861E085E10E94530880914E
:102B7000B9008E7F8093B9008091B9008D7F8093DA
:102B8000B90088E48093B80085E48093BC0088E1B4
:102B90008093B80001E023E042E06BE68091770586
:102BA0000E94C90A00E022E044E06BE180917705D1
:102BB0000E94C90A22E044E06CE1809177050E94FE
:102BC000C90A20E046E06BE6809177050E94120B6F
:102BD00021E047E06BE6809177050E94120B6EE1E1
:102BE00070E080E090E00E94F50820E046E06BE6AF
:102BF000809177050E94120B40E76DE68091770582
:102C00000E94BA0986E021D808EE13E028E735E0F3
:102C100041E06FE6809177050E94C90940E06DE6CA
:102C2000809177050E94BA099E012F5F3F4F41E0D6
:102C300060E0809177050E94C90989818170809345
:102C4000780528EE33E048E755E060E080917705AD
:102C5000DFD88090780528EE33E048E755E061E062
:102C600080917705D5D89090780528EE33E048E735
:102C700055E062E080917705CBD8709078054FE7FA
:102C800065E2809177050E94BA0920E045E06AE696
:102C9000809177050E94120B48E665E280917705E6
:102CA0000E94BA0921E041E06AE6809177050E941E
:102CB000120B64E170E080E090E00E94F50801E012
:102CC00020E040E069E877E085EE92E00E942A0E7D
:102CD000882309F4C6C288E090E00E94A81F5C0126
:102CE00000E010E0F801EB5DFD4F4491F801EA5D72
:102CF000FD4F2491680183E0C80ED11CF801E95D05
:102D0000FD4FE491EE23B9F1EE2EF12CE330C8F043
:102D1000B701C501CC56DF4F2883C459D040CD56EA
:102D2000DF4F4883C359D0400E94D5205C01CD5667
:102D3000DF4F4881C359D040CC56DF4F2881C4595A
:102D4000D040D50180E090E08E159F0548F4F60153
:102D5000E80FF91FEB5DFD4FE491ED930196F4CF81
:102D600000E0B701C5010E942A0E87010C0D1D1D50
:102D7000811115C00FC00C5F1F4FF601EB5DFD4FB9
:102D8000E491E13039F442E368E3809177050E94F1
:102D9000BA0905C0C5010E943D2082E063C2003C23
:102DA000110508F49FCFC5010E943D2003E023E0F8
:102DB00042E06BE6809177050E94C90A42E168E330
:102DC000809177050E94BA0944E069E18091770516
:102DD0000E94BA0901E023E045E06AE180917705AD
:102DE0000E94C90A03E023E042E06AE1809177058E
:102DF0000E94C90A22E044E06BE1809177050E94BD
:102E0000C90A43E060E7809177050E94BA0940E073
:102E100061E7809177050E94BA0920E040E060E018
:102E2000809177050E94120B082D26E046E060E0B5
:102E3000809177050E94C90A092D26E046E061E0ED
:102E4000809177050E94C90A072D26E046E062E0DE
:102E5000809177050E94C90AE12CF12CF701EA5014
:102E6000FE4FE491A1E8B0E0AC0FBD1FAE0DB11D67
:102E7000EC9381E08E0D9FEFE91AF90AA3E0AE15FD
:102E800068F7CD57DF4F6881C358D04070E09B0191
:102E90002E5F3F4F90E02817390704F700E0CE5728
:102EA000DF4F2881C258D040CF57DF4F4881C158EB
:102EB000D04081E890E08C0F9D1F03960E942A0E5F
:102EC00080E0F701EA50FE4FE491A1E8B0E0AC0FDA
:102ED000BD1FA80FB11DEC938F5FBFEFEB1AFB0A6C
:102EE000843078F3CD57DF4F6881C358D04070E00D
:102EF000AB014E5F5F4F282F30E0421753070CF7AE
:102F000000E0CE57DF4F2881C258D040CF57DF4F67
:102F10004881C158D04081E890E08C0F9D1F0396F6
:102F20000E942A0E0E941F0E0E94EF0E682FCE01F3
:102F300001960E94E20E42E06FE1809177050E94C7
:102F4000BA094CE961E2809177050E94BA0940E52F
:102F500060E2809177050E94BA0940E062E28091C8
:102F600077050E94BA090E941F0E21E046E06AE63A
:102F7000809177050E94120B21E047E06AE680917C
:102F800077050E94120B21E043E06AE68091770505
:102F90000E94120B80E0F701EA50FE4FE491A1E895
:102FA000B0E0AC0FBD1FA80FB11DEC938F5F2FEFEA
:102FB000E21AF20A843078F3CD57DF4F6881C358A4
:102FC000D04070E0AB014E5F5F4F282F30E04217DA
:102FD00053070CF700E0CE57DF4F2881C258D0408E
:102FE000CF57DF4F4881C158D04081E890E08C0F27
:102FF0009D1F03960E942A0E80E0F701EA50FE4FC3
:10300000E491A1E8B0E0AC0FBD1FA80FB11DEC9397
:103010008F5F9FEFE91AF90A843078F3CD57DF4FBD
:103020006881C358D04070E0AB014E5F5F4F282FDE
:1030300030E0421753070CF700E0CE57DF4F2881EE
:10304000C258D040CF57DF4F4881C158D04081E8A7
:1030500090E08C0F9D1F03960E942A0E80E0F701DE
:10306000EA50FE4FE491A1E8B0E0AC0FBD1FA80FFD
:10307000B11DEC938F5FAFEFEA1AFA0A843078F350
:10308000CD57DF4F6881C358D04070E0AB014E5F31
:103090005F4F282F30E0421753070CF700E0CE5760
:1030A000DF4F2881C258D040CF57DF4F4881C158E9
:1030B000D04081E890E08C0F9D1F03960E942A0E5D
:1030C0000E94EF0E83309105D8F3682FCE01019650
:1030D0000E94E20E36D580E0F701EA50FE4FE491FF
:1030E000A1E8B0E0AC0FBD1FA80FB11DEC938F5F3E
:1030F000BFEFEB1AFB0A843078F3CD57DF4F3880EF
:10310000C358D040832C912CA4014E5F5F4F282FD1
:1031100030E04217530704F7CE57DF4FB880C2584C
:10312000D040CF57DF4F2880C158D040422D4F713B
:103130006DE6809177050E94BA098B2D0E94250EBD
:10314000C12CD12C612C7724739431E8432E512C5F
:103150004C0E5D1E23E0420E511CC814D90498F594
:10316000C60140968816990618F4A32CAC1802C024
:1031700090E1A92E8A2D90E093012B19310928178F
:10318000390714F4AB2CA19492012C0D3D1D08EECF
:1031900013E04A2D6FE6809177050E94C909CA0C99
:1031A000D11CBA0CC814D904C0F6B11001C02394C4
:1031B000422D4F716DE6809177050E94BA098B2DE3
:1031C0000E94250ECACF0E94EF0E83309105D8F3DE
:1031D000682FCE0101960E94E20EB3D4F701EA50A7
:1031E000FE4F80E09491A1E8B0E0AC0FBD1FA80FA6
:1031F000B11D9C938F5F843010F43196F3CFCD577F
:10320000DF4F6881C358D04070E0AB014E5F5F4F25
:10321000282F30E04217530784F700E0CE57DF4FE6
:103220002881C258D040CF57DF4F4881C158D04085
:1032300081E890E08C0F9D1F03960E942A0E20E0EB
:1032400047E06AE6809177050E94120B8AE290E0DF
:1032500090937A05809379050E941F0E72D480E0C6
:1032600001C081E080938C0581111AC021E047E004
:103270006AE6809177050E94120B1092700581E03A
:1032800080938A058091790590917A0590938E05B7
:1032900080938D0587E392E00E94A20D11E005C0A6
:1032A00083E592E00E94A20D10E010935D061123C9
:1032B00009F457C18AE692E00E94A20D0E942D09EE
:1032C0006B017C010E942D09DC01CB018C199D0949
:1032D000AE09BF0980339547A105B10598F40E9456
:1032E000E010019779F76DE972E0CE0101960E9436
:1032F0009410CE0101960E94290F89819A81BDD632
:1033000010E02FC11092700510920506109206066B
:1033100010920706109208061092090610920A06EB
:1033200010920B0610920C0610920D0610920E06CB
:1033300010920F061092100684E6282E312C0E945F
:10334000E010019771F46DE972E0CE0101960E94E0
:103350009410CE0101960E94290F89819A818DD601
:1033600000C120E030E048EC52E460911306709117
:1033700014068091150690911606C7D49B01AC01E6
:103380006091F9057091FA058091FB059091FC051B
:10339000F6D36093F9057093FA058093FB0590933B
:1033A000FC0520E030E048EC52E460911706709193
:1033B00018068091190690911A06A7D49B01AC01BA
:1033C0006091FD057091FE058091FF0590910006CA
:1033D000D6D36093FD057093FE058093FF0590930F
:1033E000000620E030E048EC52E460911B0670914A
:1033F0001C0680911D0690911E0687D49B01AC018E
:103400006091010670910206809103069091040676
:10341000B6D36093010670930206809303069093DF
:10342000040620911F0630912006409121065091FC
:10343000220660910506709106068091070690911C
:1034400008069DD36B017C01609305067093060608
:103450008093070690930806209123063091240656
:1034600040912506509126066091090670910A0642
:1034700080910B0690910C0682D32B013C01609346
:10348000090670930A0680930B0690930C06209110
:103490002706309128064091290650912A0660910E
:1034A0000D0670910E0680910F069091100667D35D
:1034B0004B015C0160930D0670930E0680930F061E
:1034C0009093100681E0281A310809F038CF20E0E7
:1034D00030E048EC52E4C701B60117D4609305060A
:1034E00070930606809307069093080620E030E06C
:1034F00048EC52E4C301B20108D46093090670930A
:103500000A0680930B0690930C0620E030E048EC0E
:1035100052E4C501B401F9D360930D0670930E0611
:1035200080930F069093100610922B0610922C0693
:1035300010922D0610922E0610922F061092300631
:103540001092310610923206109233061092340611
:10355000109235061092360681E0809370050E9425
:10356000E01010935D0684E090E090935C068093F9
:103570005B0623D980915D06882319F08DEB92E0DC
:1035800002C08DEC92E00E94A20DFF24F394809182
:103590005D06882309F414C182E194E00E94C80505
:1035A000181619060CF0A7C0609152036F2560939E
:1035B000520383E00E9453080E943710FC0197FDDC
:1035C00011C08D32910589F0C0970A9770F0E09193
:1035D0001204F09113040680F781E02D82E194E05B
:1035E0001995EACF80E090E050C020E030E0A901DA
:1035F00010E0E130F10509F0F9C0E0911204F0911A
:1036000013040680F781E02D82E194E0CC56DF4F71
:103610002883C459D040CF56DF4F3883C159D0409A
:10362000CD56DF4F4883C359D040CE56DF4F588325
:10363000C259D04019950E943710FC01C097CC5652
:10364000DF4F2881C459D040CF56DF4F3881C15950
:10365000D040CD56DF4F4881C359D040CE56DF4FC2
:103660005881C259D0400A9720F2E130F10509F2A1
:10367000112309F4D9C0DA01C90144275527BA0139
:10368000481B590B6A0B7B0BCA016C010E946F101F
:10369000C11491E0D90651F480E00E946F1010929D
:1036A000E8060E94E90F8CED92E023C0A1E0CA1663
:1036B000DA0609F5F092E80610926805109269059D
:1036C00010926A0510926B0580E090E00E946B0FEB
:1036D00081E090E00E946B0F82E090E00E946B0F0F
:1036E00083E090E00E946B0F0E94E90F66D885EF9F
:1036F00092E00E94A20D8091E806882309F44EC052
:103700000E94E0100E94E90F40911F065091200690
:1037100060912106709122068EE596E00E947B0C56
:103720008B019C016093E9067093EA068093EB0697
:103730009093EC0642E050E061E070E080E090E0C1
:103740000E940B104091230650912406609125069B
:10375000709126068CE896E00E947B0C8B019C0100
:1037600041E050E060E070E082E090E00E940B10E9
:1037700040912706509128066091290670912A06EB
:103780008AEB96E00E947B0C8B019C0142E050E0AA
:1037900060E070E081E090E00E940B1080915303A4
:1037A0009091540301968A30910529F09093540327
:1037B0008093530318C0109254031092530313C004
:1037C0006FE073E0CE0101960E949410CE01019645
:1037D0000E94290F89819A8150D460E27EE480E0C2
:1037E00090E00E94F5080E946E06D1CEED32F10500
:1037F000C9F0CF01C0970A9708F0FFCEAAE0B0E069
:10380000EED64F01FF0FAA08BB08DC01CB01880DE3
:10381000991DAA1DBB1D9C01AD0120533109410911
:103820005109EBCE11E0E9CEC9012FCF8F929F92C3
:10383000AF92BF92CF92DF92EF92FF92E2E1F4E07B
:103840001382128288EE93E0A0E0B0E08483958337
:10385000A683B7832CE032E0318320834DEC50E027
:10386000558744874CEC50E05787468748EC50E03A
:10387000518B408B49EC50E0538B428B4AEC50E02B
:10388000558B448B4EEC50E0578B468B118E128E2D
:10389000138E148EEFEAF4E01382128284839583F0
:1038A000A683B7833183208325EC30E035872487D6
:1038B00024EC30E03787268720EC30E0318B208BFA
:1038C00021EC30E0338B228B22EC30E0358B248BE3
:1038D00026EC30E0378B268B118E128E138E148ED1
:1038E000ECE4F5E01382128284839583A683B78388
:1038F0008CE192E091838083E8E5F5E0148A158AF3
:10390000168A178A108E88E6878F12AA80E090E0C8
:10391000A0E8BFE38093D1059093D205A093D3058F
:10392000B093D4051092D5051092D6051092D70504
:103930001092D8051092D9051092DA051092DB0585
:103940001092DC051092DD051092DE051092DF0565
:103950001092E0051092E2051092E1051092E40544
:103960001092E3051092E6051092E5051092E80525
:103970001092E7051092EA051092E9051092EC0505
:103980001092EB051092ED051092EE051092EF05E6
:103990001092F0051092F1051092F2051092F305C5
:1039A0001092F4051092F5051092F6051092F705A5
:1039B0001092F80510925E0610925F061092600653
:1039C00010926106109262061092630610926406CD
:1039D00010926506109266061092670610926806AD
:1039E0001092690610926A0610926B0610926C068D
:1039F00010926D0610926E0610926F06109270066D
:103A0000109271061092720610927306109274064C
:103A1000109275060E94D008609386067093870600
:103A20008093880690938906812C912C80E4A82E9F
:103A30008FE3B82E80928C0690928D06A0928E060F
:103A4000B0928F06109290061092910610929206F4
:103A500010929306C12C90E4D92E9CE9E92E95E4AE
:103A6000F92EC0929406D0929506E0929606F092B6
:103A70009706109298061092990610929A06109244
:103A80009B0610929C0610929D0610929E06109224
:103A90009F061092A0061092A1061092A206109204
:103AA000A3060E94D0086093B4067093B506809375
:103AB000B6069093B7068092BA069092BB06A09283
:103AC000BC06B092BD061092BE061092BF061092C0
:103AD000C0061092C106C092C206D092C306E09200
:103AE000C406F092C5061092C6061092C706109240
:103AF000C8061092C9061092CA061092CB06109200
:103B0000CC061092CD061092CE061092CF061092DF
:103B1000D0061092D1060E94D0086093E2067093FE
:103B2000E3068093E4069093E50681E08093E8063F
:103B3000FF90EF90DF90CF90BF90AF909F908F90CD
:103B400008950F931F93CF93DF93C8E5D5E008EE58
:103B500013E028E735E041E06AE38F8D0E94C90950
:103B600088A1DF91CF911F910F910895EE0FFF1F54
:103B7000881F8BBF0790F691E02D19945058BB27F2
:103B8000AA270ED0F2C4E3D430F0E8D420F031F408
:103B90009F3F11F41EF4D8C40EF4E095E7FBCEC4A9
:103BA000E92FF4D480F3BA176207730784079507E7
:103BB00018F071F49EF50CC50EF4E0950B2EBA2F9B
:103BC000A02D0B01B90190010C01CA01A001112423
:103BD000FF27591B99F0593F50F4503E68F11A16CF
:103BE000F040A22F232F342F4427585FF3CF469560
:103BF00037952795A795F0405395C9F77EF41F1682
:103C0000BA0B620B730B840BBAF09150A1F0FF0F4B
:103C1000BB1F661F771F881FC2F70EC0BA0F621F37
:103C2000731F841F48F4879577956795B795F79527
:103C30009E3F08F0B3CF9395880F08F09927EE0FB9
:103C400097958795089583D458F080E891E009F41A
:103C50009EEF84D428F040E851E059F45EEF09C0AB
:103C600073C4B6C4E92FE07891D468F3092E052A0D
:103C7000C1F3261737074807590738F00E2E07F803
:103C8000E02569F0E025E0640AC0EF6307F80094DE
:103C900007FADB01B9019D01DC01CA01AD01EF9317
:103CA00043D063D40AD05F91552331F02BED3FE030
:103CB00049E450FD49EC63CF0895DF93DD27B92F28
:103CC000BF7740E85FE31616170648075B0710F456
:103CD000D92FDDD09F938F937F936F9321D1E8E00D
:103CE000F1E0ACD042D42F913F914F915F91CFD36F
:103CF000DD2349F09058A2EA2AED3FE049EC5FE36A
:103D0000D0785D274DDFDF9130C40CD02EC426D48F
:103D100040F01DD430F021F45F3F19F00FC4511171
:103D200058C412C433D498F39923C9F35523B1F37B
:103D3000951B550BBB27AA2762177307840738F01A
:103D40009F5F5F4F220F331F441FAA1FA9F333D079
:103D50000E2E3AF0E0E830D091505040E695001C2D
:103D6000CAF729D0FE2F27D0660F771F881FBB1FE9
:103D7000261737074807AB07B0E809F0BB0B802DC3
:103D8000BF01FF2793585F4F2AF09E3F510568F00F
:103D9000D5C31FC45F3FECF3983EDCF3869577955F
:103DA0006795B795F7959F5FC9F7880F911D969511
:103DB000879597F90895E1E0660F771F881FBB1F6D
:103DC000621773078407BA0720F0621B730B840B1A
:103DD000BA0BEE1F88F7E095089504D06894B111EE
:103DE000F8C30895DBD388F09F5790F0B92F992737
:103DF000B751A0F0D1F0660F771F881F991F1AF0F6
:103E0000BA95C9F712C0B13081F0E2D3B1E008959C
:103E1000DFC3672F782F8827B85F39F0B93FCCF31D
:103E2000869577956795B395D9F73EF490958095EB
:103E3000709561957F4F8F4F9F4F0895DF93CF937C
:103E40001F930F93FF92EF92DF927B018C01689496
:103E500005C0DA2EEF011BD3FE01E894A591259150
:103E6000359145915591AEF3EF019ADEFE01970130
:103E7000A801DA9479F7DF90EF90FF900F911F91EE
:103E8000CF91DF910895D3D208F48FEF08959B016D
:103E9000AC0160E070E080E89FE337CF11F40EF4EE
:103EA00053C341C07BD3D0F39923D9F3CEF39F57AB
:103EB000550B87FF46D00024A0E640EA90018058C9
:103EC0005695979528F4805C660F771F881F20F021
:103ED00026173707480730F4621B730B840B202921
:103EE00031294A2BA69517940794202531254A2776
:103EF00058F7660F771F881F20F0261737074807E7
:103F000030F4620B730B840B200D311D411DA09505
:103F100081F7B901842F9158880F96958795089558
:103F20009B01AC01A8C29F3F31F0915020F48795CE
:103F300077956795B795880F911D9695879597F911
:103F4000089591505040660F771F881FD2F708954B
:103F5000CF93DF938230910510F482E090E0E091FE
:103F6000F706F091F80620E030E0C0E0D0E03097AE
:103F700011F14081518148175907C0F0481759077E
:103F800061F482819381209719F09B838A832BC0EF
:103F90009093F8068093F70626C02115310519F095
:103FA0004217530718F49A01BE01DF01EF010280A6
:103FB000F381E02DDCCF2115310509F1281B390BE8
:103FC0002430310590F412968D919C9113976115D0
:103FD000710521F0FB019383828304C09093F8065E
:103FE0008093F706FD01329644C0FD01E20FF31FF6
:103FF00081939193225031092D933C933AC02091A3
:10400000F5063091F606232B41F4209102023091FF
:1040100003023093F6062093F506209100023091BA
:1040200001022115310541F42DB73EB7409104023C
:1040300050910502241B350BE091F506F091F60630
:10404000E217F307A0F42E1B3F0B2817390778F06F
:10405000AC014E5F5F4F2417350748F04E0F5F1FCE
:104060005093F6064093F5068193919302C0E0E0E9
:10407000F0E0CF01DF91CF9108950F931F93CF937D
:10408000DF93009709F48CC0FC01329713821282EF
:104090000091F7061091F8060115110581F42081B1
:1040A0003181820F931F2091F5063091F606281773
:1040B000390779F5F093F606E093F50671C0D8015B
:1040C00040E050E0AE17BF0750F412962D913C919E
:1040D0001397AD012115310509F1D901F3CF9D01E8
:1040E000DA013383228360817181860F971F8217E3
:1040F000930769F4EC0128813981260F371F2E5F61
:104100003F4F318320838A819B8193838283452B18
:1041100029F4F093F806E093F70642C01396FC9357
:10412000EE931297ED01499159919E01240F351F8D
:10413000E217F30771F480819181840F951F029635
:1041400011969C938E938281938113969C938E9368
:104150001297E0E0F0E0D80112968D919C911397B0
:10416000009719F0F8018C01F6CF8D919C91980180
:104170002E5F3F4F820F931F2091F5063091F60678
:104180002817390769F4309729F41092F80610922D
:10419000F70602C0138212821093F6060093F5060A
:1041A000DF91CF911F910F9108956F927F928F921F
:1041B0009F92AF92BF92CF92DF92EF92FF920F93B6
:1041C0001F93CF93DF93EC01009781F4CB01DF9134
:1041D000CF911F910F91FF90EF90DF90CF90BF9004
:1041E000AF909F908F907F906F90B2CEFC01E60FC2
:1041F000F71F9C0122503109E217F30708F4A8C009
:10420000D9010D911C91119706171707A8F00530D9
:10421000110508F49BC0C80104978617970708F496
:1042200095C002501109061B170B019311936D9352
:104230007C93CF0122DF8AC05B01A01AB10A4C0136
:10424000800E911EA091F706B091F80640E050E074
:10425000E12CF12C109709F44AC0A815B905D1F545
:104260006D907C901197630182E0C80ED11CCA1436
:10427000DB0480F1A3014A195B096A0182E0C80EE0
:10428000D11C1296BC9012971396AC91B5E0CB1648
:10429000D10440F0B282A38351834083D9016D934E
:1042A0007C930AC00E5F1F4FC301800F911FF9015D
:1042B00091838083EB2DFA2FE114F10431F0D701C3
:1042C0001396FC93EE93129741C0F093F806E09397
:1042D000F7063CC08D919C9111974817590708F437
:1042E000AC017D0112960D90BC91A02DB3CF8091B1
:1042F000F5069091F60688159905E1F446175707DB
:10430000C8F48091000290910102009741F48DB7AA
:104310009EB74091040250910502841B950BE8174B
:10432000F907B0F4F093F606E093F506F90171830E
:1043300060830CC0CB010CDE7C01009749F0A80122
:10434000BE0128D0CE0199DEC70104C0CE0102C053
:1043500080E090E0DF91CF911F910F91FF90EF905F
:10436000DF90CF90BF90AF909F908F907F906F9095
:10437000089581E090E0F8944BC1FB01DC0104C09A
:104380008D910190801921F441505040C8F7881B4D
:10439000990B0895FB01DC0102C001900D92415080
:1043A0005040D8F70895FB01DC0101900D920020E8
:1043B000E1F70895E89409C097FB3EF49095809545
:1043C000709561957F4F8F4F9F4F9923A9F0F92FDB
:1043D00096E9BB279395F695879577956795B79559
:1043E000F111F8CFFAF4BB0F11F460FF1BC06F5F3F
:1043F0007F4F8F4F9F4F16C0882311F096E911C051
:10440000772321F09EE8872F762F05C0662371F071
:1044100096E8862F70E060E02AF09A95660F771F85
:10442000881FDAF7880F9695879597F90895990F61
:104430000008550FAA0BE0E8FEEF16161706E8076E
:10444000F907C0F012161306E407F50798F0621B8F
:10445000730B840B950B39F40A2661F0232B242B64
:10446000252B21F408950A2609F4A140A6958FEF83
:10447000811D811D08950BD078C069D028F06ED0C1
:1044800018F0952309F05AC05FC01124A2C07ED055
:10449000A0F3959FD1F3950F50E0551F629FF00157
:1044A000729FBB27F00DB11D639FAA27F00DB11DB0
:1044B000AA1F649F6627B00DA11D661F829F222739
:1044C000B00DA11D621F739FB00DA11D621F839FC0
:1044D000A00D611D221F749F3327A00D611D231F96
:1044E000849F600D211D822F762F6A2F11249F57E4
:1044F00050408AF0E1F088234AF0EE0FFF1FBB1F07
:10450000661F771F881F91505040A9F79E3F5105A5
:1045100070F014C05EC05F3FECF3983EDCF386950C
:1045200077956795B795F795E7959F5FC1F7FE2B50
:10453000880F911D9695879597F9089597F99F672C
:1045400080E870E060E008959FEF80EC089500241B
:104550000A941616170618060906089500240A94E8
:1045600012161306140605060895092E0394000C6E
:1045700011F4882352F0BB0F40F4BF2B11F460FFFD
:1045800004C06F5F7F4F8F4F9F4F089557FD905826
:10459000440F551F59F05F3F71F04795880F97FB07
:1045A000991F61F09F3F79F08795089512161306C1
:1045B0001406551FF2CF4695F1DF08C016161706F0
:1045C0001806991FF1CF8695710561050894089525
:1045D000E894BB2766277727CB0197F9089509D080
:1045E000A59F900DB49F900DA49F800D911D112447
:1045F0000895A29FB001B39FC001A39F700D811DBC
:104600001124911DB29F700D811D1124911D0895DB
:04461000F894FFCF4C
:104614000000F9068000E803000000000706400FD0
:10462400C805A605BA054D06000000002E07FF06C2
:10463400A106EB06DC06DB060A0A0A5374617274EF
:10464400696E67207570004D5055207374617274E3
:104654006564207570207375636365737366756C28
:104664006C79004D5055206661696C656420746FE7
:104674002073746172742075700057616974696E77
:104684006720666F72206779726F73636F7065203D
:104694006D6561737572656D656E747320746F20DA
:1046A40073746162696C697A652E2E2E004D5055C3
:1046B40020646964206E6F7420696E697469616C2A
:1046C400697A652070726F7065726C790044726FDC
:1046D4006E65206973207265616479210053746189
:1046E40072747570206661696C6564005049442079
:1046F400636F6E74726F6C6C65727320646973613E
:10470400626C65640050494420636F6E74726F6C10
:104714006C657273207265656E61626C65640044D9
:10472400726F6E65206E6F74207265616479000D1E
:104734000A00546865204D50552773204649464F5A
:1047440020686173206F766572666C6F776564208C
:10475400616E64206265656E207265736574000025
:00000001FF
