:100000005AC5000089C5000087C5000085C50000ED
:1000100083C5000081C500007FC500007DC50000CC
:100020007BC5000079C5000077C5000075C50000DC
:1000300073C5000071C500006FC500006DC50000EC
:100040006BC5000069C5000067C5000065C50000FC
:1000500063C5000061C500005FC500000C9439094C
:100060005BC50000F7C70000CCC7000055C5000005
:1000700053C5000051C500004FC500004DC500002C
:100080004BC5000049C5000047C5000045C500003C
:100090008FC7000064C700003FC500000C944A0BE6
:1000A0003BC5000039C5000037C5000035C500005C
:1000B00033C5000031C500002FC500000C944E0D63
:1000C0002BC5000029C5000027C5000025C500007C
:1000D00023C5000021C500001FC500001DC500008C
:1000E0001BC5000082088508740878087C08BC08D5
:1000F00089088D08930897089B08A108A508A908F6
:10010000BC08AF08B308B708084AD73B3BCE016E1E
:1001100084BCBFFDC12F3D6C74319ABD56833DDA5E
:100120003D00C77F11BED9E4BB4C3E916BAAAABE6D
:10013000000000803F0000002200250028002B0066
:100140002E003100340002010000050108010B01FE
:1001500000002100240027002A002D003000330079
:1001600001010000040107010A0105050505070555
:1001700008080808020202020A0A08080404040423
:10018000010101010101010103030303030303034F
:10019000040707070C0C0C0C0C0C0C0C02020202DE
:1001A00006060606060606060B0B0B0B0B0B0B0BC7
:1001B0000102102020080810204010204080020179
:1001C000020108040201010204081020408080405E
:1001D000201008040201800402018040201008045D
:1001E00002010804020101020408102040800102FB
:1001F00004081020408001B202FFFF01900409238F
:10020000A135016A0206000160080000000000003C
:100210000000006004400000000162020000006075
:100220000400400000037B034CCD6C03AB03365647
:100230007600680402CB47A202180400058BC101B6
:100240000C0400000000037F060CC92C979797034D
:100250008903264666006C0220000240040000006C
:1002600000024404000000000248040000000002F4
:100270004C0400000000025004000000000254047E
:100280000000000002580400000000025C040000AE
:10029000000002BC040000000001EC04000040006B
:1002A000037F060CC92C9797970402030D355D0454
:1002B0000904872D353D00A30100000000010786D9
:1002C00001FE074105F120283038077E013007463E
:1002D000019A074704F1283038076C04F1283038B8
:1002E0000216020001FB00003E000B003600010078
:1002F000020003000000650054FFEF0000FA8000D8
:100300000B1282000100020000000000000000004B
:10031000000000000000280000FFFF4581FFFFFAF9
:100320007200000000000003E80000000100017FEF
:10033000FFFFFE8001001B00000000000000000025
:100340000000000000003E03304000000002CAE34D
:10035000093E800000200000000000000040000076
:10036000006000000041FF000000000B2A000016A2
:100370005500002182FD872650FD800000001F00EF
:1003800000000580000000000000010000000200E5
:100390000000030000400000000000046F00026540
:1003A0003200005EC04000000000000000000000BD
:1003B0000000000000FB8C6F5DFD5D08D9007C73C0
:1003C0003B006C12CC3200139D3200D0D6320008B4
:1003D00000400001F4FFE68079020000000000D038
:1003E000D600002710FB00000040000000000000C5
:1003F00000000000000000000100000000000001FB
:1004000000010000000000FA36FFBC308E0005FB42
:10041000F0FFD95BC8FFD09ABE000010A9FFF41E00
:10042000B200CEBBF7000000010000000400020093
:10043000020200000CFFC280000001800000CF809B
:100440000040000000000000010000000000000665
:100450000000000014000000000000000000000088
:10046000000000000000000000000000000000008C
:10047000000000000000000000000000000000007C
:10048000000000000000000000033F68B679352836
:10049000BCC67ED16C80000000400000000000B2AD
:1004A0006A00000000000000000000000000003FA3
:1004B000F00000003000000000000000000000001C
:1004C000000000000000000000000000000000002C
:1004D00000000000000000254D002F706D00000599
:1004E000AE000C02D00000000000650054FFEF00D9
:1004F0000000000000000001000044000000000CAB
:100500000000000100000000000065000000540031
:1005100000FFEF00000000000000000000000000ED
:10052000000000000040000000000000000000008B
:10053000000000000040000000000000000000007B
:1005400000000000000000000100000002000000A8
:10055000000000000000000000000000000000009B
:10056000000000000000000000000000000000008B
:100570000000000000001B00000000000000000060
:10058000000000000000000000000000000000006B
:10059000000000000000000000000000000000005B
:1005A0000040000000001B000000000000000000F0
:1005B000000000000000000000000000000000003B
:1005C000000000000000000000000000000000002B
:1005D000000000000000000000000000000000001B
:1005E0000000000000D8DCBAA2F1DEB2B8B4A881E5
:1005F00091F74A907F916AF3F9DBA8F9B0BAA0802D
:10060000F2CE81F3C2F1C1F2C3F3CCA2B280F1C643
:10061000D880BAA7DFDFDFF2A7C3CBC5B6F087A2C9
:10062000942448703C95406834589B78A2F183929A
:100630002D557DD8B1B4B8A1D09180F270F370F28D
:100640007C80A8F101B09887D943D886C988BAA11F
:10065000F20EB89780F1A9DFDFDFAADFDFDFF2AAB1
:10066000C5CDC7A90CC92C97979797F1A98926469C
:1006700066B0B4BA80ACDEF2CAF1B28C02A9B69808
:1006800000890E161EB8A9B4992C547CB08AA8967D
:10069000365676F1B9AFB4B083C0B8A89711B18F10
:1006A00098B9AFF0240844106418F1A329557DAF20
:1006B00083B593AFF0002850F1A3869F61A6DADEE0
:1006C000DFD9FAA38696DB31A6D9F8DFBAA68FC2A6
:1006D000C5C7B28CC1B8A2DFDFDFA3DFDFDFD8D8A8
:1006E000F1B8A8B286B4980D355DB8AA98B0872D38
:1006F000353DB2B6BAAF8C96198F9FA70E161EB4B1
:100700009AB8AA872C547CB9A3DEDFDFA3B180F2AC
:10071000C4CDC9F1B8A9B499830D355D89B9A32DAC
:10072000557DB593A30E161EA92C547CB8B4B0F118
:100730009783A81184A50998A383F0DA24084410AC
:100740006418D8F1A529557DA58595021A2E3A562B
:100750005A4048F9F3A3D9F8F09883240844106468
:10076000189782A8F111F098A2240844106418DAAE
:10077000F3DED883A59401D9A302F1A2C3C5C7D8DB
:10078000F18492A24DDA2AD84869D92AD86855DA74
:1007900032D85071D932D8705DDA3AD85879D93A0E
:1007A000D87893A34DDA2AD84869D92AD86855DA77
:1007B00032D85071D932D8705DDA3AD85879D93AEE
:1007C000D878A88A9AF02850789EF38818F19F1D4F
:1007D00098A8D908D8C89F129EF315A8DA1210D885
:1007E000F1AFC8978734B5B994A421F3D922D8F2D0
:1007F0002DF3D92AD8F235F3D932D881A4606061BB
:10080000D961D86C6869D969D8747071D971D8B157
:10081000A384193D5DA3831A3E5E931030811011AD
:10082000B8B0AF8F94F2DA3ED8B49AA88729DAF834
:10083000D8879A35DAF8D8879A3DDAF8D8B1B9A4CA
:100840009885022E56A581000C14A397B08AF12D2D
:10085000D928D84DD948D86DD968D8B1840DDA0EC9
:10086000D8A32983DA2C0ED8A3844983DA2C4C0E22
:10087000D8B8B0A88A9AF520AADADFD8A840AAD0BA
:10088000DADED8A860AADAD0DFD8F19786A8319B43
:10089000069907AB9728889BF00C201440B8B0B499
:1008A000A88C9CF0042851791D301438B282ABD04A
:1008B000982C505078789BF11AB0F08A9CA8295156
:1008C000798B2951798A2470598B2058718A44690F
:1008D000388B3940688A6448318B304960A588205C
:1008E0000971584468113964493019F1AC002C542D
:1008F0007CF08CA804285078F1889726A85998ACE9
:100900008C02264666F0899CA829517924705944A6
:100910006938644831A98809205970AB1138406999
:10092000A8193148608CA83C415C207C00F1879874
:100930001986A86E767EA999882D557D9EB9A38AC1
:10094000228A6E8A568A5E9FB183062646660E2EDE
:100950004E6E9DB8AD002C547CF2B18CB499B9A305
:100960002D557D8191AC38AD3AB58391AC2DD92808
:10097000D84DD948D86DD968D88C9DAE29D904AE48
:10098000D851D904AED879D904D881F39DAD008D62
:10099000AE1981ADD901D8F2AEDA26D88E9129836D
:1009A000A7D9ADADADADF32AD8D8F1B0AC89913EA1
:1009B0005E76F3AC2E2EF1B18C5A9CAC2C282828F4
:1009C0009CAC3018A8988128343C9724A728343C44
:1009D0009C24F2B089AC912C4C6C8A9B2DD9D8D830
:1009E00051D9D8D879D9D8D8F19E88A331DAD8D8B6
:1009F000912DD928D84DD948D86DD968D8B18393CD
:100A0000353D8025DAD8D88569DAD8D8B49381A362
:100A100028343CF3AB8BF8A391B609B4D9ABDEFA1A
:100A2000B0879CB9A3DDF1A3A3A3A395F1A3A3A3CE
:100A30009DF1A3A3A3A3F2A3B49080F2A3A3A3A3C5
:100A4000A3A3A3A3A3A3B2A3A3A3A3A3A3B087B564
:100A500099F1A3A3A398F1A3A3A3A397A3A3A3A3EB
:100A6000F39BA3A3DCB9A7F1262626D8D8FF000064
:100A70000A0B02090C0D0E08070304010000000018
:100A80000000000000000000000000000000000066
:100A90000000000000000000000012111000000023
:100AA0000000000000000000000000000000000046
:100AB00000000000B61B11241FBECFEFD1E2DEBF45
:100AC000CDBF00E00CBF12E0A0E0B2E0EAE3F5E445
:100AD00000E00BBF02C007900D92A43DB107D9F70B
:100AE00026E0A4EDB2E001C01D92AD37B207E1F7F8
:100AF00015E0CBE5D5E000E006C021970109802F85
:100B0000FE010E94491DCA35D10780E00807A9F7F8
:100B10000E94B3130C949B2273CAFC01A089B18973
:100B20008C91A689B78982FD0FC09C91818D8F5FC2
:100B30008F73228D821749F0218DDF01A20FB11D25
:100B40005D969C93818F08958C910895FC01918D01
:100B5000828D981761F0828DDF01A80FB11D5D961F
:100B60008C91928D9F5F9F73928F90E008958FEF8D
:100B70009FEF0895FC01918D828D981731F0828D41
:100B8000E80FF11D858D90E008958FEF9FEF089598
:100B9000FC01918D228D892F90E0805C9F4F821BFC
:100BA00091098F73992708958EE993E0F1DF21E091
:100BB000892B09F420E0822F08958BE394E0E8DF8D
:100BC00021E0892B09F420E0822F0895FC01848D17
:100BD000DF01A80FB11DA35ABF4F2C91848D90E067
:100BE00001968F739927848FA689B7892C93A08942
:100BF000B1898C9180648C93938D848D981306C0F9
:100C00000288F389E02D80818F7D80830895EF92A3
:100C1000FF920F931F93CF93DF93EC0181E0888FB6
:100C20009B8D8C8D981305C0E889F989808185FD9D
:100C300023C0F62E0B8D10E00F5F1F4F0F7311278F
:100C4000E02E8C8DE8120BC00FB607FCFACFE889B6
:100C5000F989808185FFF5CFCE01B8DFF2CF8B8D8A
:100C6000FE01E80FF11DE35AFF4FF0820B8FEA8976
:100C7000FB898081806207C0EE89FF896083E889F3
:100C8000F98980818064808381E090E0DF91CF9159
:100C90001F910F91FF90EF900895CF93DF93EC0198
:100CA000888D8823C1F0EA89FB89808185FD05C094
:100CB000A889B9898C9186FD0EC00FB607FCF5CFC7
:100CC000808185FFF2CFA889B9898C9185FFEDCF0E
:100CD000CE017CDFE8CFDF91CF91089580E090E0F6
:100CE000892B19F06ADF811120C080E090E0892B08
:100CF00019F05ADF81111CC080E090E0892B41F08F
:100D000080E090E0892B21F00E940000811113C047
:100D100080E090E0892BA1F080E090E0892B81F0C9
:100D20000E94000081110AC008950E940000DDCFDA
:100D30000E940000E1CF0E940000EACF0C94000066
:100D400008958091D40290E02091D502821B9109F0
:100D5000089585ED8093BC008091BC0084FDFCCF9C
:100D60001092790308954091FD02262F30E0240F60
:100D7000311D21323105DCF4209179032430C9F48E
:100D8000FC0180E090E0861758F43091FD0221913B
:100D9000DC01A552BD4FA30FB11D2C930196F3CFDB
:100DA0008091FD02680F6093FD0280E0089581E06C
:100DB000089582E008950895E091D5028091D402CB
:100DC000E81730F4F0E0EE5DFC4F808190E008958C
:100DD0008FEF9FEF08959091D5028091D4029817DC
:100DE00050F4E92FF0E0EE5DFC4F208130E09F5F92
:100DF0009093D50202C02FEF3FEFC9010895CF9223
:100E0000DF92EF92FF920F931F93CF93DF937C01BA
:100E1000262F972F8A0180917A03882391F0C62F7D
:100E2000D72F6E01C40ED51ECC15DD0569F0699172
:100E3000D701ED91FC910190F081E02DC70119954A
:100E4000F3CF642F822F8FDFC801DF91CF911F91E5
:100E50000F91FF90EF90DF90CF900895CF93DF93A5
:100E60001F92CDB7DEB7698320917A032223D1F098
:100E700020919D03203240F021E030E0FC013383DB
:100E8000228380E090E014C080917B03E82FF0E0A3
:100E9000E458FC4F998190838F5F80937B0380930C
:100EA0009D0304C061E0CE0101965DDF81E090E02A
:100EB0000F90DF91CF9108954F925F926F927F9242
:100EC0008F929F92AF92BF92CF92DF92EF92FF925A
:100ED0006B017C014B015C01E894B7F828ED3FE021
:100EE00049E45FE30E94CE212B013C0120E030E089
:100EF00040E85FE3C501B4010E94511D9B01AC01B4
:100F0000C701B6010E94CE216B017C012BE438ECB5
:100F100047E85DE3C501B4010E94CE2123EA32E92E
:100F20004AE75EE30E94521D9B01AC01C701B60176
:100F30000E94CE219B01AC01C301B2010E94511D50
:100F4000FF90EF90DF90CF90BF90AF909F908F90E9
:100F50007F906F905F904F9008950E944C211F9258
:100F60000F920FB60F9211240BB60F922F933F934F
:100F70004F935F936F937F938F939F93AF93BF93A1
:100F8000EF93FF938EE993E021DEFF91EF91BF9104
:100F9000AF919F918F917F916F915F914F913F9111
:100FA0002F910F900BBE0F900FBE0F901F901895B2
:100FB0001F920F920FB60F9211240BB60F922F9320
:100FC0003F934F935F936F937F938F939F93AF93D1
:100FD000BF93EF93FF938EE993E09FDDFF91EF9135
:100FE000BF91AF919F918F917F916F915F914F9141
:100FF0003F912F910F900BBE0F900FBE0F901F903F
:1010000018951F920F920FB60F9211240BB60F92E4
:101010002F933F934F935F936F937F938F939F9300
:10102000AF93BF93EF93FF938BE394E0CFDDFF91FA
:10103000EF91BF91AF919F918F917F916F915F9150
:101040004F913F912F910F900BBE0F900FBE0F90BD
:101050001F9018951F920F920FB60F9211240BB686
:101060000F922F933F934F935F936F937F938F9341
:101070009F93AF93BF93EF93FF938BE394E04DDD8A
:10108000FF91EF91BF91AF919F918F917F916F9160
:101090005F914F913F912F910F900BBE0F900FBE1C
:1010A0000F901F901895362F90E0FC01E259F54FF4
:1010B0004491FC01E055FE4F2491FC01E659FE4F9E
:1010C0009491992309F46BC0442309F455C050E06E
:1010D000FA013197E231F10508F04EC08827EE5849
:1010E000FF4F8F4F0C94491D809180008F7707C070
:1010F000809180008F7D03C080918000877F8093E6
:1011000080003AC084B58F7702C084B58F7D84BDDE
:1011100033C08091B0008F7703C08091B0008F7D85
:101120008093B00029C0809190008F7707C0809194
:1011300090008F7D03C080919000877F8093900006
:101140001BC08091A0008F7707C08091A0008F7D89
:1011500003C08091A000877F8093A0000DC0809184
:1011600020018F7707C0809120018F7D03C080917F
:101170002001877F80932001E92FF0E0EE0FFF1F11
:10118000EA5CFE4FA591B4918FB7F894EC913111C0
:1011900003C020952E2301C02E2B2C938FBF0895C2
:1011A0003FB7F8948091470390914803A091490379
:1011B000B0914A0326B5A89B05C02F3F19F00196B0
:1011C000A11DB11D3FBFBA2FA92F982F8827820FCD
:1011D000911DA11DB11DBC01CD0142E0660F771F1D
:1011E000881F991F4A95D1F708958F929F92AF92C9
:1011F000BF92CF92DF92EF92FF926B017C01D0DF22
:101200004B015C01C114D104E104F104E9F0C8DF31
:10121000DC01CB0188199909AA09BB09883E9340D2
:10122000A105B10578F321E0C21AD108E108F1085F
:1012300088EE880E83E0981EA11CB11CC114D10455
:10124000E104F10421F7DECFFF90EF90DF90CF9023
:10125000BF90AF909F908F9008952FB7F8946091B2
:1012600043037091440380914503909146032FBF3F
:1012700008951F920F920FB60F9211242F933F9350
:101280008F939F93AF93BF938091430390914403B7
:10129000A0914503B09146033091420323E0230F10
:1012A0002D3720F40196A11DB11D05C026E8230F9E
:1012B0000296A11DB11D2093420380934303909396
:1012C0004403A0934503B093460380914703909154
:1012D0004803A0914903B0914A030196A11DB11D95
:1012E0008093470390934803A0934903B0934A0324
:1012F000BF91AF919F918F913F912F910F900FBE12
:101300000F901F901895EF92FF920F931F93CF931A
:10131000DF931F921F92CDB7DEB7142F91E0909309
:101320007A0380939C0310927B0310929D0388EDB7
:1013300094E029833A8392DD2981022FE22E3A81BB
:10134000F32E8E2D801B811738F4F70161917F01F8
:1013500088ED94E083DDF5CF8FD491E0811190E0AA
:10136000892F0F900F90DF91CF911F910F91FF90D8
:10137000EF900895CF93DF931F92CDB7DEB74983E7
:101380009E012F5F3F4F41E0BEDF0F90DF91CF9175
:1013900008952F923F924F925F926F927F928F9219
:1013A0009F92AF92BF92CF92DF92EF92FF920F93F4
:1013B0001F93CF93DF93CDB7DEB727970FB6F8947F
:1013C000DEBF0FBECDBFE82E6B834F83690145DFC3
:1013D0004B015C016E2C660CF12C1E8277247394F9
:1013E0005F81452F50E05D834C831801412C512CC7
:1013F0004F81F41608F095C070927A03E0929C0336
:1014000010927B0310929D036B8188ED94E026DDA2
:1014100033D470927A03E0929C0310927B03109273
:101420009D03809179038111FCCF2C813D812F197F
:1014300031092132310514F020E230E0213208F088
:1014400020E270927903709278038FEF8093770394
:1014500010927603820F80937503709254038091EB
:10146000540386298093540380915303813071F48F
:1014700010925303809154038093BB008091BC0071
:1014800083FDF8CF95EC9093BC0003C0E5EEE093AC
:10149000BC00809179038130E1F38091760382175B
:1014A00010F420917603A5E5B3E0E2E2F3E08E2F9D
:1014B00042E253E0841B821718F48D918193F7CF99
:1014C0001092D5022093D4029091D4028091D5023B
:1014D000981709F10115110591F4A6012E81420F0B
:1014E000511D27FD5A955A83498388ED94E073DC9A
:1014F000E981FA8180832E812F5F2E83E5CFADDED7
:10150000DC01CB0188199909AA09BB098215930549
:10151000A405B50510F38F81813208F080E2F80E42
:1015200067CFFE8001151105D1F097DEDC01CB01FC
:1015300088199909AA09BB0920E030E080179107B2
:10154000A207B30760F05F81252F30E08F2D0F2CAD
:10155000000C990B8217930714F4FF24FA948F2D33
:1015600027960FB6F894DEBF0FBECDBFDF91CF91A7
:101570001F910F91FF90EF90DF90CF90BF90AF90B1
:101580009F908F907F906F905F904F903F902F90A3
:101590000895BF92CF92DF92EF92FF920F931F9325
:1015A000CF93DF931F92CDB7DEB7F82EE62EC42E71
:1015B000B22ED02E08EE13E09E012F5F3F4F41E088
:1015C000E8DE882319F1EC2DF0E0EB19F1093196F2
:1015D00021E030E002C0220F331FBA94E2F721501D
:1015E00031090E2E01C0220F0A94EAF78D2D01C099
:1015F000880FEA95EAF7422F4095998149232823DD
:10160000422B49836E2D8F2DB5DE01C080E00F90F7
:10161000DF91CF911F910F91FF90EF90DF90CF90CE
:10162000BF900895CF92DF92EF92FF920F931F9396
:10163000CF93DF931F92CDB7DEB7F82EE62ED42ED0
:10164000C22E08EE13E09E012F5F3F4F41E0A1DE66
:101650009981CC2041F041E050E001C0440FDA9480
:10166000EAF7492B09C021E030E0A90101C0440F8D
:10167000DA94EAF74095492349836E2D8F2D7ADE5F
:101680000F90DF91CF911F910F91FF90EF90DF901E
:10169000CF9008951F920F920FB60F9211240BB6A0
:1016A0000F922F933F934F935F936F937F938F93FB
:1016B0009F93AF93BF93EF93FF938091B900887F7F
:1016C000803609F49CC068F5883209F45BC090F458
:1016D000803109F454C038F4882309F4F6C0883006
:1016E00009F44DC0F5C0883109F44CC0803209F4CA
:1016F0005DC0EEC0803409F468C048F4803309F45A
:1017000055C0883309F0E4C080937703D8C0803592
:1017100009F44FC0883509F45DC0883409F0D8C099
:10172000D6C0883909F4C7C0A8F4883709F467C05F
:1017300038F4883609F463C0803709F460C0C8C043
:10174000883809F4B8C0803909F45FC0803809F0DE
:10175000BFC05BC0803B09F486C038F4803A09F40E
:1017600066C0883A09F47FC0B3C0803C09F4A7C0C2
:10177000883C09F4A4C0883B09F48AC0A9C08091C0
:10178000540310C09091760380917503981770F5FB
:10179000E091760381E08E0F80937603F0E0EB5AC0
:1017A000FC4F80818093BB0085EC86C080937703DB
:1017B0008EC0E091760381E08E0F80937603809156
:1017C000BB00F0E0EB5AFC4F808390917603809150
:1017D00075036EC0E091760381E08E0F80937603EF
:1017E0008091BB00F0E0EB5AFC4F8083809178033E
:1017F00081116DC081E08093530384EA61C083E06E
:101800008093790310922103CFCF809121038032FE
:1018100008F051C0E091210381E08E0F80932103F5
:101820008091BB00F0E0EF5FFC4F8083BDCF85EC83
:101830008093BC001092790380912103803230F4B0
:10184000E0912103F0E0EF5FFC4F108260912103F3
:1018500070E0E091FF02F091000381E093E01995C0
:101860001092210335C084E0809379031092FE0228
:101870001092FD02E091FB02F091FC02199580911B
:10188000FD02811105C081E08093FD021092DB0210
:10189000E091FE0281E08E0F8093FE02F0E0E552BF
:1018A000FD4F80818093BB009091FE028091FD02EC
:1018B000981708F479CF85E88093BC0009C085ECBF
:1018C0008093BC001092790303C01092770341DA31
:1018D000FF91EF91BF91AF919F918F917F916F9108
:1018E0005F914F913F912F910F900BBE0F900FBEC4
:1018F0000F901F90189561E08EE993E088C94F9290
:101900005F926F927F928F929F92AF92BF92CF928F
:10191000DF92EF92FF92CF93DF93EC0148A359A39C
:101920006AA37BA388899989AA89BB898C8B9D8BA3
:10193000AE8BBF8B9A01AB016C857D858E859F85B3
:101940000E94511D688B798B8A8B9B8B86DC28A526
:1019500039A5621B730B7DA76CA77FDC68A779A7ED
:101960008AA79BA7C888D988EA88FB886CA57DA52B
:1019700080E090E00E946D214B015C019B01AC0175
:10198000C701B6010E94CE2120E030E04AE754E4CE
:101990000E94181E288D398D4A8D5B8D0E94521D24
:1019A0002B013C01688F798F8A8F9B8F2C893D8911
:1019B0004E895F89C701B6010E94511DA50194019E
:1019C0000E94181E4B015C016C8F7D8F8E8F9F8F44
:1019D000288139814A815B81C701B6010E94CE21ED
:1019E0006B017C012C813D814E815F81C301B2017D
:1019F0000E94CE219B01AC01C701B6010E94521D7D
:101A00006B017C01288539854A855B85C501B40158
:101A10000E94CE219B01AC01C701B6010E94521D5C
:101A20006CA37DA38EA39FA3DF91CF91FF90EF9036
:101A3000DF90CF90BF90AF909F908F907F906F90EE
:101A40005F904F900895CF92DF92EF92FF926B01DB
:101A50007C0120E030E040E85FE30E94D61E1816CB
:101A6000B4F4A701960160E070E080E89FE30E9473
:101A7000181E22DA9B01AC016AED7FE089EC9FE33E
:101A80000E94511DFF90EF90DF90CF900895C70105
:101A9000B601FF90EF90DF90CF900ECA1F920F9289
:101AA0000FB60F9211240BB60F922F933F934F93C3
:101AB0006F937F938F939F93EF93FF9382B1807F78
:101AC00082B98091DA0290E0019683709927809321
:101AD000DA02FC01EE0FFF1FE55BFC4F2081318134
:101AE000309329012093280142B121E030E0B9016F
:101AF00002C0660F771F8A95E2F7CB01842B82B96B
:101B0000FF91EF919F918F917F916F914F913F91B5
:101B10002F910F900BBE0F900FBE0F901F90189536
:101B20000F931F93CF93DF93EC01FC01EE0FFF1F88
:101B3000EE0FFF1FEC51FB4F2091F4043091F504A0
:101B40004091F6045091F704608171818281938104
:101B50000E94521D20E034E740E656E40E94CE2168
:101B60000E94851E8B01035E1A4BB80180E090E055
:101B70000E946D212DEC3CE548EC56E40E94D61EF7
:101B80009E01220F331F181634F0F901E55BFC4F5C
:101B90001183008307C08EE294E6F901E55BFC4FF8
:101BA00091838083F901E55BFC4F808191818D31C8
:101BB000954420F48DE195E491838083DF91CF916A
:101BC0001F910F910895CF92DF92EF92FF920F93A2
:101BD0001F93CF93DF938C01CB01BA01E801CC0FA7
:101BE000DD1FCC0FDD1FCC51DB4F288139814A81AD
:101BF0005B810E94521D6B017C012DEC3CEC4CE49E
:101C00005EE30E94D61E18162CF0C882D982EA82A2
:101C1000FB8208C08DEC9CECACE4BEE38883998326
:101C2000AA83BB83C801DF91CF911F910F91FF90D1
:101C3000EF90DF90CF9074CFCF93DF93009771F048
:101C4000FC0101900020E9F73197AF01481B590BC7
:101C5000BC018EE993E05CD5EC0102C0C0E0D0E0AD
:101C600042E050E064EA72E08EE993E051D58C0FD7
:101C70009D1FDF91CF91089520919D0390919C032A
:101C8000213208F04AC0809179038111FCCF32E003
:101C90003093790331E0309378033FEF309377034B
:101CA0001092760320937503ACE7B3E045E553E06B
:101CB000FA013E2F341B321718F43D913193F9CFBE
:101CC0001092540320915403990F922B9093540334
:101CD00090915303913061F4109253039091540307
:101CE0009093BB009091BC0093FDF8CF95EC01C0A0
:101CF00095EE9093BC00909179039230E1F390912E
:101D000077039F3F79F080917703803241F0809193
:101D10007703803331F084E005C081E003C082E0C6
:101D200001C083E010927B0310929D0310927A030E
:101D300008950F931F93CF93DF93C4EED4E008EE82
:101D400013E024E035E042E062E78F8D22DB88A1DA
:101D500090E0982F882729A1822BDF91CF911F91A6
:101D60000F91089521E042E06AE6809103055ACC84
:101D70000F931F93462F05E010E09C0164E78091CC
:101D8000030507DB1F910F910895482F6EE68091A0
:101D90000305F0CA2F923F924F925F926F927F920B
:101DA0008F929F92AF92BF92CF92DF92EF92FF926B
:101DB0000F931F93CF93DF933C015B01342EC22F0F
:101DC000202E4F716DE680910305D4DA8C2FDDDF74
:101DD00080E190E00E943B1F6C01002331F080E124
:101DE00090E00E943B1F582E492EE12CF12CEA1462
:101DF000FB0408F067C0C7014096A816B90618F49E
:101E0000DA2DDE1901C0D0E18D2F90E020E031E025
:101E10002C1B31092817390714F4DC2FD195F30155
:101E2000EE0DFF1D222059F0952DA52DB42D8A2FE2
:101E3000891B8D1730F484918D933196F8CF5E2EE7
:101E40004F2E252D342D4D2F6FE6809103055BDA43
:101E50008D2E912CC114D10411F1432D4F716DE6DB
:101E60008091030587DA8C2F90DF08EE13E096014E
:101E70004D2F6FE6809103058CDAA401B601852D04
:101E8000942D0E945021892B51F0C6010E94D01F31
:101E9000222011F1852D942D0E94D01F1DC0E80C29
:101EA000F91CCD0FEA14FB0408F0A1CFC11101C049
:101EB0003394432D4F716DE6809103055BDA8C2FCF
:101EC00064DF95CFC6010E94D01F222039F0852DF6
:101ED000942D0E94D01F02C080E001C081E0DF91FC
:101EE000CF911F910F91FF90EF90DF90CF90BF9017
:101EF000AF909F908F907F906F905F904F903F90AA
:101F00002F900895EF92FF920F931F93CF93DF933B
:101F10001F92CDB7DEB77A0189019E012F5F3F4F37
:101F200041E037DA882339F029812E7730E0359582
:101F30002795F70120830F90DF91CF911F910F918B
:101F4000FF90EF900895CF93DF93C4EED4E0188212
:101F500019821A821B8280E090E0E2DD1C821D82E1
:101F60001E821F8281E090E0DBDD188619861A86CA
:101F70001B8682E090E0D4DD1C861D861E861F86AF
:101F800083E090E0DF91CF91CBCD80E090E0C8DDA1
:101F900081E090E0C5DD82E090E0C2DD83E090E08A
:101FA000BFCD4F925F926F927F92AF92BF92CF92CE
:101FB000DF92EF92FF920F931F93CF93DF935B011A
:101FC0006A01E90127013801B801A701FCDDB80168
:101FD000A701C501F8DD77FA709477F87094B30122
:101FE000A201C601F0DDB301A201CE01DF91CF91C4
:101FF0001F910F91FF90EF90DF90CF90BF90AF9027
:102000007F906F905F904F90DECD0F931F9325D9F7
:102010006093A6037093A7038093A8039093A903EA
:10202000E0919E03F0919F030084F185E02D8EE9FD
:1020300093E0199597FF1EC010D90091A603109147
:10204000A7032091A8033091A903DC01CB01801BD9
:10205000910BA20BB30B0091A2031091A30320914B
:10206000A4033091A50380179107A207B307C0F21C
:102070008FEF9FEF1F910F910895EF92FF920F93B3
:102080001F93CF93DF93EC01198218821B821A826F
:102090001D821C8261157105A9F17B01FB01019074
:1020A0000020E9F731978F01061B170BB8016F5F0E
:1020B0007F4F80E090E00E946820009759F099835C
:1020C00088831B830A832C813D81232B81F4FC01AF
:1020D00010820DC088819981009711F00E94D01F55
:1020E000198218821D821C821B821A820BC01D83DA
:1020F0000C83B701DF91CF911F910F91FF90EF906B
:102100000C946621DF91CF911F910F91FF90EF907A
:1021100008952F923F924F925F926F927F928F928B
:102120009F92AF92BF92CF92DF92EF92FF920F9366
:102130001F93CF93DF93CDB7DEB7A0970FB6F89478
:10214000DEBF0FBECDBF80911605882309F4C5C23E
:10215000F0DD90931C0580931B0580911B059091E9
:102160001C052091190530911A058217930780F3F9
:102170008115944091F4F6DD67EA72E0CE01019694
:102180007CDFBE016F5F7F4F89E1B5DB89819A817A
:102190000E94D01F82E090E0A2C260911905709168
:1021A0001A0580911B0590911C058617970740F131
:1021B0008DE195E0DDDD0E94D0082091FD04309195
:1021C000FE04621B730B70930205609301050E946D
:1021D000D0086093FD047093FE048093FF049093F5
:1021E000000580911B0590911C05209119053091E7
:1021F0001A05821B930B90931C0580931B05CDCF72
:102200008DE195E0892B29F4E0910305F091040517
:1022100002C0EDE1F5E0C480D12CDC2CCC2485811A
:10222000C80ED11CE084F12CFE2CEE248185E80E32
:10223000F11C048510E0102F00278585080F111D63
:10224000608170E0762F66278181680F711D072EEF
:10225000000C880B990B0E946F2120E030E040E8D1
:1022600058E30E94CE214B015C0160935D057093A1
:102270005E0580935F0590936005B601DD0C880BC9
:10228000990B0E946F2120E030E040E858E30E9463
:10229000CE212B013C016093610570936205809310
:1022A000630590936405B701FF0C880B990B0E949E
:1022B0006F2120E030E040E858E30E94CE216F8398
:1022C000788789879A876093650570936605809300
:1022D000670590936805B801110F880B990B0E9450
:1022E0006F2120E030E040E858E30E94CE216B8768
:1022F0007C878D879E876093690570936A058093BC
:102300006B0590936C059B01AC01C301B2010E9467
:10231000CE216B017C012F81388549855A85C50105
:10232000B4010E94CE219B01AC01C701B6010E94FD
:10233000511D9B01AC010E94521D6F87788B898BC8
:102340009A8B6093790570937A0580937B059093BF
:102350007C05A3019201C501B4010E94CE216B014D
:102360007C012B853C854D855E856F8178858985CF
:102370009A850E94CE219B01AC01C701B6010E9443
:10238000521D9B01AC010E94521D6B8B7C8B8D8B6F
:102390009E8B60937D0570937E0580937F0590935F
:1023A0008005A5019401C501B4010E94CE216B01F5
:1023B0007C01A3019201C301B2010E94CE219B01C5
:1023C000AC01C701B6010E94511D6B017C012F8138
:1023D000388549855A85CA01B9010E94CE219B01E1
:1023E000AC01C701B6010E94511D6B017C012B8518
:1023F0003C854D855E85CA01B9010E94CE219B01B5
:10240000AC01C701B6010E94521D6F8B788F898F76
:102410009A8F6093810570938205809383059093D2
:1024200084058DE195E0892B29F4E0910305F09175
:10243000040502C0EDE1F5E0648D70E0762F6627BB
:10244000858DDB01A80FB11DBC8FAB8FB0936E05DE
:10245000A0936D0520A0312C322C222481A1280EBE
:10246000311C3092700520926F0504A110E0102FEE
:10247000002785A1080F111D1093720500937105A7
:10248000A5019401C501B4010E94521D6B017C019C
:10249000A3019201C301B2010E94521D6D8F7E8F74
:1024A0008F8F98A3A5019401C701B6010E94CE2188
:1024B0004B015C01A30192016D8D7E8D8F8D98A1E2
:1024C0000E94CE219B01AC01C501B4010E94521DA6
:1024D00020E030E040E85FE30E94511D4B015C01C9
:1024E0002F81388549855A856D8D7E8D8F8D98A178
:1024F0000E94CE212B013C012B853C854D855E85BC
:10250000C701B6010E94CE219B01AC01C301B201FB
:102510000E94511DA50194010E94C51D6093AB0549
:102520007093AC058093AD059093AE052F89388DDF
:10253000498D5A8DCA01B9010E94CE216B017C01DF
:102540002B893C894D895E89CA01B9010E94CE213F
:10255000A70196010E94521D0E94E51E9B01AC013D
:102560006F85788989899A890E94181E6CDA609330
:10257000AF057093B0058093B1059093B2052F8598
:10258000388949895A89CA01B9010E94CE21A70117
:1025900096010E94521D0E94E51E9B01AC016B89B1
:1025A0007C898D899E890E94181E4DDA6093B3053F
:1025B0007093B4058093B5059093B6052B8D3C8D33
:1025C000B901330F880B990B0E946F216B017C01BD
:1025D00020E030E040E056E46F85788989899A8967
:1025E0000E94CE219B01AC01C701B6010E94511D82
:1025F0000E94801E4B015C0170937405609373050B
:10260000B101330C880B990B0E946F216B017C0187
:1026100020E030E040E056E46B897C898D899E891A
:102620000E94CE219B01AC01C701B6010E94511D41
:102630000E94801E6B017C01709376056093750586
:10264000B801110F880B990B0E946F212B013C01DF
:1026500020E030E040E056E46F89788D898D9A8DD6
:102660000E94CE219B01AC01C301B2010E94511D09
:102670000E94801E2B013C017093780560937705C2
:10268000B401990C880B990B0E946F2160939F05F0
:102690007093A0058093A1059093A205B601DD0C6F
:1026A000880B990B0E946F216093A3057093A4057A
:1026B0008093A5059093A605B201550C880B990B44
:1026C0000E946F216093A7057093A8058093A905C8
:1026D0009093AA0580E090E002C081E090E0A0968F
:1026E0000FB6F894DEBF0FBECDBFDF91CF911F9123
:1026F0000F91FF90EF90DF90CF90BF90AF909F90A1
:102700008F907F906F905F904F903F902F900895A3
:10271000CF92DF92EF92FF920F931F93CF93DF93AD
:102720006C017A018B01C0E0D0E0CE15DF0589F0A5
:10273000D8016D918D01D601ED91FC910190F08150
:10274000E02DC6011995892B11F47E0102C0219656
:10275000ECCFC701DF91CF911F910F91FF90EF90C8
:10276000DF90CF900895CF93DF93CDB7DEB7C459F4
:10277000D1090FB6F894DEBF0FBECDBF789484B5F3
:10278000826084BD84B5816084BD85B5826085BD6D
:1027900085B5816085BD80916E00816080936E00FB
:1027A00010928100809181008260809381008091ED
:1027B000810081608093810080918000816080939E
:1027C00080008091B10084608093B1008091B0005E
:1027D00081608093B000809191008260809391002D
:1027E0008091910081608093910080919000816040
:1027F000809390008091A10082608093A1008091DD
:10280000A10081608093A1008091A00081608093ED
:10281000A00080912101826080932101809121019B
:10282000816080932101809120018160809320014B
:1028300080917A00846080937A0080917A0082602F
:1028400080937A0080917A00816080937A008091F1
:102850007A00806880937A001092C100E0914B0466
:10286000F0914C0422E02083E0914704F091480469
:102870001082E0914904F0914A0480E18083109233
:102880005304E0914F04F091500496E09083E0915E
:102890004D04F0914E04808180618083E0914D046D
:1028A000F0914E04808188608083E0914D04F09126
:1028B0004E04808180688083E0914D04F0914E0445
:1028C00080818F7D8083E091AE03F091AF03208300
:1028D000E091AA03F091AB031082E091AC03F09178
:1028E000AD038FEC80831092B603E091B203F091B8
:1028F000B3039083E091B003F091B10380818061D4
:102900008083E091B003F091B1038081886080837F
:10291000E091B003F091B103808180688083E09101
:10292000B003F091B10380818F7D808385E090E0DA
:10293000A0E0B0E080933F0490934004A093410452
:10294000B09342048093A2039093A303A093A403A3
:10295000B093A503E3EBF1E02491EDE6F1E084917F
:10296000882399F090E0880F991FFC01E05BFE4FEF
:10297000A591B491FC01EA5CFE4F859194918FB7CB
:10298000F894EC91E22BEC938FBF88E292E054D95B
:1029900081B18F6081B91092200189E0809321017B
:1029A000809173008260809373001092F4041092FF
:1029B000F5041092F6041092F704C5DA81E08093D2
:1029C000E9051092D5021092D40210927B03109266
:1029D0009D0310927903809378031092530361E072
:1029E00084E10E94530861E085E10E9453088091D0
:1029F000B9008E7F8093B9008091B9008D7F80935C
:102A0000B90088E48093B80085E48093BC0088E135
:102A10008093B80001E023E042E06BE6809103057B
:102A20000E94C90A00E022E044E06BE180910305C6
:102A30000E94C90A22E044E06CE1809103050E94F3
:102A4000C90A20E046E06BE6809103050E94120B64
:102A500021E047E06BE6809103050E94120B6EE1D6
:102A600070E080E090E00E94F50820E046E06BE630
:102A7000809103050E94120B40E76DE680910305EB
:102A80000E94BA0986E081D908EE13E024E035E01F
:102A900041E06FE6809103050E94C90940E06DE6C0
:102AA000809103050E94BA099E012F5F3F4F41E0CC
:102AB00060E0809103050E94C9098981817080933B
:102AC000040528EE33E044E055E060E08091030522
:102AD00019DA7090040528EE33E044E055E061E037
:102AE000809103050FDA8090040528EE33E044E07E
:102AF00055E062E08091030505DA909004054FE708
:102B000065E2809103050E94BA0920E045E06AE68B
:102B1000809103050E94120B48E665E2809103054F
:102B20000E94BA0921E041E06AE6809103050E9413
:102B3000120B64E170E080E090E00E94F50801E093
:102B400020E040E069E877E085EE92E023D9882331
:102B500009F4C4C288E090E00E943B1F5C0100E0E1
:102B600010E0F801EB5DFD4F4491F801EA5DFD4F87
:102B70002491680183E0C80ED11CF801E95DFD4F86
:102B8000E491EE23B1F1EE2EF12CE330C8F0B70161
:102B9000C501CC56DF4F2883C459D040CD56DF4FF6
:102BA0004883C359D0400E9468205C01CD56DF4F56
:102BB0004881C359D040CC56DF4F2881C459D040FA
:102BC000D50180E090E08E159F0548F4F601E80FEE
:102BD000F91FEB5DFD4FE491ED930196F4CF00E01A
:102BE000B701C501D7D887010C0D1D1D811115C076
:102BF0000FC00C5F1F4FF601EB5DFD4FE491E1301C
:102C000039F442E368E3809103050E94BA0905C0E4
:102C1000C5010E94D01F82E062C2003C110508F489
:102C2000A0CFC5010E94D01F03E023E042E06BE685
:102C3000809103050E94C90A42E168E3809103057F
:102C40000E94BA0944E069E1809103050E94BA0933
:102C500001E023E045E06AE1809103050E94C90A92
:102C600003E023E042E06AE1809103050E94C90A83
:102C700022E044E06BE1809103050E94C90A43E031
:102C800060E7809103050E94BA0940E061E7809106
:102C900003050E94BA0920E040E060E0809103054E
:102CA0000E94120B072D26E046E060E080910305AC
:102CB0000E94C90A082D26E046E061E080910305E4
:102CC0000E94C90A092D26E046E062E080910305D2
:102CD0000E94C90AE12CF12CF701EA50FE4FE49161
:102CE000A1E8B0E0AC0FBD1FAE0DB11DEC9381E0CB
:102CF0008E0D9FEFE91AF90A23E02E1568F7CD57DC
:102D0000DF4F6881C358D04070E09B012E5F3F4F7A
:102D100090E02817390704F700E0CE57DF4F2881ED
:102D2000C258D040CF57DF4F4881C158D04081E8CA
:102D300090E08C0F9D1F03962DD880E0F701EA509C
:102D4000FE4FE491A1E8B0E0AC0FBD1FA80FB11D8C
:102D5000EC938F5F9FEFE91AF90A843078F3CD572F
:102D6000DF4F6881C358D04070E0AB014E5F5F4FCA
:102D7000282F30E0421753070CF700E0CE57DF4F03
:102D80002881C258D040CF57DF4F4881C158D0402A
:102D900081E890E08C0F9D1F03960E94CA0E0E944E
:102DA000B20E0E94990E682FCE0101960E94B80EB5
:102DB00042E06FE1809103050E94BA094CE961E2AB
:102DC000809103050E94BA0940E560E28091030505
:102DD0000E94BA0940E062E2809103050E94BA09AC
:102DE0000E94B20E21E046E06AE6809103050E944F
:102DF000120B21E047E06AE6809103050E94120B66
:102E000021E043E06AE6809103050E94120B80E016
:102E1000F701EA50FE4FE491A1E8B0E0AC0FBD1F0E
:102E2000A80FB11DEC938F5F2FEFE21AF20A8430E6
:102E300078F3CD57DF4F6881C358D04070E0AB01C5
:102E40004E5F5F4F282F30E0421753070CF700E02A
:102E5000CE57DF4F2881C258D040CF57DF4F48812F
:102E6000C158D04081E890E08C0F9D1F03960E94CE
:102E7000CA0E80E0F701EA50FE4FE491A1E8B0E00D
:102E8000AC0FBD1FA80FB11DEC938F5F9FEFE91A28
:102E9000F90A843078F3CD57DF4F6881C358D040AA
:102EA00070E0AB014E5F5F4F282F30E042175307B1
:102EB0000CF700E0CE57DF4F2881C258D040CF57E3
:102EC000DF4F4881C158D04081E890E08C0F9D1FB2
:102ED00003960E94CA0E80E0F701EA50FE4FE4918B
:102EE000A1E8B0E0AC0FBD1FA80FB11DEC938F5F40
:102EF0002FEFE21AF20A843078F3CD57DF4F688162
:102F0000C358D04070E0AB014E5F5F4F282F30E0D8
:102F1000421753070CF700E0CE57DF4F2881C25805
:102F2000D040CF57DF4F4881C158D04081E890E072
:102F30008C0F9D1F03960E94CA0E0E94990E83302B
:102F40009105D8F3682FCE0101960E94B80E8CD55A
:102F500080E0F701EA50FE4FE491A1E8B0E0AC0F49
:102F6000BD1FA80FB11DEC938F5F9FEFE91AF90AFF
:102F7000843078F3CD57DF4F3880C358D040832C4E
:102F8000912CA4014E5F5F4F282F30E0421753076A
:102F900004F7CE57DF4FB880C258D040CF57DF4F2D
:102FA0002880C158D040422D4F716DE680910305B5
:102FB0000E94BA098B2D0E94C50EC12CD12C612C08
:102FC0007724739421E8422E512C4C0E5D1E23E091
:102FD000420E511CC814D90498F5C60140968816B3
:102FE000990618F4A32CAC1802C080E1A82E8A2DF3
:102FF00090E093012B1931092817390714F4AB2CF1
:10300000A19492012C0D3D1D08EE13E04A2D6FE6B0
:10301000809103050E94C909CA0CD11CBA0CC814BE
:10302000D904C0F6B11001C02394422D4F716DE652
:10303000809103050E94BA098B2D0E94C50ECACF4C
:103040000E94990E83309105D8F3682FCE01019626
:103050000E94B80E09D5F701EA50FE4F80E0949126
:10306000A1E8B0E0AC0FBD1FA80FB11D9C938F5F0E
:10307000843010F43196F3CFCD57DF4F6881C358B9
:10308000D04070E0AB014E5F5F4F282F30E0421719
:10309000530784F700E0CE57DF4F2881C258D04055
:1030A000CF57DF4F4881C158D04081E890E08C0F66
:1030B0009D1F03960E94CA0E20E047E06AE68091B9
:1030C00003050E94120B8AE290E09093060580931C
:1030D00005050E94B20EC8D480E001C081E0809353
:1030E0001805811114C021E047E06AE680910305CC
:1030F0000E94120B1092FC0481E0809316058091CF
:1031000005059091060590931A05809319050E9474
:103110002D096B017C010E942D09DC01CB018C196A
:103120009D09AE09BF0980339547A105B105A8F4F3
:103130000E948910019779F764E372E0CE0101964D
:103140000E943D10BE016F5F7F4F88E10E947B0CA3
:1031500089819A8125D780E030C11092FC041092B9
:103160009105109292051092930510929405109279
:103170009505109296051092970510929805109259
:10318000990510929A0510929B0510929C0504E6F1
:1031900010E00E948910019781F464E372E0CE018F
:1031A00001960E943D10BE016F5F7F4F88E10E9433
:1031B0007B0C89819A81F4D6FFC020E030E048EC96
:1031C00052E460919F057091A0058091A1059091B6
:1031D000A2052ED59B01AC016091850570918605F5
:1031E00080918705909188055DD4609385057093E3
:1031F0008605809387059093880520E030E048ECB1
:1032000052E46091A3057091A4058091A505909169
:10321000A6050ED59B01AC016091890570918A05C8
:1032200080918B0590918C053DD4609389057093B6
:103230008A0580938B0590938C0520E030E048EC64
:1032400052E46091A7057091A8058091A90590911D
:10325000AA05EED49B01AC0160918D0570918E059D
:1032600080918F05909190051DD460938D0570938A
:103270008E0580938F05909390052091AB0530913A
:10328000AC054091AD055091AE05609191057091EE
:103290009205809193059091940504D42B013C01F3
:1032A0006093910570939205809393059093940594
:1032B0002091AF053091B0054091B1055091B20514
:1032C000609195057091960580919705909198056C
:1032D000E9D34B015C01609395057093960580934B
:1032E0009705909398052091B3053091B4054091CE
:1032F000B5055091B6056091990570919A05809138
:103300009B0590919C05CED36B017C016093990540
:1033100070939A0580939B0590939C050150110929
:1033200009F037CF20E030E048EC52E4C301B201AD
:103330007FD4609391057093920580939305909349
:10334000940520E030E048EC52E4C501B40170D4AB
:1033500060939505709396058093970590939805D3
:1033600020E030E048EC52E4C701B60161D460933C
:10337000990570939A0580939B0590939C051092F4
:10338000B7051092B8051092B9051092BA051092BF
:10339000BB051092BC051092BD051092BE0510929F
:1033A000BF051092C0051092C1051092C20581E0C0
:1033B0008093FC040E94891081E08093E90584E0F9
:1033C00090E09093E8058093E7050E948910809132
:1033D000AB059091AC05A091AD05B091AE05809381
:1033E000F6059093F705A093F805B093F905809141
:1033F000AF059091B005A091B105B091B205809351
:10340000240690932506A0932606B0932706809164
:10341000B3059091B405A091B505B091B605809320
:10342000520690935306A0935406B09355061092FB
:1034300002061092030610920406109205061092DE
:10344000FA051092FB051092FC051092FD050E94F2
:103450002D096093120670931306809314069093BF
:103460001506109230061092310610923206109214
:103470003306109228061092290610922A061092FE
:103480002B060E942D09609340067093410680939D
:1034900042069093430610925E0610925F061092C9
:1034A000600610926106109256061092570610920E
:1034B0005806109259060E942D0960936E0670936B
:1034C0006F0680937006909371068091E9058823BA
:1034D00019F084E592E002C088E792E00E941C0E99
:1034E000BB24B3948091E905882309F407C18EE9D0
:1034F00093E00E94C805181619060CF094C060915C
:10350000D6026B256093D60283E00E9453080E9486
:1035100005106C0197FD13C08DE2C816D10499F017
:10352000C601C0970A9778F0E0919E03F0919F033F
:103530000680F781E02D8EE993E01995E8CFC12C44
:10354000D12C760150C020E030E0A90110E091E0DC
:10355000C916D10409F0EAC0E0919E03F0919F03DF
:103560000680F781E02D8EE993E0CC56DF4F28836B
:10357000C459D040CF56DF4F3883C159D040CD56C3
:10358000DF4F4883C359D040CE56DF4F5883C259CE
:10359000D04019950E9405106C01C097CC56DF4FA2
:1035A0002881C459D040CF56DF4F3881C159D0400F
:1035B000CD56DF4F4881C359D040CE56DF4F58819A
:1035C000C259D0400A9718F291E0C916D10409F403
:1035D000BECF112309F4C7C0CC24DD247601C21A62
:1035E000D30AE40AF50A6C2D70E080E090E077D60B
:1035F00020E030E04FE753E41BD36093F404709372
:10360000F5048093F6049093F7040E94C50FC1144B
:1036100021E0D20641F4109274060E94A30F87E8BD
:1036200092E00E941C0E80917406882309F454C015
:103630000E9489100E94A30F4091AB055091AC05E8
:103640006091AD057091AE058AEE95E00E947F0C09
:10365000609375067093760680937706909378064C
:103660007B018C0122E030E041E050E063E070E05B
:1036700080E090E00E94D10F4091AF055091B005DD
:103680006091B1057091B20588E196E00E947F0CCF
:103690007B018C0123E030E042E050E061E070E02B
:1036A00080E090E00E94D10F4091B3055091B405A5
:1036B0006091B5057091B60586E496E00E947F0C96
:1036C0007B018C0122E030E040E050E063E070E0FC
:1036D00081E090E00E94D10F8091D7029091D802B2
:1036E00001968A30910529F09093D8028093D702F1
:1036F00014C01092D8021092D7020FC060EA72E094
:10370000CE0101960E943D10BE016F5F7F4F8FEF8B
:103710000E947B0C89819A8143D465E070E080E04F
:1037200090E00E94F5080E946E06DCCE8DE2C8167D
:10373000D104B9F0C601C0970A9708F00DCFAAE0EE
:10374000B0E0E0D60D2C000CEE08FF08C60ED71E28
:10375000E81EF91EA70196012053310941095109BC
:10376000FBCE11E0F9CE69017A013DCF4F925F9215
:103770006F927F928F929F92AF92BF92CF92DF9281
:10378000EF92FF92EEE9F3E01382128288EE93E06B
:10379000A0E0B0E084839583A683B7832CE032E079
:1037A000318320834DEC50E0558744874CEC50E04A
:1037B0005787468748EC50E0518B408B49EC50E0EE
:1037C000538B428B4AEC50E0558B448B4EEC50E0CF
:1037D000578B468B118E128E138E148EEBE3F4E012
:1037E0001382128284839583A683B78331832083D7
:1037F00025EC30E03587248724EC30E037872687B6
:1038000020EC30E0318B208B21EC30E0338B228BAD
:1038100022EC30E0358B248B26EC30E0378B268B86
:10382000118E128E138E148EE8EDF4E01382128244
:1038300084839583A683B7838CE192E09183808310
:10384000E4EEF4E0148A158A168A178A108E88E648
:10385000878F12AAC12CD12C80E8E82E8FE3F82E96
:10386000C0925D05D0925E05E0925F05F092600522
:103870001092610510926205109263051092640522
:103880001092650510926605109267051092680502
:103890001092690510926A0510926B0510926C05E2
:1038A00010926E0510926D051092700510926F05C2
:1038B00010927205109271051092740510927305A2
:1038C0001092760510927505109278051092770582
:1038D0001092790510927A0510927B0510927C0562
:1038E00010927D0510927E0510927F051092800542
:1038F0001092810510928205109283051092840522
:103900001092EA051092EB051092EC051092ED056D
:103910001092EE051092EF051092F0051092F1054D
:103920001092F2051092F3051092F4051092F5052D
:103930001092F6051092F7051092F8051092F9050D
:103940001092FA051092FB051092FC051092FD05ED
:103950000E942D096093120670931306809314063B
:1039600090931506412C512C90E4692E9FE3792EFB
:10397000409218065092190660921A0670921B0621
:103980002DEC822E2CEC922E2CE4A22E2DE3B22EC6
:1039900080921C0690921D06A0921E06B0921F06F1
:1039A000C0922006D0922106E0922206F0922306D1
:1039B00010922406109225061092260610922706D1
:1039C000109228061092290610922A0610922B06B1
:1039D0000E942D0960934006709341068093420631
:1039E00090934306409246065092470660924806DE
:1039F0007092490680924A0690924B06A0924C061D
:103A0000B0924D06C0924E06D0924F06E0925006FC
:103A1000F0925106109252061092530610925406DC
:103A2000109255061092560610925706109258069C
:103A3000109259060E942D0960936E0670936F06CE
:103A4000809370069093710681E080937406FF90D6
:103A5000EF90DF90CF90BF90AF909F908F907F902E
:103A60006F905F904F9008950F931F93CF93DF93C4
:103A7000C4EED4E008EE13E024E035E041E06AE370
:103A80008F8D0E94C90988A1DF91CF911F910F915D
:103A90000895EE0FFF1F881F8BBF0790F691E02D52
:103AA00019945058BB27AA270ED0F2C4E3D430F0A3
:103AB000E8D420F031F49F3F11F41EF4D8C40EF482
:103AC000E095E7FBCEC4E92FF4D480F3BA17620780
:103AD00073078407950718F071F49EF50CC50EF472
:103AE000E0950B2EBA2FA02D0B01B90190010C010E
:103AF000CA01A0011124FF27591B99F0593F50F426
:103B0000503E68F11A16F040A22F232F342F44277D
:103B1000585FF3CF469537952795A795F040539575
:103B2000C9F77EF41F16BA0B620B730B840BBAF045
:103B30009150A1F0FF0FBB1F661F771F881FC2F7B0
:103B40000EC0BA0F621F731F841F48F487957795C4
:103B50006795B795F7959E3F08F0B3CF9395880F7B
:103B600008F09927EE0F97958795089583D458F01C
:103B700080E891E009F49EEF84D428F040E851E019
:103B800059F45EEF09C073C4B6C4E92FE07891D44C
:103B900068F3092E052AC1F3261737074807590786
:103BA00038F00E2E07F8E02569F0E025E0640AC041
:103BB000EF6307F8009407FADB01B9019D01DC010E
:103BC000CA01AD01EF9343D063D40AD05F9155236E
:103BD00031F02BED3FE049E450FD49EC63CF08950F
:103BE000DF93DD27B92FBF7740E85FE3161617068E
:103BF00048075B0710F4D92FDDD09F938F937F93F5
:103C00006F9321D1E8E0F1E0ACD042D42F913F9105
:103C10004F915F91CFD3DD2349F09058A2EA2AED6E
:103C20003FE049EC5FE3D0785D274DDFDF9130C4A2
:103C30000CD02EC426D440F01DD430F021F45F3FC8
:103C400019F00FC4511158C412C433D498F39923F6
:103C5000C9F35523B1F3951B550BBB27AA27621750
:103C60007307840738F09F5F5F4F220F331F441F95
:103C7000AA1FA9F333D00E2E3AF0E0E830D09150CD
:103C80005040E695001CCAF729D0FE2F27D0660FBA
:103C9000771F881FBB1F261737074807AB07B0E8F9
:103CA00009F0BB0B802DBF01FF2793585F4F2AF00F
:103CB0009E3F510568F0D5C31FC45F3FECF3983EAB
:103CC000DCF3869577956795B795F7959F5FC9F76C
:103CD000880F911D9695879597F90895E1E0660FF5
:103CE000771F881FBB1F621773078407BA0720F06E
:103CF000621B730B840BBA0BEE1F88F7E0950895D7
:103D000004D06894B111F8C30895DBD388F09F57AD
:103D100090F0B92F9927B751A0F0D1F0660F771F17
:103D2000881F991F1AF0BA95C9F712C0B13081F0F7
:103D3000E2D3B1E00895DFC3672F782F8827B85FFB
:103D400039F0B93FCCF3869577956795B395D9F758
:103D50003EF490958095709561957F4F8F4F9F4F62
:103D60000895DF93CF931F930F93FF92EF92DF920B
:103D70007B018C01689405C0DA2EEF011BD3FE0194
:103D8000E894A5912591359145915591AEF3EF01B8
:103D90009ADEFE019701A801DA9479F7DF90EF909F
:103DA000FF900F911F91CF91DF910895D3D208F426
:103DB0008FEF08959B01AC0160E070E080E89FE325
:103DC00037CF11F40EF453C341C07BD3D0F3992302
:103DD000D9F3CEF39F57550B87FF46D00024A0E6BA
:103DE00040EA900180585695979528F4805C660FBC
:103DF000771F881F20F026173707480730F4621B0B
:103E0000730B840B202931294A2BA695179407940C
:103E1000202531254A2758F7660F771F881F20F085
:103E200026173707480730F4620B730B840B200DFD
:103E3000311D411DA09581F7B901842F9158880F3C
:103E40009695879508959B01AC01A8C29F3F31F0DC
:103E5000915020F4879577956795B795880F911DB8
:103E60009695879597F9089591505040660F771F62
:103E7000881FD2F70895CF93DF938230910510F415
:103E800082E090E0E0917B06F0917C0620E030E05B
:103E9000C0E0D0E0309711F14081518148175907B7
:103EA000C0F04817590761F482819381209719F077
:103EB0009B838A832BC090937C0680937B0626C0CD
:103EC0002115310519F04217530718F49A01BE0164
:103ED000DF01EF010280F381E02DDCCF21153105F8
:103EE00009F1281B390B2430310590F412968D917D
:103EF0009C9113976115710521F0FB0193838283D7
:103F000004C090937C0680937B06FD01329644C0EA
:103F1000FD01E20FF31F81939193225031092D93FC
:103F20003C933AC02091790630917A06232B41F4D4
:103F3000209102023091030230937A062093790691
:103F400020910002309101022115310541F42DB775
:103F50003EB74091040250910502241B350BE091BD
:103F60007906F0917A06E217F307A0F42E1B3F0BB7
:103F70002817390778F0AC014E5F5F4F24173507DB
:103F800048F04E0F5F1F50937A0640937906819355
:103F9000919302C0E0E0F0E0CF01DF91CF9108956E
:103FA0000F931F93CF93DF93009709F48CC0FC010C
:103FB00032971382128200917B0610917C060115C4
:103FC000110581F420813181820F931F20917906A0
:103FD00030917A062817390779F5F0937A06E0933D
:103FE000790671C0D80140E050E0AE17BF0750F429
:103FF00012962D913C911397AD012115310509F1D0
:10400000D901F3CF9D01DA0133832283608171816D
:10401000860F971F8217930769F4EC012881398175
:10402000260F371F2E5F3F4F318320838A819B816C
:1040300093838283452B29F4F0937C06E0937B06DF
:1040400042C01396FC93EE931297ED01499159915A
:104050009E01240F351FE217F30771F480819181CF
:10406000840F951F029611969C938E938281938163
:1040700013969C938E931297E0E0F0E0D80112968D
:104080008D919C911397009719F0F8018C01F6CF50
:104090008D919C9198012E5F3F4F820F931F20912D
:1040A000790630917A062817390769F4309729F490
:1040B00010927C0610927B0602C01382128210932B
:1040C0007A0600937906DF91CF911F910F910895A1
:1040D0006F927F928F929F92AF92BF92CF92DF9218
:1040E000EF92FF920F931F93CF93DF93EC01009712
:1040F00081F4CB01DF91CF911F910F91FF90EF9051
:10410000DF90CF90BF90AF909F908F907F906F90F7
:10411000B2CEFC01E60FF71F9C0122503109E217D5
:10412000F30708F4A8C0D9010D911C911197061747
:104130001707A8F00530110508F49BC0C8010497C3
:104140008617970708F495C002501109061B170B34
:10415000019311936D937C93CF0122DF8AC05B01A1
:10416000A01AB10A4C01800E911EA0917B06B0915D
:104170007C0640E050E0E12CF12C109709F44AC095
:10418000A815B905D1F56D907C901197630182E077
:10419000C80ED11CCA14DB0480F1A3014A195B09C3
:1041A0006A0182E0C80ED11C1296BC901297139639
:1041B000AC91B5E0CB16D10440F0B282A383518319
:1041C0004083D9016D937C930AC00E5F1F4FC301DA
:1041D000800F911FF90191838083EB2DFA2FE11459
:1041E000F10431F0D7011396FC93EE93129741C07E
:1041F000F0937C06E0937B063CC08D919C911197D7
:104200004817590708F4AC017D0112960D90BC9136
:10421000A02DB3CF8091790690917A0688159905E3
:10422000E1F446175707C8F480910002909101020B
:10423000009741F48DB79EB740910402509105025A
:10424000841B950BE817F907B0F4F0937A06E09316
:104250007906F901718360830CC0CB010CDE7C010F
:10426000009749F0A801BE0128D0CE0199DEC70110
:1042700004C0CE0102C080E090E0DF91CF911F9199
:104280000F91FF90EF90DF90CF90BF90AF909F90F5
:104290008F907F906F90089581E090E0F8944BC1EB
:1042A000FB01DC0104C08D910190801921F4415083
:1042B0005040C8F7881B990B0895FB01DC0102C030
:1042C00001900D9241505040D8F70895FB01DC0158
:1042D00001900D920020E1F70895E89409C097FB42
:1042E0003EF490958095709561957F4F8F4F9F4FCD
:1042F0009923A9F0F92F96E9BB279395F695879511
:1043000077956795B795F111F8CFFAF4BB0F11F4D3
:1043100060FF1BC06F5F7F4F8F4F9F4F16C088237A
:1043200011F096E911C0772321F09EE8872F762FB0
:1043300005C0662371F096E8862F70E060E02AF0F1
:104340009A95660F771F881FDAF7880F96958795DD
:1043500097F90895990F0008550FAA0BE0E8FEEFB2
:1043600016161706E807F907C0F012161306E40739
:10437000F50798F0621B730B840B950B39F40A2632
:1043800061F0232B242B252B21F408950A2609F410
:10439000A140A6958FEF811D811D08950BD078C097
:1043A00069D028F06ED018F0952309F05AC05FC08C
:1043B0001124A2C07ED0A0F3959FD1F3950F50E0B9
:1043C000551F629FF001729FBB27F00DB11D639FC7
:1043D000AA27F00DB11DAA1F649F6627B00DA11D6D
:1043E000661F829F2227B00DA11D621F739FB00D13
:1043F000A11D621F839FA00D611D221F749F332783
:10440000A00D611D231F849F600D211D822F762F1B
:104410006A2F11249F5750408AF0E1F088234AF018
:10442000EE0FFF1FBB1F661F771F881F9150504064
:10443000A9F79E3F510570F014C05EC05F3FECF3DA
:10444000983EDCF3869577956795B795F795E79550
:104450009F5FC1F7FE2B880F911D9695879597F961
:10446000089597F99F6780E870E060E008959FEFF6
:1044700080EC089500240A941616170618060906FB
:10448000089500240A9412161306140605060895CA
:10449000092E0394000C11F4882352F0BB0F40F452
:1044A000BF2B11F460FF04C06F5F7F4F8F4F9F4F92
:1044B000089557FD9058440F551F59F05F3F71F014
:1044C0004795880F97FB991F61F09F3F79F087957B
:1044D0000895121613061406551FF2CF4695F1DF04
:1044E00008C0161617061806991FF1CF8695710594
:1044F000610508940895E894BB2766277727CB01C8
:1045000097F9089509D0A59F900DB49F900DA49F91
:10451000800D911D11240895A29FB001B39FC00189
:10452000A39F700D811D1124911DB29F700D811DDF
:0A4530001124911D0895F894FFCFA7
:10453A0000007D068000E8030000000007068813DB
:10454A00C805A605BA054D06000000002E07FF069D
:10455A00A106EB06DC06DB065374617274696E67AA
:10456A00207570004D505520646964206E6F742068
:10457A00696E697469616C697A652070726F7065B9
:10458A00726C790041732053706F6E6765626F6257
:10459A00206F6E6365207075742069742C2049271A
:1045AA004D2052454144590053746172747570200C
:1045BA006661696C65640050494420636F6E747269
:1045CA006F6C6C6572732064697361626C656400F8
:1045DA00666577000D0A00546865204D50552773AB
:1045EA00204649464F20686173206F766572666C73
:1045FA006F77656420616E64206265656E207265FE
:04460A007365740060
:00000001FF
