:100000005FC500000C94A11C0C94CC1C0C94F71C34
:100010000C94221D0C944D1D0C94781D0C94A31D62
:100020000C94CE1D7EC500007CC500007AC5000082
:1000300078C5000076C5000074C5000072C50000D8
:1000400070C500006EC500006CC500006AC50000E8
:1000500068C5000066C5000064C500000C94F91D69
:1000600060C500000C94F0200C9426215AC50000B5
:1000700058C5000056C5000054C5000052C5000018
:1000800050C500004EC500004CC500004AC5000028
:1000900048C5000046C5000044C500000C946D171B
:1000A00040C500003EC500003CC500003AC5000048
:1000B00038C5000036C5000034C50000EBC500009F
:1000C00030C500002EC500002CC500002AC5000068
:1000D00028C5000026C5000024C5000022C5000078
:1000E00020C500001C12E111E5111C12F011F411E1
:1000F000FB11001207127B1C451C4D1C591C661C71
:10010000871C941C111F141F031F071F0D1F4B1F5B
:10011000181F1C1F221F261F2A1F301F341F381FA5
:100120004B1F3E1F421F461F084AD73B3BCE016E66
:1001300084BCBFFDC12F3D6C74319ABD56833DDA3E
:100140003D00C77F11BED9E4BB4C3E916BAAAABE4D
:10015000000000803F0001B202FFFF01900409236C
:10016000A135016A020600016008000000000000DD
:100170000000006004400000000162020000006016
:100180000400400000037B034CCD6C03AB033656E8
:100190007600680402CB47A202180400058BC10157
:1001A0000C0400000000037F060CC92C97979703EE
:1001B0008903264666006C0220000240040000000D
:1001C0000002440400000000024804000000000295
:1001D0004C0400000000025004000000000254041F
:1001E0000000000002580400000000025C0400004F
:1001F000000002BC040000000001EC04000040000C
:10020000037F060CC92C9797970402030D355D04F4
:100210000904872D353D00A3010000000001078679
:1002200001FE074105F120283038077E01300746DE
:10023000019A074704F1283038076C04F128303858
:100240000216020001FB00003E000B003600010018
:10025000020003000000650054FFEF0000FA800078
:100260000B128200010002000000000000000000EC
:10027000000000000000280000FFFF4581FFFFFA9A
:100280007200000000000003E80000000100017F90
:10029000FFFFFE8001001B000000000000000000C6
:1002A0000000000000003E03304000000002CAE3EE
:1002B000093E800000200000000000000040000017
:1002C000006000000041FF000000000B2A00001643
:1002D0005500002182FD872650FD800000001F0090
:1002E0000000058000000000000001000000020086
:1002F0000000030000400000000000046F000265E1
:100300003200005EC040000000000000000000005D
:100310000000000000FB8C6F5DFD5D08D9007C7360
:100320003B006C12CC3200139D3200D0D632000854
:1003300000400001F4FFE68079020000000000D0D8
:10034000D600002710FB0000004000000000000065
:10035000000000000000000001000000000000019B
:1003600000010000000000FA36FFBC308E0005FBE3
:10037000F0FFD95BC8FFD09ABE000010A9FFF41EA1
:10038000B200CEBBF7000000010000000400020034
:10039000020200000CFFC280000001800000CF803C
:1003A0000040000000000000010000000000000606
:1003B0000000000014000000000000000000000029
:1003C000000000000000000000000000000000002D
:1003D000000000000000000000000000000000001D
:1003E000000000000000000000033F68B6793528D7
:1003F000BCC67ED16C80000000400000000000B24E
:100400006A00000000000000000000000000003F43
:10041000F0000000300000000000000000000000BC
:1004200000000000000000000000000000000000CC
:1004300000000000000000254D002F706D00000539
:10044000AE000C02D00000000000650054FFEF0079
:100450000000000000000001000044000000000C4B
:1004600000000001000000000000650000005400D2
:1004700000FFEF000000000000000000000000008E
:10048000000000000040000000000000000000002C
:10049000000000000040000000000000000000001C
:1004A0000000000000000000010000000200000049
:1004B000000000000000000000000000000000003C
:1004C000000000000000000000000000000000002C
:1004D0000000000000001B00000000000000000001
:1004E000000000000000000000000000000000000C
:1004F00000000000000000000000000000000000FC
:100500000040000000001B00000000000000000090
:1005100000000000000000000000000000000000DB
:1005200000000000000000000000000000000000CB
:1005300000000000000000000000000000000000BB
:100540000000000000D8DCBAA2F1DEB2B8B4A88185
:1005500091F74A907F916AF3F9DBA8F9B0BAA080CD
:10056000F2CE81F3C2F1C1F2C3F3CCA2B280F1C6E4
:10057000D880BAA7DFDFDFF2A7C3CBC5B6F087A26A
:10058000942448703C95406834589B78A2F183923B
:100590002D557DD8B1B4B8A1D09180F270F370F22E
:1005A0007C80A8F101B09887D943D886C988BAA1C0
:1005B000F20EB89780F1A9DFDFDFAADFDFDFF2AA52
:1005C000C5CDC7A90CC92C97979797F1A98926463D
:1005D00066B0B4BA80ACDEF2CAF1B28C02A9B698A9
:1005E00000890E161EB8A9B4992C547CB08AA8961E
:1005F000365676F1B9AFB4B083C0B8A89711B18FB1
:1006000098B9AFF0240844106418F1A329557DAFC0
:1006100083B593AFF0002850F1A3869F61A6DADE80
:10062000DFD9FAA38696DB31A6D9F8DFBAA68FC246
:10063000C5C7B28CC1B8A2DFDFDFA3DFDFDFD8D848
:10064000F1B8A8B286B4980D355DB8AA98B0872DD8
:10065000353DB2B6BAAF8C96198F9FA70E161EB451
:100660009AB8AA872C547CB9A3DEDFDFA3B180F24D
:10067000C4CDC9F1B8A9B499830D355D89B9A32D4D
:10068000557DB593A30E161EA92C547CB8B4B0F1B9
:100690009783A81184A50998A383F0DA240844104D
:1006A0006418D8F1A529557DA58595021A2E3A56CC
:1006B0005A4048F9F3A3D9F8F09883240844106409
:1006C000189782A8F111F098A2240844106418DA4F
:1006D000F3DED883A59401D9A302F1A2C3C5C7D87C
:1006E000F18492A24DDA2AD84869D92AD86855DA15
:1006F00032D85071D932D8705DDA3AD85879D93AAF
:10070000D87893A34DDA2AD84869D92AD86855DA17
:1007100032D85071D932D8705DDA3AD85879D93A8E
:10072000D878A88A9AF02850789EF38818F19F1DEF
:1007300098A8D908D8C89F129EF315A8DA1210D825
:10074000F1AFC8978734B5B994A421F3D922D8F270
:100750002DF3D92AD8F235F3D932D881A46060615B
:10076000D961D86C6869D969D8747071D971D8B1F8
:10077000A384193D5DA3831A3E5E9310308110114E
:10078000B8B0AF8F94F2DA3ED8B49AA88729DAF8D5
:10079000D8879A35DAF8D8879A3DDAF8D8B1B9A46B
:1007A0009885022E56A581000C14A397B08AF12DCE
:1007B000D928D84DD948D86DD968D8B1840DDA0E6A
:1007C000D8A32983DA2C0ED8A3844983DA2C4C0EC3
:1007D000D8B8B0A88A9AF520AADADFD8A840AAD05B
:1007E000DADED8A860AADAD0DFD8F19786A8319BE4
:1007F000069907AB9728889BF00C201440B8B0B43A
:10080000A88C9CF0042851791D301438B282ABD0EA
:10081000982C505078789BF11AB0F08A9CA82951F6
:10082000798B2951798A2470598B2058718A4469AF
:10083000388B3940688A6448318B304960A58820FC
:100840000971584468113964493019F1AC002C54CD
:100850007CF08CA804285078F1889726A85998AC89
:100860008C02264666F0899CA82951792470594447
:100870006938644831A98809205970AB113840693A
:10088000A8193148608CA83C415C207C00F1879815
:100890001986A86E767EA999882D557D9EB9A38A62
:1008A000228A6E8A568A5E9FB183062646660E2E7F
:1008B0004E6E9DB8AD002C547CF2B18CB499B9A3A6
:1008C0002D557D8191AC38AD3AB58391AC2DD928A9
:1008D000D84DD948D86DD968D88C9DAE29D904AEE9
:1008E000D851D904AED879D904D881F39DAD008D03
:1008F000AE1981ADD901D8F2AEDA26D88E9129830E
:10090000A7D9ADADADADF32AD8D8F1B0AC89913E41
:100910005E76F3AC2E2EF1B18C5A9CAC2C28282894
:100920009CAC3018A8988128343C9724A728343CE4
:100930009C24F2B089AC912C4C6C8A9B2DD9D8D8D0
:1009400051D9D8D879D9D8D8F19E88A331DAD8D856
:10095000912DD928D84DD948D86DD968D8B183936D
:10096000353D8025DAD8D88569DAD8D8B49381A303
:1009700028343CF3AB8BF8A391B609B4D9ABDEFABB
:10098000B0879CB9A3DDF1A3A3A3A395F1A3A3A36F
:100990009DF1A3A3A3A3F2A3B49080F2A3A3A3A366
:1009A000A3A3A3A3A3A3B2A3A3A3A3A3A3B087B505
:1009B00099F1A3A3A398F1A3A3A3A397A3A3A3A38C
:1009C000F39BA3A3DCB9A7F1262626D8D8FF000005
:1009D0000A0B02090C0D0E080703040100000000B9
:1009E0000000000000000000000000000000000007
:1009F00000000000000000000000121110000000C4
:100A000000000000000000000000000000000000E6
:100A100000000000010210202008081020401020D3
:100A200040800201020108040201010204081020B2
:100A300040808040201008040201800402018040B0
:100A40002010080402010804020101020408102019
:100A500040800102040810204080050505050705B7
:100A600008080808020202020A0A0808040404042A
:100A70000101010101010101030303030303030356
:100A8000040707070C0C0C0C0C0C0C0C02020202E5
:100A900006060606060606060B0B0B0B0B0B0B0BCE
:100AA00000002200250028002B002E003100340019
:100AB00002010000050108010B01251284165821CE
:100AC00011241FBECFEFD1E2DEBFCDBF00E00CBFCF
:100AD00012E0A0E0B2E0ECE0F0E500E00BBF02C005
:100AE00007900D92AC3BB107D9F725E0ACEBB2E033
:100AF00001C01D92AA3CB207E1F71AE0C0ECDAE0AF
:100B000000E006C022970109FE010BBF0E94C42528
:100B1000CA3BD10780E00807A9F70E949C210C94EA
:100B200004286ECA81E0809353040895FC01EE0FFF
:100B3000FF1FDF01A95ABB4F8D919C9111978B33F9
:100B40009D4720F08AE39DE78D939C93E95AFB4FE4
:100B5000808191818D31954420F48DE195E49183DC
:100B6000808308950F931F93CF93DF938C01CB0164
:100B7000BA01E801CC0FDD1FC95ADB4F20E034E792
:100B800040E656E40E94CC240E94BE23288139818D
:100B9000260F371F39832883C801DF91CF911F911A
:100BA0000F91C4CF4F925F926F927F92AF92BF929C
:100BB000CF92DF92EF92FF920F931F93CF93DF9329
:100BC0006B01EA01590127013801B801A701CADF09
:100BD000B801A701C601C6DF77FA709477F8709460
:100BE000B301A201CE01BEDFB301A201C501DF91B5
:100BF000CF911F910F91FF90EF90DF90CF90BF901A
:100C0000AF907F906F905F904F90ACCFCF92DF927C
:100C1000EF92FF926B017C016091590470915A042C
:100C20008091570490915804680F791F80915B045C
:100C300090915C04680F791F80915D0490915E042F
:100C4000680F791F769567957695679580E090E0B7
:100C50000E94EA239B01AC01C701B6010E948A22CF
:100C60006B017C01AB01BC0180E090E07BDFB70150
:100C7000A60181E090E076DFB701A60182E090E076
:100C800071DFB701A60183E090E0FF90EF90DF9065
:100C9000CF9068CF1F920F920FB60F9211240BB610
:100CA0000F922F933F938F939F93EF93FF9382B174
:100CB000807F82B980915F0490E0019683709927CC
:100CC00080935F04FC01EE0FFF1FE95AFB4F208168
:100CD0003181309329012093280192B121E030E045
:100CE00001C0220F8A95EAF7922B92B9FF91EF91FA
:100CF0009F918F913F912F910F900BBE0F900FBE40
:100D00000F901F9018958F929F92AF92BF92CF92A3
:100D1000EF920F931F93CF93DF93CDB7DEB7C059F8
:100D2000D1090FB6F894DEBF0FBECDBF5C010E94A3
:100D300019196EE170E080E090E00E94721E60E0A0
:100D4000C5010E941F1921E041E060E1C5010E9438
:100D5000FF1966E0C5010E94091AC5010E940E1A1A
:100D600020E040E060E0C5010E94FF19C5010E943B
:100D70006819C5010E948419182FC5010E94A9197C
:100D8000882EC5010E94CE19982E4FE760E0C5015C
:100D90000E94E01860E0C5010E94071948E660E083
:100DA000C5010E94E018C5010E94131964E170E0BA
:100DB00080E090E00E94721EEE24E39400E020E0C8
:100DC00049E857E065E472E0C5010E945D1B882395
:100DD00009F40EC240EC50E065E871E0C5010E94E4
:100DE000211C882309F406C263E0C5010E9425196D
:100DF00062E1C5010E94EB1864E0C5010E949F18E2
:100E000061E0C5010E94A41863E0C5010E94AE180C
:100E100063E0C5010E94B81863E0C5010E94231C6D
:100E200060E0C5010E94291C60E0C5010E947E1996
:100E3000612FC5010E949F19682DC5010E94C41928
:100E4000692DC5010E94E919812C912CF401EA5AFF
:100E5000FE4FE491A1E8B0E0AC0FBD1FA80DB11D9D
:100E6000EC9381E0880D9FEF891A990AE3E0E81579
:100E700068F7CD57DF4F4881C358D04050E09A0102
:100E80002E5F3F4F90E02817390704F7C12CEE245E
:100E9000E394CE57DF4F0881C258D040CF57DF4F81
:100EA0002881C158D04061E870E06C0F7D1F6D5FF4
:100EB0007F4FC5010E94841A60E0F401EA5AFE4F98
:100EC000E491A1E8B0E0AC0FBD1FA60FB11DEC93FB
:100ED0006F5FFFEF8F1A9F0A643078F3CD57DF4FB3
:100EE0004881C358D04050E09A012E5F3F4F862F73
:100EF00090E0281739070CF7C12CEE24E394CE5765
:100F0000DF4F0881C258D040CF57DF4F2881C158EA
:100F1000D04061E870E06C0F7D1F6D5F7F4FC501B1
:100F20000E94841AC5010E940D19C5010E943F1933
:100F3000482FBE016F5F7F4FC5010E945A1962E0C2
:100F4000C5010E94CC186CE9C5010E94D61860E565
:100F5000C5010E94D11860E0C5010E94DB18C501DF
:100F60000E940D1961E0C5010E94011961E0C501EF
:100F70000E94F319C5010E94F91960E0F401EA5AD0
:100F8000FE4FE491A1E8B0E0AC0FBD1FA60FB11D6C
:100F9000EC936F5F8FEF881A980A643078F3CD571F
:100FA000DF4F4881C358D04050E09A012E5F3F4F39
:100FB000862F90E0281739070CF7C12CEE24E39414
:100FC000CE57DF4F0881C258D040CF57DF4F28811E
:100FD000C158D04061E870E06C0F7D1F6D5F7F4F9E
:100FE000C5010E94841A60E0F401EA5AFE4FE491C0
:100FF000A1E8B0E0AC0FBD1FA60FB11DEC936F5F71
:101000009FEF891A990A643078F3CD57DF4F4881F2
:10101000C358D04050E09A012E5F3F4F862F90E09A
:10102000281739070CF7C12CEE24E394CE57DF4F75
:101030000881C258D040CF57DF4F2881C158D040D7
:1010400061E870E06C0F7D1F6D5F7F4FC5010E94EE
:10105000841A60E0F401EA5AFE4FE491A1E8B0E09E
:10106000AC0FBD1FA60FB11DEC936F5FEFEF8E1A93
:101070009E0A643078F3CD57DF4F4881C358D04083
:1010800050E09A012E5F3F4F862F90E028173907D6
:101090000CF7C12CEE24E394CE57DF4F0881C258E1
:1010A000D040CF57DF4F2881C158D04061E870E071
:1010B0006C0F7D1F6D5F7F4FC5010E94841AC501B3
:1010C0000E943F1983309105D0F3482FBE016F5F16
:1010D0007F4FC5010E945A19C5010E94F01860E0B7
:1010E000F401EA5AFE4FE491A1E8B0E0AC0FBD1F55
:1010F000A60FB11DEC936F5FFFEF8F1A9F0A64304C
:1011000078F3CD57DF4F4881C358D04050E09A0163
:101110002E5F3F4F862F90E0281739070CF7CE57E8
:10112000DF4F0881C258D040CF57DF4F2881C158C8
:10113000D04061E870E06C0F7D1F6D5F7F4FC5018F
:101140000E941F1AC5010E943F1983309105D0F3F8
:10115000482FBE016F5F7F4FC5010E945A19C5011C
:101160000E94F018F401EA5AFE4F60E08491A1E871
:10117000B0E0AC0FBD1FA60FB11D8C936F5F643044
:1011800010F43196F3CFCD57DF4F4881C358D0408C
:1011900050E09A012E5F3F4F862F90E028173907C5
:1011A00084F761E870E06C0F7D1F6D5F7F4FC12C8D
:1011B000EE24E394CE57DF4F0881C258D040CF577A
:1011C000DF4F2881C158D040C5010E94841A60E0D9
:1011D000C5010E94F3198AE290E0F50193838283AE
:1011E000C5010E940D19C5010E94F01880E003C0DE
:1011F00081E001C082E0C057DF4F0FB6F894DEBF38
:101200000FBECDBFDF91CF911F910F91EF90CF9087
:10121000BF90AF909F908F9008954F925F926F9282
:101220007F928F929F92AF92BF92CF92DF92EF9276
:10123000FF926B017C014B015C01E894B7F828ED4B
:101240003FE049E45FE30E94CC242B013C0120E015
:1012500030E040E85FE3C501B4010E948A229B01AF
:10126000AC01C701B6010E94CC246B017C012BE4C8
:1012700038EC47E85DE3C501B4010E94CC2423EAC1
:1012800032E94AE75EE30E948B229B01AC01C70171
:10129000B6010E94CC249B01AC01C301B2010E94A3
:1012A0008A22FF90EF90DF90CF90BF90AF909F90F9
:1012B0008F907F906F905F904F900895CF92DF92C4
:1012C000EF92FF926B017C0120E030E040E85FE3A9
:1012D0000E94C1241816B4F4A701960160E070E0E2
:1012E00080E89FE30E94512398DF9B01AC016AEDE7
:1012F0007FE089EC9FE30E948A22FF90EF90DF90CD
:10130000CF900895C701B601FF90EF90DF90CF9086
:1013100084CFCF93DF93DB01FA01309719F4EC010E
:10132000E881F981848D90E0982F8827258D820FA0
:10133000911D11969C938E9380A190E0982F882701
:1013400021A1820F911D13969C938E93129784A1D5
:1013500090E0982F882725A1820F911D15969C93C8
:101360008E93149780E0DF91CF910895CF93DF9310
:10137000DB01FA01309719F4EC01E881F9818081F1
:1013800090E0982F88272181820F911D11969C93C0
:101390008E93848190E0982F88272581820F911D5C
:1013A00013969C938E931297808590E0982F8827B0
:1013B0002185820F911D15969C938E931497848599
:1013C00090E0982F88272585820F911D17969C9372
:1013D0008E93169780E0DF91CF910895FF920F933F
:1013E0001F93CF93DF93CDB7DEB728970FB6F8944E
:1013F000DEBF0FBECDBF8B01BE016F5F7F4FB6DF7B
:10140000F82E81114CC069817A81882777FD8095FB
:10141000982F0E94EC2320E030E040E858E30E943F
:10142000CC24F80160837183828393836B817C81F8
:10143000882777FD8095982F0E94EC2320E030E0EC
:1014400040E858E30E94CC24F801648375838683C6
:1014500097836D817E81882777FD8095982F0E94E4
:10146000EC2320E030E040E858E30E94CC24F8016F
:1014700060877187828793876F817885882777FD5A
:101480008095982F0E94EC2320E030E040E858E35C
:101490000E94CC24F80164877587868797878F2DF3
:1014A00028960FB6F894DEBF0FBECDBFDF91CF9167
:1014B0001F910F91FF900895AF92BF92CF92DF924C
:1014C000EF92FF920F931F93CF93DF93EB015A019B
:1014D0008901FA0160817181882777FD8095982FB5
:1014E0000E94EC236B017C0120E030E040E056E4F8
:1014F000F80160817181828193810E94CC249B01DB
:10150000AC01C701B6010E948A220E94B9237983E7
:101510006883F50162817381882777FD8095982F14
:101520000E94EC236B017C0120E030E040E056E4B7
:10153000F80164817581868197810E94CC249B018A
:10154000AC01C701B6010E948A220E94B9237B83A5
:101550006A83F50164817581882777FD8095982FCE
:101560000E94EC236B017C0120E030E040E056E477
:10157000F80160857185828593850E94CC249B014A
:10158000AC01C701B6010E948A220E94B9237D8363
:101590006C8380E0DF91CF911F910F91FF90EF90CE
:1015A000DF90CF90BF90AF9008954F925F926F926F
:1015B0007F928F929F92AF92BF92CF92DF92EF92E3
:1015C000FF920F931F93CF93DF93CDB7DEB728978A
:1015D0000FB6F894DEBF0FBECDBF8B01DA011496B3
:1015E000CD90DD90ED90FC9017971C964D905D90FE
:1015F0006D907C901F978D909D90AD90BC901397AF
:1016000018968D919D910D90BC91A02D89839A8300
:10161000AB83BC83A3019201C701B6010E94CC2415
:101620006D837E838F83988729813A814B815C818A
:10163000C501B4010E94CC249B01AC016D817E8167
:101640008F8198850E948A229B01AC010E948B2287
:10165000F8016083718382839383A7019601C5019A
:10166000B4010E94CC246D837E838F839887A3016D
:10167000920169817A818B819C810E94CC249B019B
:10168000AC016D817E818F8198850E948B229B01A8
:10169000AC010E948B22D80114966D937D938D939B
:1016A0009C931797A5019401C501B4010E94CC2415
:1016B0004B015C01A7019601C701B6010E94CC2431
:1016C0009B01AC01C501B4010E948A226B017C011F
:1016D00029813A814B815C81CA01B9010E94CC24E5
:1016E0009B01AC01C701B6010E948A226B017C01FB
:1016F000A3019201C301B2010E94CC249B01AC0161
:10170000C701B6010E948B22F8016087718782872A
:10171000938780E028960FB6F894DEBF0FBECDBF4A
:10172000DF91CF911F910F91FF90EF90DF90CF90BD
:10173000BF90AF909F908F907F906F905F904F90F1
:1017400008952F923F924F925F926F927F928F9265
:101750009F92AF92BF92CF92DF92EF92FF920F9340
:101760001F93CF93DF9300D000D0CDB7DEB71B011E
:101770008A013E832D83FA01C080D180E280F3800C
:10178000A7019601C701B6010E948B2269837A8363
:101790008B839C83F80184809580A680B780A50107
:1017A0009401C501B4010E948B222B013C01A701C9
:1017B000960169817A818B819C810E94CC246B0186
:1017C0007C01A5019401C301B2010E94CC249B01BC
:1017D000AC01C701B6010E948B2220E030E040E856
:1017E0005FE30E948A226B017C01F801208531852C
:1017F00042855385C301B2010E94CC242B013C01D8
:10180000F801248535854685578569817A818B81E4
:101810009C810E94CC249B01AC01C301B2010E94B7
:101820008A22A70196010E94FE22F1016083718342
:1018300082839383ED81FE816481758186819781A6
:10184000C084D184E284F3849B01AC010E94CC2447
:101850004B015C01A7019601C701B6010E94CC248F
:101860009B01AC01C501B4010E948B220E9433256B
:101870009B01AC01ED81FE81608171818281938148
:101880000E9451231BDDF101648375838683978356
:10189000ED81FE816081718182819381C084D184D8
:1018A000E284F3849B01AC010E94CC244B015C01D7
:1018B000A7019601C701B6010E94CC249B01AC018F
:1018C000C501B4010E948B220E9433259B01AC010B
:1018D000ED81FE8164817581868197810E9451230B
:1018E000EDDCF101608771878287938780E026961F
:1018F0000FB6F894DEBF0FBECDBFDF91CF911F9121
:101900000F91FF90EF90DF90CF90BF90AF909F909E
:101910008F907F906F905F904F903F902F900895A1
:101920002F923F924F925F926F927F928F929F92EF
:10193000AF92BF92CF92DF92EF92FF920F931F93DD
:10194000CF93DF9300D01F92CDB7DEB71C016A01A1
:101950007B010E944F1EF101FE96008111812281C0
:101960003381601B710B820B930B28EE33E040E058
:1019700050E00E949C25CA01B9010E94EA234B0154
:101980005C01F10100A511A5C80165E070E00E94AD
:101990008925880F991F880F991F820D931DFC01BF
:1019A000C2A6D3A6E4A6F5A6A7019601F101648517
:1019B0007585868597850E948A226B017C01F101DD
:1019C000648B758B868B978BA50194010E94CC2428
:1019D000F101248D358D468D578D0E948B222B0170
:1019E0003C01F101648F758F868F978F20A131A103
:1019F00042A153A1C701B6010E948A22A501940108
:101A00000E9451234B015C01F101608F718F828F25
:101A1000938F2081318142815381C701B6010E9499
:101A2000CC2469837A838B839C83F1012481358163
:101A300046815781C301B2010E94CC249B01AC01B5
:101A400069817A818B819C810E948B222B013C01D0
:101A5000F1012085318542855385C501B4010E947D
:101A6000CC249B01AC01C301B2010E948B22F10185
:101A700064A375A386A397A3C0A2D1A2E2A2F3A2F6
:101A80000F5F1F4F11A700A70F900F900F900F909F
:101A9000DF91CF911F910F91FF90EF90DF90CF904A
:101AA000BF90AF909F908F907F906F905F904F907E
:101AB0003F902F900895EF92FF920F931F93CF9333
:101AC000DF93EC01188219821A821B820B960E9406
:101AD0009B181E8EFE01EB59FF4F80E090E0A0E8BE
:101AE000BFE380839183A283B3831482158216821D
:101AF000178210861186128613861486158616861E
:101B000017867096118210821382128215821482B7
:101B100036961182108213821282158214823696B2
:101B20001082118212821382148215821682178209
:101B300010861186128613867E018FECE80EF11C4A
:101B4000F70110821182128213821482158216828A
:101B500017821086118612861386148615861686BD
:101B60001786108A118A128A138A148A158A168A8D
:101B7000178A108E118E128E138E148E158E168E5D
:101B8000178E10A211A212A213A214A215A216A2BD
:101B900017A201E010E011A700A712A613A614A631
:101BA00015A60E944F1EF701FE9660837183828303
:101BB00093837E01FFEEEF1AFEEFFF0AF70110821A
:101BC0001182128213821482158216821782108665
:101BD0001186128613861486158616861786108A35
:101BE000118A128A138A148A158A168A178A108E05
:101BF000118E128E138E148E158E168E178E10A2C5
:101C000011A212A213A214A215A216A217A211A722
:101C100000A712A613A614A615A60E944F1EF70130
:101C2000FE966083718382839383CD5ADE4F188240
:101C300019821A821B821C821D821E821F821886B4
:101C400019861A861B861C861D861E861F86188A84
:101C5000198A1A8A1B8A1C8A1D8A1E8A1F8A188E54
:101C6000198E1A8E1B8E1C8E1D8E1E8E1F8E18A214
:101C700019A21AA21BA21CA21DA21EA21FA219A772
:101C800008A71AA61BA61CA61DA60E944F1EFE0191
:101C9000FE966083718382839383DF91CF911F913E
:101CA0000F91FF90EF90089570E080E090E00E9427
:101CB000EC2320E030E04FE753E40E9451230C94E2
:101CC0000606FC01E552FF4FDC01A756BF4F4D91C0
:101CD0005D916D917C9113974083518362837383EF
:101CE000EE5BFF4F14964D915D916D917C91139732
:101CF0004083518362837383EE5BFF4F14968D9113
:101D00009D910D90BC91A02D80839183A283B3837C
:101D10000895FC01E756FF4FDC01AD54BF4F4D91D4
:101D20005D916D917C91139740835183628373839E
:101D3000349614964D915D916D917C9113974083EB
:101D4000518362837383349614968D919D910D9087
:101D5000BC91A02D80839183A283B3830895809149
:101D60005604882321F089E295E00C94F721E09154
:101D70002905F0912A050190F081E02D61E089E2CA
:101D800095E019942F923F924F925F926F927F92BB
:101D90008F929F92AF92BF92CF92DF92EF92FF927B
:101DA0000F931F93CF93DF9300D000D0CDB7DEB752
:101DB0008C01FC01868D882389F0C8010B967C017B
:101DC0008091530481110DC0F80123A134A181A198
:101DD00092A12817390708F432C103C081E090E0CE
:101DE00035C110925304C7010E94F018F801878F83
:101DF000C7010E943F19F80194A383A3278D24FDF6
:101E000003C08115944031F4C7010E940D1982E08E
:101E100090E01CC121FD03C080E090E017C1C80123
:101E200085966C01F80141A152A183A194A1841768
:101E3000950760F1B601C7010E945A190E944F1E12
:101E4000F80125813681621B730B728761870E94BE
:101E50004F1EF801658376838783908783A194A1C1
:101E600021A132A1821B930B94A383A368E172E0AA
:101E7000CE0101960E947422BE016F5F7F4F89E1FF
:101E80006EDFCE0101960E940D22CCCFA601480143
:101E9000F5E68F0E911CB401C701A0DAA401580128
:101EA00031E8A30EB11CB501C7017FDBA6016801B3
:101EB00085E7C80ED11CB601C7012BDA9501A40134
:101EC000B8016D547F4FC7013CDC9501A601680144
:101ED0009BE7C90ED11CB601C701EEDA1801E7EA8B
:101EE0002E0E311CF801EB55FF4F31822082F60196
:101EF00060817181882777FD8095982F0E94EC235F
:101F0000F10160837183828393837801FBEAEF0E92
:101F1000F11CF801E358FF4F60817181882777FD3C
:101F20008095982F0E94EC23F70160837183828350
:101F300093837801FFEAEF0EF11CBC9760817181F9
:101F4000882777FD8095982F0E94EC23F701608306
:101F5000718382839383F8018481882309F45CCFA1
:101F60006185728580E090E00E94EA232B013C01AC
:101F7000A12CB12C4801F7EA8F0E911CF801E35710
:101F8000FF4F2081318142815381F4016081718151
:101F9000828193810E948A226B017C01F40160831B
:101FA0007183828393834801F3EB8F0E911C3E97DC
:101FB0002081318142815381F4016081718182816C
:101FC00093810E948A22F4016083718382839383C8
:101FD0004801FFEB8F0E911CF1012191319141914C
:101FE00051911F01C701B6010E948B2220E030E011
:101FF00040E05FE30E94CC24A30192010E94CC2424
:1020000020E034E244E759E40E9451239B01AC01F3
:10201000F40160817181828193810E948B22F4019D
:102020006083718382839383FFEFAF1ABF0A0C5FD3
:102030001F4F33E0A316B10409F09CCFEDCEC701CA
:102040000E943F19F80194A383A3BACE26960FB637
:10205000F894DEBF0FBECDBFDF91CF911F910F91DE
:10206000FF90EF90DF90CF90BF90AF909F908F90B8
:102070007F906F905F904F903F902F9008952F9298
:102080003F924F925F926F927F928F929F92AF9208
:10209000BF92CF92DF92EF92FF920F931F93CF9355
:1020A000DF93CDB7DEB762970FB6F894DEBF0FBEF1
:1020B000CDBF8C010E94431E6B017C010E94431E18
:1020C0006C197D098E099F0960337547810591055B
:1020D000A8F4C80157DE019789F765E472E0CE01E4
:1020E00001960E947422BE016F5F7F4F88E137DE48
:1020F000CE0101960E940D2280E039C134E6832E84
:10210000912C58018DE8A80EB11CF801E955FF4F3C
:10211000F887EF836801F1E9CF0ED11CC80185551E
:102120009F4F9A878987780195E9E90EF11CF8019C
:10213000E155FF4FFC87EB873801F9E96F0E711C01
:10214000C8018D549F4F9E878D8728019DE9490EB8
:10215000511CF801E954FF4FF88BEF871801F1EAA1
:102160002F0E311CC80185549F4F9A8B898BC80153
:1021700009DE019789F465E472E0CE0101960E94C0
:102180007422BE016F5F7F4F88E1E9DDCE010196C9
:102190000E940D2281E0EBC020E030E04AE754E4E9
:1021A000EF81F88560817181828193810E94512342
:1021B0009B01AC01F50160817181828193810E9454
:1021C0008B22F501608371838283938320E030E06A
:1021D0004AE754E4E985FA856081718182819381BF
:1021E0000E9451239B01AC01F601608171818281C3
:1021F00093810E948B22F601608371838283938393
:1022000020E030E04AE754E4EB85FC856081718191
:10221000828193810E9451239B01AC01F70160816F
:102220007181828193810E948B22F7016083718387
:102230008283938320E030E04AE754E4ED85FE8515
:1022400060817181828193810E9451239B01AC0145
:10225000F30160817181828193810E948B22F3015D
:10226000608371838283938320E030E04AE754E403
:10227000EF85F88960817181828193810E94512369
:102280009B01AC01F20160817181828193810E9486
:102290008B22F201608371838283938320E030E09C
:1022A0004AE754E4E989FA896081718182819381E6
:1022B0000E9451239B01AC01F101608171818281F7
:1022C00093810E948B22F1016083718382839383C7
:1022D000F1E08F1A910809F04ACF81EE9AE7A4EB5A
:1022E000B1E4F50180839183A283B38388EB9EE1FF
:1022F000ADE6B1ECF60180839183A283B3838FE2D4
:102300009DE2AFE9B3ECF70180839183A283B383AD
:1023100088EB9EE1A7EAB1E4F30180839183A28375
:10232000B38388EB9EE1A5E4BFE3F2018083918350
:10233000A283B3838FE892ECA5EFBEEBF10180831B
:102340009183A283B383F801E154FF4F108211827D
:102350001282138234961082118212821382349672
:10236000108211821282138281E0F80184836296C6
:102370000FB6F894DEBF0FBECDBFDF91CF911F9196
:102380000F91FF90EF90DF90CF90BF90AF909F9014
:102390008F907F906F905F904F903F902F90089517
:1023A000CF93DF9300D000D0CDB7DEB78091550436
:1023B00090E08930910588F5FC01EE58FF4F0C94B0
:1023C000BE258EEB92E0A5DC37C065E672E0CE015B
:1023D00001960E947422BE016F5F7F4F82E027C08A
:1023E00060E070E0CB0104C061EF70EF80E79EE336
:1023F0000E94060621C010928B0310928A031CC013
:1024000083E190E090938B0380938A0315C06091E1
:1024100054048EEB92E048DC0FC06AE772E0CE0114
:1024200001960E947422BE016F5F7F4F87E197DCA7
:10243000CE0101960E940D2226960FB6F894DEBFBB
:102440000FBECDBFDF91CF9108958EEB92E033CBDD
:102450008F929F92AF92BF92CF92DF92EF92FF92B4
:10246000CF93DF9300D000D0CDB7DEB78091560474
:1024700081112AC06CEA72E0CE0101960E9474229A
:10248000BE016F5F7F4F82E06ADCCE0101960E9441
:102490000D220E94431E6B017C014B01AA2497FC74
:1024A000A094BA2C89E295E00E94811F892B71F4D7
:1024B0000E94431E681979098A099B09643F71408B
:1024C00081059105D8F002C021E01FC00E94431E83
:1024D000EE24D7FCE094FE2C6C197D098E099F092F
:1024E000643F71408105910538F489E295E00E94CE
:1024F0009A1F21E0029749F020E007C061E070E0F8
:1025000080E090E00E94721ECDCF822F26960FB6FB
:10251000F894DEBF0FBECDBFDF91CF91FF90EF905B
:10252000DF90CF90BF90AF909F908F9008950F93C2
:102530001F93CF93DF93EC0181B18F6081B910922B
:10254000200189E080932101809173008260809353
:1025500073000DE115E4109358040093570480E0D4
:1025600090E00E94960510935A040093590481E06C
:1025700090E00E94960510935C0400935B0482E057
:1025800090E00E94960510935E0400935D0483E042
:1025900090E00E94960580E694E030D388E1809335
:1025A000B8008E01055F1F4FC80159D6C8010E94AF
:1025B000830688A3811114C061E0C80114D743E0E9
:1025C00050E062E975E080E00E94301CC80108D646
:1025D0008F8F1C8281E08E8F8D859E859AA389A323
:1025E000CE014DDD8E0102531F4FF80180838823F9
:1025F00011F02EDF01C080E0F8018083FE01E4537A
:10260000FF4F84E090E091838083CE01DF91CF91F2
:102610001F910F9156CB26E040E052EC61E070E054
:1026200089E295E00E94902042E350E060E070E093
:1026300089E295E00E9407228EEB92E078CF89E252
:1026400095E00E94811F02976CF089E295E00E945C
:102650009A1F8093550489E295E00E949A1F809307
:1026600054049ECE0895EF92FF920F931F93CF9341
:10267000DF93EC01E4DFCE0185DBFE01ED54FF4F7B
:102680004081518162817381CE0181539F4F48D92E
:102690007B018C0122E030E041E050E063E070E03B
:1026A00080E090E00E94D205FE01E954FF4F408196
:1026B000518162817381CE018F5E9E4F31D97B0142
:1026C0008C0123E030E042E050E061E070E080E027
:1026D00090E00E94D205FE01E554FF4F40815181F8
:1026E00062817381CE018D5A9E4F1AD97B018C0174
:1026F00022E030E040E050E063E070E081E090E014
:102700000E94D205DF91CF911F910F91FF90EF9022
:10271000089580918C03882399F08EEB92E0A3DFDB
:102720008091BC029091BD0201969093BD0280936E
:10273000BC028436910521F41092BD021092BC02B5
:102740000895EF92FF920F931F93CF93DF931F9201
:102750001F92CDB7DEB7062F142F682F80E694E0C6
:1027600029833A8354D2602F80E694E009D22981EC
:10277000022FE22E3A81F32E8E2D801B811738F422
:10278000F70161917F0180E694E0FAD1F5CF80E610
:1027900094E0B8D291E0811190E0892F0F900F90D2
:1027A000DF91CF911F910F91FF90EF900895CF93FC
:1027B000DF931F92CDB7DEB749839E012F5F3F4F56
:1027C00041E0BFDF0F90DF91CF9108953F924F928C
:1027D0005F926F927F928F929F92AF92BF92CF92B1
:1027E000DF92EF92FF920F931F93CF93DF9300D06E
:1027F00000D0CDB7DEB7682E562E742E3A832983CB
:102800000E94431E6B017C01312C412C872D90E0EE
:102810009C838B834801A12CB12C371480F5662D45
:1028200080E694E0F4D1652D80E694E0A9D180E6BD
:1028300094E068D2662D80E694E0E9D14B815C811A
:10284000431951094132510514F040E250E0662D20
:1028500080E694E055D280E694E03BD1892B59F193
:102860000115110579F10E94431E6C197D098E092D
:102870009F09681579058A059B0520F11CC0011583
:10288000110581F10E94431E6C197D098E099F0973
:1028900020E030E0601771078207930718F1872D59
:1028A00090E0242D332727FD309528173907D4F4DD
:1028B00044244A9417C0872D90E2971508F480E2CB
:1028C000380EABCFE981FA81E40DF11D47FCFA9592
:1028D000FE83ED8380E694E004D1ED81FE81808368
:1028E0004394B9CF842D26960FB6F894DEBF0FBE61
:1028F000CDBFDF91CF911F910F91FF90EF90DF90AF
:10290000CF90BF90AF909F908F907F906F905F908F
:102910004F903F9008950F931F9389019A0141E0D2
:1029200055DF1F910F910895DF92EF92FF920F9361
:102930001F93CF93DF931F92CDB7DEB7D42E7901CB
:102940009801AE014F5F5F4FE6DF61E070E001C0CC
:10295000660FDA94EAF799819623F70190830F9036
:10296000DF91CF911F910F91FF90EF90DF9008952D
:10297000CF92DF92EF92FF920F931F93CF93DF934B
:102980001F92CDB7DEB7C42ED22E9701AE014F5F96
:102990005F4FC1DF8823F1F04C2D50E04D195109F4
:1029A0004F5F5F4F61E070E002C0660F771FDA94FF
:1029B000E2F761507109042E01C0660F0A94EAF72C
:1029C0002981262330E002C0359527954A95E2F704
:1029D000F80120830F90DF91CF911F910F91FF900D
:1029E000EF90DF90CF900895EF92FF920F931F9397
:1029F000CF93DF931F92CDB7DEB7182F062FF42E9B
:102A0000E22E2091060230910702AE014F5F5F4F28
:102A100082DF898121E030E00F2C01C0220F0A946F
:102A2000EAF7EE2019F0482F422B03C0422F4095C1
:102A300048234983602F812FBADE0F90DF91CF9119
:102A40001F910F91FF90EF900895DF92EF92FF9208
:102A50000F931F93CF93DF931F92CDB7DEB7F82E5E
:102A6000E62ED42E122F2091060230910702AE01DD
:102A70004F5F5F4F50DF882311F14D2D50E0411B18
:102A800051094F5F5F4FE1E0F0E002C0EE0FFF1F22
:102A90001A95E2F73197042E01C0EE0F0A94EAF777
:102AA00001C0000F4A95EAF74E2F409589814823CF
:102AB000E0234E2B49836E2D8F2D79DE01C080E0FF
:102AC0000F90DF91CF911F910F91FF90EF90DF90CA
:102AD00008958091900490E020919104821B9109C7
:102AE00008952091910480919004281750F4E22FCA
:102AF000F0E0EE56FB4F808190E02F5F2093910431
:102B000008958FEF9FEF0895E091910480919004D4
:102B1000E81730F4F0E0EE56FB4F808190E0089526
:102B20008FEF9FEF08950895CF92DF92EF92FF927B
:102B30000F931F93CF93DF937C01CB018A012091E8
:102B40006C04222389F0EB016B01C40ED51ECC1559
:102B5000DD0561F06991D701ED91FC910190F08163
:102B6000E02DC7011995F3CF642F8ED1C801DF91F5
:102B7000CF911F910F91FF90EF90DF90CF9008952C
:102B8000CF93DF931F92CDB7DEB7698320916C049A
:102B90002223D1F020916D04203240F021E030E07A
:102BA000FC013383228380E090E014C080916E04A6
:102BB000E82FF0E0E159FB4F998190838F5F80937C
:102BC0006E0480936D0404C061E0CE0101965CD177
:102BD00081E090E00F90DF91CF910895FC01138286
:102BE000128248EE53E060E070E0448355836683D0
:102BF00077838EE892E09183808308951092910408
:102C00001092900410926E0410926D0480C081E0C6
:102C100080936C0460938F0410926E0410926D0484
:102C200008950F93062F21E040916D046FE674E044
:102C300080918F04D2D010926E0410926D04109285
:102C40006C040F9108958F929F92AF92BF92CF9292
:102C5000DF92EF92FF920F931F93CF93DF93EC01DC
:102C6000F62ED42E48015901EE2009F1D0DF1E2D99
:102C7000143008F013E01150B8F0E881F98128E031
:102C8000129FB0011124A501940104C056954795E7
:102C9000379527956A95D2F7CA01B9010190F0815D
:102CA000E02DCE011995E7CF60E0CE01BADF4D2DC2
:102CB000413208F040E22C2D62E974E08F2D45D0BE
:102CC0001092910480939004DF91CF911F910F9106
:102CD000FF90EF90DF90CF90BF90AF909F908F903C
:102CE0000895CF92EF920F931F93C22EE12C00E034
:102CF00010E09801A8DF1F910F91EF90CF900895F9
:102D000021E0EFCF61E08DCF80E694E067CF1092B5
:102D10001F0581E080931D0510921C0561E084E190
:102D20000E944C1F61E085E10E944C1FE9EBF0E03E
:102D300080818E7F808380818D7F808388E48093F3
:102D4000B80085E48093BC000895413208F043C088
:102D500090911F059111FCCF91E090931F05209356
:102D60001D052FEF2093B2041092F704240F209337
:102D7000F60490931E0590911E05880F892B809371
:102D80001E0580911C05813061F410921C05809114
:102D90001E058093BB008091BC0083FDF8CF85ECBD
:102DA00001C085EE8093BC0080911F058130E1F366
:102DB0008091F704841710F44091F70428EF34E071
:102DC000FB01D9018A2F821B841718F48D918193FE
:102DD000F9CF842F089580E008950F93413208F0D1
:102DE0004AC090911F059111FCCF92E090931F056E
:102DF00000931D059FEF9093B2041092F704409347
:102E0000F604FB0168EF74E0DB019A2F961B941720
:102E100018F491919D93F9CF10921E0590911E0583
:102E2000880F892B80931E0580911C05813061F4E9
:102E300010921C0580911E058093BB008091BC0000
:102E400083FDF8CF85EC01C085EE8093BC00222382
:102E500021F080911F058230E1F38091B2048F3F11
:102E600061F08091B204803251F08091B2048033DD
:102E700041F483E007C081E005C080E003C082E048
:102E800001C084E00F910895613298F420911F05EC
:102E9000243089F46093D404FC0186ED94E0DC01D5
:102EA0002A2F281B261718F421912D93F9CF80E0A3
:102EB000089581E0089582E0089585ED8093BC0037
:102EC0008091BC0084FDFCCF10921F05089585EC15
:102ED0008093BC0010921F0508951F920F920FB6A9
:102EE0000F9211240BB60F922F933F934F935F9342
:102EF0006F937F938F939F93AF93BF93EF93FF93C2
:102F00008091B900887F803609F49DC070F58832C1
:102F100009F45CC090F4803109F455C038F488237A
:102F200009F4F3C0883009F44EC0F2C0883109F4C6
:102F30004DC0803209F45EC0EBC0803409F469C032
:102F400050F4803309F456C0883309F0E1C080930F
:102F5000B204BDDFDDC0803509F44FC0883509F407
:102F60005DC0883409F0D4C0D2C0883909F4C3C028
:102F7000A8F4883709F467C038F4883609F463C0C8
:102F8000803709F460C0C4C0883809F4B4C08039FF
:102F900009F45FC0803809F0BBC05BC0803B09F416
:102FA00082C038F4803A09F466C0883A09F47BC0DC
:102FB000AFC0803C09F4A3C0883C09F4A0C0883BA2
:102FC00009F486C0A5C080911E0510C09091F70439
:102FD0008091F604981770F5E091F70481E08E0F68
:102FE0008093F704F0E0E850FB4F80818093BB00B2
:102FF00085EC82C08093B2048AC0E091F70481E03E
:103000008E0F8093F7048091BB00F0E0E850FB4FF7
:1030100080839091F7048091F6046AC0E091F704F0
:1030200081E08E0F8093F7048091BB00F0E0E850C0
:10303000FB4F808380911D05811169C081E08093E1
:103040001C0584EA5DC083E080931F051092B304E1
:10305000CFCF8091B304803208F04DC0E091B3042B
:1030600081E08E0F8093B3048091BB00F0E0EC54BC
:10307000FB4F8083BDCF2BDF8091B304803230F4CF
:10308000E091B304F0E0EC54FB4F10826091B30484
:1030900070E0E0911805F091190584EB94E0199522
:1030A0001092B30435C084E080931F051092D504BC
:1030B0001092D404E0911A05F0911B0519958091A6
:1030C000D404811105C081E08093D4041092D60409
:1030D000E091D50481E08E0F8093D504F0E0EA52B0
:1030E000FB4F80818093BB009091D5048091D404E4
:1030F000981708F47DCF85E88093BC0009C085EC63
:103100008093BC0010921F0503C01092B204D5DE5C
:10311000FF91EF91BF91AF919F918F917F916F91AF
:103120005F914F913F912F910F900BBE0F900FBE6B
:103130000F901F90189528E6FC0120830895462FD4
:1031400069E1FC01808133CB0F93062F23E045E03A
:103150006AE1FC01808179DC0F9108950F93062FBD
:1031600023E042E06AE1FC0180816FDC0F91089569
:103170000F93062F22E044E06BE1FC01808165DCC7
:103180000F9108950F93062F22E044E06CE1FC01BB
:1031900080815BDC0F910895462F6FE1FC018081F7
:1031A00006CB462F60E2FC01808101CB462F61E215
:1031B000FC018081FCCA462F62E2FC018081F7CAD3
:1031C000643040F4262F220F260F2B5D622FFC0166
:1031D0008081EDCA0895462F68E3FC018081E7CA2B
:1031E000CF93DF93EC012091060230910702AC01EE
:1031F0004F5F5F4F6AE388818EDB8981DF91CF91DA
:103200000895262F46E06AE6FC018081EDCB262F4B
:1032100045E06AE6FC018081E7CB21E042E06AE616
:10322000FC018081E1CB21E041E06AE6FC01808184
:10323000DBCB21E047E06BE6FC018081D5CB262F7C
:1032400046E06BE6FC018081CFCB0F93062F23E095
:1032500042E06BE6FC018081F8DB0F910895CF938B
:10326000DF93EC0161E0F1DF60E0CE0181DF60E03F
:10327000CE0188DF60E0CE01DF91CF91E0CF0F93E8
:103280001F93CF93DF93EC01009106021091070288
:103290009C012F5F3F4F42E062E7888197DA898186
:1032A00090E0982F88272A81822BDF91CF911F9160
:1032B0000F9108950F931F939B01009106021091A7
:1032C000070264E7FC01808181DA1F910F91089564
:1032D0000F931F93CF93DF93EC010091060210919F
:1032E00007029C012F5F3F4F40E060E088811CDBBC
:1032F0008981DF91CF911F910F910895262F40E092
:1033000060E0FC01808170CBEF92FF920F931F93DE
:10331000CF93DF93EC01E0900602F09007028C015E
:103320000F5F1F4F26E046E060E0888121DB898146
:10333000DF91CF911F910F91FF90EF9008950F9320
:10334000062F26E046E060E0FC0180817EDB0F91E5
:103350000895EF92FF920F931F93CF93DF93EC01A9
:10336000E0900602F09007028C010F5F1F4F26E0ED
:1033700046E061E08881FCDA8981DF91CF911F917D
:103380000F91FF90EF9008950F93062F26E046E0EF
:1033900061E0FC01808159DB0F910895EF92FF926B
:1033A0000F931F93CF93DF93EC01E0900602F09010
:1033B00007028C010F5F1F4F26E046E062E0888124
:1033C000D7DA8981DF91CF911F910F91FF90EF9014
:1033D00008950F93062F26E046E062E0FC0180810D
:1033E00034DB0F910895262F47E06AE6FC018081C7
:1033F000FBCA21E043E06AE6FC018081F5CA6F71F7
:103400002111606241116064462F6DE6FC018081EC
:10341000CEC9462F6EE6FC018081C9C9CF93DF93E8
:10342000EC012091060230910702AC014F5F5F4F23
:103430006FE6888170DA8981DF91CF9108955F927C
:103440006F927F928F929F92AF92BF92CF92DF92B4
:10345000EF92FF920F931F93CF93DF937C015B0159
:103460006A01622E702E20E040E0662DC8DF602FDA
:10347000C701CFDFC0E0D0E0812C99249394CC1514
:10348000DD0590F5CE014096C816D90618F45C2CDF
:103490005C1A02C0A0E15A2E252D30E0C401871924
:1034A00091098217930714F4572C51940091060246
:1034B0001091070295012C0F3D1F452D6FE6F70176
:1034C000808184D9C50DD11D750CCC15DD05B8F6EC
:1034D000711001C0639420E040E0662DC7018FDFCA
:1034E000672DC70196DFCBCFDF91CF911F910F9151
:1034F000FF90EF90DF90CF90BF90AF909F908F9014
:103500007F906F905F9008952F923F924F925F92BD
:103510006F927F928F929F92AF92BF92CF92DF92E3
:10352000EF92FF920F931F93CF93DF9300D01F92E0
:103530001F92CDB7DEB79D838C837B836A834A015C
:10354000322ED02EE98220E040E0632D58DF602F3C
:103550008C819D815EDFE980EE2029F080E190E0A2
:103560000E94DC255C01CC2031F080E190E00E94DB
:10357000DC25582E492EE12CF12CE814F90408F032
:1035800074C0C70140968816990618F4282C2E1886
:1035900002C010E1212E222D30E080E091E08D1953
:1035A00091098217930714F42D2C2194EA81FB8151
:1035B000EE0DFF1DCC2059F0852DA52DB42D9A2F91
:1035C000981B921530F494919D933196F8CF5E2E0E
:1035D0004F2E252D342D422D6FE6AC81BD818C916F
:1035E000B0D8622C712CB981BB2351F1A114B10464
:1035F00039F120E040E0632D8C819D8100DF6D2D4D
:103600008C819D8106DF00910602109107029501D1
:10361000422D6FE6EC81FD818081D8D8A301B501F0
:10362000852D942D0E94E727892B51F0C5010E941A
:103630007426CC2039F1852D942D0E94742622C049
:10364000E60CF71CD20CE814F90408F096CFD11060
:1036500001C0339420E040E0632D8C819D81CFDE5A
:103660006D2D8C819D81D5DE88CFF981FF2319F0E6
:10367000C5010E947426CC2039F0852D942D0E941E
:10368000742602C080E001C081E00F900F900F907F
:103690000F900F90DF91CF911F910F91FF90EF90BE
:1036A000DF90CF90BF90AF909F908F907F906F9062
:1036B0005F904F903F902F900895CF92EF920F938D
:1036C000CC24C39421DF0F91EF90CF9008952F92D7
:1036D0003F924F925F926F927F928F929F92AF92A2
:1036E000BF92CF92DF92EF92FF920F931F93CF93EF
:1036F000DF9300D0CDB7DEB74C017B836A833A01FC
:10370000D22E222331F088E090E00E94DC25182F91
:10371000F92E212C312C2614370408F04FC0EA81F1
:10372000FB81E20DF31DC10103965C01DD20C1F0B8
:103730004491F10131968A819B81E80FF91F049130
:10374000F1013296E80FF91F5490511042C0F4E095
:103750002F0E311CEA81FB81EA0DFB1D84910DC007
:10376000408101815280EA81FB81E80FF91F5110ED
:103770000CC084E0280E311C80818130C1F442E30A
:1037800068E3F401808113D8C6CF1E2FFF2E452C8D
:10379000512CC12CEE24E394242FA201612F7F2D04
:1037A000C401B2DE12012A0C3B1C8111B4CFDD2012
:1037B00061F0812F9F2D0E94742607C0DD2039F013
:1037C000812F9F2D0E94742602C080E024C081E0DA
:1037D00022C0252C312CF2E0F51548F4B101812FDF
:1037E0009F2D49830E940327182FF92E4981812F8D
:1037F0009F2DA0E0B0E02A813B812A0D3B1DA21540
:10380000B30528F6F901EA0FFB1F5491FC0151930F
:10381000CF011196F4CF0F900F900F90DF91CF91C1
:103820001F910F91FF90EF90DF90CF90BF90AF90DE
:103830009F908F907F906F905F904F903F902F90D0
:10384000089521E044CF462F60E7FC0180810C946D
:10385000D713462F61E7FC0180810C94D71308959C
:10386000883008F06DC0E82FF0E0EE0FFF1FE85F32
:10387000FD4F7183608390E0FC013197E730F105E3
:1038800090F5E558FF4F0C94BE25809169008C7F20
:10389000842B80936900E89A089580916900440F11
:1038A000551F440F551F837F842B80936900E99A2D
:1038B00008958091690074E0440F551F7A95E1F7EF
:1038C0008F7C842B80936900EA9A08958091690027
:1038D00066E0440F551F6A95E1F78F73842B809340
:1038E0006900EB9A089580916A008C7F842B809305
:1038F0006A00EC9A089580916A00440F551F440FA6
:10390000551F837F842B80936A00ED9A08958091E0
:103910006A0024E0440F551F2A95E1F78F7C842B21
:1039200080936A00EE9A089580916A0096E0440FB1
:10393000551F9A95E1F78F73842B80936A00EF9A55
:1039400008951F920F920FB60F9211240BB60F928B
:103950002F933F934F935F936F937F938F939F9397
:10396000AF93BF93EF93FF93E0910C02F0910D02A0
:103970001995FF91EF91BF91AF919F918F917F9199
:103980006F915F914F913F912F910F900BBE0F90D0
:103990000FBE0F901F9018951F920F920FB60F92A7
:1039A00011240BB60F922F933F934F935F936F9316
:1039B0007F938F939F93AF93BF93EF93FF93E09188
:1039C0000E02F0910F021995FF91EF91BF91AF9107
:1039D0009F918F917F916F915F914F913F912F9127
:1039E0000F900BBE0F900FBE0F901F9018951F9257
:1039F0000F920FB60F9211240BB60F922F933F9395
:103A00004F935F936F937F938F939F93AF93BF93E6
:103A1000EF93FF93E0911002F09111021995FF913D
:103A2000EF91BF91AF919F918F917F916F915F9136
:103A30004F913F912F910F900BBE0F900FBE0F90A3
:103A40001F9018951F920F920FB60F9211240BB66C
:103A50000F922F933F934F935F936F937F938F9327
:103A60009F93AF93BF93EF93FF93E0911202F09176
:103A700013021995FF91EF91BF91AF919F918F9193
:103A80007F916F915F914F913F912F910F900BBE5E
:103A90000F900FBE0F901F9018951F920F920FB6A8
:103AA0000F9211240BB60F922F933F934F935F9376
:103AB0006F937F938F939F93AF93BF93EF93FF93F6
:103AC000E0910802F09109021995FF91EF91BF91E1
:103AD000AF919F918F917F916F915F914F913F91A6
:103AE0002F910F900BBE0F900FBE0F901F90189547
:103AF0001F920F920FB60F9211240BB60F922F93B5
:103B00003F934F935F936F937F938F939F93AF9365
:103B1000BF93EF93FF93E0910A02F0910B02199586
:103B2000FF91EF91BF91AF919F918F917F916F9195
:103B30005F914F913F912F910F900BBE0F900FBE51
:103B40000F901F9018951F920F920FB60F9211248D
:103B50000BB60F922F933F934F935F936F937F9387
:103B60008F939F93AF93BF93EF93FF93E0911402D2
:103B7000F09115021995FF91EF91BF91AF919F912F
:103B80008F917F916F915F914F913F912F910F9006
:103B90000BBE0F900FBE0F901F9018951F920F92A3
:103BA0000FB60F9211240BB60F922F933F934F93A2
:103BB0005F936F937F938F939F93AF93BF93EF9395
:103BC000FF93E0911602F09117021995FF91EF9182
:103BD000BF91AF919F918F917F916F915F914F9125
:103BE0003F912F910F900BBE0F900FBE0F901F9023
:103BF00018951F920F920FB60F9211242F933F9397
:103C00008F939F93AF93BF9380912105909122054D
:103C1000A0912305B09124053091200523E0230FC6
:103C20002D3720F40196A11DB11D05C026E8230FF4
:103C30000296A11DB11D209320058093210590932C
:103C40002205A0932305B09324058091250590912A
:103C50002605A0912705B09128050196A11DB11D4B
:103C60008093250590932605A0932705B0932805FA
:103C7000BF91AF919F918F913F912F910F900FBE68
:103C80000F901F9018952FB7F894609121057091AF
:103C9000220580912305909124052FBF08953FB7F9
:103CA000F8948091250590912605A0912705B09163
:103CB000280526B5A89B05C02F3F19F00196A11D28
:103CC000B11D3FBF6627782F892F9A2F620F711D74
:103CD000811D911D42E0660F771F881F991F4A952D
:103CE000D1F70895CF92DF92EF92FF92CF93DF93B7
:103CF0006B017C01D4DFEB01C114D104E104F104B8
:103D000079F007D4CCDF6C1B7D0B683E7340A0F3C9
:103D100081E0C81AD108E108F108C851DC4FECCFA6
:103D2000DF91CF91FF90EF90DF90CF90089578943E
:103D300084B5826084BD84B5816084BD85B58260B0
:103D400085BD85B5816085BDEEE6F0E0808181604E
:103D50008083E1E8F0E0108280818260808380814E
:103D600081608083E0E8F0E0808181608083E1EB26
:103D7000F0E0808184608083E0EBF0E0808181600E
:103D80008083E1E9F0E080818260808380818160CE
:103D90008083E0E9F0E0808181608083E1EAF0E007
:103DA000808182608083808181608083E0EAF0E0AE
:103DB000808181608083E1E2F1E0808182608083A4
:103DC000808181608083E0E2F1E080818160808396
:103DD000EAE7F0E080818460808380818260808374
:103DE0008081816080838081806880831092C1009F
:103DF000089590E0FC013197E231F10508F04BC0E5
:103E0000EE57FF4FBBC6809180008F7703C0809133
:103E100080008F7D80938000089580918000877F4F
:103E2000F9CF84B58F7702C084B58F7D84BD0895A6
:103E30008091B0008F7703C08091B0008F7D809318
:103E4000B0000895809190008F7707C08091900016
:103E50008F7D03C080919000877F809390000895AC
:103E60008091A0008F7707C08091A0008F7D03C054
:103E70008091A000877F8093A00008958091200109
:103E80008F7707C0809120018F7D03C08091200132
:103E9000877F8093200108950F931F93CF93DF9323
:103EA0001F92CDB7DEB7282F30E0F901E253F64F6D
:103EB0008491F901EC5EF54F1491F901E65AF54F42
:103EC00004910023C1F0882319F0698392DF69818E
:103ED000E02FF0E0EE0FFF1FE056F54FA591B491F3
:103EE0009FB7F8948C91611103C01095812301C094
:103EF000812B8C939FBF0F90DF91CF911F910F91DA
:103F00000895FC01818D228D90E0805C9F4F821B83
:103F100091098F7399270895FC01918D828D9817CF
:103F200031F0828DE80FF11D858D90E008958FEFBF
:103F30009FEF0895FC01918D828D981761F0828D1D
:103F4000DF01A80FB11D5D968C91928D9F5F9F73CD
:103F5000928F90E008958FEF9FEF08958FE491E2A4
:103F6000892B39F080E090E0892B19F098D18111EC
:103F700025C080E090E0892B41F080E090E0892B23
:103F800021F00E94000081111CC080E090E0892B8C
:103F900041F080E090E0892B21F00E940000811127
:103FA00013C080E090E0892BA1F080E090E0892BA5
:103FB00081F00E94000081110AC008950E94000053
:103FC000D8CF0E940000E1CF0E940000EACF0C94FD
:103FD00000000895FC01848DDF01A80FB11DA35AD4
:103FE000BF4F2C91848D90E001968F739927848F19
:103FF000A689B7892C93A089B1898C9180648C9310
:10400000938D848D981306C00288F389E02D8081FA
:104010008F7D80830895CF93DF93EC01888D882373
:10402000C1F0EA89FB89808185FD05C0A889B9892D
:104030008C9186FD0EC00FB607FCF5CF808185FF01
:10404000F2CFA889B9898C9185FFEDCFCE01C2DF6F
:10405000E8CFDF91CF910895CF92DF92FF920F9337
:104060001F93CF93DF931F92CDB7DEB76C0181E032
:10407000D60158968C9358975B969C915B975C966B
:104080008C915C97981307C05096ED91FC915197D5
:10409000808185FD2DC0F601038D10E00F5F1F4F5D
:1040A0000F731127F02EF601848DF81210C00FB691
:1040B00007FCF9CFD6015096ED91FC915197808184
:1040C00085FFF1CFC601698385DF6981ECCF838DE0
:1040D000E80FF11DE35AFF4F6083D6015B960C9306
:1040E0005B975296ED91FC915397808180620CC052
:1040F000D6015696ED91FC91579760835096ED91BD
:10410000FC91519780818064808381E090E00F90E2
:10411000DF91CF911F910F91FF90DF90CF90089585
:10412000BF92CF92DF92EF92FF92CF93DF93EC0199
:104130006A017B01B22EE889F98982E0808341150A
:1041400081EE58076105710599F060E079E08DE333
:1041500090E0A7019601F0D421503109410951099D
:104160005695479537952795211580E1380790F0AA
:10417000E889F989108260E874E88EE190E0A7018F
:104180009601DAD4215031094109510956954795D4
:1041900037952795EC85FD853083EE85FF85208357
:1041A000188EEC89FD89B082EA89FB898081806163
:1041B0008083EA89FB89808188608083EA89FB8922
:1041C000808180688083EA89FB8980818F7D8083FC
:1041D000DF91CF91FF90EF90DF90CF90BF90089547
:1041E0001F920F920FB60F9211240BB60F922F93BE
:1041F0008F939F93EF93FF93E0913905F0913A05E8
:104200008081E0913F05F091400582FD12C09081D0
:10421000809142058F5F8F7320914305821751F083
:10422000E0914205F0E0E75DFA4F958F80934205FB
:1042300001C08081FF91EF919F918F912F910F90FD
:104240000BBE0F900FBE0F901F9018951F920F92EC
:104250000FB60F9211240BB60F922F933F934F93EB
:104260005F936F937F938F939F93AF93BF93EF93DE
:10427000FF9389E295E0AEDEFF91EF91BF91AF91A0
:104280009F918F917F916F915F914F913F912F916E
:104290000F900BBE0F900FBE0F901F90189589E2E4
:1042A00095E02FDE21E0892B09F420E0822F08958C
:1042B00010922C0510922B0588EE93E0A0E0B0E060
:1042C00080932D0590932E05A0932F05B093300574
:1042D0008EE992E090932A058093290585EC90E081
:1042E000909336058093350584EC90E090933805E3
:1042F0008093370580EC90E090933A0580933905E0
:1043000081EC90E090933C0580933B0582EC90E03B
:1043100090933E0580933D0586EC90E09093400598
:1043200080933F0510924205109243051092440578
:104330001092450508950895FADCFDDF0E940B13E5
:10434000CEEADFE10E9489132097E1F307DEFACF7E
:10435000CF92DF92EF92FF920F931F93CF93DF9351
:104360007C016A01EB0100E010E00C151D0571F005
:104370006991D701ED91FC910190F081E02DC70189
:104380001995892B19F00F5F1F4FEFCFC801DF91EF
:10439000CF911F910F91FF90EF90DF90CF900895F4
:1043A0006115710581F0DB010D900020E9F7AD0189
:1043B00041505109461B570BDC01ED91FC910280E5
:1043C000F381E02D199480E090E00895DC01ED91F7
:1043D000FC91DB0114964D915C9115976D917C9148
:1043E0000280F381E02D19946AEA72E0D9CF0F932D
:1043F0001F93CF93DF93EC01E9DF8C01CE01F4DF53
:10440000800F911FDF91CF911F910F910895FC01B3
:1044100044835583668377830895FC01808191816D
:1044200063C4CF93DF93EC0188819981009709F0F1
:104430005BD4198218821D821C821B821A82DF9132
:10444000CF9108950F931F93CF93DF93EC018B01CE
:104450006F5F7F4F88819981D6D4009731F099831F
:1044600088831B830A8381E001C080E0DF91CF91C4
:104470001F910F910895CF93DF93EC01888199816B
:10448000892B29F08A819B818617970758F4CE01E2
:10449000D9DF882341F08C819D81892B19F4E88133
:1044A000F981108281E0DF91CF910895EF92FF9220
:1044B0000F931F93CF93DF93EC017B018A01BA0125
:1044C000DADF811103C0CE01ACDF06C01D830C838F
:1044D000B7018881998191D5CE01DF91CF911F914C
:1044E0000F91FF90EF900895FC01118210821382CA
:1044F0001282158214826115710551F0FB01019041
:104500000020E9F7AF0141505109461B570BCECFB0
:10451000089508955058BB27AA270ED0F8C1E9D1B5
:1045200030F0EED120F031F49F3F11F41EF4B9C108
:104530000EF4E095E7FBAFC1E92FFAD180F3BA178B
:10454000620773078407950718F071F49EF512C28D
:104550000EF4E0950B2EBA2FA02D0B01B90190019E
:104560000C01CA01A0011124FF27591B99F0593FE2
:1045700050F4503E68F11A16F040A22F232F342F2A
:104580004427585FF3CF469537952795A795F04078
:104590005395C9F77EF41F16BA0B620B730B840B8D
:1045A000BAF09150A1F0FF0FBB1F661F771F881F45
:1045B000C2F70EC0BA0F621F731F841F48F487959D
:1045C00077956795B795F7959E3F08F0B3CF93958C
:1045D000880F08F09927EE0F97958795089589D150
:1045E00058F080E891E009F49EEF8AD128F040E885
:1045F00051E059F45EEF09C054C1BCC1E92FE07825
:1046000097D168F3092E052AC1F326173707480703
:10461000590738F00E2E07F8E02569F0E025E06430
:104620000AC0EF6307F8009407FADB01B9019D01A6
:10463000DC01CA01AD01EF9343D069D10AD05F918B
:10464000552331F02BED3FE049E450FD49EC63CFB9
:104650000895DF93DD27B92FBF7740E85FE3161693
:10466000170648075B0710F4D92F8FD19F938F93BC
:104670007F936F9336D2E8E2F1E016D148D12F91C3
:104680003F914F915F9194D1DD2349F09058A2EA78
:104690002AED3FE049EC5FE3D0785D274DDFDF9105
:1046A00036C10CD034C12CD140F023D130F021F4EC
:1046B0005F3F19F0F0C051115EC1F3C039D198F3DA
:1046C0009923C9F35523B1F3951B550BBB27AA2793
:1046D00062177307840738F09F5F5F4F220F331F05
:1046E000441FAA1FA9F333D00E2E3AF0E0E830D0D1
:1046F00091505040E695001CCAF729D0FE2F27D0D4
:10470000660F771F881FBB1F261737074807AB07A1
:10471000B0E809F0BB0B802DBF01FF2793585F4F16
:104720002AF09E3F510568F0B6C025C15F3FECF30B
:10473000983EDCF3869577956795B795F7959F5FDB
:10474000C9F7880F911D9695879597F90895E1E02F
:10475000660F771F881FBB1F621773078407BA078E
:1047600020F0621B730B840BBA0BEE1F88F7E095E9
:10477000089504D06894B111FEC00895E1D088F086
:104780009F5790F0B92F9927B751A0F0D1F0660F3D
:10479000771F881F991F1AF0BA95C9F712C0B13058
:1047A00081F0E8D0B1E00895E5C0672F782F882721
:1047B000B85F39F0B93FCCF3869577956795B39597
:1047C000D9F73EF490958095709561957F4F8F4F06
:1047D0009F4F0895E89409C097FB3EF4909580950B
:1047E000709561957F4F8F4F9F4F9923A9F0F92FB7
:1047F00096E9BB279395F695879577956795B79535
:10480000F111F8CFFAF4BB0F11F460FF1BC06F5F1A
:104810007F4F8F4F9F4F16C0882311F096E911C02C
:10482000772321F09EE8872F762F05C0662371F04D
:1048300096E8862F70E060E02AF09A95660F771F61
:10484000881FDAF7880F9695879597F90895990F3D
:104850000008550FAA0BE0E8FEEF16161706E8074A
:10486000F907C0F012161306E407F50798F0621B6B
:10487000730B840B950B39F40A2661F0232B242B40
:10488000252B21F408950A2609F4A140A6958FEF5F
:10489000811D811D089597F99F6780E870E060E0B1
:1048A00008959FEF80EC0895DF93CF931F930F93AC
:1048B000FF92EF92DF927B018C01689405C0DA2EA3
:1048C000EF0176D0FE01E894A591259135914591AF
:1048D0005591AEF3EF0130DEFE019701A801DA94A5
:1048E00079F7DF90EF90FF900F911F91CF91DF91BB
:1048F000089500240A941616170618060906089546
:1049000000240A9412161306140605060895092EAB
:104910000394000C11F4882352F0BB0F40F4BF2B1A
:1049200011F460FF04C06F5F7F4F8F4F9F4F08955A
:1049300057FD9058440F551F59F05F3F71F0479550
:10494000880F97FB991F61F09F3F79F08795089535
:10495000121613061406551FF2CF4695F1DF08C054
:10496000161617061806991FF1CF86957105610571
:1049700008940895E894BB2766277727CB0197F919
:10498000089565DF08F48FEF08959B01AC0160E0A6
:1049900070E080E89FE385CE0BD0B9CFAADF28F086
:1049A000AFDF18F0952309F076CF7BCF1124E3CF4A
:1049B000BFDFA0F3959FD1F3950F50E0551F629F85
:1049C000F001729FBB27F00DB11D639FAA27F00D68
:1049D000B11DAA1F649F6627B00DA11D661F829F8F
:1049E0002227B00DA11D621F739FB00DA11D621F74
:1049F000839FA00D611D221F749F3327A00D611D91
:104A0000231F849F600D211D822F762F6A2F112472
:104A10009F5750408AF0E1F088234AF0EE0FFF1FC5
:104A2000BB1F661F771F881F91505040A9F79E3FFC
:104A3000510570F030CF9FCF5F3FECF3983EDCF331
:104A4000869577956795B795F795E7959F5FC1F739
:104A5000FE2B880F911D9695879597F9089511F46F
:104A60000EF41FCF41C06CDFD0F39923D9F3CEF3FE
:104A70009F57550B87FF46D00024A0E640EA9001DF
:104A800080585695979528F4805C660F771F881F8D
:104A900020F026173707480730F4621B730B840B8E
:104AA000202931294A2BA6951794079420253125D2
:104AB0004A2758F7660F771F881F20F026173707F9
:104AC000480730F4620B730B840B200D311D411D20
:104AD000A09581F7B901842F9158880F96958795F5
:104AE00008959B01AC0158CF9F3F31F0915020F4C5
:104AF000879577956795B795880F911D96958795BA
:104B000097F9089591505040660F771F881FD2F78C
:104B1000089597FB072E16F4009406D077FD08D071
:104B200037D007FC05D03EF4909581959F4F0895AE
:104B3000709561957F4F0895A1E21A2EAA1BBB1BA9
:104B4000FD010DC0AA1FBB1FEE1FFF1FA217B30759
:104B5000E407F50720F0A21BB30BE40BF50B661F6F
:104B6000771F881F991F1A9469F760957095809533
:104B700090959B01AC01BD01CF010895EE0FFF1F81
:104B80000590F491E02D19940790F691E02D199479
:104B9000AA1BBB1B51E107C0AA1FBB1FA617B70763
:104BA00010F0A61BB70B881F991F5A95A9F780957F
:104BB0009095BC01CD010895CF93DF93823091058C
:104BC00010F482E090E0E091C805F091C90520E082
:104BD00030E0A0E0B0E0309739F1408151814817D2
:104BE0005907B8F04817590771F4828193811097DB
:104BF00029F013969C938E9312972CC09093C9051D
:104C00008093C80527C02115310531F0421753079D
:104C100018F0A901DB0101C0EF019A01BD01DF011C
:104C20000280F381E02DD7CF21153105F9F0281B43
:104C3000390B2430310580F48A819B81611571051F
:104C400021F0FB019383828304C09093C905809374
:104C5000C805FE01329644C0FE01E20FF31F8193A6
:104C6000919322503109398328833AC02091C60597
:104C70003091C705232B41F42091020230910302A9
:104C80003093C7052093C6052091000230910102A0
:104C90002115310541F42DB73EB7409104025091E2
:104CA0000502241B350BE091C605F091C705E217FC
:104CB000F307A0F42E1B3F0B2817390778F0AC013F
:104CC0004E5F5F4F2417350748F04E0F5F1F50931C
:104CD000C7054093C6058193919302C0E0E0F0E0E0
:104CE000CF01DF91CF910895CF93DF93009709F41F
:104CF00087C0FC01329713821282C091C805D091FF
:104D0000C905209781F420813181280F391F8091B6
:104D1000C6059091C7058217930779F5F093C705EB
:104D2000E093C6056DC0DE0120E030E0AE17BF079E
:104D300050F412964D915C9113979D0141155105C8
:104D400009F1DA01F3CFB383A28340815181840F4B
:104D5000951F8A179B0771F48D919C911197840F71
:104D6000951F02969183808312968D919C91139743
:104D7000938382832115310529F4F093C905E093CB
:104D8000C8053EC0D9011396FC93EE9312974D913E
:104D90005D91A40FB51FEA17FB0779F4808191811B
:104DA000840F951F0296D90111969C938E93828150
:104DB000938113969C938E931297E0E0F0E08A81A2
:104DC0009B81009719F0FE01EC01F9CFCE0102960C
:104DD00028813981820F931F2091C6053091C70524
:104DE0002817390769F4309729F41092C9051092F1
:104DF000C80502C013821282D093C705C093C605AE
:104E0000DF91CF9108956F927F928F929F92AF9290
:104E1000BF92CF92DF92EF92FF920F931F93CF93A7
:104E2000DF93EC01CB01209779F4DF91CF911F91B3
:104E30000F91FF90EF90DF90CF90BF90AF909F9039
:104E40008F907F906F90B8CEFE01E60FF71F9E0106
:104E500022503109E217F30708F4A8C0D9010D91D7
:104E60001C91119706171707B0F00530110508F4CB
:104E70009BC0A801445051094617570708F494C035
:104E800002501109061B170B019311936D937C932C
:104E9000CF012ADF89C05B01A01AB10A4E01800E42
:104EA000911EA091C805B091C905612C712C60E0DC
:104EB00070E0109709F449C0A815B905C9F5ED903F
:104EC000FC901197670142E0C40ED11CCA14DB04A8
:104ED00078F147018A189B08640142E0C40ED11C96
:104EE0001296BC9012971396AC91B5E0CB16D104F4
:104EF00040F0B282A38391828082D9018D939C93EA
:104F000009C00E5F1F4F0E0D1F1DF9011183008395
:104F1000EB2DFA2F6115710531F0DB011396FC932F
:104F2000EE93129741C0F093C905E093C8053CC0C9
:104F30006D917C9111976616770608F43B01BD01CF
:104F400012960D90BC91A02DB4CF6091C6057091C2
:104F5000C70568157905E9F468167906D0F440911B
:104F60000002509101024115510541F44DB75EB761
:104F70006091040270910502461B570BE417F50778
:104F8000A8F4F093C705E093C605F90191838083E7
:104F90000BC012DE7C01009749F0A801BE0124D0AD
:104FA000CE01A2DEC70104C0CE0102C080E090E0C5
:104FB000DF91CF911F910F91FF90EF90DF90CF90F5
:104FC000BF90AF909F908F907F906F900895FB015E
:104FD000DC0104C08D910190801921F441505040B2
:104FE000C8F7881B990B0895FB01DC0102C00190F2
:104FF0000D9241505040D8F70895FB01DC0101901B
:0C5000000D920020E1F70895F894FFCF16
:10500C000000CA058000E8032F1C2F1C2F1C2F1C2E
:10501C002F1C2F1C2F1C2F1C546865204D505527FE
:10502C0073204649464F20686173206F766572661F
:10503C006C6F77656420616E64206265656E2072AA
:10504C0065736574004D505520646964206E6F74EF
:10505C0020696E697469616C697A652070726F7011
:10506C0065726C7900436F6D6D756E6963617469FF
:10507C006F6E7320636865636B0042616420696EB8
:10508C0070757420676976656E0000000000C015AD
:10509C0094156915711584159315000000002C20CA
:1050AC00A821811F9A1F8C1F0B200D0A006E616EA8
:0C50BC0000696E66006F7666002E000032
:00000001FF
