:100000007EC00000ADC00000ABC00000A9C0000071
:10001000A7C00000A5C00000A3C00000A1C0000050
:100020009FC000009DC000009BC0000099C0000060
:1000300097C0000095C0000093C0000091C0000070
:100040008FC000008DC000008BC0000089C0000080
:1000500087C0000085C0000083C00000D9C5000033
:100060007FC000000C9476080C94AC0879C00000A6
:1000700077C0000075C0000073C0000071C00000B0
:100080006FC000006DC000006BC0000069C00000C0
:100090000C9421090C94570963C0000087C4000028
:1000A0005FC000005DC000005BC0000059C00000E0
:1000B00057C0000055C0000053C00000D2C000006F
:1000C0004FC000004DC000004BC0000049C0000000
:1000D00047C0000045C0000043C0000041C0000010
:1000E0003FC000001303DC02E0021303EA02EE0249
:1000F000F402F90200031C03AA04DE088909112492
:100100001FBECFEFD1E2DEBFCDBF00E00CBF12E0DB
:10011000A0E0B2E0E8EDFDE100E00BBF02C0079017
:100120000D92AA3AB107D9F726E0AAEAB2E001C0D7
:100130001D92A335B207E1F710E0CEEFD0E000E06A
:1001400006C022970109FE010BBF0E94CB0CC63FDF
:10015000D10780E00807A9F70E94CD090C94EA0EA8
:100160004FCFFC01EE0FFF1FDF01AC5BBB4F8D914A
:100170009C9111978B339D4720F08AE39DE78D93E7
:100180009C93EC5BFB4F808191818D31954420F4F1
:100190008DE195E49183808308950F931F93CF930E
:1001A000DF938C01CB01BA01E801CC0FDD1FCC5BE2
:1001B000DB4F20E034E740E656E40E94400C0E940A
:1001C000860B28813981260F371F39832883C80180
:1001D000DF91CF911F910F91C4CFCF92DF92EF9219
:1001E000FF926B017C0160914604709147048091FD
:1001F000440490914504680F791F809148049091C0
:100200004904680F791F80914A0490914B04680F4C
:10021000791F769567957695679580E090E00E94C6
:10022000B20B9B01AC01C701B6010E94B90A6B0178
:100230007C01AB01BC0180E090E0AFDFB701A6011B
:1002400081E090E0AADFB701A60182E090E0A5DF9F
:10025000B701A60183E090E0FF90EF90DF90CF9090
:100260009CCF1F920F920FB60F9211240BB60F92D4
:100270002F933F938F939F93EF93FF9382B1807F50
:1002800082B980914C0490E0019683709927809305
:100290004C04FC01EE0FFF1FEC5BFB4F2081318112
:1002A000309329012093280192B121E030E001C070
:1002B000220F8A95EAF7922B92B9FF91EF919F91C5
:1002C0008F913F912F910F900BBE0F900FBE0F900B
:1002D0001F901895EF92FF920F931F93CF93DF9388
:1002E000EC01188219821A821B820B968DD41E8E05
:1002F000FE01EB59FF4F80E090E0A0E8BFE3808370
:100300009183A283B383148215821682178210868A
:1003100011861286138614861586168617867096A1
:1003200011821082138212821582148236961182F3
:1003300010821382128215821482369610821182E4
:1003400012821382148215821682178210861186F9
:10035000128613867E018FECE80EF11CF7011082E5
:1003600011821282138214821582168217821086DD
:100370001186128613861486158616861786108AAD
:10038000118A128A138A148A158A168A178A108E7D
:10039000118E128E138E148E158E168E178E10A23D
:1003A00011A212A213A214A215A216A217A201E072
:1003B00010E011A700A712A613A614A615A67ED4B6
:1003C000F701FE9660837183828393837E01FFEE43
:1003D000EF1AFEEFFF0AF7011082118212821382D8
:1003E0001482158216821782108611861286138651
:1003F0001486158616861786108A118A128A138A21
:10040000148A158A168A178A108E118E128E138EF0
:10041000148E158E168E178E10A211A212A213A280
:1004200014A215A216A217A211A700A712A613A61E
:1004300014A615A643D4F701FE96608371838283C8
:100440009383CD5ADE4F188219821A821B821C8236
:100450001D821E821F82188619861A861B861C869C
:100460001D861E861F86188A198A1A8A1B8A1C8A6C
:100470001D8A1E8A1F8A188E198E1A8E1B8E1C8E3C
:100480001D8E1E8E1F8E18A219A21AA21BA21CA2BC
:100490001DA21EA21FA219A708A71AA61BA61CA66A
:1004A0001DA60CD4FE01FE96608371838283938324
:1004B000DF91CF911F910F91FF90EF90089570E021
:1004C00080E090E00E94B40B20E030E04FE753E47E
:1004D0000E941E0B82CEFC01E552FF4FDC01A756A5
:1004E000BF4F4D915D916D917C91139740835183E6
:1004F00062837383EE5BFF4F14964D915D916D9116
:100500007C9113974083518362837383EE5BFF4F2B
:1005100014968D919D910D90BC91A02D8083918317
:10052000A283B3830895FC01E756FF4FDC01AD546D
:10053000BF4F4D915D916D917C9113974083518395
:1005400062837383349614964D915D916D917C9185
:1005500013974083518362837383349614968D91ED
:100560009D910D90BC91A02D80839183A283B38334
:10057000089580914304882319F085E195E066C7CA
:10058000E091B205F091B3050190F081E02D61E0BA
:1005900082EB95E01994CF93DF9300D000D0CDB7D4
:1005A000DEB78091420490E08930910578F5FC0136
:1005B000EE58FF4F0C94C50C8CEA92E0B4DF33C0C8
:1005C00063E572E0CE010196BED7BE016F5F7F4F3B
:1005D00082E025C060E070E0CB0104C061EF70EF05
:1005E00080E79EE3FADD1FC0109279031092780332
:1005F0001AC083E190E0909379038093780313C04D
:10060000609141048CEA92E05ADF0DC068E672E026
:10061000CE01019698D7BE016F5F7F4F87E1A9DFBA
:10062000CE01019629D726960FB6F894DEBF0FBEED
:10063000CDBFDF91CF9108958CEA92E04BCE8F929F
:100640009F92AF92BF92CF92DF92EF92FF92CF93A1
:10065000DF9300D000D0CDB7DEB780914304811185
:1006600025C06AE972E0CE0101966DD7BE016F5FC9
:100670007F4F82E07EDFCE010196FED613D36B0161
:100680007C014B01AA2497FCA094BA2C82EB95E044
:10069000BFD3892B69F406D3681979098A099B09A4
:1006A000643F714081059105C8F002C021E01CC083
:1006B000F9D2EE24D7FCE094FE2C6C197D098E094A
:1006C0009F09643F71408105910530F482EB95E00C
:1006D000B8D321E0029741F020E006C061E070E06D
:1006E00080E090E00ED3D2CF822F26960FB6F894FA
:1006F000DEBF0FBECDBFDF91CF91FF90EF90DF90B7
:10070000CF90BF90AF909F908F9008950F931F93BD
:10071000CF93DF938C0181B18F6081B9109220015A
:1007200089E080932101809173008260809373003F
:10073000CDE1D5E4D0934504C093440480E090E03B
:1007400010DDD0934704C093460481E090E009DDBA
:10075000D0934904C093480482E090E002DDD09336
:100760004B04C0934A0483E090E0FBDCE801C253F1
:10077000DF4F8881882311F062DF01C080E0888329
:10078000F801E453FF4F84E090E091838083C80137
:10079000DF91CF911F910F919ECE26E040E052EC69
:1007A00061E070E085E195E041D426E040E855E263
:1007B00060E070E082EB95E039D442E350E060E025
:1007C00070E085E195E052D642E350E060E070E0F1
:1007D00082EB95E04BD68CEA92E098CF82EB95E0E5
:1007E00017D302975CF082EB95E02BD38093420401
:1007F00082EB95E026D380934104CDCE089580917D
:100800007A03882389F0EADF8091AA029091AB02F3
:1008100001969093AB028093AA028436910521F44D
:100820001092AB021092AA02089580917C0490E08D
:1008300020917D04821B9109089520917D0480916F
:100840007C04281750F4E22FF0E0E258FB4F80813F
:1008500090E02F5F20937D0408958FEF9FEF089520
:10086000E0917D0480917C04E81730F4F0E0E258D8
:10087000FB4F808190E008958FEF9FEF08950895DA
:10088000CF92DF92EF92FF920F931F93CF93DF935C
:100890007C01CB018A0120915904222389F0EB01CC
:1008A0006B01C40ED51ECC15DD0561F06991D70131
:1008B000ED91FC910190F081E02DC7011995F3CFE6
:1008C000642F4BD0C801DF91CF911F910F91FF9002
:1008D000EF90DF90CF900895CF93DF931F92CDB725
:1008E000DEB76983209159042223D1F020915A0464
:1008F000203240F021E030E0FC013383228380E0AD
:1009000090E014C080915B04E82FF0E0E45AFB4FC4
:10091000998190838F5F80935B0480935A0404C015
:1009200061E0CE01019619D081E090E00F90DF9157
:10093000CF910895FC011382128248EE53E060E0EB
:1009400070E044835583668377838CE792E09183DC
:10095000808308958DE494E0EDCF613298F4209186
:100960000B05243089F46093C004FC0182EC94E010
:10097000DC012A2F281B261718F421912D93F9CF7B
:1009800080E0089581E0089582E0089585ED8093E8
:10099000BC008091BC0084FDFCCF10920B05089533
:1009A00085EC8093BC0010920B0508951F920F9266
:1009B0000FB60F9211240BB60F922F933F934F93C4
:1009C0005F936F937F938F939F93AF93BF93EF93B7
:1009D000FF938091B900887F803609F49DC070F53F
:1009E000883209F45CC090F4803109F455C038F4C1
:1009F000882309F4F3C0883009F44EC0F2C088316E
:100A000009F44DC0803209F45EC0EBC0803409F4B3
:100A100069C050F4803309F456C0883309F0E1C04E
:100A200080939E04BDDFDDC0803509F44FC088355A
:100A300009F45DC0883409F0D4C0D2C0883909F403
:100A4000C3C0A8F4883709F467C038F4883609F4BD
:100A500063C0803709F460C0C4C0883809F4B4C0EA
:100A6000803909F45FC0803809F0BBC05BC0803BAF
:100A700009F482C038F4803A09F466C0883A09F46F
:100A80007BC0AFC0803C09F4A3C0883C09F4A0C07F
:100A9000883B09F486C0A5C080910A0510C09091DA
:100AA000E3048091E204981770F5E091E30481E09B
:100AB0008E0F8093E304F0E0EC51FB4F8081809334
:100AC000BB0085EC82C080939E048AC0E091E30461
:100AD00081E08E0F8093E3048091BB00F0E0EC5145
:100AE000FB4F80839091E3048091E2046AC0E0911F
:100AF000E30481E08E0F8093E3048091BB00F0E07B
:100B0000EC51FB4F808380910905811169C081E020
:100B10008093080584EA5DC083E080930B05109202
:100B20009F04CFCF80919F04803208F04DC0E091A8
:100B30009F0481E08E0F80939F048091BB00F0E0C2
:100B4000E056FB4F8083BDCF2BDF80919F04803226
:100B500030F4E0919F04F0E0E056FB4F108260918A
:100B60009F0470E0E0910405F091050580EA94E0AF
:100B7000199510929F0435C084E080930B05109264
:100B8000C1041092C004E0910605F0910705199583
:100B90008091C004811105C081E08093C00410924F
:100BA000C204E091C10481E08E0F8093C104F0E0A3
:100BB000EE53FB4F80818093BB009091C1048091E4
:100BC000C004981708F47DCF85E88093BC0009C065
:100BD00085EC8093BC0010920B0503C010929E041C
:100BE000D5DEFF91EF91BF91AF919F918F917F9152
:100BF0006F915F914F913F912F910F900BBE0F908E
:100C00000FBE0F901F90189528E6FC0120830895D1
:100C10001F920F920FB60F9211242F933F938F9331
:100C20009F93AF93BF9380910D0590910E05A09176
:100C30000F05B091100530910C0523E0230F2D37DF
:100C400020F40196A11DB11D05C026E8230F0296D0
:100C5000A11DB11D20930C0580930D0590930E05E9
:100C6000A0930F05B0931005809111059091120586
:100C7000A0911305B09114050196A11DB11D80939B
:100C8000110590931205A0931305B0931405BF911D
:100C9000AF919F918F913F912F910F900FBE0F9029
:100CA0001F9018952FB7F89460910D0570910E055F
:100CB00080910F05909110052FBF08953FB7F894CC
:100CC0008091110590911205A0911305B091140522
:100CD00026B5A89B05C02F3F19F00196A11DB11D97
:100CE0003FBF6627782F892F9A2F620F711D811DB4
:100CF000911D42E0660F771F881F991F4A95D1F713
:100D00000895CF92DF92EF92FF92CF93DF936B0122
:100D10007C01D4DFEB01C114D104E104F10479F0CA
:100D200027D4CCDF6C1B7D0B683E7340A0F381E0C1
:100D3000C81AD108E108F108C851DC4FECCFDF91A7
:100D4000CF91FF90EF90DF90CF900895789484B585
:100D5000826084BD84B5816084BD85B5826085BDB7
:100D600085B5816085BDEEE6F0E08081816080839D
:100D7000E1E8F0E010828081826080838081816080
:100D80008083E0E8F0E0808181608083E1EBF0E047
:100D9000808184608083E0EBF0E0808181608083EB
:100DA000E1E9F0E0808182608083808181608083DE
:100DB000E0E9F0E0808181608083E1EAF0E0808119
:100DC00082608083808181608083E0EAF0E08081BE
:100DD00081608083E1E2F1E08081826080838081B4
:100DE00081608083E0E2F1E0808181608083EAE7D6
:100DF000F0E0808184608083808182608083808154
:100E0000816080838081806880831092C100089512
:100E1000FC01818D228D90E0805C9F4F821B9109A7
:100E20008F7399270895FC01918D828D981731F069
:100E3000828DE80FF11D858D90E008958FEF9FEF73
:100E40000895FC01918D828D981761F0828DDF01EC
:100E5000A80FB11D5D968C91928D9F5F9F73928FAD
:100E600090E008958FEF9FEF089585ED98E0892B2E
:100E700039F080E090E0892B19F097D1811124C0DE
:100E800080E899E0892B39F080E090E0892B19F017
:100E900037D281111CC080E090E0892B41F080E0C6
:100EA00090E0892B21F00E940000811113C080E0A6
:100EB00090E0892BA1F080E090E0892B81F00E94E6
:100EC000000081110AC008950E940000D9CF0E943D
:100ED0000000E1CF0E940000EACF0C9400000895CA
:100EE000FC01848DDF01A80FB11DA35ABF4F2C91C7
:100EF000848D90E001968F739927848FA689B78996
:100F00002C93A089B1898C9180648C93938D848D6E
:100F1000981306C00288F389E02D80818F7D80833D
:100F20000895CF93DF93EC01888D8823C1F0EA897F
:100F3000FB89808185FD05C0A889B9898C9186FDD2
:100F40000EC00FB607FCF5CF808185FFF2CFA889D0
:100F5000B9898C9185FFEDCFCE01C2DFE8CFDF915B
:100F6000CF910895CF92DF92FF920F931F93CF936B
:100F7000DF931F92CDB7DEB76C0181E0D6015896A2
:100F80008C9358975B969C915B975C968C915C9741
:100F9000981307C05096ED91FC915197808185FD83
:100FA0002DC0F601038D10E00F5F1F4F0F73112747
:100FB000F02EF601848DF81210C00FB607FCF9CFA1
:100FC000D6015096ED91FC915197808185FFF1CF2C
:100FD000C601698385DF6981ECCF838DE80FF11D40
:100FE000E35AFF4F6083D6015B960C935B97529652
:100FF000ED91FC915397808180620CC0D60156968A
:10100000ED91FC91579760835096ED91FC9151972B
:1010100080818064808381E090E00F90DF91CF91A8
:101020001F910F91FF90DF90CF900895BF92CF92C4
:10103000DF92EF92FF92CF93DF93EC016A017B0185
:10104000B22EE889F98982E08083411581EE580744
:101050006105710599F060E079E08DE390E0A7010A
:10106000960171D42150310941095109569547958E
:1010700037952795211580E1380790F0E889F9899F
:10108000108260E874E88EE190E0A70196015BD4DD
:1010900021503109410951095695479537952795B2
:1010A000EC85FD853083EE85FF852083188EEC89E5
:1010B000FD89B082EA89FB89808180618083EA8929
:1010C000FB89808188608083EA89FB8980818068D0
:1010D0008083EA89FB8980818F7D8083DF91CF9136
:1010E000FF90EF90DF90CF90BF9008951F920F92E6
:1010F0000FB60F9211240BB60F922F938F939F93DD
:10110000EF93FF93E0912505F09126058081E09112
:101110002B05F0912C0582FD12C0908180912E0547
:101120008F5F8F7320912F05821751F0E0912E056C
:10113000F0E0EB5EFA4F958F80932E0501C0808121
:10114000FF91EF919F918F912F910F900BBE0F9078
:101150000FBE0F901F9018951F920F920FB60F920F
:1011600011240BB60F922F933F934F935F936F937E
:101170007F938F939F93AF93BF93EF93FF9385E1FB
:1011800095E0AEDEFF91EF91BF91AF919F918F916E
:101190007F916F915F914F913F912F910F900BBE77
:1011A0000F900FBE0F901F90189585E195E030DEEF
:1011B00021E0892B09F420E0822F08951092180570
:1011C0001092170588EE93E0A0E0B0E08093190537
:1011D00090931A05A0931B05B0931C058CE892E030
:1011E000909316058093150585EC90E09093220569
:1011F0008093210584EC90E090932405809323054F
:1012000080EC90E0909326058093250581EC90E09A
:10121000909328058093270582EC90E090932A050F
:101220008093290586EC90E090932C0580932B0504
:1012300010922E0510922F05109230051092310554
:1012400008951F920F920FB60F9211240BB60F92B2
:101250002F938F939F93EF93FF93E091C205F091AB
:10126000C3058081E091C805F091C90582FD12C0D7
:1012700090818091CB058F5F8F732091CC05821771
:1012800051F0E091CB05F0E0EE54FA4F958F80934A
:10129000CB0501C08081FF91EF919F918F912F919C
:1012A0000F900BBE0F900FBE0F901F9018951F92BE
:1012B0000F920FB60F9211240BB60F922F933F93FC
:1012C0004F935F936F937F938F939F93AF93BF934E
:1012D000EF93FF9382EB95E003DEFF91EF91BF91D7
:1012E000AF919F918F917F916F915F914F913F91BE
:1012F0002F910F900BBE0F900FBE0F901F9018955F
:1013000082EB95E085DD21E0892B09F420E0822F36
:1013100008951092B5051092B40588EE93E0A0E010
:10132000B0E08093B6059093B705A093B805B0934D
:10133000B9058CE892E09093B3058093B2058DECEB
:1013400090E09093BF058093BE058CEC90E0909365
:10135000C1058093C00588EC90E09093C30580930D
:10136000C20589EC90E09093C5058093C4058AEC92
:1013700090E09093C7058093C6058EEC90E0909323
:10138000C9058093C8051092CB051092CC05109228
:10139000CD051092CE0508950895D8DCFDDFFDD966
:1013A000C5E3D7E02CDA2097E9F35FDDFBCFCF92DE
:1013B000DF92EF92FF920F931F93CF93DF937C0105
:1013C0006A01EB0100E010E00C151D0571F0699158
:1013D000D701ED91FC910190F081E02DC7011995A5
:1013E000892B19F00F5F1F4FEFCFC801DF91CF910D
:1013F0001F910F91FF90EF90DF90CF9008956115AE
:10140000710581F0DB010D900020E9F7AD0141503D
:101410005109461B570BDC01ED91FC910280F381D1
:10142000E02D199480E090E00895DC01ED91FC91AD
:10143000DB0114964D915C9115976D917C91028022
:10144000F381E02D199468E972E0D9CF0F931F93CF
:10145000CF93DF93EC01E9DF8C01CE01F4DF800F45
:10146000911FDF91CF911F910F910895FC0144834B
:101470005583668377830895FC018081918127C31A
:10148000CF93DF93EC0188819981009709F01FD3F6
:10149000198218821D821C821B821A82DF91CF91D1
:1014A00008950F931F93CF93DF93EC018B016F5F30
:1014B0007F4F888199819AD3009731F099838883EF
:1014C0001B830A8381E001C080E0DF91CF911F91EF
:1014D0000F910895CF93DF93EC0188819981892B37
:1014E00029F08A819B818617970758F4CE01D9DFAE
:1014F000882341F08C819D81892B19F4E881F98141
:10150000108281E0DF91CF910895EF92FF920F93C7
:101510001F93CF93DF93EC017B018A01BA01DADFDD
:10152000811103C0CE01ACDF06C01D830C83B7015F
:101530008881998148D4CE01DF91CF911F910F917D
:10154000FF90EF900895FC011182108213821282A5
:10155000158214826115710551F0FB010190002084
:10156000E9F7AF0141505109461B570BCECF089503
:1015700008955058BB27AA270ED048C139D130F062
:101580003ED120F031F49F3F11F41EF42EC10EF431
:10159000E095E7FB24C1E92F4AD180F3BA1762072F
:1015A00073078407950718F071F49EF562C10EF475
:1015B000E0950B2EBA2FA02D0B01B90190010C0163
:1015C000CA01A0011124FF27591B99F0593F50F47B
:1015D000503E68F11A16F040A22F232F342F4427D3
:1015E000585FF3CF469537952795A795F0405395CB
:1015F000C9F77EF41F16BA0B620B730B840BBAF09B
:101600009150A1F0FF0FBB1F661F771F881FC2F705
:101610000EC0BA0F621F731F841F48F48795779519
:101620006795B795F7959E3F08F0B3CF9395880FD0
:1016300008F09927EE0F9795879508950CD0E6C08E
:10164000DED040F0D5D030F021F45F3F19F0C7C0B4
:10165000511110C1CAC0EBD098F39923C9F3552397
:10166000B1F3951B550BBB27AA2762177307840795
:1016700038F09F5F5F4F220F331F441FAA1FA9F34B
:1016800033D00E2E3AF0E0E830D091505040E6953D
:10169000001CCAF729D0FE2F27D0660F771F881F9E
:1016A000BB1F261737074807AB07B0E809F0BB0B8D
:1016B000802DBF01FF2793585F4F2AF09E3F5105B1
:1016C00068F08DC0D7C05F3FECF3983EDCF38695A1
:1016D00077956795B795F7959F5FC9F7880F911D27
:1016E0009695879597F90895E1E0660F771F881F13
:1016F000BB1F621773078407BA0720F0621B730BC6
:10170000840BBA0BEE1F88F7E095089598D088F007
:101710009F5790F0B92F9927B751A0F0D1F0660FDD
:10172000771F881F991F1AF0BA95C9F712C0B130F8
:1017300081F09FD0B1E008959CC0672F782F882753
:10174000B85F39F0B93FCCF3869577956795B39537
:10175000D9F73EF490958095709561957F4F8F4FA6
:101760009F4F0895E89409C097FB3EF490958095AB
:10177000709561957F4F8F4F9F4F9923A9F0F92F57
:1017800096E9BB279395F695879577956795B795D5
:10179000F111F8CFFAF4BB0F11F460FF1BC06F5FBB
:1017A0007F4F8F4F9F4F16C0882311F096E911C0CD
:1017B000772321F09EE8872F762F05C0662371F0EE
:1017C00096E8862F70E060E02AF09A95660F771F02
:1017D000881FDAF7880F9695879597F9089597F9F6
:1017E0009F6780E870E060E008959FEF80EC0895C7
:1017F00000240A94161617061806090608950024F0
:101800000A9412161306140605060895092E039469
:10181000000C11F4882352F0BB0F40F4BF2B11F4DD
:1018200060FF04C06F5F7F4F8F4F9F4F089557FD3C
:101830009058440F551F59F05F3F71F04795880F3E
:1018400097FB991F61F09F3F79F0879508951216D5
:1018500013061406551FF2CF4695F1DF08C0161681
:1018600017061806991FF1CF869571056105089432
:101870000895E894BB2766277727CB0197F9089549
:101880000BD0C4CFB5DF28F0BADF18F0952309F0EC
:10189000A6CFABCF1124EECFCADFA0F3959FD1F333
:1018A000950F50E0551F629FF001729FBB27F00D0E
:1018B000B11D639FAA27F00DB11DAA1F649F662763
:1018C000B00DA11D661F829F2227B00DA11D621FB2
:1018D000739FB00DA11D621F839FA00D611D221F6C
:1018E000749F3327A00D611D231F849F600D211D50
:1018F000822F762F6A2F11249F5750408AF0E1F0F3
:1019000088234AF0EE0FFF1FBB1F661F771F881F3B
:1019100091505040A9F79E3F510570F060CFAACF7B
:101920005F3FECF3983EDCF3869577956795B79526
:10193000F795E7959F5FC1F7FE2B880F911D969550
:10194000879597F90895A1E21A2EAA1BBB1BFD01EA
:101950000DC0AA1FBB1FEE1FFF1FA217B307E4078E
:10196000F50720F0A21BB30BE40BF50B661F771FE6
:10197000881F991F1A9469F76095709580959095C6
:101980009B01AC01BD01CF010895EE0FFF1F059033
:10199000F491E02D19940790F691E02D1994CF93CE
:1019A000DF938230910510F482E090E0E0915106DF
:1019B000F091520620E030E0A0E0B0E0309739F13D
:1019C0004081518148175907B8F04817590771F4F9
:1019D00082819381109729F013969C938E9312978E
:1019E0002CC0909352068093510627C021153105D3
:1019F00031F04217530718F0A901DB0101C0EF01D4
:101A00009A01BD01DF010280F381E02DD7CF2115BE
:101A10003105F9F0281B390B2430310580F48A8117
:101A20009B816115710521F0FB019383828304C0C2
:101A30009093520680935106FE01329644C0FE01F7
:101A4000E20FF31F81939193225031093983288348
:101A50003AC020914F0630915006232B41F420913B
:101A60000202309103023093500620934F062091DA
:101A70000002309101022115310541F42DB73EB726
:101A80004091040250910502241B350BE0914F0652
:101A9000F0915006E217F307A0F42E1B3F0B281716
:101AA000390778F0AC014E5F5F4F2417350748F0D7
:101AB0004E0F5F1F5093500640934F0681939193B2
:101AC00002C0E0E0F0E0CF01DF91CF910895CF9325
:101AD000DF93009709F487C0FC01329713821282CA
:101AE000C0915106D0915206209781F42081318116
:101AF000280F391F80914F06909150068217930747
:101B000079F5F0935006E0934F066DC0DE0120E0BA
:101B100030E0AE17BF0750F412964D915C911397C9
:101B20009D014115510509F1DA01F3CFB383A28379
:101B300040815181840F951F8A179B0771F48D9105
:101B40009C911197840F951F029691838083129622
:101B50008D919C911397938382832115310529F4EC
:101B6000F0935206E09351063EC0D9011396FC93C0
:101B7000EE9312974D915D91A40FB51FEA17FB07E5
:101B800079F480819181840F951F0296D901119675
:101B90009C938E938281938113969C938E9312973C
:101BA000E0E0F0E08A819B81009719F0FE01EC01F2
:101BB000F9CFCE01029628813981820F931F20919F
:101BC0004F06309150062817390769F4309729F4E9
:101BD000109252061092510602C013821282D093C4
:101BE0005006C0934F06DF91CF9108956F927F9278
:101BF0008F929F92AF92BF92CF92DF92EF92FF921D
:101C00000F931F93CF93DF93EC01CB01209779F4CF
:101C1000DF91CF911F910F91FF90EF90DF90CF90C8
:101C2000BF90AF909F908F907F906F90B8CEFE0145
:101C3000E60FF71F9E0122503109E217F30708F45F
:101C4000A8C0D9010D911C91119706171707B0F084
:101C50000530110508F49BC0A801445051094617EE
:101C6000570708F494C002501109061B170B019383
:101C700011936D937C93CF012ADF89C05B01A01A79
:101C8000B10A4E01800E911EA0915106B0915206EC
:101C9000612C712C60E070E0109709F449C0A81520
:101CA000B905C9F5ED90FC901197670142E0C40EAB
:101CB000D11CCA14DB0478F147018A189B0864011F
:101CC00042E0C40ED11C1296BC9012971396AC91B0
:101CD000B5E0CB16D10440F0B282A383918280821A
:101CE000D9018D939C9309C00E5F1F4F0E0D1F1DD0
:101CF000F90111830083EB2DFA2F6115710531F085
:101D0000DB011396FC93EE93129741C0F0935206B9
:101D1000E09351063CC06D917C9111976616770651
:101D200008F43B01BD0112960D90BC91A02DB4CFDB
:101D300060914F067091500668157905E9F46816B0
:101D40007906D0F4409100025091010241155105ED
:101D500041F44DB75EB76091040270910502461BD5
:101D6000570BE417F507A8F4F0935006E0934F06DD
:101D7000F901918380830BC012DE7C01009749F04A
:101D8000A801BE0117D0CE01A2DEC70104C0CE015A
:101D900002C080E090E0DF91CF911F910F91FF9002
:101DA000EF90DF90CF90BF90AF909F908F907F90FB
:101DB0006F900895FB01DC0102C001900D9241502B
:101DC0005040D8F70895FB01DC0101900D920020EE
:081DD000E1F70895F894FFCF3C
:101DD800000053068000546865204D505527732035
:101DE8004649464F20686173206F766572666C6F4E
:101DF80077656420616E64206265656E2072657324
:101E08006574004D505520646964206E6F742069B4
:101E18006E697469616C697A652070726F70657239
:101E28006C7900436F6D6D756E69636174696F6E6F
:101E38007320636865636B0042616420696E707526
:101E48007420676976656E00000000006C04400429
:101E580015041D0430043F0400000000B207D70930
:101E680008072107130791070D0A006E616E0069C4
:0A1E78006E66006F7666002E000013
:00000001FF
