:100000005AC5000089C5000087C5000085C50000ED
:1000100083C5000081C500007FC500007DC50000CC
:100020007BC5000079C5000077C5000075C50000DC
:1000300073C5000071C500006FC500006DC50000EC
:100040006BC5000069C5000067C5000065C50000FC
:1000500063C5000061C500005FC500000C9439094C
:100060005BC50000F7C70000CCC7000055C5000005
:1000700053C5000051C500004FC500004DC500002C
:100080004BC5000049C5000047C5000045C500003C
:100090008FC7000064C700003FC500000C944A0BE6
:1000A0003BC5000039C5000037C5000035C500005C
:1000B00033C5000031C500002FC500000C944E0D63
:1000C0002BC5000029C5000027C5000025C500007C
:1000D00023C5000021C500001FC500001DC500008C
:1000E0001BC5000082088508740878087C08BC08D5
:1000F00089088D08930897089B08A108A508A908F6
:10010000BC08AF08B308B708084AD73B3BCE016E1E
:1001100084BCBFFDC12F3D6C74319ABD56833DDA5E
:100120003D00C77F11BED9E4BB4C3E916BAAAABE6D
:10013000000000803F0000002200250028002B0066
:100140002E003100340002010000050108010B01FE
:1001500000002100240027002A002D003000330079
:1001600001010000040107010A0105050505070555
:1001700008080808020202020A0A08080404040423
:10018000010101010101010103030303030303034F
:10019000040707070C0C0C0C0C0C0C0C02020202DE
:1001A00006060606060606060B0B0B0B0B0B0B0BC7
:1001B0000102102020080810204010204080020179
:1001C000020108040201010204081020408080405E
:1001D000201008040201800402018040201008045D
:1001E00002010804020101020408102040800102FB
:1001F00004081020408001B202FFFF01900409238F
:10020000A135016A0206000160080000000000003C
:100210000000006004400000000162020000006075
:100220000400400000037B034CCD6C03AB03365647
:100230007600680402CB47A202180400058BC101B6
:100240000C0400000000037F060CC92C979797034D
:100250008903264666006C0220000240040000006C
:1002600000024404000000000248040000000002F4
:100270004C0400000000025004000000000254047E
:100280000000000002580400000000025C040000AE
:10029000000002BC040000000001EC04000040006B
:1002A000037F060CC92C9797970402030D355D0454
:1002B0000904872D353D00A30100000000010786D9
:1002C00001FE074105F120283038077E013007463E
:1002D000019A074704F1283038076C04F1283038B8
:1002E0000216020001FB00003E000B003600010078
:1002F000020003000000650054FFEF0000FA8000D8
:100300000B1282000100020000000000000000004B
:10031000000000000000280000FFFF4581FFFFFAF9
:100320007200000000000003E80000000100017FEF
:10033000FFFFFE8001001B00000000000000000025
:100340000000000000003E03304000000002CAE34D
:10035000093E800000200000000000000040000076
:10036000006000000041FF000000000B2A000016A2
:100370005500002182FD872650FD800000001F00EF
:1003800000000580000000000000010000000200E5
:100390000000030000400000000000046F00026540
:1003A0003200005EC04000000000000000000000BD
:1003B0000000000000FB8C6F5DFD5D08D9007C73C0
:1003C0003B006C12CC3200139D3200D0D6320008B4
:1003D00000400001F4FFE68079020000000000D038
:1003E000D600002710FB00000040000000000000C5
:1003F00000000000000000000100000000000001FB
:1004000000010000000000FA36FFBC308E0005FB42
:10041000F0FFD95BC8FFD09ABE000010A9FFF41E00
:10042000B200CEBBF7000000010000000400020093
:10043000020200000CFFC280000001800000CF809B
:100440000040000000000000010000000000000665
:100450000000000014000000000000000000000088
:10046000000000000000000000000000000000008C
:10047000000000000000000000000000000000007C
:10048000000000000000000000033F68B679352836
:10049000BCC67ED16C80000000400000000000B2AD
:1004A0006A00000000000000000000000000003FA3
:1004B000F00000003000000000000000000000001C
:1004C000000000000000000000000000000000002C
:1004D00000000000000000254D002F706D00000599
:1004E000AE000C02D00000000000650054FFEF00D9
:1004F0000000000000000001000044000000000CAB
:100500000000000100000000000065000000540031
:1005100000FFEF00000000000000000000000000ED
:10052000000000000040000000000000000000008B
:10053000000000000040000000000000000000007B
:1005400000000000000000000100000002000000A8
:10055000000000000000000000000000000000009B
:10056000000000000000000000000000000000008B
:100570000000000000001B00000000000000000060
:10058000000000000000000000000000000000006B
:10059000000000000000000000000000000000005B
:1005A0000040000000001B000000000000000000F0
:1005B000000000000000000000000000000000003B
:1005C000000000000000000000000000000000002B
:1005D000000000000000000000000000000000001B
:1005E0000000000000D8DCBAA2F1DEB2B8B4A881E5
:1005F00091F74A907F916AF3F9DBA8F9B0BAA0802D
:10060000F2CE81F3C2F1C1F2C3F3CCA2B280F1C643
:10061000D880BAA7DFDFDFF2A7C3CBC5B6F087A2C9
:10062000942448703C95406834589B78A2F183929A
:100630002D557DD8B1B4B8A1D09180F270F370F28D
:100640007C80A8F101B09887D943D886C988BAA11F
:10065000F20EB89780F1A9DFDFDFAADFDFDFF2AAB1
:10066000C5CDC7A90CC92C97979797F1A98926469C
:1006700066B0B4BA80ACDEF2CAF1B28C02A9B69808
:1006800000890E161EB8A9B4992C547CB08AA8967D
:10069000365676F1B9AFB4B083C0B8A89711B18F10
:1006A00098B9AFF0240844106418F1A329557DAF20
:1006B00083B593AFF0002850F1A3869F61A6DADEE0
:1006C000DFD9FAA38696DB31A6D9F8DFBAA68FC2A6
:1006D000C5C7B28CC1B8A2DFDFDFA3DFDFDFD8D8A8
:1006E000F1B8A8B286B4980D355DB8AA98B0872D38
:1006F000353DB2B6BAAF8C96198F9FA70E161EB4B1
:100700009AB8AA872C547CB9A3DEDFDFA3B180F2AC
:10071000C4CDC9F1B8A9B499830D355D89B9A32DAC
:10072000557DB593A30E161EA92C547CB8B4B0F118
:100730009783A81184A50998A383F0DA24084410AC
:100740006418D8F1A529557DA58595021A2E3A562B
:100750005A4048F9F3A3D9F8F09883240844106468
:10076000189782A8F111F098A2240844106418DAAE
:10077000F3DED883A59401D9A302F1A2C3C5C7D8DB
:10078000F18492A24DDA2AD84869D92AD86855DA74
:1007900032D85071D932D8705DDA3AD85879D93A0E
:1007A000D87893A34DDA2AD84869D92AD86855DA77
:1007B00032D85071D932D8705DDA3AD85879D93AEE
:1007C000D878A88A9AF02850789EF38818F19F1D4F
:1007D00098A8D908D8C89F129EF315A8DA1210D885
:1007E000F1AFC8978734B5B994A421F3D922D8F2D0
:1007F0002DF3D92AD8F235F3D932D881A4606061BB
:10080000D961D86C6869D969D8747071D971D8B157
:10081000A384193D5DA3831A3E5E931030811011AD
:10082000B8B0AF8F94F2DA3ED8B49AA88729DAF834
:10083000D8879A35DAF8D8879A3DDAF8D8B1B9A4CA
:100840009885022E56A581000C14A397B08AF12D2D
:10085000D928D84DD948D86DD968D8B1840DDA0EC9
:10086000D8A32983DA2C0ED8A3844983DA2C4C0E22
:10087000D8B8B0A88A9AF520AADADFD8A840AAD0BA
:10088000DADED8A860AADAD0DFD8F19786A8319B43
:10089000069907AB9728889BF00C201440B8B0B499
:1008A000A88C9CF0042851791D301438B282ABD04A
:1008B000982C505078789BF11AB0F08A9CA8295156
:1008C000798B2951798A2470598B2058718A44690F
:1008D000388B3940688A6448318B304960A588205C
:1008E0000971584468113964493019F1AC002C542D
:1008F0007CF08CA804285078F1889726A85998ACE9
:100900008C02264666F0899CA829517924705944A6
:100910006938644831A98809205970AB1138406999
:10092000A8193148608CA83C415C207C00F1879874
:100930001986A86E767EA999882D557D9EB9A38AC1
:10094000228A6E8A568A5E9FB183062646660E2EDE
:100950004E6E9DB8AD002C547CF2B18CB499B9A305
:100960002D557D8191AC38AD3AB58391AC2DD92808
:10097000D84DD948D86DD968D88C9DAE29D904AE48
:10098000D851D904AED879D904D881F39DAD008D62
:10099000AE1981ADD901D8F2AEDA26D88E9129836D
:1009A000A7D9ADADADADF32AD8D8F1B0AC89913EA1
:1009B0005E76F3AC2E2EF1B18C5A9CAC2C282828F4
:1009C0009CAC3018A8988128343C9724A728343C44
:1009D0009C24F2B089AC912C4C6C8A9B2DD9D8D830
:1009E00051D9D8D879D9D8D8F19E88A331DAD8D8B6
:1009F000912DD928D84DD948D86DD968D8B18393CD
:100A0000353D8025DAD8D88569DAD8D8B49381A362
:100A100028343CF3AB8BF8A391B609B4D9ABDEFA1A
:100A2000B0879CB9A3DDF1A3A3A3A395F1A3A3A3CE
:100A30009DF1A3A3A3A3F2A3B49080F2A3A3A3A3C5
:100A4000A3A3A3A3A3A3B2A3A3A3A3A3A3B087B564
:100A500099F1A3A3A398F1A3A3A3A397A3A3A3A3EB
:100A6000F39BA3A3DCB9A7F1262626D8D8FF000064
:100A70000A0B02090C0D0E08070304010000000018
:100A80000000000000000000000000000000000066
:100A90000000000000000000000012111000000023
:100AA0000000000000000000000000000000000046
:100AB00000000000791B11241FBECFEFD1E2DEBF82
:100AC000CDBF00E00CBF12E0A0E0B2E0E2ECF4E445
:100AD00000E00BBF02C007900D92AA37B107D9F70B
:100AE00026E0AAE7B2E001C01D92A232B207E1F708
:100AF00015E0CBE5D5E000E006C021970109802F85
:100B0000FE010E940D1DCA35D10780E00807A9F734
:100B10000E94AC130C945F2273CAFC01A089B189B6
:100B20008C91A689B78982FD0FC09C91818D8F5FC2
:100B30008F73228D821749F0218DDF01A20FB11D25
:100B40005D969C93818F08958C910895FC01918D01
:100B5000828D981761F0828DDF01A80FB11D5D961F
:100B60008C91928D9F5F9F73928F90E008958FEF8D
:100B70009FEF0895FC01918D828D981731F0828D41
:100B8000E80FF11D858D90E008958FEF9FEF089598
:100B9000FC01918D228D892F90E0805C9F4F821BFC
:100BA00091098F739927089584E493E0F1DF21E0A0
:100BB000892B09F420E0822F089581EE93E0E8DF8D
:100BC00021E0892B09F420E0822F0895FC01848D17
:100BD000DF01A80FB11DA35ABF4F2C91848D90E067
:100BE00001968F739927848FA689B7892C93A08942
:100BF000B1898C9180648C93938D848D981306C0F9
:100C00000288F389E02D80818F7D80830895EF92A3
:100C1000FF920F931F93CF93DF93EC0181E0888FB6
:100C20009B8D8C8D981305C0E889F989808185FD9D
:100C300023C0F62E0B8D10E00F5F1F4F0F7311278F
:100C4000E02E8C8DE8120BC00FB607FCFACFE889B6
:100C5000F989808185FFF5CFCE01B8DFF2CF8B8D8A
:100C6000FE01E80FF11DE35AFF4FF0820B8FEA8976
:100C7000FB898081806207C0EE89FF896083E889F3
:100C8000F98980818064808381E090E0DF91CF9159
:100C90001F910F91FF90EF900895CF93DF93EC0198
:100CA000888D8823C1F0EA89FB89808185FD05C094
:100CB000A889B9898C9186FD0EC00FB607FCF5CFC7
:100CC000808185FFF2CFA889B9898C9185FFEDCF0E
:100CD000CE017CDFE8CFDF91CF91089580E090E0F6
:100CE000892B19F06ADF811120C080E090E0892B08
:100CF00019F05ADF81111CC080E090E0892B41F08F
:100D000080E090E0892B21F00E940000811113C047
:100D100080E090E0892BA1F080E090E0892B81F0C9
:100D20000E94000081110AC008950E940000DDCFDA
:100D30000E940000E1CF0E940000EACF0C94000066
:100D4000089580917A0290E020917B02821B9109A4
:100D5000089585ED8093BC008091BC0084FDFCCF9C
:100D60001092170308954091A302262F30E0240F1C
:100D7000311D21323105DCF4209117032430C9F4F0
:100D8000FC0180E090E0861758F43091A302219195
:100D9000DC01AF57BD4FA30FB11D2C930196F3CFCC
:100DA0008091A302680F6093A30280E0089581E020
:100DB000089582E008950895E0917B0280917A027F
:100DC000E81730F4F0E0E853FD4F808190E008959B
:100DD0008FEF9FEF089590917B0280917A02981790
:100DE00050F4E92FF0E0E853FD4F208130E09F5FA1
:100DF00090937B0202C02FEF3FEFC9010895CF927D
:100E0000DF92EF92FF920F931F93CF93DF937C01BA
:100E1000262F972F8A0180911803882391F0C62FDF
:100E2000D72F6E01C40ED51ECC15DD0569F0699172
:100E3000D701ED91FC910190F081E02DC70119954A
:100E4000F3CF642F822F8FDFC801DF91CF911F91E5
:100E50000F91FF90EF90DF90CF900895CF93DF93A5
:100E60001F92CDB7DEB76983209118032223D1F0FA
:100E700020913B03203240F021E030E0FC0133833D
:100E8000228380E090E014C080911903E82FF0E005
:100E9000E65EFC4F998190838F5F80931903809366
:100EA0003B0304C061E0CE0101965DDF81E090E08C
:100EB0000F90DF91CF9108954F925F926F927F9242
:100EC0008F929F92AF92BF92CF92DF92EF92FF925A
:100ED0006B017C014B015C01E894B7F828ED3FE021
:100EE00049E45FE30E9492212B013C0120E030E0C5
:100EF00040E85FE3C501B4010E94151D9B01AC01F0
:100F0000C701B6010E9492216B017C012BE438ECF1
:100F100047E85DE3C501B4010E94922123EA32E96A
:100F20004AE75EE30E94161D9B01AC01C701B601B2
:100F30000E9492219B01AC01C301B2010E94151DC8
:100F4000FF90EF90DF90CF90BF90AF909F908F90E9
:100F50007F906F905F904F9008950E9410211F9294
:100F60000F920FB60F9211240BB60F922F933F934F
:100F70004F935F936F937F938F939F93AF93BF93A1
:100F8000EF93FF9384E493E021DEFF91EF91BF9113
:100F9000AF919F918F917F916F915F914F913F9111
:100FA0002F910F900BBE0F900FBE0F901F901895B2
:100FB0001F920F920FB60F9211240BB60F922F9320
:100FC0003F934F935F936F937F938F939F93AF93D1
:100FD000BF93EF93FF9384E493E09FDDFF91EF9144
:100FE000BF91AF919F918F917F916F915F914F9141
:100FF0003F912F910F900BBE0F900FBE0F901F903F
:1010000018951F920F920FB60F9211240BB60F92E4
:101010002F933F934F935F936F937F938F939F9300
:10102000AF93BF93EF93FF9381EE93E0CFDDFF91FA
:10103000EF91BF91AF919F918F917F916F915F9150
:101040004F913F912F910F900BBE0F900FBE0F90BD
:101050001F9018951F920F920FB60F9211240BB686
:101060000F922F933F934F935F936F937F938F9341
:101070009F93AF93BF93EF93FF9381EE93E04DDD8A
:10108000FF91EF91BF91AF919F918F917F916F9160
:101090005F914F913F912F910F900BBE0F900FBE1C
:1010A0000F901F901895362F90E0FC01E259F54FF4
:1010B0004491FC01E055FE4F2491FC01E659FE4F9E
:1010C0009491992309F46BC0442309F455C050E06E
:1010D000FA013197E231F10508F04EC08827EE5849
:1010E000FF4F8F4F0C940D1D809180008F7707C0AC
:1010F000809180008F7D03C080918000877F8093E6
:1011000080003AC084B58F7702C084B58F7D84BDDE
:1011100033C08091B0008F7703C08091B0008F7D85
:101120008093B00029C0809190008F7707C0809194
:1011300090008F7D03C080919000877F8093900006
:101140001BC08091A0008F7707C08091A0008F7D89
:1011500003C08091A000877F8093A0000DC0809184
:1011600020018F7707C0809120018F7D03C080917F
:101170002001877F80932001E92FF0E0EE0FFF1F11
:10118000EA5CFE4FA591B4918FB7F894EC913111C0
:1011900003C020952E2301C02E2B2C938FBF0895C2
:1011A0003FB7F8948091ED029091EE02A091EF028A
:1011B000B091F00226B5A89B05C02F3F19F001960B
:1011C000A11DB11D3FBFBA2FA92F982F8827820FCD
:1011D000911DA11DB11DBC01CD0142E0660F771F1D
:1011E000881F991F4A95D1F708958F929F92AF92C9
:1011F000BF92CF92DF92EF92FF926B017C01D0DF22
:101200004B015C01C114D104E104F104E9F0C8DF31
:10121000DC01CB0188199909AA09BB09883E9340D2
:10122000A105B10578F321E0C21AD108E108F1085F
:1012300088EE880E83E0981EA11CB11CC114D10455
:10124000E104F10421F7DECFFF90EF90DF90CF9023
:10125000BF90AF909F908F9008952FB7F8946091B2
:10126000E9027091EA028091EB029091EC022FBFAB
:1012700008951F920F920FB60F9211242F933F9350
:101280008F939F93AF93BF938091E9029091EA026D
:10129000A091EB02B091EC023091E80223E0230F21
:1012A0002D3720F40196A11DB11D05C026E8230F9E
:1012B0000296A11DB11D2093E8028093E90290934C
:1012C000EA02A093EB02B093EC028091ED029091C0
:1012D000EE02A091EF02B091F0020196A11DB11DA6
:1012E0008093ED029093EE02A093EF02B093F00290
:1012F000BF91AF919F918F913F912F910F900FBE12
:101300000F901F901895EF92FF920F931F93CF931A
:10131000DF931F921F92CDB7DEB7142F91E0909309
:10132000180380933A031092190310923B038EE73F
:1013300094E029833A8392DD2981022FE22E3A81BB
:10134000F32E8E2D801B811738F4F70161917F01F8
:101350008EE794E083DDF5CFEAD491E0811190E04F
:10136000892F0F900F90DF91CF911F910F91FF90D8
:10137000EF900895CF93DF931F92CDB7DEB74983E7
:101380009E012F5F3F4F41E0BEDF0F90DF91CF9175
:1013900008952F923F924F925F926F927F928F9219
:1013A0009F92AF92BF92CF92DF92EF92FF920F93F4
:1013B0001F93CF93DF93CDB7DEB727970FB6F8947F
:1013C000DEBF0FBECDBFE82E6B834F83690145DFC3
:1013D0004B015C016E2C660CF12C1E8277247394F9
:1013E0005F81452F50E05D834C831801412C512CC7
:1013F0004F81F41608F095C070921803E0923A03FA
:101400001092190310923B036B818EE794E026DD66
:101410008ED470921803E0923A031092190310923E
:101420003B03809117038111FCCF2C813D812F1943
:1014300031092132310514F020E230E0213208F088
:1014400020E270921703709216038FEF80931503BA
:1014500010921403820F809313037092F202809112
:10146000F20286298093F2028091F102813071F4B8
:101470001092F1028091F2028093BB008091BC0037
:1014800083FDF8CF95EC9093BC0003C0E5EEE093AC
:10149000BC00809117038130E1F38091140382171F
:1014A00010F420911403A3EFB2E0E8ECF2E08E2FE9
:1014B00048EC52E0841B821718F48D918193F7CF8A
:1014C00010927B0220937A0290917A0280917B02A3
:1014D000981709F10115110591F4A6012E81420F0B
:1014E000511D27FD5A955A8349838EE794E073DC9A
:1014F000E981FA8180832E812F5F2E83E5CFADDED7
:10150000DC01CB0188199909AA09BB098215930549
:10151000A405B50510F38F81813208F080E2F80E42
:1015200067CFFE8001151105D1F097DEDC01CB01FC
:1015300088199909AA09BB0920E030E080179107B2
:10154000A207B30760F05F81252F30E08F2D0F2CAD
:10155000000C990B8217930714F4FF24FA948F2D33
:1015600027960FB6F894DEBF0FBECDBFDF91CF91A7
:101570001F910F91FF90EF90DF90CF90BF90AF90B1
:101580009F908F907F906F905F904F903F902F90A3
:101590000895BF92CF92DF92EF92FF920F931F9325
:1015A000CF93DF931F92CDB7DEB7F82EE62EC42E71
:1015B000B22ED02E08EE13E09E012F5F3F4F41E088
:1015C000E8DE882319F1EC2DF0E0EB19F1093196F2
:1015D00021E030E002C0220F331FBA94E2F721501D
:1015E00031090E2E01C0220F0A94EAF78D2D01C099
:1015F000880FEA95EAF7422F4095998149232823DD
:10160000422B49836E2D8F2DB5DE01C080E00F90F7
:10161000DF91CF911F910F91FF90EF90DF90CF90CE
:10162000BF900895CF92DF92EF92FF920F931F9396
:10163000CF93DF931F92CDB7DEB7F82EE62ED42ED0
:10164000C22E08EE13E09E012F5F3F4F41E0A1DE66
:101650009981CC2041F041E050E001C0440FDA9480
:10166000EAF7492B09C021E030E0A90101C0440F8D
:10167000DA94EAF74095492349836E2D8F2D7ADE5F
:101680000F90DF91CF911F910F91FF90EF90DF901E
:10169000CF9008951F920F920FB60F9211240BB6A0
:1016A0000F922F933F934F935F936F937F938F93FB
:1016B0009F93AF93BF93EF93FF938091B900887F7F
:1016C000803609F49CC068F5883209F45BC090F458
:1016D000803109F454C038F4882309F4F6C0883006
:1016E00009F44DC0F5C0883109F44CC0803209F4CA
:1016F0005DC0EEC0803409F468C048F4803309F45A
:1017000055C0883309F0E4C080931503D8C08035F4
:1017100009F44FC0883509F45DC0883409F0D8C099
:10172000D6C0883909F4C7C0A8F4883709F467C05F
:1017300038F4883609F463C0803709F460C0C8C043
:10174000883809F4B8C0803909F45FC0803809F0DE
:10175000BFC05BC0803B09F486C038F4803A09F40E
:1017600066C0883A09F47FC0B3C0803C09F4A7C0C2
:10177000883C09F4A4C0883B09F48AC0A9C08091C0
:10178000F20210C09091140380911303981770F522
:10179000E091140381E08E0F80931403F0E0ED508C
:1017A000FD4F80818093BB0085EC86C0809315033C
:1017B0008EC0E091140381E08E0F8093140380911A
:1017C000BB00F0E0ED50FD4F8083909114038091B9
:1017D00013036EC0E091140381E08E0F8093140315
:1017E0008091BB00F0E0ED50FD4F808380911603A7
:1017F00081116DC081E08093F10284EA61C083E0D1
:10180000809317031092C702CFCF8091C702803216
:1018100008F051C0E091C70281E08E0F8093C702AB
:101820008091BB00F0E0E955FD4F8083BDCF85EC92
:101830008093BC00109217038091C702803230F46D
:10184000E091C702F0E0E955FD4F10826091C702B8
:1018500070E0E091A502F091A60287EA92E0199566
:101860001092C70235C084E0809317031092A4023F
:101870001092A302E091A102F091A2021995809129
:10188000A302811105C081E08093A302109281021E
:10189000E091A40281E08E0F8093A402F0E0EF5764
:1018A000FD4F80818093BB009091A4028091A302A0
:1018B000981708F479CF85E88093BC0009C085ECBF
:1018C0008093BC001092170303C01092150341DAF5
:1018D000FF91EF91BF91AF919F918F917F916F9108
:1018E0005F914F913F912F910F900BBE0F900FBEC4
:1018F0000F901F90189561E084E493E088C94F929F
:101900005F926F927F928F929F92AF92BF92CF928F
:10191000DF92EF92FF92CF93DF93EC0148A359A39C
:101920006AA37BA388899989AA89BB898C8B9D8BA3
:10193000AE8BBF8B9A01AB016C857D858E859F85B3
:101940000E94151D688B798B8A8B9B8B86DC28A562
:1019500039A5621B730B7DA76CA77FDC68A779A7ED
:101960008AA79BA7C888D988EA88FB886CA57DA52B
:1019700080E090E00E9431214B015C019B01AC01B1
:10198000C701B6010E94922120E030E04AE754E40A
:101990000E94DC1D288D398D4A8D5B8D0E94161D9D
:1019A0002B013C01688F798F8A8F9B8F2C893D8911
:1019B0004E895F89C701B6010E94151DA5019401DA
:1019C0000E94DC1D4B015C016C8F7D8F8E8F9F8F81
:1019D000288139814A815B81C701B6010E94922129
:1019E0006B017C012C813D814E815F81C301B2017D
:1019F0000E9492219B01AC01C701B6010E94161DF5
:101A00006B017C01288539854A855B85C501B40158
:101A10000E9492219B01AC01C701B6010E94161DD4
:101A20006CA37DA38EA39FA3DF91CF91FF90EF9036
:101A3000DF90CF90BF90AF909F908F907F906F90EE
:101A40005F904F900895CF92DF92EF92FF926B01DB
:101A50007C0120E030E040E85FE30E949A1E181607
:101A6000B4F4A701960160E070E080E89FE30E9473
:101A7000DC1D22DA9B01AC016AED7FE089EC9FE37B
:101A80000E94151DFF90EF90DF90CF900895C70141
:101A9000B601FF90EF90DF90CF900ECA1F920F9289
:101AA0000FB60F9211240BB60F922F933F934F93C3
:101AB0006F937F938F939F93EF93FF9382B1807F78
:101AC00082B98091800290E001968370992780937B
:101AD0008002FC01EE0FFF1FE45CFC4F208131818E
:101AE000309329012093280142B121E030E0B9016F
:101AF00002C0660F771F8A95E2F7CB01842B82B96B
:101B0000FF91EF919F918F917F916F914F913F91B5
:101B10002F910F900BBE0F900FBE0F901F90189536
:101B20000F931F93CF93DF93EC01FC01EE0FFF1F88
:101B3000EE0FFF1FE758FA4F2091890530918A0573
:101B400040918B0550918C056081718182819381D8
:101B50000E94161D20E034E740E656E40E949221E0
:101B60000E94491E8B01035E1A4BB80180E090E091
:101B70000E9431212DEC3CE548EC56E40E949A1E6F
:101B80009E01220F331F181634F0F901E45CFC4F5C
:101B90001183008307C08EE294E6F901E45CFC4FF8
:101BA00091838083F901E45CFC4F808191818D31C8
:101BB000954420F48DE195E491838083DF91CF916A
:101BC0001F910F9108951092790510927A05109245
:101BD0007B0510927C0580E090E0A2DF10927D05ED
:101BE00010927E0510927F051092800581E090E0B2
:101BF00097DF109281051092820510928305109252
:101C0000840582E090E08CDF1092850510928605B5
:101C1000109287051092880583E090E081CF80E0E4
:101C200090E07EDF81E090E07BDF82E090E078DF93
:101C300083E090E075CF2F923F924F925F926F9228
:101C40007F928F929F92AF92BF92CF92DF92EF924C
:101C5000FF920F931F93CF93DF934C015B016A01B7
:101C60001901EC01CC0FDD1FCC0FDD1FC758DA4F77
:101C7000A8019701688179818A819B810E94161D44
:101C8000688379838A839B83C4014ADFE501CC0F93
:101C9000DD1FCC0FDD1FC758DA4FA80197016881FF
:101CA00079818A819B810E94161D688379838A834A
:101CB0009B83C50135DFE601CC0FDD1FCC0FDD1F97
:101CC000C758DA4FA8019701688179818A819B8181
:101CD0000E94151D688379838A839B83C60120DF58
:101CE000E101CC0FDD1FCC0FDD1FC758DA4FA80173
:101CF0009701688179818A819B810E94151D688383
:101D000079838A839B83C101DF91CF911F910F91CA
:101D1000FF90EF90DF90CF90BF90AF909F908F900B
:101D20007F906F905F904F903F902F90F9CE2091D1
:101D30003B0390913A03213208F04AC08091170387
:101D40008111FCCF32E03093170331E0309316035A
:101D50003FEF309315031092140320931303AAE16D
:101D6000B3E043EF52E0FA013E2F341B321718F470
:101D70003D913193F9CF1092F2022091F202990F26
:101D8000922B9093F2029091F102913061F41092B3
:101D9000F1029091F2029093BB009091BC0093FDF0
:101DA000F8CF95EC01C095EE9093BC00909117038D
:101DB0009230E1F3909115039F3F79F080911503E4
:101DC000803241F080911503803331F084E005C00A
:101DD00081E003C082E001C083E0109219031092F9
:101DE0003B0310921803089521E042E06AE68091D7
:101DF000950418CC482F6EE680919504BBCA2F92AB
:101E00003F924F925F926F927F928F929F92AF928A
:101E1000BF92CF92DF92EF92FF920F931F93CF93D7
:101E2000DF933C015B01342EC22F202E4F716DE6F3
:101E3000809195049FDA8C2FDDDF80E190E00E9495
:101E4000FF1E6C01002331F080E190E00E94FF1E34
:101E5000582E492EE12CF12CEA14FB0408F067C03F
:101E6000C7014096A816B90618F4DA2DDE1901C08C
:101E7000D0E18D2F90E020E031E02C1B31092817B4
:101E8000390714F4DC2FD195F301EE0DFF1D22204C
:101E900059F0952DA52DB42D8A2F891B8D1730F45F
:101EA00084918D933196F8CF5E2E4F2E252D342DB3
:101EB0004D2F6FE68091950426DA8D2E912CC1145A
:101EC000D10411F1432D4F716DE68091950452DAE2
:101ED0008C2F90DF08EE13E096014D2F6FE6809176
:101EE000950457DAA401B601852D942D0E94142182
:101EF000892B51F0C6010E94941F222011F1852DDB
:101F0000942D0E94941F1DC0E80CF91CCD0FEA14FB
:101F1000FB0408F0A1CFC11101C03394432D4F71D0
:101F20006DE68091950426DA8C2F64DF95CFC6018B
:101F30000E94941F222039F0852D942D0E94941F19
:101F400002C080E001C081E0DF91CF911F910F912D
:101F5000FF90EF90DF90CF90BF90AF909F908F90C9
:101F60007F906F905F904F903F902F9008950F93C8
:101F70001F93462F05E010E09C0164E780919504D3
:101F800008DA1F910F9108950F931F93CF93DF935A
:101F9000CAE8D4E008EE13E026E934E042E062E764
:101FA0008B85F7D98C8590E0982F88272D85822BFB
:101FB000DF91CF911F910F910895EF92FF920F93B0
:101FC0001F93CF93DF931F92CDB7DEB77A018901BC
:101FD0009E012F5F3F4F41E0DCD9882339F02981F2
:101FE0002E7730E035952795F70120830F90DF910C
:101FF000CF911F910F91FF90EF900895CF92DF92B4
:10200000EF92FF920F931F93CF93DF936C017A01AE
:102010008B01C0E0D0E0CE15DF0589F0D8016D91CD
:102020008D01D601ED91FC910190F081E02DC6016A
:102030001995892B11F47E0102C02196ECCFC701BE
:10204000DF91CF911F910F91FF90EF90DF90CF9094
:1020500008950F931F9301D960934C0370934D0320
:1020600080934E0390934F03E0914403F091450316
:102070000084F185E02D84E493E0199597FF1EC05C
:10208000ECD800914C0310914D0320914E033091F8
:102090004F03DC01CB01801B910BA20BB30B009112
:1020A00048031091490320914A0330914B03801754
:1020B0009107A207B307C0F28FEF9FEF1F910F9117
:1020C0000895EF92FF920F931F93CF93DF93EC014C
:1020D000198218821B821A821D821C826115710569
:1020E000A9F17B01FB0101900020E9F731978F01F5
:1020F000061B170BB8016F5F7F4F80E090E00E94D6
:102100002C20009759F0998388831B830A832C81A4
:102110003D81232B81F4FC0110820DC088819981BF
:10212000009711F00E94941F198218821D821C8250
:102130001B821A820BC01D830C83B701DF91CF91E4
:102140001F910F91FF90EF900C942A21DF91CF9176
:102150001F910F91FF90EF9008952F923F924F9211
:102160005F926F927F928F929F92AF92BF92CF9227
:10217000DF92EF92FF920F931F93CF93DF93CDB730
:10218000DEB7A0970FB6F894DEBF0FBECDBF80912B
:10219000A804882309F4C5C2F7DE9093AE048093A7
:1021A000AD048091AD049091AE042091AB043091C8
:1021B000AC048217930780F38115944091F414DEE8
:1021C0006CE472E0CE0101967CDFBE016F5F7F4F51
:1021D00089E191DB89819A810E94941F82E090E0DD
:1021E000A2C26091AB047091AC048091AD04909157
:1021F000AE048617970740F18FEA94E0B8DE0E949C
:10220000D00820918F0430919004621B730B70935F
:102210009404609393040E94D00860938F04709399
:10222000900480939104909392048091AD049091D6
:10223000AE042091AB043091AC04821B930B9093BD
:10224000AE048093AD04CDCF8FEA94E0892B29F4BE
:10225000E0919504F091960402C0EFEAF4E0C480A6
:10226000D12CDC2CCC248581C80ED11CE084F12C2F
:10227000FE2CEE248185E80EF11C048510E0102F61
:1022800000278585080F111D608170E0762F662775
:102290008181680F711D072E000C880B990B0E941D
:1022A000332120E030E040E858E30E9492214B01C6
:1022B0005C016093EF047093F0048093F1049093B9
:1022C000F204B601DD0C880B990B0E94332120E04B
:1022D00030E040E858E30E9492212B013C016093DA
:1022E000F3047093F4048093F5049093F604B7011B
:1022F000FF0C880B990B0E94332120E030E040E86E
:1023000058E30E9492216F83788789879A87609328
:10231000F7047093F8048093F9049093FA04B801D9
:10232000110F880B990B0E94332120E030E040E828
:1023300058E30E9492216B877C878D879E876093EC
:10234000FB047093FC048093FD049093FE049B01B6
:10235000AC01C301B2010E9492216B017C012F816B
:10236000388549855A85C501B4010E9492219B0197
:10237000AC01C701B6010E94151D9B01AC010E9472
:10238000161D6F87788B898B9A8B60930B057093E2
:102390000C0580930D0590930E05A3019201C501D4
:1023A000B4010E9492216B017C012B853C854D85F7
:1023B0005E856F81788589859A850E9492219B012F
:1023C000AC01C701B6010E94161D9B01AC010E9421
:1023D000161D6B8B7C8B8D8B9E8B60930F05709382
:1023E00010058093110590931205A5019401C50174
:1023F000B4010E9492216B017C01A3019201C301EF
:10240000B2010E9492219B01AC01C701B6010E945A
:10241000151D6B017C012F81388549855A85CA01BC
:10242000B9010E9492219B01AC01C701B6010E9433
:10243000151D6B017C012B853C854D855E85CA0190
:10244000B9010E9492219B01AC01C701B6010E9413
:10245000161D6F8B788F898F9A8F609313057093F9
:10246000140580931505909316058FEA94E0892B47
:1024700029F4E0919504F091960402C0EFEAF4E0AB
:10248000648D70E0762F6627858DDB01A80FB11D66
:10249000BC8FAB8FB0930005A093FF0420A0312C1C
:1024A000322C222481A1280E311C30920205209268
:1024B000010504A110E0102F002785A1080F111DB0
:1024C0001093040500930305A5019401C501B4010F
:1024D0000E94161D6B017C01A3019201C301B20190
:1024E0000E94161D6D8F7E8F8F8F98A3A50194017A
:1024F000C701B6010E9492214B015C01A301920128
:102500006D8D7E8D8F8D98A10E9492219B01AC01D3
:10251000C501B4010E94161D20E030E040E85FE3F1
:102520000E94151D4B015C012F81388549855A8514
:102530006D8D7E8D8F8D98A10E9492212B013C0183
:102540002B853C854D855E85C701B6010E94922191
:102550009B01AC01C301B2010E94151DA5019401AC
:102560000E94891D60933D0570933E0580933F0551
:10257000909340052F89388D498D5A8DCA01B90134
:102580000E9492216B017C012B893C894D895E89D7
:10259000CA01B9010E949221A70196010E94161D4D
:1025A0000E94A91E9B01AC016F85788989899A894F
:1025B0000E94DC1D48DA60934105709342058093C8
:1025C0004305909344052F85388949895A89CA0162
:1025D000B9010E949221A70196010E94161D0E9436
:1025E000A91E9B01AC016B897C898D899E890E9403
:1025F000DC1D29DA609345057093460580934705F5
:10260000909348052B8D3C8DB901330F880B990BA6
:102610000E9433216B017C0120E030E040E056E471
:102620006F85788989899A890E9492219B01AC01E2
:10263000C701B6010E94151D0E94441E4B015C019A
:102640007093060560930505B101330C880B990B57
:102650000E9433216B017C0120E030E040E056E431
:102660006B897C898D899E890E9492219B01AC0196
:10267000C701B6010E94151D0E94441E6B017C011A
:102680007093080560930705B801110F880B990B2B
:102690000E9433212B013C0120E030E040E056E471
:1026A0006F89788D898D9A8D0E9492219B01AC0152
:1026B000C301B2010E94151D0E94441E2B013C0162
:1026C00070930A0560930905B401990C880B990B66
:1026D0000E94332160933105709332058093330556
:1026E00090933405B601DD0C880B990B0E943321C1
:1026F00060933505709336058093370590933805C0
:10270000B201550C880B990B0E9433216093390557
:1027100070933A0580933B0590933C0580E090E0F0
:1027200002C081E090E0A0960FB6F894DEBF0FBE25
:10273000CDBFDF91CF911F910F91FF90EF90DF9070
:10274000CF90BF90AF909F908F907F906F905F9051
:102750004F903F902F900895CF93DF93CDB7DEB782
:10276000C459D1090FB6F894DEBF0FBECDBF78941F
:1027700084B5826084BD84B5816084BD85B5826086
:1027800085BD85B5816085BD80916E008160809337
:102790006E001092810080918100826080938100A0
:1027A00080918100816080938100809180008160B0
:1027B000809380008091B10084608093B10080910B
:1027C000B00081608093B00080919100826080931E
:1027D00091008091910081608093910080919000A0
:1027E0008160809390008091A10082608093A1001D
:1027F0008091A10081608093A1008091A000816000
:102800008093A000809121018260809321018091BA
:10281000210181608093210180912001816080935A
:10282000200180917A00846080937A0080917A0000
:10283000826080937A0080917A00816080937A0030
:1028400080917A00806880937A001092C100E091B4
:10285000F103F091F20322E02083E091ED03F09187
:10286000EE031082E091EF03F091F00380E18083AA
:102870001092F903E091F503F091F60396E090834E
:10288000E091F303F091F403808180618083E09113
:10289000F303F091F403808188608083E091F30377
:1028A000F091F403808180688083E091F303F091DC
:1028B000F40380818F7D8083E0915403F091550370
:1028C0002083E0915003F09151031082E091520374
:1028D000F09153038FEC808310925C03E0915803D6
:1028E000F09159039083E0915603F0915703808152
:1028F00080618083E0915603F09157038081886066
:102900008083E0915603F091570380818068808333
:10291000E0915603F091570380818F7D808385E09D
:1029200090E0A0E0B0E08093E5039093E603A093ED
:10293000E703B093E8038093480390934903A0937F
:102940004A03B0934B03E3EBF1E02491EDE6F1E0B1
:102950008491882399F090E0880F991FFC01E05B37
:10296000FE4FA591B491FC01EA5CFE4F85919491D4
:102970008FB7F894EC91E22BEC938FBF81B18F600D
:1029800081B91092200189E0809321018091730028
:102990008260809373001092890510928A051092CC
:1029A0008B0510928C050FD981E080938F051092D2
:1029B0007B0210927A021092190310923B0310923C
:1029C0001703809316031092F10261E084E10E94E4
:1029D000530861E085E10E9453088091B9008E7F21
:1029E0008093B9008091B9008D7F8093B90088E40D
:1029F0008093B80085E48093BC0088E18093B800A0
:102A000001E023E042E06BE6809195040E94C90A50
:102A100000E022E044E06BE1809195040E94C90A45
:102A200022E044E06CE1809195040E94C90A20E014
:102A300046E06BE6809195040E94120B21E047E08E
:102A40006BE6809195040E94120B6EE170E080E0CD
:102A500090E00E94F50820E046E06BE68091950446
:102A60000E94120B40E76DE6809195040E94BA091E
:102A700086E0C0D908EE13E026E934E041E06FE6D5
:102A8000809195040E94C90940E06DE6809195040B
:102A90000E94BA099E012F5F3F4F41E060E08091A4
:102AA00095040E94C909898181708093960428EE5B
:102AB00033E046E954E060E0809195047EDA70905E
:102AC000960428EE33E046E954E061E080919504F5
:102AD00074DA8090960428EE33E046E954E062E030
:102AE000809195046ADA909096044FE765E28091B0
:102AF00095040E94BA0920E045E06AE680919504B9
:102B00000E94120B48E665E2809195040E94BA0982
:102B100021E041E06AE6809195040E94120B64E195
:102B200070E080E090E00E94F50801E020E040E0E5
:102B300069E877E085EE92E062D9882309F4BDC2A6
:102B400088E090E00E94FF1E5C0100E010E0F801C8
:102B5000EB5DFD4F4491F801EA5DFD4F2491680162
:102B600083E0C80ED11CF801E95DFD4FE491EE232E
:102B7000B1F1EE2EF12CE330C8F0B701C501CC560F
:102B8000DF4F2883C459D040CD56DF4F4883C35907
:102B9000D0400E942C205C01CD56DF4F4881C359A4
:102BA000D040CC56DF4F2881C459D040D50180E0B9
:102BB00090E08E159F0548F4F601E80FF91FEB5DD4
:102BC000FD4FE491ED930196F4CF00E0B701C5010C
:102BD00016D987010C0D1D1D811115C00FC00C5F8A
:102BE0001F4FF601EB5DFD4FE491E13039F442E314
:102BF00068E3809195040E94BA0905C0C5010E944E
:102C0000941F82E05BC2003C110508F4A0CFC5010F
:102C10000E94941F03E023E042E06BE6809195045C
:102C20000E94C90A42E168E3809195040E94BA09B2
:102C300044E069E1809195040E94BA0901E023E033
:102C400045E06AE1809195040E94C90A03E023E00F
:102C500042E06AE1809195040E94C90A22E044E0C2
:102C60006BE1809195040E94C90A43E060E780917E
:102C700095040E94BA0940E061E7809195040E94A2
:102C8000BA0920E040E060E0809195040E94120BB8
:102C9000072D26E046E060E0809195040E94C90A75
:102CA000082D26E046E061E0809195040E94C90A63
:102CB000092D26E046E062E0809195040E94C90A51
:102CC000E12CF12CF701EA50FE4FE491A1E8B0E0CD
:102CD000AC0FBD1FAE0DB11DEC9381E08E0D9FEFCB
:102CE000E91AF90A23E02E1568F7CD57DF4F6881FE
:102CF000C358D04070E09B012E5F3F4F90E02817F3
:102D0000390704F700E0CE57DF4F2881C258D04082
:102D1000CF57DF4F4881C158D04081E890E08C0FF9
:102D20009D1F03966CD880E0F701EA50FE4FE491B6
:102D3000A1E8B0E0AC0FBD1FA80FB11DEC938F5FF1
:102D40009FEFE91AF90A843078F3CD57DF4F688195
:102D5000C358D04070E0AB014E5F5F4F282F30E08A
:102D6000421753070CF700E0CE57DF4F2881C258B7
:102D7000D040CF57DF4F4881C158D04081E890E024
:102D80008C0F9D1F03963BD82FD8FED8682FCE01FD
:102D90000196EDD842E06FE1809195040E94BA0956
:102DA0004CE961E2809195040E94BA0940E560E235
:102DB000809195040E94BA0940E062E280919504F6
:102DC0000E94BA0911D821E046E06AE68091950494
:102DD0000E94120B21E047E06AE6809195040E9470
:102DE000120B21E043E06AE6809195040E94120BE9
:102DF00080E0F701EA50FE4FE491A1E8B0E0AC0FAB
:102E0000BD1FA80FB11DEC938F5F2FEFE21AF20ADE
:102E1000843078F3CD57DF4F6881C358D04070E0DD
:102E2000AB014E5F5F4F282F30E0421753070CF77E
:102E300000E0CE57DF4F2881C258D040CF57DF4F38
:102E40004881C158D04081E890E08C0F9D1F0396C7
:102E50000E94FF0E80E0F701EA50FE4FE491A1E8E6
:102E6000B0E0AC0FBD1FA80FB11DEC938F5F9FEFBB
:102E7000E91AF90A843078F3CD57DF4F6881C358D7
:102E8000D04070E0AB014E5F5F4F282F30E042171B
:102E900053070CF700E0CE57DF4F2881C258D040CF
:102EA000CF57DF4F4881C158D04081E890E08C0F68
:102EB0009D1F03960E94FF0E80E0F701EA50FE4F2F
:102EC000E491A1E8B0E0AC0FBD1FA80FB11DEC93D9
:102ED0008F5F2FEFE21AF20A843078F3CD57DF4F7D
:102EE0006881C358D04070E0AB014E5F5F4F282F20
:102EF00030E0421753070CF700E0CE57DF4F288130
:102F0000C258D040CF57DF4F4881C158D04081E8E8
:102F100090E08C0F9D1F03960E94FF0E35D88330E2
:102F20009105E0F3682FCE01019621D861D580E0AC
:102F3000F701EA50FE4FE491A1E8B0E0AC0FBD1FED
:102F4000A80FB11DEC938F5F9FEFE91AF90A843047
:102F500078F3CD57DF4F3880C358D040832C912C65
:102F6000A4014E5F5F4F282F30E04217530704F74C
:102F7000CE57DF4FB880C258D040CF57DF4F2880A0
:102F8000C158D040422D4F716DE6809195040E944A
:102F9000BA098B2D0E94FA0EC12CD12C612C7724FA
:102FA000739421E8422E512C4C0E5D1E23E0420EFC
:102FB000511CC814D90498F5C60140968816990684
:102FC00018F4A32CAC1802C080E1A82E8A2D90E042
:102FD00093012B1931092817390714F4AB2CA1944C
:102FE00092012C0D3D1D08EE13E04A2D6FE68091F5
:102FF00095040E94C909CA0CD11CBA0CC814D90482
:10300000C0F6B11001C02394422D4F716DE680913E
:1030100095040E94BA098B2D0E94FA0ECACF0E9415
:10302000C40F83309105D8F3682FCE0101960E941A
:10303000B70FDED4F701EA50FE4F80E09491A1E88B
:10304000B0E0AC0FBD1FA80FB11D9C938F5F843003
:1030500010F43196F3CFCD57DF4F6881C358D0407D
:1030600070E0AB014E5F5F4F282F30E042175307EF
:1030700084F700E0CE57DF4F2881C258D040CF57A9
:10308000DF4F4881C158D04081E890E08C0F9D1FF0
:1030900003960E94FF0E20E047E06AE680919504C7
:1030A0000E94120B8AE290E0909398048093970418
:1030B0000E94F40E9DD480E001C081E08093AA04B8
:1030C000811114C021E047E06AE6809195040E94D6
:1030D000120B10928E0481E08093A80480919704D3
:1030E000909198049093AC048093AB040E942D09B6
:1030F0006B017C010E942D09DC01CB018C199D091B
:10310000AE09BF0980339547A105B105A0F425D8C4
:10311000019781F768E272E0CE0101960E9461108A
:10312000BE016F5F7F4F88E10E947B0C89819A818D
:10313000FBD680E030C110928E04109223051092CD
:10314000240510922505109226051092270510924D
:1031500028051092290510922A0510922B0510922D
:103160002C0510922D0510922E0504E610E00E9409
:10317000AD10019781F468E272E0CE0101960E94E1
:103180006110BE016F5F7F4F88E10E947B0C8981D7
:103190009A81CAD6FFC020E030E048EC52E460914A
:1031A000310570913205809133059091340504D535
:1031B0009B01AC016091170570911805809119056C
:1031C00090911A0533D46093170570931805809376
:1031D000190590931A0520E030E048EC52E4609124
:1031E0003505709136058091370590913805E4D406
:1031F0009B01AC0160911B0570911C0580911D0520
:1032000090911E0513D460931B0570931C05809349
:103210001D0590931E0520E030E048EC52E46091DB
:10322000390570913A0580913B0590913C05C4D4D5
:103230009B01AC0160911F057091200580912105D3
:1032400090912205F3D360931F057093200580931E
:1032500021059093220520913D0530913E05409136
:103260003F055091400560912305709124058091A0
:10327000250590912605DAD32B013C0160932305A7
:103280007093240580932505909326052091410590
:1032900030914205409143055091440560912705C6
:1032A000709128058091290590912A05BFD34B0183
:1032B0005C016093270570932805809329059093FE
:1032C0002A052091450530914605409147055091CA
:1032D000480560912B0570912C0580912D059091EA
:1032E0002E05A4D36B017C0160932B0570932C05F4
:1032F00080932D0590932E050150110909F037CFC9
:1033000020E030E048EC52E4C301B20155D46093B0
:10331000230570932405809325059093260520E0CE
:1033200030E048EC52E4C501B40146D4609327056F
:10333000709328058093290590932A0520E030E0BA
:1033400048EC52E4C701B60137D460932B05709363
:103350002C0580932D0590932E051092490510920F
:103360004A0510924B0510924C0510924D05109293
:103370004E0510924F051092500510925105109273
:103380005205109253051092540581E080938E04EB
:103390000E94AD1081E080938F0584E090E09093CF
:1033A0008E0580938D050E94AD1080913D05909112
:1033B0003E05A0913F05B091400580939C059093F8
:1033C0009D05A0939E05B0939F0580914105909126
:1033D0004205A0914305B09144058093CA0590939E
:1033E000CB05A093CC05B093CD0580914505909178
:1033F0004605A0914705B09148058093F805909344
:10340000F905A093FA05B093FB051092A805109258
:10341000A9051092AA051092AB051092A005109272
:10342000A1051092A2051092A3050E942D09609398
:10343000B8057093B9058093BA059093BB051092B7
:10344000D6051092D7051092D8051092D905109282
:10345000CE051092CF051092D0051092D1050E9492
:103460002D096093E6057093E7058093E805909336
:10347000E9051092040610920506109206061092B5
:1034800007061092FC051092FD051092FE051092A1
:10349000FF050E942D096093140670931506809312
:1034A000160690931706DD24D39480918F05882308
:1034B00009F4A2C084E493E00E94C8051816190616
:1034C000ACF560917C026D2560937C0283E00E94E4
:1034D00053080E942910FC0197FD13C08D329105FD
:1034E00009F4A2C0C0970A9708F49EC0E091440373
:1034F000F09145030680F781E02D84E493E019956F
:10350000E8CF20E0622F70E080E090E0ACD620E0D1
:1035100030E04FE753E450D36093890570938A05F8
:1035200080938B0590938C050E940F0E0E94AD1026
:103530000E94E30D40913D0550913E0560913F058D
:103540007091400580E995E00E947F0C60931A0617
:1035500070931B0680931C0690931D067B018C01C3
:1035600022E030E041E050E063E070E080E090E095
:103570000E941B0E40914105509142056091430508
:10358000709144058EEB95E00E947F0C7B018C01CD
:1035900023E030E042E050E061E070E080E090E065
:1035A0000E941B0E409145055091460560914705CC
:1035B000709148058CEE95E00E947F0C7B018C0198
:1035C00022E030E040E050E063E070E081E090E035
:1035D0000E941B0E80917D0290917E0201968A309E
:1035E000910529F090937E0280937D0214C0109281
:1035F0007E0210927D020FC068E472E0CE01019657
:103600000E946110BE016F5F7F4F8FEF0E947B0CA5
:1036100089819A8189D465E070E080E090E00E9421
:10362000F5080E946E0641CF20E030E0A90110E0CD
:10363000E130F105E1F0ED32F105C1F0CF01C097C5
:103640000A97A8F4AAE0B0E021D74F01FF0FAA081B
:10365000BB08DC01CB01880D991DAA1DBB1D9C0177
:10366000AD01205331094109510901C011E0E09138
:103670004403F09145030680F781E02D84E493E054
:10368000CC56DF4F2883C459D040CF56DF4F388304
:10369000C159D040CD56DF4F4883C359D040CE5694
:1036A000DF4F5883C259D04019950E942910FC0160
:1036B000C097CC56DF4F2881C459D040CF56DF4F3A
:1036C0003881C159D040CD56DF4F4881C359D040D1
:1036D000CE56DF4F5881C259D0400A9708F4A8CF80
:1036E000E130F10509F4A4CF112309F40BCF2195A2
:1036F00009CF4F925F926F927F928F929F92AF927B
:10370000BF92CF92DF92EF92FF92E4E4F3E0138254
:10371000128288EE93E0A0E0B0E084839583A683D4
:10372000B7832CE032E0318320834DEC50E05587A5
:1037300044874CEC50E05787468748EC50E0518B6B
:10374000408B49EC50E0538B428B4AEC50E0558B58
:10375000448B4EEC50E0578B468B118E128E138E9D
:10376000148EE1EEF3E01382128284839583A683A4
:10377000B7833183208325EC30E03587248724EC20
:1037800030E03787268720EC30E0318B208B21EC2E
:1037900030E0338B228B22EC30E0358B248B26EC0F
:1037A00030E0378B268B118E128E138E148EEEE73F
:1037B000F4E01382128284839583A683B7838CE11D
:1037C00092E091838083EAE8F4E010821182128211
:1037D0001382148288E68387168EC12CD12C80E850
:1037E000E82E8FE3F82EC092EF04D092F004E0921E
:1037F000F104F092F2041092F3041092F404109287
:10380000F5041092F6041092F7041092F804109246
:10381000F9041092FA041092FB041092FC04109226
:10382000FD041092FE04109200051092FF04109205
:1038300002051092010510920405109203051092E2
:1038400006051092050510920805109207051092C2
:103850000A051092090510920B0510920C051092A2
:103860000D0510920E0510920F0510921005109282
:103870001105109212051092130510921405109262
:1038800015051092160580E090E0A0E8BEE3809355
:10389000900590939105A0939205B09393059DECAC
:1038A000892E9CEC992E9CE4A92E9DE3B92E809242
:1038B000940590929505A0929605B0929705109266
:1038C00098051092990510929A0510929B051092F6
:1038D0009C0510929D0510929E0510929F051092D6
:1038E000A0051092A1051092A2051092A3050E94B6
:1038F0002D096093B8057093B9058093BA0590932C
:10390000BB05412C512C20E4622E2FE3722E4092F5
:10391000BE055092BF056092C0057092C1058092AD
:10392000C2059092C305A092C405B092C505C0928D
:10393000C605D092C705E092C805F092C90510925D
:10394000CA051092CB051092CC051092CD051092AD
:10395000CE051092CF051092D0051092D1050E948D
:103960002D096093E6057093E7058093E805909331
:10397000E9054092EC055092ED056092EE057092DB
:10398000EF058092F0059092F105A092F205B092B9
:10399000F305C092F405D092F505E092F605F09299
:1039A000F7051092F8051092F9051092FA05109299
:1039B000FB051092FC051092FD051092FE05109279
:1039C000FF050E942D0960931406709315068093DD
:1039D000160690931706FF90EF90DF90CF90BF9060
:1039E000AF909F908F907F906F905F904F900895D1
:1039F0000F931F93CF93DF93CAE8D4E008EE13E050
:103A000026E934E041E06AE38B850E94C9098C8590
:103A1000DF91CF911F910F910895EE0FFF1F881F27
:103A20008BBF0790F691E02D19945058BB27AA2719
:103A30000ED0F2C4E3D430F0E8D420F031F49F3F4C
:103A400011F41EF4D8C40EF4E095E7FBCEC4E92FC0
:103A5000F4D480F3BA17620773078407950718F048
:103A600071F49EF50CC50EF4E0950B2EBA2FA02D27
:103A70000B01B90190010C01CA01A0011124FF271B
:103A8000591B99F0593F50F4503E68F11A16F04016
:103A9000A22F232F342F4427585FF3CF4695379515
:103AA0002795A795F0405395C9F77EF41F16BA0BDA
:103AB000620B730B840BBAF09150A1F0FF0FBB1F88
:103AC000661F771F881FC2F70EC0BA0F621F731FD1
:103AD000841F48F4879577956795B795F7959E3F2E
:103AE00008F0B3CF9395880F08F09927EE0F9795BC
:103AF0008795089583D458F080E891E009F49EEF0B
:103B000084D428F040E851E059F45EEF09C073C452
:103B1000B6C4E92FE07891D468F3092E052AC1F3E1
:103B2000261737074807590738F00E2E07F8E02503
:103B300069F0E025E0640AC0EF6307F8009407FA33
:103B4000DB01B9019D01DC01CA01AD01EF9343D056
:103B500063D40AD05F91552331F02BED3FE049E467
:103B600050FD49EC63CF0895DF93DD27B92FBF7770
:103B700040E85FE31616170648075B0710F4D92FD5
:103B8000DDD09F938F937F936F9321D1E8E0F1E095
:103B9000ACD042D42F913F914F915F91CFD3DD2391
:103BA00049F09058A2EA2AED3FE049EC5FE3D07873
:103BB0005D274DDFDF9130C40CD02EC426D440F0F9
:103BC0001DD430F021F45F3F19F00FC4511158C4D7
:103BD00012C433D498F39923C9F35523B1F3951B39
:103BE000550BBB27AA2762177307840738F09F5F1E
:103BF0005F4F220F331F441FAA1FA9F333D00E2E8D
:103C00003AF0E0E830D091505040E695001CCAF7F9
:103C100029D0FE2F27D0660F771F881FBB1F2617BE
:103C200037074807AB07B0E809F0BB0B802DBF0191
:103C3000FF2793585F4F2AF09E3F510568F0D5C388
:103C40001FC45F3FECF3983EDCF38695779567954C
:103C5000B795F7959F5FC9F7880F911D9695879542
:103C600097F90895E1E0660F771F881FBB1F621761
:103C700073078407BA0720F0621B730B840BBA0B1F
:103C8000EE1F88F7E095089504D06894B111F8C349
:103C90000895DBD388F09F5790F0B92F9927B7513B
:103CA000A0F0D1F0660F771F881F991F1AF0BA9500
:103CB000C9F712C0B13081F0E2D3B1E00895DFC39B
:103CC000672F782F8827B85F39F0B93FCCF38695F6
:103CD00077956795B395D9F73EF490958095709553
:103CE00061957F4F8F4F9F4F0895DF93CF931F9321
:103CF0000F93FF92EF92DF927B018C01689405C0D5
:103D0000DA2EEF011BD3FE01E894A59125913591A0
:103D100045915591AEF3EF019ADEFE019701A8019E
:103D2000DA9479F7DF90EF90FF900F911F91CF9188
:103D3000DF910895D3D208F48FEF08959B01AC0171
:103D400060E070E080E89FE337CF11F40EF453C3D6
:103D500041C07BD3D0F39923D9F3CEF39F57550BB2
:103D600087FF46D00024A0E640EA9001805856958F
:103D7000979528F4805C660F771F881F20F0261720
:103D80003707480730F4621B730B840B2029312955
:103D90004A2BA69517940794202531254A2758F7D2
:103DA000660F771F881F20F026173707480730F463
:103DB000620B730B840B200D311D411DA09581F703
:103DC000B901842F9158880F9695879508959B0186
:103DD000AC01A8C29F3F31F0915020F487957795B0
:103DE0006795B795880F911D9695879597F90895D2
:103DF00091505040660F771F881FD2F70895CF93D8
:103E0000DF938230910510F482E090E0E09120068B
:103E1000F091210620E030E0C0E0D0E0309711F1D1
:103E20004081518148175907C0F04817590761F47C
:103E300082819381209719F09B838A832BC0909372
:103E400021068093200626C02115310519F042175E
:103E5000530718F49A01BE01DF01EF010280F381DC
:103E6000E02DDCCF2115310509F1281B390B243059
:103E7000310590F412968D919C91139761157105FF
:103E800021F0FB019383828304C0909321068093E9
:103E90002006FD01329644C0FD01E20FF31F81931D
:103EA0009193225031092D933C933AC020911E06E4
:103EB00030911F06232B41F420910202309103021E
:103EC00030931F0620931E062091000230910102BC
:103ED0002115310541F42DB73EB7409104025091B0
:103EE0000502241B350BE0911E06F0911F06E21718
:103EF000F307A0F42E1B3F0B2817390778F0AC010D
:103F00004E5F5F4F2417350748F04E0F5F1F5093E9
:103F10001F0640931E068193919302C0E0E0F0E0FB
:103F2000CF01DF91CF9108950F931F93CF93DF932C
:103F3000009709F48CC0FC01329713821282009121
:103F40002006109121060115110581F4208131818F
:103F5000820F931F20911E0630911F0628173907E4
:103F600079F5F0931F06E0931E0671C0D80140E07A
:103F700050E0AE17BF0750F412962D913C91139765
:103F8000AD012115310509F1D901F3CF9D01DA0108
:103F90003383228360817181860F971F8217930775
:103FA00069F4EC0128813981260F371F2E5F3F4FBE
:103FB000318320838A819B8193838283452B29F4DB
:103FC000F0932106E093200642C01396FC93EE93F3
:103FD0001297ED01499159919E01240F351FE21767
:103FE000F30771F480819181840F951F02961196D9
:103FF0009C938E938281938113969C938E931297B8
:10400000E0E0F0E0D80112968D919C911397009713
:1040100019F0F8018C01F6CF8D919C9198012E5FDB
:104020003F4F820F931F20911E0630911F062817C5
:10403000390769F4309729F410922106109220066E
:1040400002C01382128210931F0600931E06DF9196
:10405000CF911F910F9108956F927F928F929F92AF
:10406000AF92BF92CF92DF92EF92FF920F931F9386
:10407000CF93DF93EC01009781F4CB01DF91CF91D7
:104080001F910F91FF90EF90DF90CF90BF90AF9076
:104090009F908F907F906F90B2CEFC01E60FF71F3C
:1040A0009C0122503109E217F30708F4A8C0D90196
:1040B0000D911C91119706171707A8F005301105EF
:1040C00008F49BC0C80104978617970708F495C0A9
:1040D00002501109061B170B019311936D937C93EA
:1040E000CF0122DF8AC05B01A01AB10A4C01800E09
:1040F000911EA0912006B091210640E050E0E12CF5
:10410000F12C109709F44AC0A815B905D1F56D90A6
:104110007C901197630182E0C80ED11CCA14DB04A5
:1041200080F1A3014A195B096A0182E0C80ED11C23
:104130001296BC9012971396AC91B5E0CB16D104B1
:1041400040F0B282A38351834083D9016D937C9365
:104150000AC00E5F1F4FC301800F911FF9019183A9
:104160008083EB2DFA2FE114F10431F0D70113967F
:10417000FC93EE93129741C0F0932106E093200642
:104180003CC08D919C9111974817590708F4AC01D8
:104190007D0112960D90BC91A02DB3CF80911E068B
:1041A00090911F0688159905E1F446175707C8F442
:1041B0008091000290910102009741F48DB79EB763
:1041C0004091040250910502841B950BE817F907F2
:1041D000B0F4F0931F06E0931E06F901718360832B
:1041E0000CC0CB010CDE7C01009749F0A801BE0198
:1041F00028D0CE0199DEC70104C0CE0102C080E004
:1042000090E0DF91CF911F910F91FF90EF90DF90A1
:10421000CF90BF90AF909F908F907F906F900895B8
:1042200081E090E0F8944BC1FB01DC0104C08D916A
:104230000190801921F441505040C8F7881B990B18
:104240000895FB01DC0102C001900D9241505040E5
:10425000D8F70895FB01DC0101900D920020E1F7F1
:104260000895E89409C097FB3EF490958095709569
:1042700061957F4F8F4F9F4F9923A9F0F92F96E9B2
:10428000BB279395F695879577956795B795F11127
:10429000F8CFFAF4BB0F11F460FF1BC06F5F7F4FC4
:1042A0008F4F9F4F16C0882311F096E911C07723D6
:1042B00021F09EE8872F762F05C0662371F096E8DF
:1042C000862F70E060E02AF09A95660F771F881FAE
:1042D000DAF7880F9695879597F90895990F000852
:1042E000550FAA0BE0E8FEEF16161706E807F907C8
:1042F000C0F012161306E407F50798F0621B730B63
:10430000840B950B39F40A2661F0232B242B252BE3
:1043100021F408950A2609F4A140A6958FEF811D86
:10432000811D08950BD078C069D028F06ED018F0A8
:10433000952309F05AC05FC01124A2C07ED0A0F31B
:10434000959FD1F3950F50E0551F629FF001729F2A
:10435000BB27F00DB11D639FAA27F00DB11DAA1F49
:10436000649F6627B00DA11D661F829F2227B00D96
:10437000A11D621F739FB00DA11D621F839FA00D21
:10438000611D221F749F3327A00D611D231F849F71
:10439000600D211D822F762F6A2F11249F575040C8
:1043A0008AF0E1F088234AF0EE0FFF1FBB1F661F63
:1043B000771F881F91505040A9F79E3F510570F01C
:1043C00014C05EC05F3FECF3983EDCF386957795B2
:1043D0006795B795F795E7959F5FC1F7FE2B880F17
:1043E000911D9695879597F9089597F99F6780E8AD
:1043F00070E060E008959FEF80EC089500240A9437
:104400001616170618060906089500240A941216AF
:104410001306140605060895092E0394000C11F4E2
:10442000882352F0BB0F40F4BF2B11F460FF04C08F
:104430006F5F7F4F8F4F9F4F089557FD9058440FE8
:10444000551F59F05F3F71F04795880F97FB991FF3
:1044500061F09F3F79F087950895121613061406B0
:10446000551FF2CF4695F1DF08C01616170618063D
:10447000991FF1CF86957105610508940895E89418
:10448000BB2766277727CB0197F9089509D0A59F09
:10449000900DB49F900DA49F800D911D112408953F
:1044A000A29FB001B39FC001A39F700D811D112475
:1044B000911DB29F700D811D1124911D0895F894D6
:0244C000FFCF2C
:1044C200000022068000E803000000000706FE0F3D
:1044D200C805A605BA054D06000000002E07FF0616
:1044E200A106EB06DC06DB064D505520646964200C
:1044F2006E6F7420696E697469616C697A65207087
:10450200726F7065726C7900666577005468652019
:104512004D50552773204649464F20686173206FDE
:10452200766572666C6F77656420616E6420626581
:0A453200656E207265736574000069
:00000001FF
