:10000000D7C5000006C6000004C6000002C60000F6
:1000100000C60000FEC50000FCC50000FAC50000D7
:10002000F8C50000F6C50000F4C50000F2C50000E8
:10003000F0C50000EEC50000ECC50000EAC50000F8
:10004000E8C50000E6C50000E4C50000E2C5000008
:10005000E0C50000DEC50000DCC500000C94A9105E
:10006000D8C500000C949A0F0C94710FD2C50000F3
:10007000D0C50000CEC50000CCC50000CAC5000038
:10008000C8C50000C6C50000C4C50000C2C5000048
:100090000C94480F0C941F0FBCC500000C94BC12AC
:1000A000B8C50000B6C50000B4C50000B2C5000068
:1000B000B0C50000AEC50000ACC500000C946315CF
:1000C000A8C50000A6C50000A4C50000A2C5000088
:1000D000A0C500009EC500009CC500009AC5000098
:1000E00098C50000F20FF50FE40FE80FEC0F2C108D
:1000F000F90FFD0F031007100B1011101510191038
:100100002C101F1023102710084AD73B3BCE016E3E
:1001100084BCBFFDC12F3D6C74319ABD56833DDA5E
:100120003D00C77F11BED9E4BB4C3E916BAAAABE6D
:10013000000000803F0000002200250028002B0066
:100140002E003100340002010000050108010B01FE
:1001500000002100240027002A002D003000330079
:1001600001010000040107010A0105050505070555
:1001700008080808020202020A0A08080404040423
:10018000010101010101010103030303030303034F
:10019000040707070C0C0C0C0C0C0C0C02020202DE
:1001A00006060606060606060B0B0B0B0B0B0B0BC7
:1001B0000102102020080810204010204080020179
:1001C000020108040201010204081020408080405E
:1001D000201008040201800402018040201008045D
:1001E00002010804020101020408102040800102FB
:1001F00004081020408001B202FFFF01900409238F
:10020000A135016A0206000160080000000000003C
:100210000000006004400000000162020000006075
:100220000400400000037B034CCD6C03AB03365647
:100230007600680402CB47A202180400058BC101B6
:100240000C0400000000037F060CC92C979797034D
:100250008903264666006C0220000240040000006C
:1002600000024404000000000248040000000002F4
:100270004C0400000000025004000000000254047E
:100280000000000002580400000000025C040000AE
:10029000000002BC040000000001EC04000040006B
:1002A000037F060CC92C9797970402030D355D0454
:1002B0000904872D353D00A30100000000010786D9
:1002C00001FE074105F120283038077E013007463E
:1002D000019A074704F1283038076C04F1283038B8
:1002E0000216020001FB00003E000B003600010078
:1002F000020003000000650054FFEF0000FA8000D8
:100300000B1282000100020000000000000000004B
:10031000000000000000280000FFFF4581FFFFFAF9
:100320007200000000000003E80000000100017FEF
:10033000FFFFFE8001001B00000000000000000025
:100340000000000000003E03304000000002CAE34D
:10035000093E800000200000000000000040000076
:10036000006000000041FF000000000B2A000016A2
:100370005500002182FD872650FD800000001F00EF
:1003800000000580000000000000010000000200E5
:100390000000030000400000000000046F00026540
:1003A0003200005EC04000000000000000000000BD
:1003B0000000000000FB8C6F5DFD5D08D9007C73C0
:1003C0003B006C12CC3200139D3200D0D6320008B4
:1003D00000400001F4FFE68079020000000000D038
:1003E000D600002710FB00000040000000000000C5
:1003F00000000000000000000100000000000001FB
:1004000000010000000000FA36FFBC308E0005FB42
:10041000F0FFD95BC8FFD09ABE000010A9FFF41E00
:10042000B200CEBBF7000000010000000400020093
:10043000020200000CFFC280000001800000CF809B
:100440000040000000000000010000000000000665
:100450000000000014000000000000000000000088
:10046000000000000000000000000000000000008C
:10047000000000000000000000000000000000007C
:10048000000000000000000000033F68B679352836
:10049000BCC67ED16C80000000400000000000B2AD
:1004A0006A00000000000000000000000000003FA3
:1004B000F00000003000000000000000000000001C
:1004C000000000000000000000000000000000002C
:1004D00000000000000000254D002F706D00000599
:1004E000AE000C02D00000000000650054FFEF00D9
:1004F0000000000000000001000044000000000CAB
:100500000000000100000000000065000000540031
:1005100000FFEF00000000000000000000000000ED
:10052000000000000040000000000000000000008B
:10053000000000000040000000000000000000007B
:1005400000000000000000000100000002000000A8
:10055000000000000000000000000000000000009B
:10056000000000000000000000000000000000008B
:100570000000000000001B00000000000000000060
:10058000000000000000000000000000000000006B
:10059000000000000000000000000000000000005B
:1005A0000040000000001B000000000000000000F0
:1005B000000000000000000000000000000000003B
:1005C000000000000000000000000000000000002B
:1005D000000000000000000000000000000000001B
:1005E0000000000000D8DCBAA2F1DEB2B8B4A881E5
:1005F00091F74A907F916AF3F9DBA8F9B0BAA0802D
:10060000F2CE81F3C2F1C1F2C3F3CCA2B280F1C643
:10061000D880BAA7DFDFDFF2A7C3CBC5B6F087A2C9
:10062000942448703C95406834589B78A2F183929A
:100630002D557DD8B1B4B8A1D09180F270F370F28D
:100640007C80A8F101B09887D943D886C988BAA11F
:10065000F20EB89780F1A9DFDFDFAADFDFDFF2AAB1
:10066000C5CDC7A90CC92C97979797F1A98926469C
:1006700066B0B4BA80ACDEF2CAF1B28C02A9B69808
:1006800000890E161EB8A9B4992C547CB08AA8967D
:10069000365676F1B9AFB4B083C0B8A89711B18F10
:1006A00098B9AFF0240844106418F1A329557DAF20
:1006B00083B593AFF0002850F1A3869F61A6DADEE0
:1006C000DFD9FAA38696DB31A6D9F8DFBAA68FC2A6
:1006D000C5C7B28CC1B8A2DFDFDFA3DFDFDFD8D8A8
:1006E000F1B8A8B286B4980D355DB8AA98B0872D38
:1006F000353DB2B6BAAF8C96198F9FA70E161EB4B1
:100700009AB8AA872C547CB9A3DEDFDFA3B180F2AC
:10071000C4CDC9F1B8A9B499830D355D89B9A32DAC
:10072000557DB593A30E161EA92C547CB8B4B0F118
:100730009783A81184A50998A383F0DA24084410AC
:100740006418D8F1A529557DA58595021A2E3A562B
:100750005A4048F9F3A3D9F8F09883240844106468
:10076000189782A8F111F098A2240844106418DAAE
:10077000F3DED883A59401D9A302F1A2C3C5C7D8DB
:10078000F18492A24DDA2AD84869D92AD86855DA74
:1007900032D85071D932D8705DDA3AD85879D93A0E
:1007A000D87893A34DDA2AD84869D92AD86855DA77
:1007B00032D85071D932D8705DDA3AD85879D93AEE
:1007C000D878A88A9AF02850789EF38818F19F1D4F
:1007D00098A8D908D8C89F129EF315A8DA1210D885
:1007E000F1AFC8978734B5B994A421F3D922D8F2D0
:1007F0002DF3D92AD8F235F3D932D881A4606061BB
:10080000D961D86C6869D969D8747071D971D8B157
:10081000A384193D5DA3831A3E5E931030811011AD
:10082000B8B0AF8F94F2DA3ED8B49AA88729DAF834
:10083000D8879A35DAF8D8879A3DDAF8D8B1B9A4CA
:100840009885022E56A581000C14A397B08AF12D2D
:10085000D928D84DD948D86DD968D8B1840DDA0EC9
:10086000D8A32983DA2C0ED8A3844983DA2C4C0E22
:10087000D8B8B0A88A9AF520AADADFD8A840AAD0BA
:10088000DADED8A860AADAD0DFD8F19786A8319B43
:10089000069907AB9728889BF00C201440B8B0B499
:1008A000A88C9CF0042851791D301438B282ABD04A
:1008B000982C505078789BF11AB0F08A9CA8295156
:1008C000798B2951798A2470598B2058718A44690F
:1008D000388B3940688A6448318B304960A588205C
:1008E0000971584468113964493019F1AC002C542D
:1008F0007CF08CA804285078F1889726A85998ACE9
:100900008C02264666F0899CA829517924705944A6
:100910006938644831A98809205970AB1138406999
:10092000A8193148608CA83C415C207C00F1879874
:100930001986A86E767EA999882D557D9EB9A38AC1
:10094000228A6E8A568A5E9FB183062646660E2EDE
:100950004E6E9DB8AD002C547CF2B18CB499B9A305
:100960002D557D8191AC38AD3AB58391AC2DD92808
:10097000D84DD948D86DD968D88C9DAE29D904AE48
:10098000D851D904AED879D904D881F39DAD008D62
:10099000AE1981ADD901D8F2AEDA26D88E9129836D
:1009A000A7D9ADADADADF32AD8D8F1B0AC89913EA1
:1009B0005E76F3AC2E2EF1B18C5A9CAC2C282828F4
:1009C0009CAC3018A8988128343C9724A728343C44
:1009D0009C24F2B089AC912C4C6C8A9B2DD9D8D830
:1009E00051D9D8D879D9D8D8F19E88A331DAD8D8B6
:1009F000912DD928D84DD948D86DD968D8B18393CD
:100A0000353D8025DAD8D88569DAD8D8B49381A362
:100A100028343CF3AB8BF8A391B609B4D9ABDEFA1A
:100A2000B0879CB9A3DDF1A3A3A3A395F1A3A3A3CE
:100A30009DF1A3A3A3A3F2A3B49080F2A3A3A3A3C5
:100A4000A3A3A3A3A3A3B2A3A3A3A3A3A3B087B564
:100A500099F1A3A3A398F1A3A3A3A397A3A3A3A3EB
:100A6000F39BA3A3DCB9A7F1262626D8D8FF000064
:100A70000A0B02090C0D0E08070304010000000018
:100A80000000000000000000000000000000000066
:100A90000000000000000000000012111000000023
:100AA0000000000000000000000000000000000046
:100AB0000000000000407A10F35A00A0724E18099E
:100AC0000010A5D4E80000E87648170000E40B54B5
:100AD000020000CA9A3B000000E1F5050000809684
:100AE0009800000040420F000000A08601000000B6
:100AF000102700000000E803000000006400000070
:100B000000000A00000000000100000000002C7638
:100B1000D888DC674F0823DFC1DFAE59E1B1B79653
:100B2000E5E3E453C63AE651997696E8E6C28426B0
:100B3000EB898C9B62ED407C6FFCEFBC9C9F40F28C
:100B4000BAA56FA5F490055A2AF75C936B6CF96708
:100B50006DC11BFCE0E40D47FEF520E6B500D0EDCD
:100B6000902E0300943577050080841E0800002035
:100B70004E0A000000C80C333333330F986E1283D3
:100B80001141EF8D2114893BE65516CFFEE6DB18A7
:100B9000D1844B381BF77C1D901DA4BBE42420326C
:100BA00084725E228100C9F124ECA1E53D27691E13
:100BB00011241FBECFEFD1E2DEBFCDBF00E00CBFDE
:100BC00013E0A0E0B2E0E8E3F1E500E00BBF02C013
:100BD00007900D92A235B107D9F727E0A2E5B3E05F
:100BE00001C01D92AD33B207E1F715E0C8EDD5E0C5
:100BF00000E006C021970109802FFE010E94872096
:100C0000C73DD10780E00807A9F70E94D0150C94D2
:100C10009A28F6C90F931F93CF93DF93EC01888135
:100C20009981009729F02A813B812617370788F49C
:100C30008B016F5F7F4F0E94BA23009761F0998309
:100C400088831B830A832C813D81232B11F4FC01B3
:100C5000108281E001C080E0DF91CF911F910F9160
:100C60000895CF93DF93009779F0FC010190002065
:100C7000E9F73197AF01481B590BBC018AEA93E0B1
:100C80000E94A515EC0102C0C0E0D0E042E050E0B7
:100C90006FE173E08AEA93E00E94A5158C0F9D1F17
:100CA000DF91CF9108952091A9039091A80321325B
:100CB00008F04AC0809185038111FCCF32E0309367
:100CC000850331E0309384033FEF30938303109228
:100CD000820320938103A8E8B3E041E653E0FA01E0
:100CE0003E2F341B321718F43D913193F9CF1092F7
:100CF000600320916003990F922B90936003909171
:100D00005F03913061F410925F03909160039093C0
:100D1000BB009091BC0093FDF8CF95EC01C095EE1F
:100D20009093BC00909185039230E1F390918303FE
:100D30009F3F79F080918303803241F0809183035B
:100D4000803331F084E005C081E003C082E001C05F
:100D500083E0109287031092A903109286030895EE
:100D600021E042E06AE680910F050C948412482F3E
:100D70006EE680910F050C942B112F923F924F92AB
:100D80005F926F927F928F929F92AF92BF92CF921B
:100D9000DF92EF92FF920F931F93CF93DF933C016B
:100DA0005B01342EC22F202E4F716DE680910F050E
:100DB0000E942B118C2FDBDF80E190E00E948D22BE
:100DC0006C01002331F080E190E00E948D22582ECA
:100DD000492EE12CF12CEA14FB0408F06BC0C7018A
:100DE0004096A816B90618F4DA2DDE1901C0D0E134
:100DF0008D2F90E020E031E02C1B310928173907B6
:100E000014F4DC2FD195F301EE0DFF1D222059F0D3
:100E1000952DA52DB42D8A2F891B8D1730F4849123
:100E20008D933196F8CF5E2E4F2E252D342D4D2FDC
:100E30006FE680910F050E94F3108D2E912CC11446
:100E4000D10421F1432D4F716DE680910F050E9471
:100E50002B118C2F8CDF08EE13E096014D2F6FE6DF
:100E600080910F050E943A11A401B601852D942DA1
:100E70000E94A224892B51F0C6010E942223222025
:100E800019F1852D942D0E9422231EC0E80CF91C17
:100E9000CD0FEA14FB0408F09ECFC11101C03394BA
:100EA000432D4F716DE680910F050E942B118C2F01
:100EB0005EDF91CFC6010E942223222039F0852DCA
:100EC000942D0E94222302C080E001C081E0DF91C6
:100ED000CF911F910F91FF90EF90DF90CF90BF9037
:100EE000AF909F908F907F906F905F904F903F90CA
:100EF0002F9008950F931F93462F05E010E09C015B
:100F000064E780910F050E943A111F910F91089597
:100F10000F931F93CF93DF93C0EFD4E008EE13E05D
:100F200020E135E042E062E78F8D0E943A1188A10E
:100F300090E0982F882729A1822BDF91CF911F91D4
:100F40000F910895EF92FF920F931F93CF93DF932A
:100F50001F92CDB7DEB77A0189019E012F5F3F4F07
:100F600041E00E943A11882339F029812E7730E040
:100F700035952795F70120830F90DF91CF911F9131
:100F80000F91FF90EF900895CF93DF93FC01448180
:100F90005581608171818AEA93E00E94A515EC0178
:100FA00042E050E06FE173E08AEA93E00E94A51509
:100FB0008C0F9D1FDF91CF9108950F931F93CF93B7
:100FC000DF93EC01FC01EE0FFF1FEE0FFF1FE0515E
:100FD000FB4F209100053091010540910205509191
:100FE000030560817181828193810E94A42020E0A9
:100FF00034E740E656E40E94CD270E94D7218B01BA
:10100000035E1A4BB80180E090E00E946C272DEC43
:101010003CE548EC56E40E9428229E01220F331F33
:10102000181634F0F901E95AFC4F1183008307C008
:101030008EE294E6F901E95AFC4F91838083F9012D
:10104000E95AFC4F808191818D31954420F48DE1E6
:1010500095E491838083DF91CF911F910F91089543
:10106000CF92DF92EF92FF920F931F93CF93DF9374
:101070008C01CB01BA01E801CC0FDD1FCC0FDD1FC5
:10108000C051DB4F288139814A815B810E94A420B5
:101090006B017C0120E030E040E85FE30E94282201
:1010A00018162CF0C882D982EA82FB8208C080E040
:1010B00090E0A0E8BFE388839983AA83BB83C8013B
:1010C000DF91CF911F910F91FF90EF90DF90CF9024
:1010D00074CFCF93DF93C0EFD4E0188219821A82C5
:1010E0001B8280E090E069DF1C821D821E821F82CD
:1010F00081E090E062DF188619861A861B8682E0FE
:1011000090E05BDF1C861D861E861F8683E090E0D4
:10111000DF91CF9152CFAF92BF92CF92DF92EF92F9
:10112000FF920F931F93CF93DF935B01EA01680156
:101130007901B901A80194DFB701A60183E090E02D
:101140008FDFF7FAF094F7F8F094B701A601C50124
:1011500087DFB701A601CE01DF91CF911F910F91DB
:10116000FF90EF90DF90CF90BF90AF9079CFEF924C
:10117000FF920F931F93CF93DF93FC01248135815E
:101180006115710511F480E018C041155105A1F0F9
:101190007B01EC018A01020F131FB8013BDD88239C
:1011A00091F3288139818C819D81B701820F931F32
:1011B0000E94B8241D830C8381E0DF91CF911F91A1
:1011C0000F91FF90EF9008950F931F93B6D7609300
:1011D000B2037093B3038093B4039093B503E0918B
:1011E000AA03F091AB030084F185E02D8AEA93E035
:1011F000199597FF1EC0A1D70091B2031091B303B8
:101200002091B4033091B503DC01CB01801B910B1D
:10121000A20BB30B0091AE031091AF032091B0036A
:101220003091B10380179107A207B307C0F28FEF87
:101230009FEF1F910F910895CF93DF93EC01888169
:101240009981009711F00E942223198218821D8231
:101250001C821B821A82DF91CF9108950F931F93F6
:10126000CF93DF93EC010C811D810F5F1F4FB801FD
:10127000D1DC882369F0288139818C819D8162E2EB
:1012800073E0820F931F0E94B8241D830C8302C059
:10129000CE01D2DFCE01DF91CF911F910F91089542
:1012A000EF92FF920F931F93CF93DF93EC017B019B
:1012B0008A01BA01AFDC811103C0CE01BDDF07C0D6
:1012C0001D830C83B701888199810E94B824CE01C7
:1012D000DF91CF911F910F91FF90EF900895FC0146
:1012E000808191810C942223EF92FF920F931F93A0
:1012F000CF93DF93CDB7DEB7A1970FB6F894DEBFDB
:101300000FBECDBF7C01CB01BA01F7011182108263
:10131000138212821582148242E0420F8E010F5F07
:101320001F4F0E94BF24009761F0FC010190002034
:10133000E9F73197AF01481B590BBC01C701B0DF7A
:1013400002C0C70179DFA1960FB6F894DEBF0FBEC9
:10135000CDBFDF91CF911F910F91FF90EF90089536
:10136000FC0111821082138212821582148261158F
:10137000710549F0FB0101900020E9F73197AF01B9
:10138000461B570B8DCF08952F923F924F925F923D
:101390006F927F928F929F92AF92BF92CF92DF9285
:1013A000EF92FF920F931F93CF93DF93CDB7DEB7EA
:1013B000A0970FB6F894DEBF0FBECDBF8091220577
:1013C000882309F4C2C2A4DD9093280580932705E1
:1013D00080912705909128052091250530912605BB
:1013E0008217930780F38115944079F4B9DC64E2A5
:1013F00073E0CE010196B4DFCE010196C5DDCE01CA
:1014000001966DDF82E090E0A2C2609125057091A7
:10141000260580912705909128058617970730F1BA
:1014200089E295E067DD2CD62091090530910A0507
:10143000621B730B70930E0560930D0521D66093AC
:10144000090570930A0580930B0590930C05809114
:101450002705909128052091250530912605821BAE
:10146000930B9093280580932705CFCF89E295E0D1
:10147000892B29F4E0910F05F091100502C0E9E2F3
:10148000F5E0C480D12CDC2CCC248581C80ED11C85
:10149000E084F12CFE2CEE248185E80EF11C0485FD
:1014A00010E0102F00278585080F111D608170E066
:1014B000762F66278181680F711D072E000C880B1F
:1014C000990B0E946E2720E030E040E858E30E942C
:1014D000CD274B015C016093690570936A05809389
:1014E0006B0590936C05B601DD0C880B990B0E947F
:1014F0006E2720E030E040E858E30E94CD272B0122
:101500003C0160936D0570936E0580936F05909319
:101510007005B701FF0C880B990B0E946E2720E025
:1015200030E040E858E30E94CD276F8378878987B1
:101530009A876093710570937205809373059093F9
:101540007405B801110F880B990B0E946E2720E0DB
:1015500030E040E858E30E94CD276B877C878D8779
:101560009E876093750570937605809377059093B9
:1015700078059B01AC01C301B2010E94CD276B012C
:101580007C012F81388549855A85C501B4010E94A7
:10159000CD279B01AC01C701B6010E94A3209B018E
:1015A000AC010E94A4206F87788B898B9A8B609303
:1015B0008505709386058093870590938805A30120
:1015C0009201C501B4010E94CD276B017C012B85DE
:1015D0003C854D855E856F81788589859A850E94D9
:1015E000CD279B01AC01C701B6010E94A4209B013D
:1015F000AC010E94A4206B8B7C8B8D8B9E8B6093A7
:10160000890570938A0580938B0590938C05A501BD
:101610009401C501B4010E94CD276B017C01A30197
:101620009201C301B2010E94CD279B01AC01C70109
:10163000B6010E94A3206B017C012F81388549856A
:101640005A85CA01B9010E94CD279B01AC01C7018F
:10165000B6010E94A3206B017C012B853C854D8542
:101660005E85CA01B9010E94CD279B01AC01C7016B
:10167000B6010E94A4206F8B788F898F9A8F609318
:101680008D0570938E0580938F059093900589E268
:1016900095E0892B29F4E0910F05F091100502C027
:1016A000E9E2F5E0648D70E0762F6627858DDB0139
:1016B000A80FB11DBC8FAB8FB0937A05A0937905AD
:1016C00020A0312C322C222481A1280E311C3092F2
:1016D0007C0520927B0504A110E0102F002785A136
:1016E000080F111D10937E0500937D05A50194013F
:1016F000C501B4010E94A4206B017C01A3019201E9
:10170000C301B2010E94A4206D8F7E8F8F8F98A39A
:10171000A5019401C701B6010E94CD274B015C01D0
:10172000A30192016D8D7E8D8F8D98A10E94CD2792
:101730009B01AC01C501B4010E94A42020E030E06F
:1017400040E85FE30E94A3204B015C012F813885B4
:1017500049855A856D8D7E8D8F8D98A10E94CD27EC
:101760002B013C012B853C854D855E85C701B6016B
:101770000E94CD279B01AC01C301B2010E94A320AE
:10178000A50194010E9417216093B7057093B805D5
:101790008093B9059093BA052F89388D498D5A8D5C
:1017A000CA01B9010E94CD276B017C012B893C89BC
:1017B0004D895E89CA01B9010E94CD27A701960112
:1017C0000E94A4200E9437229B01AC016F8578897A
:1017D00089899A890E946A210E9438156093BB0505
:1017E0007093BC058093BD059093BE052F85388905
:1017F00049895A89CA01B9010E94CD27A7019601DA
:101800000E94A4200E9437229B01AC016B897C8935
:101810008D899E890E946A210E9438156093BF05B8
:101820007093C0058093C1059093C2052B8D3C8DAC
:10183000B901330F880B990B0E946E276B017C0155
:1018400020E030E040E056E46F85788989899A8904
:101850000E94CD279B01AC01C701B6010E94A320C5
:101860000E94D2214B015C017093800560937F053B
:10187000B101330C880B990B0E946E276B017C0120
:1018800020E030E040E056E46B897C898D899E89B8
:101890000E94CD279B01AC01C701B6010E94A32085
:1018A0000E94D2216B017C017093820560938105B7
:1018B000B801110F880B990B0E946E272B013C0178
:1018C00020E030E040E056E46F89788D898D9A8D74
:1018D0000E94CD279B01AC01C301B2010E94A3204D
:1018E0000E94D2212B013C017093840560938305F3
:1018F000B401990C880B990B0E946E276093AB057D
:101900007093AC058093AD059093AE05B601DD0CE8
:10191000880B990B0E946E276093AF057093B005FA
:101920008093B1059093B205B201550C880B990BC9
:101930000E946E276093B3057093B4058093B5053C
:101940009093B60580E090E002C081E090E0A09620
:101950000FB6F894DEBF0FBECDBFDF91CF911F91C0
:101960000F91FF90EF90DF90CF90BF90AF909F903E
:101970008F907F906F905F904F903F902F90089541
:1019800003DD8091B7059091B805A091B905B0919C
:10199000BA058093020690930306A0930406B093C1
:1019A00005068091BB059091BC05A091BD05B09145
:1019B000BE058093460690934706A0934806B093D1
:1019C00049068091BF059091C005A091C105B091D5
:1019D000C20580938A0690938B06A0938C06B093E1
:1019E0008D0686EF95E00E940A158AE396E00E9434
:1019F0000A158EE796E00C940A15FC01A089B189BE
:101A00008C91A689B78982FD0FC09C91818D8F5FD3
:101A10008F73228D821749F0218DDF01A20FB11D36
:101A20005D969C93818F08958C910895FC01918D12
:101A3000828D981761F0828DDF01A80FB11D5D9630
:101A40008C91928D9F5F9F73928F90E008958FEF9E
:101A50009FEF0895FC01918D828D981731F0828D52
:101A6000E80FF11D858D90E008958FEF9FEF0895A9
:101A7000FC01918D228D892F90E0805C9F4F821B0D
:101A800091098F73992708958AEA93E0F1DF21E0A5
:101A9000892B09F420E0822F089587E494E0E8DFA1
:101AA00021E0892B09F420E0822F0895FC01848D28
:101AB000DF01A80FB11DA35ABF4F2C91848D90E078
:101AC00001968F739927848FA689B7892C93A08953
:101AD000B1898C9180648C93938D848D981306C00A
:101AE0000288F389E02D80818F7D80830895EF92B5
:101AF000FF920F931F93CF93DF93EC0181E0888FC8
:101B00009B8D8C8D981305C0E889F989808185FDAE
:101B100023C0F62E0B8D10E00F5F1F4F0F731127A0
:101B2000E02E8C8DE8120BC00FB607FCFACFE889C7
:101B3000F989808185FFF5CFCE01B8DFF2CF8B8D9B
:101B4000FE01E80FF11DE35AFF4FF0820B8FEA8987
:101B5000FB898081806207C0EE89FF896083E88904
:101B6000F98980818064808381E090E0DF91CF916A
:101B70001F910F91FF90EF900895CF93DF93EC01A9
:101B8000888D8823C1F0EA89FB89808185FD05C0A5
:101B9000A889B9898C9186FD0EC00FB607FCF5CFD8
:101BA000808185FFF2CFA889B9898C9185FFEDCF1F
:101BB000CE017CDFE8CFDF91CF91089580E090E007
:101BC000892B19F06ADF811120C080E090E0892B19
:101BD00019F05ADF81111CC080E090E0892B41F0A0
:101BE00080E090E0892B21F00E940000811113C059
:101BF00080E090E0892BA1F080E090E0892B81F0DB
:101C00000E94000081110AC008950E940000DDCFEB
:101C10000E940000E1CF0E940000EACF0C94000077
:101C200008958091520390E020915303821B910903
:101C3000089585ED8093BC008091BC0084FDFCCFAD
:101C40001092850308954091EB06262F30E0240F73
:101C5000311D21323105DCF4209185032430C9F493
:101C6000FC0180E090E0861758F43091EB0621915A
:101C7000DC01A753B94FA30FB11D2C930196F3CFED
:101C80008091EB06680F6093EB0680E0089581E099
:101C9000089582E008950895E091530380915203DE
:101CA000E81730F4F0E0E05FF84F808190E00895AD
:101CB0008FEF9FEF089590915303809152039817EF
:101CC00050F4E92FF0E0E05FF84F208130E09F5FB3
:101CD0009093530302C02FEF3FEFC9010895CF92B5
:101CE000DF92EF92FF920F931F93CF93DF937C01CC
:101CF000262F972F8A0180918603882391F0C62F83
:101D0000D72F6E01C40ED51ECC15DD0569F0699183
:101D1000D701ED91FC910190F081E02DC70119955B
:101D2000F3CF642F822F8FDFC801DF91CF911F91F6
:101D30000F91FF90EF90DF90CF900895CF93DF93B6
:101D40001F92CDB7DEB76983209186032223D1F09D
:101D50002091A903203240F021E030E0FC013383E0
:101D6000228380E090E014C080918703E82FF0E0A8
:101D7000E857FC4F998190838F5F8093870380930E
:101D8000A90304C061E0CE0101965DDF81E090E02F
:101D90000F90DF91CF9108954F925F926F927F9253
:101DA0008F929F92AF92BF92CF92DF92EF92FF926B
:101DB0006B017C014B015C01E894B7F828ED3FE032
:101DC00049E45FE30E94CD272B013C0120E030E095
:101DD00040E85FE3C501B4010E94A3209B01AC0170
:101DE000C701B6010E94CD276B017C012BE438ECC2
:101DF00047E85DE3C501B4010E94CD2723EA32E93B
:101E00004AE75EE30E94A4209B01AC01C701B60132
:101E10000E94CD279B01AC01C301B2010E94A32007
:101E2000FF90EF90DF90CF90BF90AF909F908F90FA
:101E30007F906F905F904F9008950E949E241F9214
:101E40000F920FB60F9211240BB60F922F933F9360
:101E50004F935F936F937F938F939F93AF93BF93B2
:101E6000EF93FF938AEA93E021DEFF91EF91BF9118
:101E7000AF919F918F917F916F915F914F913F9122
:101E80002F910F900BBE0F900FBE0F901F901895C3
:101E90001F920F920FB60F9211240BB60F922F9331
:101EA0003F934F935F936F937F938F939F93AF93E2
:101EB000BF93EF93FF938AEA93E09FDDFF91EF9149
:101EC000BF91AF919F918F917F916F915F914F9152
:101ED0003F912F910F900BBE0F900FBE0F901F9050
:101EE00018951F920F920FB60F9211240BB60F92F6
:101EF0002F933F934F935F936F937F938F939F9312
:101F0000AF93BF93EF93FF9387E494E0CFDDFF910E
:101F1000EF91BF91AF919F918F917F916F915F9161
:101F20004F913F912F910F900BBE0F900FBE0F90CE
:101F30001F9018951F920F920FB60F9211240BB697
:101F40000F922F933F934F935F936F937F938F9352
:101F50009F93AF93BF93EF93FF9387E494E04DDD9E
:101F6000FF91EF91BF91AF919F918F917F916F9171
:101F70005F914F913F912F910F900BBE0F900FBE2D
:101F80000F901F901895362F90E0FC01E259F54F05
:101F90004491FC01E055FE4F2491FC01E659FE4FAF
:101FA0009491992309F46BC0442309F455C050E07F
:101FB000FA013197E231F10508F04EC08827EE585A
:101FC000FF4F8F4F0C948720809180008F7707C040
:101FD000809180008F7D03C080918000877F8093F7
:101FE00080003AC084B58F7702C084B58F7D84BDF0
:101FF00033C08091B0008F7703C08091B0008F7D97
:102000008093B00029C0809190008F7707C08091A5
:1020100090008F7D03C080919000877F8093900017
:102020001BC08091A0008F7707C08091A0008F7D9A
:1020300003C08091A000877F8093A0000DC0809195
:1020400020018F7707C0809120018F7D03C0809190
:102050002001877F80932001E92FF0E0EE0FFF1F22
:10206000EA5CFE4FA591B4918FB7F894EC913111D1
:1020700003C020952E2301C02E2B2C938FBF0895D3
:102080003FB7F8948091350790913607A0913707B4
:10209000B091380726B5A89B05C02F3F19F00196CF
:1020A000A11DB11D3FBFBA2FA92F982F8827820FDE
:1020B000911DA11DB11DBC01CD0142E0660F771F2E
:1020C000881F991F4A95D1F708958F929F92AF92DA
:1020D000BF92CF92DF92EF92FF926B017C01D0DF33
:1020E0004B015C01C114D104E104F104E9F0C8DF43
:1020F000DC01CB0188199909AA09BB09883E9340E4
:10210000A105B10578F321E0C21AD108E108F10870
:1021100088EE880E83E0981EA11CB11CC114D10466
:10212000E104F10421F7DECFFF90EF90DF90CF9034
:10213000BF90AF909F908F9008952FB7F8946091C3
:1021400031077091320780913307909134072FBF88
:1021500008951F920F920FB60F9211242F933F9361
:102160008F939F93AF93BF938091310790913207E4
:10217000A0913307B09134073091300723E0230F4B
:102180002D3720F40196A11DB11D05C026E8230FAF
:102190000296A11DB11D20933007809331079093C3
:1021A0003207A0933307B09334078091350790919D
:1021B0003607A0913707B09138070196A11DB11DD0
:1021C0008093350790933607A0933707B09338076D
:1021D000BF91AF919F918F913F912F910F900FBE23
:1021E0000F901F901895EF92FF920F931F93CF932C
:1021F000DF931F921F92CDB7DEB7142F91E090931B
:1022000086038093A803109287031092A90384EE9B
:1022100094E029833A8392DD2981022FE22E3A81CC
:10222000F32E8E2D801B811738F4F70161917F0109
:1022300084EE94E083DDF5CF0E94530691E0811196
:1022400090E0892F0F900F90DF91CF911F910F9108
:10225000FF90EF900895CF93DF931F92CDB7DEB735
:1022600049839E012F5F3F4F41E0BDDF0F90DF911B
:10227000CF9108952F923F924F925F926F927F92EB
:102280008F929F92AF92BF92CF92DF92EF92FF9286
:102290000F931F93CF93DF93CDB7DEB727970FB67A
:1022A000F894DEBF0FBECDBFE82E6B834F8369016C
:1022B00044DF4B015C016E2C660CF12C1E827724EE
:1022C00073945F81452F50E05D834C831801412C4E
:1022D000512C4F81F41608F096C070928603E0925C
:1022E000A803109287031092A9036B8184EE94E0F7
:1022F00025DD0E94530670928603E092A803109297
:1023000087031092A903809185038111FCCF2C8152
:102310003D812F1931092132310514F020E230E0DE
:10232000213208F020E270928503709284038FEFCF
:102330008093830310928203820F809381037092B3
:1023400060038091600386298093600380915F031E
:10235000813071F410925F03809160038093BB0021
:102360008091BC0083FDF8CF95EC9093BC0003C036
:10237000E5EEE093BC00809185038130E1F380912C
:102380008203821710F420918203A1E6B3E0E0E11A
:10239000F7E08E2F40E157E0841B821718F48D91EF
:1023A0008193F7CF109253032093520390915203DD
:1023B00080915303981709F10115110591F4A601B5
:1023C0002E81420F511D27FD5A955A83498384EE71
:1023D00094E071DCE981FA8180832E812F5F2E8366
:1023E000E5CFABDEDC01CB0188199909AA09BB094D
:1023F00082159305A405B50510F38F81813208F08D
:1024000080E2F80E66CFFE8001151105D1F095DE51
:10241000DC01CB0188199909AA09BB0920E030E049
:1024200080179107A207B30760F05F81252F30E086
:102430008F2D0F2C000C990B8217930714F4FF2497
:10244000FA948F2D27960FB6F894DEBF0FBECDBF3E
:10245000DF91CF911F910F91FF90EF90DF90CF9080
:10246000BF90AF909F908F907F906F905F904F90B4
:102470003F902F900895BF92CF92DF92EF92FF92FC
:102480000F931F93CF93DF931F92CDB7DEB7F82E34
:10249000E62EC42EB22ED02E08EE13E09E012F5F42
:1024A0003F4F41E0E7DE882319F1EC2DF0E0EB1916
:1024B000F109319621E030E002C0220F331FBA94B7
:1024C000E2F7215031090E2E01C0220F0A94EAF7DB
:1024D0008D2D01C0880FEA95EAF7422F409599812A
:1024E00049232823422B49836E2D8F2DB4DE01C052
:1024F00080E00F90DF91CF911F910F91FF90EF90AF
:10250000DF90CF90BF900895CF92DF92EF92FF922D
:102510000F931F93CF93DF931F92CDB7DEB7F82EA3
:10252000E62ED42EC22E08EE13E09E012F5F3F4F01
:1025300041E0A0DE9981CC2041F041E050E001C0B3
:10254000440FDA94EAF7492B09C021E030E0A901F1
:1025500001C0440FDA94EAF74095492349836E2D70
:102560008F2D79DE0F90DF91CF911F910F91FF900A
:10257000EF90DF90CF9008951F920F920FB60F92B9
:1025800011240BB60F922F933F934F935F936F934A
:102590007F938F939F93AF93BF93EF93FF9380911C
:1025A000B900887F803609F49CC068F5883209F448
:1025B0005BC090F4803109F454C038F4882309F4E6
:1025C000F6C0883009F44DC0F5C0883109F44CC01C
:1025D000803209F45DC0EEC0803409F468C048F46C
:1025E000803309F455C0883309F0E4C08093830335
:1025F000D8C0803509F44FC0883509F45DC08834EF
:1026000009F0D8C0D6C0883909F4C7C0A8F4883703
:1026100009F467C038F4883609F463C0803709F4D8
:1026200060C0C8C0883809F4B8C0803909F45FC0F8
:10263000803809F0BFC05BC0803B09F486C038F425
:10264000803A09F466C0883A09F47FC0B3C0803C80
:1026500009F4A7C0883C09F4A4C0883B09F48AC0E7
:10266000A9C08091600310C0909182038091810382
:10267000981770F5E091820381E08E0F80938203BA
:10268000F0E0EF59FC4F80818093BB0085EC86C061
:10269000809383038EC0E091820381E08E0F80934C
:1026A00082038091BB00F0E0EF59FC4F8083909152
:1026B0008203809181036EC0E091820381E08E0FDE
:1026C000809382038091BB00F0E0EF59FC4F808340
:1026D0008091840381116DC081E080935F0384EA5F
:1026E00061C083E08093850310920F07CFCF809164
:1026F0000F07803208F051C0E0910F0781E08E0F84
:1027000080930F078091BB00F0E0E151F94F808387
:10271000BDCF85EC8093BC001092850380910F079C
:10272000803230F4E0910F07F0E0E151F94F108270
:1027300060910F0770E0E091ED06F091EE068FEEEC
:1027400096E0199510920F0735C084E080938503B9
:102750001092EC061092EB06E091E906F091EA0681
:1027600019958091EB06811105C081E08093EB06FD
:102770001092C906E091EC0681E08E0F8093EC0682
:10278000F0E0E753F94F80818093BB009091EC0615
:102790008091EB06981708F479CF85E88093BC0008
:1027A00009C085EC8093BC001092850303C0109291
:1027B00083033FDAFF91EF91BF91AF919F918F918A
:1027C0007F916F915F914F913F912F910F900BBE31
:1027D0000F900FBE0F901F9018952F923F924F921F
:1027E0005F926F927F928F929F92AF92BF92CF92A1
:1027F000DF92EF92FF920F931F93CF93DF9300D05E
:1028000000D0CDB7DEB79E838D83FC0146AB57ABBE
:1028100060AF71AF9A01AB01648575858685978538
:102820000E94A320ED81FE81608B718B828B938B44
:1028300027DC0D811E810E5B1F4FED80FE80FEE3C5
:10284000EF0EF11CF70120813181621B730BF8013F
:102850007183608315DCF7016083718382839383C6
:10286000ED81FE8180889188A288B38820813181A2
:1028700042815381C501B4010E94CD2769837A83C7
:102880008B839C83ED81FE814480558066807780B8
:10289000F8016081718180E090E00E946C276B01FB
:1028A0007C019B01AC01C501B4010E94CD2720E051
:1028B00030E04AE754E40E946A21ED81FE8126A5BA
:1028C00037A540A951A90E94A4209B01AC01ED812C
:1028D000FE8166A777A780AB91ABC301B2010E94CE
:1028E000CD279B01AC0169817A818B819C810E94FB
:1028F000A42069837A838B839C83ED81FE8140844D
:1029000051846284738404A515A5C80165E070E054
:102910000E9474201C01F6E02F0E311C220C331C87
:10292000220C331C8D819E81280E391EFC012489C6
:10293000358946895789C501B4010E94A320A701A2
:1029400096010E946A21F1016083718382839383DF
:102950000F5F1F4FED81FE8115A704A712AA13AACE
:1029600014AA15AA8F01085E1F4F1F01FCE22F0E4B
:10297000311CC12CD12C7601F801619171918191AA
:1029800091918F0120E030E040EA50E40E946A21FA
:102990009B01AC01C701B6010E94A4206B017C0120
:1029A0000215130549F7ED81FE8162AB73AB84AB71
:1029B00095AB9B01AC01C301B2010E94CD279B01E5
:1029C000AC0169817A818B819C810E94A420ED8178
:1029D000FE8162AF73AF84AF95AF848A958AA68A71
:1029E000B78A26960FB6F894DEBF0FBECDBFDF9133
:1029F000CF911F910F91FF90EF90DF90CF90BF90FC
:102A0000AF909F908F907F906F905F904F903F908E
:102A10002F900895CF93DF93EC011EA61FA618AA4E
:102A200019AA188A198A1A8A1B8A1C8A1D8A1E8A60
:102A30001F8A1DA61CA6188E198E1A8E1B8E1C8E20
:102A40001D8E1E8E1F8E18A219A21AA21BA21CA2D6
:102A50001DA21EA21FA218A619A61AA61BA610DB4D
:102A6000EE96688379838A839B83DF91CF91089563
:102A7000CF92DF92EF92FF926B017C0120E030E079
:102A800040E85FE30E9428221816B4F4A7019601DB
:102A900060E070E080E89FE30E946A217DD99B019D
:102AA000AC016AED7FE089EC9FE30E94A320FF90D8
:102AB000EF90DF90CF900895C701B601FF90EF909F
:102AC000DF90CF9069C91F920F920FB60F92112419
:102AD0000BB60F922F933F934F936F937F938F93E8
:102AE0009F93EF93FF9382B1807F82B98091C80654
:102AF00090E00196837099278093C806FC01EE0F41
:102B0000FF1FE95AFC4F2081318130932901209326
:102B1000280142B121E030E0B90102C0660F771F01
:102B20008A95E2F7CB01842B82B9FF91EF919F91B7
:102B30008F917F916F914F913F912F910F900BBE8D
:102B40000F900FBE0F901F901895CF92DF92EF92CB
:102B5000FF920F931F93CF93DF936C017A018B0148
:102B6000C0E0D0E0CE15DF0589F0D8016D918D0170
:102B7000D601ED91FC910190F081E02DC6011995EF
:102B8000892B11F47E0102C02196ECCFC701DF91A1
:102B9000CF911F910F91FF90EF90DF90CF9008950C
:102BA000CF93DF93CDB7DEB7C55AD1090FB6F894EE
:102BB000DEBF0FBECDBF789484B5826084BD84B57E
:102BC000816084BD85B5826085BD85B5816085BD28
:102BD00080916E00816080936E00109281008091E0
:102BE0008100826080938100809181008160809368
:102BF0008100809180008160809380008091B1008D
:102C000084608093B1008091B00081608093B000B7
:102C10008091910082608093910080919100816009
:102C200080939100809190008160809390008091CA
:102C3000A10082608093A1008091A10081608093B7
:102C4000A1008091A00081608093A000809121016B
:102C50008260809321018091210181608093210114
:102C60008091200181608093200180917A008460AE
:102C700080937A0080917A00826080937A008091BC
:102C80007A00816080937A0080917A0080688093D6
:102C90007A001092C100E0915704F091580422E0AC
:102CA0002083E0915304F09154041082E091550484
:102CB000F091560480E1808310925F04E0915B0400
:102CC000F0915C0496E09083E0915904F0915A04ED
:102CD000808180618083E0915904F0915A04808161
:102CE00088608083E0915904F0915A048081806863
:102CF0008083E0915904F0915A0480818F7D808314
:102D0000E091BA03F091BB032083E091B603F09108
:102D1000B7031082E091B803F091B9038FEC808380
:102D20001092C203E091BE03F091BF039083E09143
:102D3000BC03F091BD03808180618083E091BC037E
:102D4000F091BD03808188608083E091BC03F091A5
:102D5000BD03808180688083E091BC03F091BD0356
:102D600080818F7D808385E090E0A0E0B0E080935B
:102D70004B0490934C04A0934D04B0934E04809365
:102D8000AE039093AF03A093B003B093B103E3EB12
:102D9000F1E02491EDE6F1E08491882399F090E050
:102DA000880F991FFC01E05BFE4FA591B491FC01D7
:102DB000EA5CFE4F859194918FB7F894EC91E22BE9
:102DC000EC938FBF88E292E00E94310681B18F6060
:102DD00081B91092200189E08093210180917300D4
:102DE000826080937300109200051092010510928A
:102DF0000205109203050E94690810925303109275
:102E00005203109287031092A9031092850381E068
:102E10008093840310925F0361E084E1B4D861E0A1
:102E200085E1B1D88091B9008E7F8093B9008091FF
:102E3000B9008D7F8093B90088E48093B80085E461
:102E40008093BC0088E18093B80001E023E042E079
:102E50006BE680910F050FDB00E022E044E06BE1C0
:102E600080910F0508DB22E044E06CE180910F05C2
:102E700002DB20E046E06BE680910F0545DB21E0B8
:102E800047E06BE680910F053FDB6EE170E080E08C
:102E900090E01BD920E046E06BE680910F0534DB23
:102EA00040E76DE680910F05D6D986E00E94B7060F
:102EB00008EE13E020E135E041E06FE680910F0578
:102EC000D9D940E06DE680910F05C5D9CE010196B4
:102ED0007C019C0141E060E080910F05CBD98981A4
:102EE00081708093100528EE33E040E155E060E00A
:102EF00080910F050E94A2077090100528EE33E024
:102F000040E155E061E080910F050E94A2078090AA
:102F1000100528EE33E040E155E062E080910F05B6
:102F20000E94A207909010054FE765E280910F057F
:102F300092D920E045E06AE680910F05E5DA48E69F
:102F400065E280910F0587D921E041E06AE6809132
:102F50000F05DADA64E170E080E090E0B6D801E0D5
:102F600020E040E069E877E085EE92E00E94BD064F
:102F7000882309F4D3C288E090E00E948D22682E55
:102F8000192FC12CD12CF601EB5DFD4F4491F601B8
:102F9000EA5DFD4F2491560193E0A90EB11CF601A4
:102FA000E95DFD4FE491EE23D1F1CE2ED12CE3303B
:102FB000D8F0B601862D912FCB55DF4F2883C55A07
:102FC000D040CC55DF4F4883C45AD0400E94BA232A
:102FD000682E192FCC55DF4F4881C45AD040CB55AD
:102FE000DF4F2881C55AD040A62DB12F80E090E058
:102FF0008C159D0548F4F501E80FF91FEB5DFD4FB9
:10300000E491ED930196F4CF00E0B601862D912F67
:103010000E94BD06CA0CDB1C811116C00FC0A4E0C3
:10302000CA0ED11CF501EB5DFD4FE491E13031F4A6
:1030300042E368E380910F050ED906C0862D912FDB
:103040000E94222382E06BC2B0ECCB16D10408F4BC
:103050009ACF862D912F0E94222303E023E042E0A5
:103060006BE680910F0507DA42E168E380910F0576
:10307000F2D844E069E180910F05EDD801E023E04A
:1030800045E06AE180910F05F6D903E023E042E0D4
:103090006AE180910F05EFD922E044E06BE1809175
:1030A0000F05E9D943E060E780910F05D4D840E0EF
:1030B00061E780910F05CFD820E040E060E080918B
:1030C0000F0522DA072D26E046E060E080910F052B
:1030D000D2D9082D26E046E061E080910F05CBD9DA
:1030E000092D26E046E062E080910F05C4D9A12CAD
:1030F000B12CF501EA50FE4FE491A1E8B0E0AC0F2D
:10310000BD1FAA0DB11DEC9381E08A0D2FEFA21A0D
:10311000B20A93E09A1568F7CD57DF4F6881C3581C
:10312000D04070E09B012E5F3F4F90E02817390799
:1031300004F700E0CE57DF4F2881C258D040CF5768
:10314000DF4F4881C158D04081E890E08C0F9D1F2F
:1031500003960E94BD0680E0F501EA50FE4FE4911F
:10316000A1E8B0E0AC0FBD1FA80FB11DEC938F5FBD
:10317000AFEFAA1ABA0A843078F3CD57DF4F6881CF
:10318000C358D04070E0AB014E5F5F4F282F30E056
:10319000421753070CF700E0CE57DF4F2881C25883
:1031A000D040CF57DF4F4881C158D04081E890E0F0
:1031B0008C0F9D1F03960E94BD060E94B0060E94C0
:1031C0008807682FC7010E947A0742E06FE180916B
:1031D0000F0541D84CE961E280910F053CD840E5EC
:1031E00060E280910F0537D840E062E280910F05E0
:1031F00032D80E94B00621E046E06AE680910F05D1
:1032000083D921E047E06AE680910F057DD921E06E
:1032100043E06AE680910F0577D980E0F501EA5036
:10322000FE4FE491A1E8B0E0AC0FBD1FA80FB11DA7
:10323000EC938F5FBFEFAB1ABB0A843078F3CD57A6
:10324000DF4F6881C358D04070E0AB014E5F5F4FE5
:10325000282F30E0421753070CF700E0CE57DF4F1E
:103260002881C258D040CF57DF4F4881C158D04045
:1032700081E890E08C0F9D1F03960E94BD0680E0C0
:10328000F501EA50FE4FE491A1E8B0E0AC0FBD1F9C
:10329000A80FB11DEC938F5F2FEFA21AB20A8430F2
:1032A00078F3CD57DF4F6881C358D04070E0AB0151
:1032B0004E5F5F4F282F30E0421753070CF700E0B6
:1032C000CE57DF4F2881C258D040CF57DF4F4881BB
:1032D000C158D04081E890E08C0F9D1F03960E945A
:1032E000BD0680E0F501EA50FE4FE491A1E8B0E0B0
:1032F000AC0FBD1FA80FB11DEC938F5F9FEFA91AF4
:10330000B90A843078F3CD57DF4F6881C358D04075
:1033100070E0AB014E5F5F4F282F30E0421753073C
:103320000CF700E0CE57DF4F2881C258D040CF576E
:10333000DF4F4881C158D04081E890E08C0F9D1F3D
:1033400003960E94BD060E94880783309105D8F33A
:10335000682FC7010E947A07B2D680E0F501EA50D3
:10336000FE4FE491A1E8B0E0AC0FBD1FA80FB11D66
:10337000EC938F5FAFEFAA1ABA0A843078F3CD5777
:10338000DF4F9881C358D040CF55DF4F9883C15A43
:10339000D040892E912CA4014E5F5F4F282F30E042
:1033A00042175307DCF6CE57DF4F3880C258D04063
:1033B000CF57DF4F9881C158D040C356DF4F988315
:1033C000CD59D040492F4F716DE680910F050E9475
:1033D0002B11832D0E94B706C12CD12C612C772490
:1033E000739421E8422E512C4C0E5D1EA3E04A0E30
:1033F000511CC814D90408F045C0C601409688166F
:10340000990638F4CF55DF4F2880C15AD0402C1888
:1034100002C080E1282E822D90E09301231931090A
:103420002817390714F4232C219492012C0D3D1DEB
:1034300008EE13E0422D6FE680910F050E943A11CD
:10344000C20CD11C320CC814D90498F631100BC030
:10345000C356DF4F9881CD59D0409F5FC356DF4F91
:103460009883CD59D040C356DF4F4881CD59D040C5
:103470004F716DE680910F050E942B11832D0E94E4
:10348000B706B7CF0E94880783309105D8F3682F1D
:10349000C7010E947A0713D6F501EA50FE4F80E07B
:1034A0009491A1E8B0E0AC0FBD1FA80FB11D9C9393
:1034B0008F5F843010F43196F3CFCD57DF4F6881A2
:1034C000C358D04070E0AB014E5F5F4F282F30E013
:1034D0004217530784F700E0CE57DF4F2881C258C8
:1034E000D040CF57DF4F4881C158D04081E890E0AD
:1034F0008C0F9D1F03960E94BD0620E047E06AE600
:1035000080910F0501D88AE290E090931205809394
:1035100011050E94B006D3D580E001C081E0809300
:10352000240581111BC021E047E06AE680910F0568
:103530000E9484121092080581E0809322058091F8
:10354000110590911205909326058093250587E338
:1035500092E00E943106DD24D39405C083E592E019
:103560000E943106D12CD092F505DD2009F45DC111
:103570008AE692E00E9431060E949D104B015C0198
:103580000E949D10DC01CB0188199909AA09BB0989
:1035900080339547A105B10588F40E94C4090197BD
:1035A00079F76DE972E0C7010E94B009C7010E9476
:1035B000C407C7010E946F09D12C37C110920805BA
:1035C00010929D0510929E0510929F051092A005E5
:1035D0001092A1051092A2051092A3051092A405C5
:1035E0001092A5051092A6051092A7051092A805A5
:1035F00004E610E00E94C409019761F46DE972E0ED
:10360000C7010E94B009C7010E94C407C7010E94F8
:103610006F090BC120E030E048EC52E46091AB054B
:103620007091AC058091AD059091AE0553D69B018C
:10363000AC016091910570919205809193059091F4
:10364000940582D5609391057093920580939305BC
:103650009093940520E030E048EC52E46091AF058F
:103660007091B0058091B1059091B20533D69B0160
:10367000AC016091950570919605809197059091A8
:10368000980562D56093950570939605809397058C
:103690009093980520E030E048EC52E46091B30547
:1036A0007091B4058091B5059091B60513D69B0134
:1036B000AC016091990570919A0580919B0590915C
:1036C0009C0542D56093990570939A0580939B055C
:1036D00090939C052091B7053091B8054091B905AC
:1036E0005091BA0560919D0570919E0580919F054E
:1036F0009091A00529D5C356DF4F688379838A83CB
:103700009B83CD59D04060939D0570939E05809317
:103710009F059093A0052091BB053091BC05409179
:10372000BD055091BE056091A1057091A2058091E3
:10373000A3059091A40508D52B013C016093A10538
:103740007093A2058093A3059093A4052091BF05D3
:103750003091C0054091C1055091C2056091A50509
:103760007091A6058091A7059091A805EDD44B0115
:103770005C016093A5057093A6058093A7059093BF
:10378000A8050150110909F035CF20E030E048ECE0
:1037900052E4C356DF4F688179818A819B81CD597C
:1037A000D04098D560939D0570939E0580939F05AA
:1037B0009093A00520E030E048EC52E4C301B20150
:1037C00089D56093A1057093A2058093A30590937A
:1037D000A40520E030E048EC52E4C501B4017AD5FC
:1037E0006093A5057093A6058093A7059093A805FF
:1037F0001092C3051092C4051092C5051092C6051B
:103800001092C7051092C8051092C9051092CA05FA
:103810001092CB051092CC051092CD051092CE05DA
:1038200081E0809308050E94C409D092F50584E0E8
:1038300090E09093F4058093F3050E94C00C809172
:10384000F505882319F08DEB92E002C08DEC92E033
:103850000E943106DD24D3948091F505882309F474
:1038600002C28AEA93E00E94380D039744F40E9452
:10387000C4098091C206882309F4E3C1E8C06091BD
:1038800054036D256093540383E00E94C30F0E948C
:10389000E408FC0197FD11C08D32910589F0C097B5
:1038A0000A9770F0E091AA03F091AB030680F781CC
:1038B000E02D8AEA93E01995EACF10E020E04FC0AE
:1038C00020E030E0A90110E0E130F10509F0DFC1AE
:1038D000E091AA03F091AB030680F781E02D8AEA1C
:1038E00093E0CB55DF4F2883C55AD040CE55DF4FEC
:1038F0003883C25AD040CC55DF4F4883C45AD04099
:10390000CD55DF4F5883C35AD04019950E94E40823
:10391000FC01C097CB55DF4F2881C55AD040CE550A
:10392000DF4F3881C25AD040CC55DF4F4881C45A4E
:10393000D040CD55DF4F5881C35AD0400A9720F26E
:10394000E130F10509F2112309F4C0C18827992754
:10395000DC01821B930BA40BB50B182F292F812F91
:10396000922F8115A1E09A0721F58091C20681115D
:1039700007C01092C2060E9469088CED92E03CC01C
:103980001092000510920105109202051092030595
:1039900080E090E00E94DD0781E090E00E94DD077A
:1039A00082E090E00E94DD0783E090E00E94DD0766
:1039B000E0CF8130914011F5D092C20610920005FF
:1039C00010920105109202051092030580E090E02C
:1039D0000E94DD0781E090E00E94DD0782E090E038
:1039E0000E94DD0783E090E00E94DD070E946908E5
:1039F0000E94C00C85EF92E00E9431068091C206C1
:103A0000882309F434CF612F70E080E090E00E94B9
:103A10006E2720E030E04FE753E45CD4609300056C
:103A200070930105809302059093030580E090E078
:103A30000E94DD0781E090E00E94DD0782E090E0D7
:103A40000E94DD0783E090E00E94DD0710CF0E9416
:103A500069084091B7055091B8056091B90570911A
:103A6000BA0586EF95E00E94ED138B019C016093EF
:103A7000C3067093C4068093C5069093C60642E0C1
:103A800050E061E070E080E090E00E948B0840919F
:103A9000BB055091BC056091BD057091BE058AE3E0
:103AA00096E00E94ED138B019C0141E050E060E044
:103AB00070E082E090E00E948B084091BF05509139
:103AC000C0056091C1057091C2058EE796E00E9425
:103AD000ED138B019C0142E050E060E070E081E07A
:103AE00090E00E948B088091AA069091AB0663E05B
:103AF00070E0FAD2892B09F0A4C080915B03909109
:103B00005C03C956DF4F19821882C759D040C75687
:103B1000DF4F19821882C959D040C556DF4F19822C
:103B20001882CB59D0404AE0B70148D7F70101903D
:103B30000020E9F73197AF014E195F09B701CE01B7
:103B400089569F4F0E9450094091F8045091F90402
:103B50006091FA047091FB0422E0CE018F569F4FD2
:103B60000E94740940910005509101056091020581
:103B70007091030522E0C7010E947409CF57DF4FFF
:103B800019821882C158D040CD57DF4F1982188250
:103B9000C358D040CB57DF4F19821882C558D04048
:103BA00069817A816115710539F04D815E81CE019F
:103BB0008F579F4F0E945009CE018F579F4F0E94F1
:103BC0002E098C01CB56DF4F48815981C559D04011
:103BD000CF56DF4F68817981C159D0400E94B70824
:103BE000811103C0C8010E941C09C8010E942E094E
:103BF0008C01C556DF4F48815981CB59D040C956F9
:103C0000DF4F68817981C759D0400E94B708811180
:103C100003C0C8010E941C09C8010E94C407CE014C
:103C20008F579F4F0E946F09C7010E946F09CE01F5
:103C30008F569F4F0E946F09CE0189569F4F0E9459
:103C40006F09809155039091560301968A30910532
:103C500029F0909356038093550316C01092560393
:103C60001092550311C06FE073E0C7010E94B009C4
:103C7000C7010E94C407C7010E946F0960E27EE489
:103C800080E090E00E9465100E94DE0DE5CDED32EF
:103C9000F105D1F0CF01C0970A9708F019CEAAE03C
:103CA000B0E00E9481284F01FF0FAA08BB08DC0189
:103CB000CB01880D991DAA1DBB1D9C01AD01205390
:103CC00031094109510904CE11E002CE122F232FF0
:103CD00046CEEAEAF3E01382128288EE93E0A0E097
:103CE000B0E084839583A683B7832CE032E03183F0
:103CF00020834DEC50E0558744874CEC50E05787CB
:103D0000468748EC50E0518B408B49EC50E0538B98
:103D1000428B4AEC50E0558B448B4EEC50E0578B75
:103D2000468B118E128E138E148EE7E4F4E013820C
:103D3000128284839583A683B7833183208325EC05
:103D400030E03587248724EC30E03787268720EC65
:103D500030E0318B208B21EC30E0338B228B22EC56
:103D600030E0358B248B26EC30E0378B268B118EA0
:103D7000128E138E148EE4EEF4E01382128284838A
:103D80009583A683B7838CE192E091838083E0EFF3
:103D9000F4E0148A158A168A178A108E88E6878FAF
:103DA00012AA80E090E0A0E8BFE3809369059093B9
:103DB0006A05A0936B05B0936C0510926D05109287
:103DC0006E0510926F051092700510927105109299
:103DD0007205109273051092740510927505109279
:103DE0007605109277051092780510927A05109258
:103DF000790510927C0510927B0510927E05109239
:103E00007D051092800510927F0510928205109218
:103E100081051092840510928305109285051092F9
:103E200086051092870510928805109289051092D8
:103E30008A0510928B0510928C0510928D051092B8
:103E40008E0510928F05109290058DEC9CECACECD9
:103E5000BDE38093F6059093F705A093F805B09322
:103E6000F9051092FA051092FB051092FC051092CC
:103E7000FD051092FE051092FF05109200061092AB
:103E80000106109202061092030610920406109288
:103E90000506109206061092070610920806109268
:103EA000090610920A0610920B0610920C06109248
:103EB0000D06109223061092220610920E06109202
:103EC0000F06109210061092110610921206109210
:103ED00013061092140610921506109216061092F0
:103EE0001706109218061092190610921A061092D0
:103EF0001B0610921C0610921D0610921E061092B0
:103F00001F0610922006109221060E944010609316
:103F100034067093350680933606909337061092D8
:103F20003A0610923B0610923C0610923D06109203
:103F30003E0610923F0610924006109241061092E3
:103F400042061092430610924406109245061092C3
:103F500046061092470610924806109249061092A3
:103F60004A0610924B0610924C0610924D06109283
:103F70004E0610924F061092500610925106109263
:103F8000670610926606109252061092530610921F
:103F9000540610925506109256061092570610922B
:103FA00058061092590610925A0610925B0610920B
:103FB0005C0610925D0610925E0610925F061092EB
:103FC00060061092610610926206109263061092CB
:103FD0006406109265060E94401060937806709304
:103FE000790680937A0690937B0610927E06109253
:103FF0007F0610928006109281061092820610921F
:1040000083061092840610928506109286061092FE
:104010008706109288061092890610928A061092DE
:104020008B0610928C0610928D0610928E061092BE
:104030008F0610929006109291061092920610929E
:10404000930610929406109295061092AB06109269
:10405000AA06109296061092970610929806109251
:10406000990610929A0610929B0610929C06109246
:104070009D0610929E0610929F061092A006109226
:10408000A1061092A2061092A3061092A406109206
:10409000A5061092A6061092A7061092A8061092E6
:1040A000A9060E9440106093BC067093BD068093E1
:1040B000BE069093BF0681E08093C20608950F93D9
:1040C0001F93CF93DF93C0EFD4E008EE13E020E11D
:1040D00035E041E06AE38F8D0E943A1188A1DF91BB
:1040E000CF911F910F91089597FB072E16F400941E
:1040F00006D077FD08D013D007FC05D03EF490958C
:1041000081959F4F0895709561957F4F0895EE0FAB
:10411000FF1F881F8BBF0790F691E02D1994AA1BF3
:10412000BB1B51E107C0AA1FBB1FA617B70710F0A2
:10413000A61BB70B881F991F5A95A9F780959095D4
:10414000BC01CD0108955058BB27AA270ED09FC7A8
:1041500090D730F095D720F031F49F3F11F41EF442
:1041600085C70EF4E095E7FB7BC7E92FA1D780F365
:10417000BA17620773078407950718F071F49EF564
:10418000B9C70EF4E0950B2EBA2FA02D0B01B90183
:1041900090010C01CA01A0011124FF27591B99F0BD
:1041A000593F50F4503E68F11A16F040A22F232FC9
:1041B000342F4427585FF3CF469537952795A79519
:1041C000F0405395C9F77EF41F16BA0B620B730BC0
:1041D000840BBAF09150A1F0FF0FBB1F661F771F31
:1041E000881FC2F70EC0BA0F621F731F841F48F4E6
:1041F000879577956795B795F7959E3F08F0B3CF6C
:104200009395880F08F09927EE0F97958795089555
:1042100030D758F080E891E009F49EEF31D728F0CC
:1042200040E851E059F45EEF09C020C763C7E92FA9
:10423000E0783ED768F3092E052AC1F32617370721
:104240004807590738F00E2E07F8E02569F0E025F9
:10425000E0640AC0EF6307F8009407FADB01B901D4
:104260009D01DC01CA01AD01EF9343D010D70AD004
:104270005F91552331F02BED3FE049E450FD49ECCF
:1042800063CF0895DF93DD27B92FBF7740E85FE361
:104290001616170648075B0710F4D92FDDD09F9339
:1042A0008F937F936F9321D1E8E0F1E0ACD0EFD60C
:1042B0002F913F914F915F917CD6DD2349F090582B
:1042C000A2EA2AED3FE049EC5FE3D0785D274DDFBD
:1042D000DF91DDC60CD0DBC6D3D640F0CAD630F0B5
:1042E00021F45F3F19F0BCC6511105C7BFC6E0D627
:1042F00098F39923C9F35523B1F3951B550BBB27AD
:10430000AA2762177307840738F09F5F5F4F220F59
:10431000331F441FAA1FA9F333D00E2E3AF0E0E852
:1043200030D091505040E695001CCAF729D0FE2F9E
:1043300027D0660F771F881FBB1F26173707480730
:10434000AB07B0E809F0BB0B802DBF01FF279358E6
:104350005F4F2AF09E3F510568F082C6CCC65F3F92
:10436000ECF3983EDCF3869577956795B795F795CE
:104370009F5FC9F7880F911D9695879597F90895C6
:10438000E1E0660F771F881FBB1F62177307840762
:10439000BA0720F0621B730B840BBA0BEE1F88F771
:1043A000E095089504D06894B111A5C6089588D603
:1043B00088F09F5790F0B92F9927B751A0F0D1F00E
:1043C000660F771F881F991F1AF0BA95C9F712C098
:1043D000B13081F08FD6B1E008958CC6672F782F69
:1043E0008827B85F39F0B93FCCF386957795679504
:1043F000B395D9F73EF490958095709561957F4F70
:104400008F4F9F4F0895DF93CF931F930F93FF928A
:10441000EF92DF927B018C01689405C0DA2EEF01E8
:10442000C8D5FE01E894A591259135914591559106
:10443000AEF3EF019ADEFE019701A801DA9479F755
:10444000DF90EF90FF900F911F91CF91DF91089532
:1044500080D508F48FEF08959B01AC0160E070E017
:1044600080E89FE337CF11F40EF400C641C028D690
:10447000D0F39923D9F3CEF39F57550B87FF46D03E
:104480000024A0E640EA900180585695979528F4BC
:10449000805C660F771F881F20F0261737074807B4
:1044A00030F4621B730B840B202931294A2BA6950B
:1044B00017940794202531254A2758F7660F771F50
:1044C000881F20F026173707480730F4620B730B5C
:1044D000840B200D311D411DA09581F7B901842F5A
:1044E0009158880F9695879508959B01AC0155C505
:1044F0009F3F31F0915020F4879577956795B79558
:10450000880F911D9695879597F908959150504081
:10451000660F771F881FD2F70895CF93DF938230FD
:10452000910510F482E090E0E0913B07F0913C07A8
:1045300020E030E0C0E0D0E0309711F140815181BF
:1045400048175907C0F04817590761F482819381D1
:10455000209719F09B838A832BC090933C0780930C
:104560003B0726C02115310519F04217530718F4EF
:104570009A01BE01DF01EF010280F381E02DDCCF63
:104580002115310509F1281B390B2430310590F430
:1045900012968D919C9113976115710521F0FB0185
:1045A0009383828304C090933C0780933B07FD0173
:1045B000329644C0FD01E20FF31F81939193225084
:1045C00031092D933C933AC02091390730913A0735
:1045D000232B41F4209102023091030230933A07D9
:1045E00020933907209100023091010221153105F5
:1045F00041F42DB73EB74091040250910502241BAF
:10460000350BE0913907F0913A07E217F307A0F470
:104610002E1B3F0B2817390778F0AC014E5F5F4F18
:104620002417350748F04E0F5F1F50933A07409309
:1046300039078193919302C0E0E0F0E0CF01DF9170
:10464000CF9108950F931F93CF93DF93009709F4B1
:104650008CC0FC0132971382128200913B071091AB
:104660003C070115110581F420813181820F931FD0
:104670002091390730913A072817390779F5F093D7
:104680003A07E093390771C0D80140E050E0AE1717
:10469000BF0750F412962D913C911397AD0121154F
:1046A000310509F1D901F3CF9D01DA01338322836A
:1046B00060817181860F971F8217930769F4EC015F
:1046C00028813981260F371F2E5F3F4F318320838A
:1046D0008A819B8193838283452B29F4F0933C0745
:1046E000E0933B0742C01396FC93EE931297ED01C3
:1046F000499159919E01240F351FE217F30771F478
:1047000080819181840F951F029611969C938E93C0
:104710008281938113969C938E931297E0E0F0E050
:10472000D80112968D919C911397009719F0F8017A
:104730008C01F6CF8D919C9198012E5F3F4F820F97
:10474000931F2091390730913A072817390769F4E8
:10475000309729F410923C0710923B0702C0138255
:10476000128210933A0700933907DF91CF911F917E
:104770000F9108956F927F928F929F92AF92BF9206
:10478000CF92DF92EF92FF920F931F93CF93DF931D
:10479000EC01009781F4CB01DF91CF911F910F9134
:1047A000FF90EF90DF90CF90BF90AF909F908F9051
:1047B0007F906F90B2CEFC01E60FF71F9C01225054
:1047C0003109E217F30708F4A8C0D9010D911C9133
:1047D000119706171707A8F00530110508F49BC0BC
:1047E000C80104978617970708F495C0025011096D
:1047F000061B170B019311936D937C93CF0122DF5E
:104800008AC05B01A01AB10A4C01800E911EA091D2
:104810003B07B0913C0740E050E0E12CF12C1097B1
:1048200009F44AC0A815B905D1F56D907C9011978F
:10483000630182E0C80ED11CCA14DB0480F1A3011D
:104840004A195B096A0182E0C80ED11C1296BC901D
:1048500012971396AC91B5E0CB16D10440F0B2821A
:10486000A38351834083D9016D937C930AC00E5F6B
:104870001F4FC301800F911FF90191838083EB2D9E
:10488000FA2FE114F10431F0D7011396FC93EE9363
:10489000129741C0F0933C07E0933B073CC08D91D9
:1048A0009C9111974817590708F4AC017D011296A5
:1048B0000D90BC91A02DB3CF8091390790913A070C
:1048C00088159905E1F446175707C8F4809100024E
:1048D00090910102009741F48DB79EB74091040278
:1048E00050910502841B950BE817F907B0F4F0937B
:1048F0003A07E0933907F901718360830CC0CB015B
:104900000CDE7C01009749F0A801BE0128D0CE0141
:1049100099DEC70104C0CE0102C080E090E0DF91C3
:10492000CF911F910F91FF90EF90DF90CF90BF90AC
:10493000AF909F908F907F906F90089581E090E06E
:10494000F894F8C3FB01DC0104C08D91019080193B
:1049500021F441505040C8F7881B990B0895FB0182
:10496000DC0102C001900D9241505040D8F70895EB
:10497000FB01DC0101900D920020E1F70895EF9218
:104980000F931F93CF93DF93E80147FD02C034E0FC
:1049900001C034E1E42F440FFF0BF7FF03C0F19592
:1049A000E195F109E32E022F2E2FAE0120D0CE018A
:1049B000DF91CF911F910F91EF900895BB27FB01DD
:1049C0005527AA27880F991FAA1FA41710F0A41B08
:1049D00083955051B9F7A05DAA3308F0A95DA19362
:1049E000009779F7B111B1931192CB0165C24F9243
:1049F0005F926F927F929F92AF92BF92CF92DF921F
:104A0000EF92FF920F931F93CF93DF93CDB7DEB753
:104A100029970FB6F894DEBF0FBECDBF6A01122FE3
:104A2000B02E2BE3201720F0FF24F394F00E02C0E9
:104A3000BCE3FB2E0F2D27E0AE014F5F5F4F64D12B
:104A4000AC018981982F9970913031F0E1FC06C05A
:104A5000E0FE06C090E205C09DE203C09BE201C0FB
:104A600090E0EE2DE07183FF3CC0911102C083E025
:104A700001C084E0811718F4212F281B01C020E019
:104A8000E1110BC0F601822F30E2882319F0319337
:104A90008150FBCFC20ED11C20E0992329F0D60112
:104AA0009C93F60131966F01C6010396E2FE0AC09F
:104AB0003EE4D6013C9341E411964C931197129633
:104AC0003C9306C03EE6F601308341E641833283E3
:104AD000FC01322F40E2332309F442C041933150AC
:104AE000FACF82FF44C0911102C083E001C084E08C
:104AF000811718F4212F281B01C020E0E1110BC001
:104B0000F601822F30E2882319F031938150FBCFD8
:104B1000C20ED11C20E0992329F0D6019C93F60106
:104B200031966F01C6010396E2FE0BC039E4D6014F
:104B30003C933EE411963C93119736E412963C93D5
:104B400007C039E6F60130833EE6318336E632832C
:104B5000FC01322F40E2332319F041933150FBCF57
:104B6000FC01E20FF11D10828EEF9FEFB7C0F1E064
:104B7000911101C0F0E06F2F70E01416150624F4B7
:104B80009A012F5F3F4F02C021E030E0260F371F10
:104B9000BB2029F06B2D70E06F5F7F4F02C060E09B
:104BA00070E0260F371F612F70E0261737071CF4BF
:104BB000121B212F01C020E03E2D387159F4D6017F
:104BC000322F60E2332319F06D933150FBCFC20EC8
:104BD000D11C20E0FF2331F0D6019C93B6016F5F1A
:104BE0007F4F6B01E1110BC0F601922F30E3992347
:104BF00019F031939150FBCFC20ED11C20E09F2DB4
:104C0000940F3A81782F7071A72E84FF03C031333F
:104C100009F49150191624F4993018F098E001C065
:104C200091E0E42F852F57FF02C0E0E080E06E2F77
:104C3000782FE0E0F0E0AEE29A2E3A01691A7108AE
:104C40002A01461A570A0B2D10E0119501951109FA
:104C50006F3F8FEF780729F4D6019C92C601019629
:104C60006C014617570784F0661677066CF47F01CF
:104C7000E40CF51CA1E0B0E0AC0FBD1FEA0EFB1E7A
:104C8000D7011196BC9002C090E3B92E6150710912
:104C90003196C60101967C016017710724F0D60198
:104CA000BC926C01D5CF6417750741F4363320F4FC
:104CB000353321F4A11002C081E3B82EF601B08291
:104CC000F701822F90E2882319F091938150FBCF56
:104CD000F701E20FF11D108280E090E029960FB6F7
:104CE000F894DEBF0FBECDBFDF91CF911F910F9122
:104CF000FF90EF90DF90CF90BF90AF909F907F900C
:104D00006F905F904F900895283008F027E0332788
:104D1000DA01990F311D87FD9160009661057105DB
:104D200039F432602E5F3D9330E32A95E1F7089520
:104D30009F3F30F080387105610509F03C5F3C5FB2
:104D40003D93913008F08068911DDF93CF931F93BE
:104D50000F93FF92EF92192F987F9695E92F9695D2
:104D60009695E90FFF27E25FF44F99273327EE244A
:104D7000FF24A701E70105900894079428F4360F53
:104D8000E71EF81E491F511D660F771F881F991FC8
:104D90000694A1F70590079428F4E70EF81E491F22
:104DA000561FC11D770F881F991F661F0694A1F714
:104DB0000590079428F4F80E491F561FC71FD11DF0
:104DC000880F991F661F771F0694A1F70590079417
:104DD00020F4490F561FC71FD81F990F661F771F52
:104DE000881F0694A9F784911095177041F0D69505
:104DF000C79557954795F794E7941A95C1F7E4EB53
:104E0000FAE068941590159135916591959105900A
:104E10007FE27395E118F10A430B560BC90BD009D9
:104E2000C0F7E10CF11E431F561FC91FD01D7EF4B1
:104E3000703311F48A95E6CFE894015030F0080FF2
:104E40000AF40027021708F4202F2395022F7A3343
:104E500028F079E37D932A95E9F710C07D932A9590
:104E600089F6069497956795379517951794E118E5
:104E7000F10A430B560BC90BD00998F023957E918C
:104E800073957A3308F070E37C932013B8F77E9122
:104E900070617D9330F0839571E37D9370E32A9583
:104EA000E1F71124EF90FF900F911F91CF91DF91C7
:104EB000992787FD90950895DC01FC01672F71917A
:104EC0007723E1F7329704C07C916D9370836291F0
:104ED000AE17BF07C8F30895E89409C097FB3EF4E6
:104EE00090958095709561957F4F8F4F9F4F992337
:104EF000A9F0F92F96E9BB279395F69587957795B5
:104F00006795B795F111F8CFFAF4BB0F11F460FF74
:104F10001BC06F5F7F4F8F4F9F4F16C0882311F0CC
:104F200096E911C0772321F09EE8872F762F05C0E0
:104F3000662371F096E8862F70E060E02AF09A957B
:104F4000660F771F881FDAF7880F9695879597F970
:104F50000895990F0008550FAA0BE0E8FEEF16160A
:104F60001706E807F907C0F012161306E407F5075D
:104F700098F0621B730B840B950B39F40A2661F0D1
:104F8000232B242B252B21F408950A2609F4A14074
:104F9000A6958FEF811D811D08950BD078C069D033
:104FA00028F06ED018F0952309F05AC05FC0112484
:104FB000A2C07ED0A0F3959FD1F3950F50E0551F6E
:104FC000629FF001729FBB27F00DB11D639FAA275E
:104FD000F00DB11DAA1F649F6627B00DA11D661FAD
:104FE000829F2227B00DA11D621F739FB00DA11DCE
:104FF000621F839FA00D611D221F749F3327A00D88
:10500000611D231F849F600D211D822F762F6A2F23
:1050100011249F5750408AF0E1F088234AF0EE0FA8
:10502000FF1FBB1F661F771F881F91505040A9F7B5
:105030009E3F510570F014C05EC05F3FECF3983E98
:10504000DCF3869577956795B795F795E7959F5F1C
:10505000C1F7FE2B880F911D9695879597F90895B6
:1050600097F99F6780E870E060E008959FEF80EC1B
:10507000089500240A9416161706180609060895BE
:1050800000240A9412161306140605060895092E24
:105090000394000C11F4882352F0BB0F40F4BF2B93
:1050A00011F460FF04C06F5F7F4F8F4F9F4F0895D3
:1050B00057FD9058440F551F59F05F3F71F04795C9
:1050C000880F97FB991F61F09F3F79F087950895AE
:1050D000121613061406551FF2CF4695F1DF08C0CD
:1050E000161617061806991FF1CF869571056105EA
:1050F00008940895E894BB2766277727CB0197F992
:10510000089509D0A59F900DB49F900DA49F800D88
:10511000911D11240895A29FB001B39FC001A39FC8
:10512000700D811D1124911DB29F700D811D1124E0
:08513000911D0895F894FFCFD2
:1051380000003D078000E80300000000770DA5157A
:10514800380D160D2A0DBD0D000000009E0E6F0EC5
:10515800110E5B0E4C0E4B0E0A0A0A5374617274E0
:10516800696E67207570004D5055207374617274B4
:105178006564207570207375636365737366756CF9
:105188006C79004D5055206661696C656420746FB8
:105198002073746172742075700057616974696E48
:1051A8006720666F72206779726F73636F7065200E
:1051B8006D6561737572656D656E747320746F20AB
:1051C80073746162696C697A652E2E2E004D505594
:1051D80020646964206E6F7420696E697469616CFB
:1051E800697A652070726F7065726C790044726FAD
:1051F8006E6520697320726561647921005374615A
:1052080072747570206661696C6564005049442049
:10521800636F6E74726F6C6C65727320646973610E
:10522800626C65640050494420636F6E74726F6CE1
:105238006C657273207265656E61626C65640044AA
:10524800726F6E65206E6F74207265616479000DEF
:105258000A000900546865204D50552773204649B7
:10526800464F20686173206F766572666C6F77654C
:105278006420616E64206265656E20726573657472
:02528800000024
:00000001FF
