:100000005AC5000089C5000087C5000085C50000ED
:1000100083C5000081C500007FC500007DC50000CC
:100020007BC5000079C5000077C5000075C50000DC
:1000300073C5000071C500006FC500006DC50000EC
:100040006BC5000069C5000067C5000065C50000FC
:1000500063C5000061C500005FC500000C942A174D
:100060005BC500000C946C150C94431555C500003D
:1000700053C5000051C500004FC500004DC500002C
:100080004BC5000049C5000047C5000045C500003C
:100090000C941A150C94F1143FC500000C944F09F0
:1000A0003BC5000039C5000037C5000035C500005C
:1000B00033C5000031C500002FC500000C9443116A
:1000C0002BC5000029C5000027C5000025C500007C
:1000D00023C5000021C500001FC500001DC500008C
:1000E0001BC50000C415C715B615BA15BE15FE15FB
:1000F000CB15CF15D515D915DD15E315E715EB157E
:10010000FE15F115F515F915084AD73B3BCE016EE2
:1001100084BCBFFDC12F3D6C74319ABD56833DDA5E
:100120003D00C77F11BED9E4BB4C3E916BAAAABE6D
:10013000000000803F0001B202FFFF01900409238C
:10014000A135016A020600016008000000000000FD
:100150000000006004400000000162020000006036
:10016000040040000000000A0B02090C0D0E0807F5
:100170000304010000000000000000000000000077
:10018000000000000000000000000000000000006F
:10019000001211100000000000000000000000002C
:1001A0000000000000000000000000000022002508
:1001B0000028002B002E0031003400020100000551
:1001C0000108010B0100002100240027002A002D56
:1001D000003000330001010000040107010A01059D
:1001E000050505070508080808020202020A0A08B0
:1001F00008040404040101010101010101030303D6
:100200000303030303040707070C0C0C0C0C0C0C72
:100210000C0202020206060606060606060B0B0B79
:100220000B0B0B0B0B0102102020080810204010B4
:1002300020408002010201080402010102040810AA
:1002400020408080402010080402018004020180C8
:1002500040201008040201080402010102040810F1
:100260002040800102040810204080FB00003E0076
:100270000B0036000100020003000000650054FF7F
:10028000EF0000FA80000B12820001000200000063
:10029000000000000000000000000000280000FF37
:1002A000FF4581FFFFFA7200000000000003E80034
:1002B00000000100017FFFFFFE8001001B00000025
:1002C0000000000000000000000000003E0330407D
:1002D00000000002CAE3093E800000200000000088
:1002E000000000400000006000000041FF0000002E
:1002F000000B2A0000165500002182FD872650FDC4
:10030000800000001F0000000580000000000000C9
:100310000100000002000000030000400000000097
:1003200000046F0002653200005EC0400000000063
:100330000000000000000000000000FB8C6F5DFD6D
:100340005D08D9007C733B006C12CC3200139D32E7
:1003500000D0D632000800400001F4FFE6807902A8
:100360000000000000D0D600002710FB0000004075
:10037000000000000000000000000000000001007C
:1003800000000000000100010000000000FA36FF3C
:10039000BC308E0005FBF0FFD95BC8FFD09ABE00D1
:1003A0000010A9FFF41EB200CEBBF7000000010050
:1003B000000004000200020200000CFFC2800000E6
:1003C00001800000CF80004000000000000001001C
:1003D0000000000000060000000014000000000003
:1003E000000000000000000000000000000000000D
:1003F00000000000000000000000000000000000FD
:1004000000000000000000000000000000000003E9
:100410003F68B6793528BCC67ED16C8000000040AC
:100420000000000000B26A000000000000000000B0
:1004300000000000003FF00000003000000000005D
:1004400000000000000000000000000000000000AC
:1004500000000000000000000000000000254D002A
:100460002F706D000005AE000C02D00000000000EF
:10047000650054FFEF0000000000000000010000D4
:1004800044000000000C000000010000000000001B
:1004900065000000540000FFEF00000000000000B5
:1004A000000000000000000000000040000000000C
:1004B00000000000000000000000004000000000FC
:1004C000000000000000000000000000000001002B
:1004D000000002000000000000000000000000001A
:1004E000000000000000000000000000000000000C
:1004F0000000000000000000000000001B000000E1
:1005000000000000000000000000000000000000EB
:1005100000000000000000000000000000000000DB
:100520000000000000000040000000001B00000070
:1005300000000000000000000000000000000000BB
:1005400000000000000000000000000000000000AB
:10055000000000000000000000000000000000009B
:100560000000000000000000000000D8DCBAA2F18A
:10057000DEB2B8B4A88191F74A907F916AF3F9DBB3
:10058000A8F9B0BAA080F2CE81F3C2F1C1F2C3F3F0
:10059000CCA2B280F1C6D880BAA7DFDFDFF2A7C352
:1005A000CBC5B6F087A2942448703C954068345877
:1005B0009B78A2F183922D557DD8B1B4B8A1D0918A
:1005C00080F270F370F27C80A8F101B09887D94373
:1005D000D886C988BAA1F20EB89780F1A9DFDFDF0B
:1005E000AADFDFDFF2AAC5CDC7A90CC92C97979760
:1005F00097F1A989264666B0B4BA80ACDEF2CAF19A
:10060000B28C02A9B69800890E161EB8A9B4992C0E
:10061000547CB08AA896365676F1B9AFB4B083C090
:10062000B8A89711B18F98B9AFF024084410641896
:10063000F1A329557DAF83B593AFF0002850F1A306
:10064000869F61A6DADEDFD9FAA38696DB31A6D9CA
:10065000F8DFBAA68FC2C5C7B28CC1B8A2DFDFDF90
:10066000A3DFDFDFD8D8F1B8A8B286B4980D355D26
:10067000B8AA98B0872D353DB2B6BAAF8C96198F0F
:100680009FA70E161EB49AB8AA872C547CB9A3DE75
:10069000DFDFA3B180F2C4CDC9F1B8A9B499830D4D
:1006A000355D89B9A32D557DB593A30E161EA92CD2
:1006B000547CB8B4B0F19783A81184A50998A3839A
:1006C000F0DA240844106418D8F1A529557DA585D1
:1006D00095021A2E3A565A4048F9F3A3D9F8F098E1
:1006E000832408441064189782A8F111F098A2247A
:1006F0000844106418DAF3DED883A59401D9A30264
:10070000F1A2C3C5C7D8F18492A24DDA2AD84869AC
:10071000D92AD86855DA32D85071D932D8705DDA12
:100720003AD85879D93AD87893A34DDA2AD8486973
:10073000D92AD86855DA32D85071D932D8705DDAF2
:100740003AD85879D93AD878A88A9AF02850789E19
:10075000F38818F19F1D98A8D908D8C89F129EF356
:1007600015A8DA1210D8F1AFC8978734B5B994A498
:1007700021F3D922D8F22DF3D92AD8F235F3D93280
:10078000D881A4606061D961D86C6869D969D8746E
:100790007071D971D8B1A384193D5DA3831A3E5EEF
:1007A000931030811011B8B0AF8F94F2DA3ED8B404
:1007B0009AA88729DAF8D8879A35DAF8D8879A3D3F
:1007C000DAF8D8B1B9A49885022E56A581000C1488
:1007D000A397B08AF12DD928D84DD948D86DD968BA
:1007E000D8B1840DDA0ED8A32983DA2C0ED8A384CD
:1007F0004983DA2C4C0ED8B8B0A88A9AF520AADA28
:10080000DFD8A840AAD0DADED8A860AADAD0DFD82C
:10081000F19786A8319B069907AB9728889BF00C27
:10082000201440B8B0B4A88C9CF0042851791D3035
:100830001438B282ABD0982C505078789BF11AB013
:10084000F08A9CA82951798B2951798A2470598B77
:100850002058718A4469388B3940688A6448318BE2
:10086000304960A5882009715844681139644930BD
:1008700019F1AC002C547CF08CA804285078F18835
:100880009726A85998AC8C02264666F0899CA82920
:100890005179247059446938644831A9880920592C
:1008A00070AB11384069A8193148608CA83C415C94
:1008B000207C00F187981986A86E767EA999882DEC
:1008C000557D9EB9A38A228A6E8A568A5E9FB1831D
:1008D000062646660E2E4E6E9DB8AD002C547CF258
:1008E000B18CB499B9A32D557D8191AC38AD3AB591
:1008F0008391AC2DD928D84DD948D86DD968D88CDA
:100900009DAE29D904AED851D904AED879D904D82E
:1009100081F39DAD008DAE1981ADD901D8F2AEDA6B
:1009200026D88E912983A7D9ADADADADF32AD8D8FD
:10093000F1B0AC89913E5E76F3AC2E2EF1B18C5ABB
:100940009CAC2C2828289CAC3018A8988128343CD2
:100950009724A728343C9C24F2B089AC912C4C6C91
:100960008A9B2DD9D8D851D9D8D879D9D8D8F19E41
:1009700088A331DAD8D8912DD928D84DD948D86D47
:10098000D968D8B18393353D8025DAD8D88569DA1E
:10099000D8D8B49381A328343CF3AB8BF8A391B699
:1009A00009B4D9ABDEFAB0879CB9A3DDF1A3A3A348
:1009B000A395F1A3A3A39DF1A3A3A3A3F2A3B49032
:1009C00080F2A3A3A3A3A3A3A3A3A3A3B2A3A3A3BC
:1009D000A3A3A3B087B599F1A3A3A398F1A3A3A35D
:1009E000A397A3A3A3A3F39BA3A3DCB9A7F12626F4
:1009F00026D8D8FF037B034CCD6C03AB0336567669
:100A000000680402CB47A202180400058BC1010C48
:100A10000400000000037F060CC92C9797970389F8
:100A200003264666006C022000024004000000001D
:100A30000244040000000002480400000000024CD0
:100A400004000000000250040000000002540400F2
:100A500000000002580400000000025C04000000D6
:100A60000002BC040000000001EC04000040000390
:100A70007F060CC92C9797970402030D355D040976
:100A800004872D353D00A301000000000107860109
:100A9000FE074105F120283038077E013007460166
:100AA0009A074704F1283038076C04F128303802DF
:100AB00016020001D91F11241FBECFEFD1E2DEBF05
:100AC000CDBF00E00CBF13E0A0E0B2E0EEE2FDE439
:100AD00000E00BBF02C007900D92A036B107D9F716
:100AE00027E0A0E6B3E001C01D92AB31B207E1F709
:100AF00015E0CBE5D5E000E006C021970109802F85
:100B0000FE010E940C21CA35D10780E00807A9F731
:100B10000E94621F0C94952673CA8091DD0390E0B9
:100B20002091DE03821B9109089585ED8093BC001E
:100B30008091BC0084FDFCCF109205040895409183
:100B40008703262F30E0240F311D21323105DCF4DC
:100B5000209105042430C9F4FC0180E090E0861760
:100B600058F4309187032191DC01AB59BC4FA30F9E
:100B7000B11D2C930196F3CF80918703680F60938A
:100B8000870380E0089581E0089582E00895089544
:100B9000E091DE038091DD03E81730F4F0E0E455E6
:100BA000FC4F808190E008958FEF9FEF0895909122
:100BB000DE038091DD03981750F4E92FF0E0E4554F
:100BC000FC4F208130E09F5F9093DE0302C02FEF47
:100BD0003FEFC9010895CF92DF92EF92FF920F93FA
:100BE0001F93CF93DF937C01262F972F8A0180914B
:100BF0000604882391F0C62FD72F6E01C40ED51E90
:100C0000CC15DD0569F06991D701ED91FC9101905A
:100C1000F081E02DC7011995F3CF642F822F8FDF6C
:100C2000C801DF91CF911F910F91FF90EF90DF905E
:100C3000CF900895CF93DF931F92CDB7DEB769832E
:100C4000209106042223D1F020912904203240F083
:100C500021E030E0FC013383228380E090E014C087
:100C600080910704E82FF0E0E85FFB4F99819083C3
:100C70008F5F809307048093290404C061E0CE0154
:100C800001965DDF81E090E00F90DF91CF910895B4
:100C900028E6FC0120830895CF92DF92EF92FF9225
:100CA0000F931F93CF93DF93EC016A017B01E889D7
:100CB000F98982E080834115514E61057105B1F0DB
:100CC00060E079E08DE390E0A70196010E94EA20C0
:100CD00089019A0101501109210931093695279599
:100CE00017950795980101151041A8F0E889F98931
:100CF000108260E874E88EE190E0A70196010E94FE
:100D0000EA20DA01C9010197A109B109B695A795B1
:100D1000979587959C01EC85FD853083EE85FF8551
:100D20002083188EEC89FD8986E08083EA89FB891F
:100D3000808180618083EA89FB89808188608083EB
:100D4000EA89FB89808180688083EA89FB898081C8
:100D50008F7D8083DF91CF911F910F91FF90EF9056
:100D6000DF90CF9008952F923F924F925F926F92B3
:100D70007F928F929F92AF92BF92CF92DF92EF922B
:100D8000FF920F931F93CF93DF93CDB7DEB72897D2
:100D90000FB6F894DEBF0FBECDBF1C016A017B0108
:100DA000DC019E964D935D936D937C93D1971C9639
:100DB0004D905D906D907C901F979A01AB01C3019F
:100DC000B2010E94282169837A838B839C834B0123
:100DD0005C01E894B7F8A50194016BED7FE089EC24
:100DE00090E40E9428219B01AC01C501B4010E943E
:100DF00088224B015C01A3019201C701B6010E9448
:100E0000632587FF0CC02BED3FE049E450E4698186
:100E10007A818B819C810E94632587FD37C1A30164
:100E20009201C701B6010E94CC2218160CF41FC112
:100E300020E030E040E85FE3C501B4010E94C8252E
:100E4000F101608B718B828B938B0E941216D10102
:100E5000D6962D913C91D797621B730BDB967C93B2
:100E60006E93DA970E941216F10166AB77AB80AFF2
:100E700091AFC088D188E288F38820813181428196
:100E80005381C701B6010E94C82569837A838B8389
:100E90009C83D10114964D905D906D907C90179736
:100EA000DA960D911C91DB97B80180E090E00E94EA
:100EB00067254B015C019B01AC01C701B6010E9493
:100EC000C82520E030E04AE754E40E94EF21F10118
:100ED00026A137A140A551A50E9429219B01AC0163
:100EE000D10196966D937D938D939C939997C301B1
:100EF000B2010E94C8259B01AC0169817A818B8176
:100F00009C810E94292169837A838B839C83D101F0
:100F100018968D919D910D90BC91A02D8D839E83EF
:100F2000AF83B887F10144A055A0C20163E070E02F
:100F30000E94D7203C01012B09F495C024893589F2
:100F400046895789C701B6010E942821A50194014D
:100F50000E94EF21F3013696EE0FFF1FEE0FFF1FE9
:100F6000E20DF31D6083718382839383FFEF4F1A39
:100F70005F0AD10195965C924E929497F10112A668
:100F800013A614A615A620E030E040E450E460A1CA
:100F900071A182A193A10E94EF214B015C0120E08D
:100FA00030E040E450E4D10158966D917D918D91EF
:100FB0009C915B970E94EF2120E030E0A9010E9404
:100FC00029212B013C0120E030E040E450E4F10114
:100FD000648D758D868D978D0E94EF219B01AC01EC
:100FE000C301B2010E9429219B01AC01C501B401DA
:100FF0000E9429219B01AC01D1019A966D937D93AA
:101000008D939C939D976D817E818F8198850E94A1
:10101000C8259B01AC0169817A818B819C810E94EA
:101020002921F10162AB73AB84AB95ABC48AD58A3D
:10103000E68AF78A28960FB6F894DEBF0FBECDBFBA
:10104000DF91CF911F910F91FF90EF90DF90CF90A4
:10105000BF90AF909F908F907F906F905F904F90D8
:101060003F902F90089560E070E0CB0173CFA30113
:101070009201C701B6010E9428212BED3FE049E40F
:1010800050E40E94CC2218160CF0D2CE20E030E0C2
:1010900040E85FEBD1CE2F923F924F925F926F92DA
:1010A0007F928F929F92AF92BF92CF92DF92EF92F8
:1010B000FF920F931F93CF93DF93CDB7DEB72797A0
:1010C0000FB6F894DEBF0FBECDBFE82E6B834F8303
:1010D00069010E946F164B015C016E2C660CF12CAD
:1010E0001E82772473945F81452F50E05D834C838B
:1010F0001801412C512C4F81F41608F097C07092C2
:101100000604E092280410920704109229046B81CF
:1011100084E695E08FDD0E94B01D70920604E09297
:10112000280410920704109229048091050481116B
:10113000FCCF2C813D812F1931092132310514F06A
:1011400020E230E0213208F020E270920504709233
:1011500004048FEF8093030410920204820F8093A3
:1011600001047092E0038091E00386298093E003FC
:101170008091DF03813071F41092DF038091E003EE
:101180008093BB008091BC0083FDF8CF95EC9093D9
:10119000BC0003C0E5EEE093BC0080910504813003
:1011A000E1F380910204821710F420910204A1EE71
:1011B000B3E0ECEAF3E08E2F4CEA53E0841B821795
:1011C00018F48D918193F7CF1092DE032093DD0305
:1011D0009091DD038091DE03981711F1011511053F
:1011E00091F4A6012E81420F511D27FD5A955A8375
:1011F000498384E695E0DBDCE981FA8180832E81F6
:101200002F5F2E83E5CF0E946F16DC01CB0188197A
:101210009909AA09BB0982159305A405B50508F328
:101220008F81813208F080E2F80E65CFFE800115D3
:101230001105D9F00E946F16DC01CB0188199909BC
:10124000AA09BB0920E030E080179107A207B30785
:1012500060F05F81252F30E08F2D0F2C000C990B53
:101260008217930714F4FF24FA948F2D27960FB654
:10127000F894DEBF0FBECDBFDF91CF911F910F91CC
:10128000FF90EF90DF90CF90BF90AF909F908F90A6
:101290007F906F905F904F903F902F9008951F9296
:1012A0000F920FB60F9211240BB60F922F933F930C
:1012B0004F935F936F937F938F939F93AF93BF935E
:1012C000EF93FF938091B900887F803609F49CC02A
:1012D00068F5883209F45BC090F4803109F454C099
:1012E00038F4882309F4F6C0883009F44DC0F5C0FD
:1012F000883109F44CC0803209F45DC0EEC08034FE
:1013000009F468C048F4803309F455C0883309F003
:10131000E4C080930304D8C0803509F44FC08835F9
:1013200009F45DC0883409F0D8C0D6C0883909F402
:10133000C7C0A8F4883709F467C038F4883609F4C0
:1013400063C0803709F460C0C8C0883809F4B8C0E9
:10135000803909F45FC0803809F0BFC05BC0803BB2
:1013600009F486C038F4803A09F466C0883A09F472
:101370007FC0B3C0803C09F4A7C0883C09F4A4C076
:10138000883B09F48AC0A9C08091E00310C0909105
:10139000020480910104981770F5E091020481E045
:1013A0008E0F80930204F0E0EF51FC4F8081809318
:1013B000BB0085EC86C0809303048EC0E0910204DC
:1013C00081E08E0F809302048091BB00F0E0EF512A
:1013D000FC4F808390910204809101046EC0E091E3
:1013E000020481E08E0F809302048091BB00F0E044
:1013F000EF51FC4F80838091040481116DC081E026
:101400008093DF0384EA61C083E080930504109237
:10141000AB03CFCF8091AB03803208F051C0E09195
:10142000AB0381E08E0F8093AB038091BB00F0E0B3
:10143000E557FC4F8083BDCF85EC8093BC001092B4
:1014400005048091AB03803230F4E091AB03F0E00F
:10145000E557FC4F10826091AB0370E0E091890387
:10146000F0918A038BE893E019951092AB0335C095
:1014700084E0809305041092880310928703E09122
:101480008503F0918603199580918703811105C02A
:1014900081E08093870310926503E091880381E0E7
:1014A0008E0F80938803F0E0EB59FC4F808180938E
:1014B000BB009091880380918703981708F479CF37
:1014C00085E88093BC0009C085EC8093BC00109235
:1014D000050403C01092030428DBFF91EF91BF9134
:1014E000AF919F918F917F916F915F914F913F91BC
:1014F0002F910F900BBE0F900FBE0F901F9018955D
:10150000FF920F931F93CF93DF93CDB7DEB727974B
:101510000FB6F894DEBF0FBECDBF8091510681118A
:1015200020C06BE572E0CE0101960E94A514CE01A9
:1015300001960E94AC19CE0101960E94A01460E2AF
:101540007EE480E090E00E94371627960FB6F8946C
:10155000DEBF0FBECDBFDF91CF911F910F91FF90E6
:1015600008958AE294E0C3D703970CF05CC06AE068
:1015700070E080E090E00E9437160E9412160E94F0
:10158000BF190E94121680911207882309F441C0E6
:101590000E945213409137065091380660913906E7
:1015A00070913A068EE596E0DEDB8B019C0142E00D
:1015B00050E061E070E080E090E00E94CC13409148
:1015C0003B0650913C0660913D0670913E068AE9CB
:1015D00096E0C9DB8B019C0141E050E060E070E0E7
:1015E00082E090E00E94CC1340913F06509140066B
:1015F000609141067091420686ED96E0B4DB8B0166
:101600009C0142E050E060E070E081E090E00E94E8
:10161000CC138091630390916403029690936403CA
:101620008093630392CF60916203FF24F3946F254C
:101630006093620383E00E9495150E94B3168B01AC
:10164000011581E0180709F440C0013081E0180756
:10165000F1F080911207811104C0C8010E94F813B3
:1016600086CF70E080E090E00E94692520E030E0C5
:101670004FE753E40E94EF2160938005709381054A
:1016800080938205909383050E946213E6CFF092C7
:101690001207109280051092810510928205109217
:1016A00083056F830E9462130E94131E10928805A7
:1016B0000E94BF19F0928805F5D70E94041D81E4AD
:1016C00092E00E94A41D6F81C4CF809112078823ED
:1016D00059F01092800510928105109282051092A7
:1016E00083056F83EFD76F81109212076F83DAD76C
:1016F00088E292E0E6CF2F923F924F925F926F92F4
:101700007F928F929F92AF92BF92CF92DF92EF9291
:10171000FF920F931F93CF93DF93CDB7DEB7C059DE
:10172000D1090FB6F894DEBF0FBECDBF40E052EC3A
:1017300061E070E087EC94E0AFDA40E855E260E009
:1017400070E08AE294E0A8DA87EC94E00E949614B4
:101750008AE294E00E9496140E947A148BE692E04A
:101760000E94A41D81B18F6081B91092200189E08F
:1017700080932101809173008260809373001092A6
:1017800080051092810510928205109283058AD7F8
:101790008AE792E00E94A41D0E94881988E1809344
:1017A000B8000E946A190E9464196EE170E080E03E
:1017B00090E00E9437160E945E1941E061E080E1EE
:1017C0000E941E1E86E00E94191E0E94491940E0D8
:1017D00060E080E00E941E1E0E9425190E941619DA
:1017E000B82E0E940719E82E0E94F818F82E8FE7ED
:1017F0000E94ED180E94F21888E60E94ED180E94DF
:10180000E71864E170E080E090E00E9437160E94E3
:10181000DC18811134C081E08093A60588E193E053
:101820000E94A41D10E01093510684E090E0909374
:10183000500680934F060E94041D8091510681112D
:1018400025C089E093E00E94A41DC057DF4F0FB66A
:10185000F894DEBF0FBECDBFDF91CF911F910F91E6
:10186000FF90EF90DF90CF90BF90AF909F908F90C0
:101870007F906F905F904F903F902F9008950E94BF
:101880006118182F811105C082E0C6CF89EF92E060
:10189000DACF83E00E94581F0E94531F0E944E1F00
:1018A0000E94441F0E943A1F83E00E94301F0E9442
:1018B0002B1F0E94261F0E94201F8B2D0E94161F87
:1018C0008E2D0E940C1F8F2D0E94021FE12CF12CE7
:1018D000F701EA5CFE4FE491A1E8B0E0AC0FBD1F58
:1018E000AE0DB11DEC9321E02E0D8FEFE81AF80A32
:1018F00083E08E1568F7CD57DF4F6881C358D0401D
:1019000070E0CB01029630E0821793070CF700E0FD
:10191000CE57DF4F2881C258D040CF57DF4F488184
:10192000C158D04081E890E08C0F9D1F03960E9423
:10193000281E20E080E090E0F701EA5CFE4FE49191
:10194000A1E8B0E0AC0FBD1FA80FB91FEC932F5F4B
:101950008FEFE81AF80A243018F4822F90E0ECCFC9
:10196000CD57DF4F6881C358D04070E0AB014E5F68
:101970005F4F822F90E048175907F4F600E0CE57EA
:10198000DF4F2881C258D040CF57DF4F4881C15820
:10199000D04081E890E08C0F9D1F03960E94281E86
:1019A0000E94131E0E94E81E682FCE0101960E941D
:1019B000DA1E0E94D1200E94CB200E94C5200E94E6
:1019C000BF200E94131E0E94B82081E00E940D1EBD
:1019D0000E94B12020E080E090E0F701EA5CFE4F39
:1019E000E491A1E8B0E0AC0FBD1FA80FB91FEC93C4
:1019F0002F5F8FEFE81AF80A243018F4822F90E056
:101A0000ECCFCD57DF4F6881C358D04070E0AB01B9
:101A10004E5F5F4F822F90E048175907F4F600E0C1
:101A2000CE57DF4F2881C258D040CF57DF4F488173
:101A3000C158D04081E890E08C0F9D1F03960E9412
:101A4000281E20E080E090E0F701EA5CFE4FE49180
:101A5000A1E8B0E0AC0FBD1FA80FB91FEC932F5F3A
:101A60008FEFE81AF80A243018F4822F90E0ECCFB8
:101A7000CD57DF4F6881C358D04070E0AB014E5F57
:101A80005F4F822F90E048175907F4F600E0CE57D9
:101A9000DF4F2881C258D040CF57DF4F4881C1580F
:101AA000D04081E890E08C0F9D1F03960E94281E75
:101AB00020E080E090E0F701EA5CFE4FE491A1E8CD
:101AC000B0E0AC0FBD1FA80FB91FEC932F5F8FEFD5
:101AD000E81AF80A243018F4822F90E0ECCFCD57A2
:101AE000DF4F6881C358D04070E0AB014E5F5F4F5D
:101AF000822F90E048175907F4F600E0CE57DF4FE9
:101B00002881C258D040CF57DF4F4881C158D040BC
:101B100081E890E08C0F9D1F03960E94281E0E9472
:101B2000E81E83309105D8F3682FCE0101960E94FC
:101B3000DA1E0E943B2020E080E090E0F701EA5CA2
:101B4000FE4FE491A1E8B0E0AC0FBD1FA80FB91F94
:101B5000EC932F5F8FEFE81AF80A243018F4822FE5
:101B600090E0ECCFCD57DF4F6881C358D04070E094
:101B7000AB014E5F5F4F822F90E048175907F4F694
:101B8000CE57DF4F2881C258D040CF57DF4F488112
:101B9000C158D04081E890E08C0F9D1F03960E94B1
:101BA00050200E94E81E83309105D8F3682FCE01A3
:101BB00001960E94DA1E0E943B20F701EA5CFE4F6C
:101BC00020E080E090E03491A1E8B0E0AC0FBD1FD0
:101BD000A80FB91F3C932F5F243020F4822F90E090
:101BE0003196F1CFCD57DF4F6881C358D04070E0B8
:101BF000AB014E5F5F4F822F90E04817590784F783
:101C000000E0CE57DF4F2881C258D040CF57DF4F7A
:101C10004881C158D04081E890E08C0F9D1F039609
:101C20000E94281E80E00E940D1E8AE290E09093A0
:101C30009405809393050E94131E0E943B201092EE
:101C4000A60581E00E940D1E1092880501E0009318
:101C5000A40580919305909194059093A805809395
:101C6000A7058AE892E00E94A41D0093510686EA27
:101C700092E00E94A41D0E946F164B015C0105C0FA
:101C80000E94BF19019709F4FBC00E946F16DC0186
:101C9000CB0188199909AA09BB0980339547A10589
:101CA000B10570F31092880510921F06109220065D
:101CB00010922106109222061092230610922406FA
:101CC00010922506109226061092270610922806DA
:101CD0001092290610922A0684E6282E312CBEC0C6
:101CE00020E030E048EC52E460912B0670912C0625
:101CF00080912D0690912E060E94EF219B01AC0150
:101D00006091130670911406809115069091160645
:101D10000E94292160931306709314068093150680
:101D20009093160620E030E048EC52E460912F06D4
:101D30007091300680913106909132060E94EF2119
:101D40009B01AC01609117067091180680911906ED
:101D500090911A060E942921609317067093180625
:101D60008093190690931A0620E030E048EC52E484
:101D70006091330670913406809135069091360655
:101D80000E94EF219B01AC0160911B0670911C0623
:101D900080911D0690911E060E94292160931B06CA
:101DA00070931C0680931D0690931E0620913706A3
:101DB000309138064091390650913A0660911F06DD
:101DC0007091200680912106909122060E9429217F
:101DD0006B017C0160931F0670932006809321069F
:101DE0009093220620913B0630913C0640913D069F
:101DF00050913E066091230670912406809125063D
:101E0000909126060E9429212B013C016093230614
:101E100070932406809325069093260620913F0612
:101E2000309140064091410650914206609127064C
:101E3000709128068091290690912A060E942921F6
:101E40004B015C0160932706709328068093290656
:101E500090932A0681E0281A3108F9F00E94BF19F0
:101E6000019709F03DCF69ED72E0CE0101966DD585
:101E7000CE0101960E94AC19CE01019661D5D3CC5A
:101E800069ED72E0CE01019660D5CE0101960E9407
:101E9000AC19CE01019654D5C5CC20E030E048EC19
:101EA00052E4C701B6010E94EF2160931F067093B0
:101EB0002006809321069093220620E030E048EC33
:101EC00052E4C301B2010E94EF2160932306709394
:101ED0002406809325069093260620E030E048EC07
:101EE00052E4C501B4010E94EF216093270670936C
:101EF00028068093290690932A0681E0809388051E
:101F00000E94BF1990CC8F929F92AF92BF92CF92B6
:101F1000DF92EF92FF920F931F93CF93DF93EC0129
:101F20001C8A1D8A1E8A1F8A188E81960E94480666
:101F30001CAAFE01E558FF4F80E090E0A0E8BFE357
:101F400080839183A283B3831482158216821782C1
:101F500010861186128613861486158616861786B5
:101F60007096118210821382128215821482369624
:101F70001182108213821282158214823696108288
:101F800011821282138214821582168217821086A1
:101F90001186128613868E0102511F4F8AE999E934
:101FA000A9E9BEE3F80180839183A283B3831482FD
:101FB0001582168217821086118612861386148661
:101FC000158616861786108A118A128A138A148A31
:101FD000158A168A178A15A214A2108E118E128ED7
:101FE000138E148E158E168E178E10A211A212A2A9
:101FF00013A218D6F80166AB77AB80AF91AF045C43
:102000001F4F812C912C80E8A82E8EE3B82EF8016A
:1020100080829182A282B3821482158216821782F4
:10202000C12C90E4D92E9CE1E92E96E4F92EC086CD
:10203000D186E286F3861486158616861786108A60
:10204000118A128A138A148A158A168A178A15A287
:1020500014A2108E118E128E138E148E158E168E63
:10206000178E10A211A212A213A2DCD5F80166AB42
:1020700077AB80AF91AF045C1F4FF80180829182F3
:10208000A282B3821482158216821782C086D186FC
:10209000E286F3861486158616861786108A118ABC
:1020A000128A138A148A158A168A178A15A214A20C
:1020B000108E118E128E138E148E158E168E178E14
:1020C00010A211A212A213A2ADD5F80166AB77AB94
:1020D00080AF91AFCE55DE4F81E08883DF91CF9105
:1020E0001F910F91FF90EF90DF90CF90BF90AF9036
:1020F0009F908F900895CF93DF93EC011EA21FA2B3
:1021000018A619A6188A198A1A8A1B8A1C8A1D8A77
:102110001E8A1F8A1DA21CA2188E198E1A8E1B8E53
:102120001C8E1D8E1E8E1F8E18A219A21AA21BA213
:1021300079D56EAB7FAB88AF99AFDF91CF91089522
:102140004F925F926F927F928F929F92AF92BF92C7
:10215000CF92DF92EF92FF926B017C0120E030E0A2
:1021600040E85FE30E94CC2218160CF055C0A7018E
:10217000960160E070E080E89FE30E94EF216B0130
:102180007C014B015C01E894B7F828ED3FE049E49D
:102190005FE30E94C8252B013C0120E030E040E8CD
:1021A0005FE3C501B4010E9428219B01AC01C70176
:1021B000B6010E94C8256B017C012BE438EC47E88E
:1021C0005DE3C501B4010E94C82523EA32E94AE76C
:1021D0005EE30E9429219B01AC01C701B6010E9468
:1021E000C8259B01AC01C301B2010E9428219B01BB
:1021F000AC016AED7FE089EC9FE30E942821FF900B
:10220000EF90DF90CF90BF90AF909F908F907F9096
:102210006F905F904F90089546015701E894B7F88A
:1022200028ED3FE049E45FE3C701B6010E94C825FD
:102230002B013C0120E030E040E85FE3C501B40140
:102240000E9428219B01AC01C701B6010E94C8254C
:102250006B017C012BE438EC47E85DE3C501B40178
:102260000E94C82523EA32E94AE75EE30E94292159
:102270009B01AC01C701B6010E94C8259B01AC01BE
:10228000C301B201BACF1F920F920FB60F92112461
:102290000BB60F922F933F934F936F937F938F9330
:1022A0009F93EF93FF9382B1807F82B98091610306
:1022B00090E001968370992780936103FC01EE0FF3
:1022C000FF1FEB52FC4F2081318130932901209375
:1022D000280142B121E030E0B90102C0660F771F4A
:1022E0008A95E2F7CB01842B82B9FF91EF919F9100
:1022F0008F917F916F914F913F912F910F900BBED6
:102300000F900FBE0F901F901895CF92DF92EF9213
:10231000FF920F931F93CF93DF93EC01CB01BA0190
:102320008E01000F111F000F111F00591A4FF801E5
:1023300020813181428153810E9429216B017C01DE
:1023400020E030E040E85EE30E94CC2218160CF05A
:1023500040C080E090E0A0E8BEE3F8018083918374
:10236000A283B3836C017D012091800530918105AA
:102370004091820550918305C701B6010E94292131
:1023800020E034E740E656E40E94C8250E945C2223
:102390008B01035E1A4BB80180E090E00E94672534
:1023A0002DEC3CE548EC56E40E94CC22181604F5CE
:1023B000CC0FDD1FCB52DC4F8EE294E699838883ED
:1023C000DF91CF911F910F91FF90EF90DF90CF9011
:1023D000089520E030E040E85EEBC701B6010E94BE
:1023E000632587FF10C080E090E0A0E8BEEBB5CF8A
:1023F0000D31F5E41F0768F4CC0FDD1FCB52DC4F25
:102400008DE195E4DBCFF801C082D182E282F382D4
:10241000ABCFFE01EE0FFF1FEB52FC4F1183008389
:10242000CFCFCF92DF92EF92FF920F931F93CF9374
:10243000DF936C017A018B01C0E0D0E0CE15DF059F
:1024400089F0D8016D918D01D601ED91FC9101903B
:10245000F081E02DC6011995892B11F47E0102C08F
:102460002196ECCFC701DF91CF911F910F91FF9083
:10247000EF90DF90CF900895FC01A089B1898C91F5
:10248000A689B78982FD0FC09C91818D8F5F8F7364
:10249000228D821749F0218DDF01A20FB11D5D96BB
:1024A0009C93818F08958C910895FC01918D828D6C
:1024B000981761F0828DDF01A80FB11D5D968C9198
:1024C000928D9F5F9F73928F90E008958FEF9FEFA3
:1024D0000895FC01918D828D981731F0828DE80F5F
:1024E000F11D858D90E008958FEF9FEF0895FC0119
:1024F000918D228D892F90E0805C9F4F821B9109E6
:102500008F73992708958AE294E0F1DF21E0892B07
:1025100009F420E0822F089587EC94E0E8DF21E0C1
:10252000892B09F420E0822F0895FC01848DDF01BE
:10253000A80FB11DA35ABF4F2C91848D90E0019636
:102540008F739927848FA689B7892C93A089B18925
:102550008C9180648C93938D848D981306C002882F
:10256000F389E02D80818F7D80830895EF92FF9223
:102570000F931F93CF93DF93EC0181E0888F9B8DA6
:102580008C8D981305C0E889F989808185FD23C069
:10259000F62E0B8D10E00F5F1F4F0F731127E02EEB
:1025A0008C8DE8120BC00FB607FCFACFE889F989C9
:1025B000808185FFF5CFCE01B8DFF2CF8B8DFE0194
:1025C000E80FF11DE35AFF4FF0820B8FEA89FB8978
:1025D0008081806207C0EE89FF896083E889F9897C
:1025E00080818064808381E090E0DF91CF911F91B2
:1025F0000F91FF90EF900895CF93DF93EC01888DBA
:102600008823C1F0EA89FB89808185FD05C0A889FE
:10261000B9898C9186FD0EC00FB607FCF5CF80817D
:1026200085FFF2CFA889B9898C9185FFEDCFCE01C6
:102630007CDFE8CFDF91CF91089580E090E0892B97
:1026400019F06ADF811120C080E090E0892B19F039
:102650005ADF81111CC080E090E0892B41F080E0BE
:1026600090E0892B21F00E940000811113C080E0CE
:1026700090E0892BA1F080E090E0892B81F00E940E
:10268000000081110AC008950E940000DDCF0E9461
:102690000000E1CF0E940000EACF0C9400000895F2
:1026A0000E94422580E090E00E94411D81E090E080
:1026B0000E94411D82E090E00E94411D83E090E075
:1026C0000C94411D4F925F926F927F92AF92BF9296
:1026D000CF92DF92EF92FF920F931F93CF93DF93EE
:1026E0004090800550908105609082057090830530
:1026F00080E7E82E85E0F82E05ED13E09DE1C92E78
:1027000095E4D92E2EE2A22E24E6B22EF701619195
:102710007191819191917F01A30192010E942921E0
:1027200020E034E740E656E40E94C8250E945C227F
:10273000EB01C35EDA4BBE0180E090E00E946725AA
:102740002DEC3CE548EC56E40E94CC221816C4F46B
:10275000F801B182A0820E5F1F4FF3E00D3D1F070D
:10276000A9F6DF91CF911F910F91FF90EF90DF902D
:10277000CF90BF90AF907F906F905F904F900895F3
:10278000CD31F5E4DF0720F4F801D182C082E3CF38
:10279000F801D183C083DFCFAF92BF92CF92DF9297
:1027A000EF92FF920F931F93CF93DF935B01EA01A8
:1027B00068017901B901A801A8DDB701A60183E08C
:1027C00090E0A3DDF7FAF094F7F8F094B701A601D2
:1027D000C5019BDDB701A601CE01DF91CF911F910D
:1027E0000F91FF90EF90DF90CF90BF90AF908DCD85
:1027F0008F929F92AF92BF92CF92DF92EF92FF9211
:102800000F931F93CF93DF93CDB7DEB7A1970FB68A
:10281000F894DEBF0FBECDBF6C01990FEE08FF0824
:10282000F7FE31C0E0912A04F0912B040190F08171
:10283000E02D6DE28AE294E019958C01222733277E
:10284000A9012C193D094E095F0919A2CE018196F3
:102850007C019AE0892E912CA12CB12CCA01B901DE
:10286000A50194010E94EA20605DF70162937F0157
:10287000211531054105510589F7CF010E94921DAF
:10288000080F191F1EC0A701960119A28E010F5D26
:102890001F4F8AE0C82ED12CE12CF12CCA01B901BE
:1028A000A70196010E94EA20605DF80162938F0102
:1028B000211531054105510589F7CF010E94921D6F
:1028C0008C018FE293E00E94921D800F911FA196D0
:1028D0000FB6F894DEBF0FBECDBFDF91CF911F9131
:1028E0000F91FF90EF90DF90CF90BF90AF909F90AF
:1028F0008F900895E8E2F2E02491E2EEF1E0849115
:10290000882399F090E0880F991FFC01EB53FE4F4C
:10291000A591B491FC01E555FE4F859194918FB737
:10292000F894EC91E22BEC938FBF089545E050E0D2
:1029300060E070E0FC0144835583668377830895EB
:10294000FC01808191810C94C623EF92FF920F933A
:102950001F93CF93DF93EC01198218821B821A8296
:102960001D821C8261157105A9F17B01FB0101909B
:102970000020E9F731978F01061B170BB8016F5F35
:102980007F4F80E090E00E945E24009759F0998389
:1029900088831B830A832C813D81232B81F4FC01D6
:1029A00010820DC088819981009711F00E94C62382
:1029B000198218821D821C821B821A820BC01D8301
:1029C0000C83B701DF91CF911F910F91FF90EF9092
:1029D0000C945C25DF91CF911F910F91FF90EF90A8
:1029E00008951F920F920FB60F9211240BB60F92FB
:1029F0002F933F934F935F936F937F938F939F9307
:102A0000AF93BF93EF93FF938AE294E08EDDFF9143
:102A1000EF91BF91AF919F918F917F916F915F9156
:102A20004F913F912F910F900BBE0F900FBE0F90C3
:102A30001F9018951F920F920FB60F9211240BB68C
:102A40000F922F933F934F935F936F937F938F9347
:102A50009F93AF93BF93EF93FF938AE294E00CDDD3
:102A6000FF91EF91BF91AF919F918F917F916F9166
:102A70005F914F913F912F910F900BBE0F900FBE22
:102A80000F901F9018951F920F920FB60F9211245E
:102A90000BB60F922F933F934F935F936F937F9358
:102AA0008F939F93AF93BF93EF93FF9387EC94E043
:102AB0003CDDFF91EF91BF91AF919F918F917F91FD
:102AC0006F915F914F913F912F910F900BBE0F909F
:102AD0000FBE0F901F9018951F920F920FB60F9276
:102AE00011240BB60F922F933F934F935F936F93E5
:102AF0007F938F939F93AF93BF93EF93FF9387EC55
:102B000094E0BADCFF91EF91BF91AF919F918F91CB
:102B10007F916F915F914F913F912F910F900BBEDD
:102B20000F900FBE0F901F901895362F90E0FC016C
:102B3000EB59FE4F4491FC01EB5DFD4F2491FC01EC
:102B4000E152FE4F9491992309F46BC0442309F498
:102B500055C050E0FA013197E231F10508F04EC05E
:102B60008827EE58FF4F8F4F0C940C2180918000E6
:102B70008F7707C0809180008F7D03C08091800097
:102B8000877F809380003AC084B58F7702C084B578
:102B90008F7D84BD33C08091B0008F7703C080915A
:102BA000B0008F7D8093B00029C0809190008F7716
:102BB00007C0809190008F7D03C080919000877F37
:102BC000809390001BC08091A0008F7707C08091F8
:102BD000A0008F7D03C08091A000877F8093A0001C
:102BE0000DC0809120018F7707C0809120018F7DDB
:102BF00003C080912001877F80932001E92FF0E0BE
:102C0000EE0FFF1FE555FE4FA591B4918FB7F894D5
:102C1000EC91311103C020952E2301C02E2B2C9353
:102C20008FBF08953FB7F8948091D1039091D2035C
:102C3000A091D303B091D40326B5A89B05C02F3F24
:102C400019F00196A11DB11D3FBFBA2FA92F982FD2
:102C50008827820F911DA11DB11DBC01CD0142E04D
:102C6000660F771F881F991F4A95D1F708958F9295
:102C70009F92AF92BF92CF92DF92EF92FF926B0141
:102C80007C01D0DF4B015C01C114D104E104F104EB
:102C9000E9F0C8DFDC01CB0188199909AA09BB0951
:102CA000883E9340A105B10578F321E0C21AD1080E
:102CB000E108F10888EE880E83E0981EA11CB11C83
:102CC000C114D104E104F10421F7DECFFF90EF90AD
:102CD000DF90CF90BF90AF909F908F9008952FB7C7
:102CE000F8946091CD037091CE038091CF039091C1
:102CF000D0032FBF08950F931F93F1DF6093320429
:102D0000709333048093340490933504E0912A0443
:102D1000F0912B040084F185E02D8AE294E019956E
:102D200097FF1EC0DCDF0091320410913304209124
:102D3000340430913504DC01CB01801B910BA20BD4
:102D4000B30B00912E0410912F0420913004309188
:102D5000310480179107A207B307C0F28FEF9FEFEE
:102D60001F910F910895FF920F931F93CF93DF93BD
:102D700000D01F92CDB7DEB7BEDFFC0197FD11C0BA
:102D80008D32910591F0C0970A9778F0E0912A046E
:102D9000F0912B040680F781E02D8AE294E01995EA
:102DA000EBCF60E070E0CB014BC020E030E0A90148
:102DB000F12CE130F105F1F0ED32F105C9F0CF0170
:102DC000C0970A97B8F4AAE0B0E00E947C268F0171
:102DD000FF0F220B330BDC01CB01800F911FA21FD1
:102DE000B31F9C01AD01205331094109510902C0B3
:102DF000FF24F394E0912A04F0912B040680F781DC
:102E0000E02D8AE294E029833A834B835C83199511
:102E100072DFFC01C09729813A814B815C810A975E
:102E200040F2E130F10529F2FF2041F066277727D3
:102E3000CB01621B730B840B950B02C0CA01B90155
:102E40000F900F900F900F90DF91CF911F910F91E6
:102E5000FF9008951F920F920FB60F9211242F9397
:102E60003F938F939F93AF93BF938091CD039091A6
:102E7000CE03A091CF03B091D0033091CC0323E0D7
:102E8000230F2D3720F40196A11DB11D05C026E8A2
:102E9000230F0296A11DB11D2093CC038093CD0377
:102EA0009093CE03A093CF03B093D0038091D1032E
:102EB0009091D203A091D303B091D4030196A11DA8
:102EC000B11D8093D1039093D203A093D303B09309
:102ED000D403BF91AF919F918F913F912F910F900C
:102EE0000FBE0F901F901895EF92FF920F931F93B4
:102EF000CF93DF931F921F92CDB7DEB7142F91E0CF
:102F000090930604809328041092070410922904D9
:102F100084E695E029833A830E941A062981022FCC
:102F2000E22E3A81F32E8E2D801B811740F4F7019B
:102F300061917F0184E695E00E941A06F4CF10D6D5
:102F400091E0811190E0892F0F900F90DF91CF9148
:102F50001F910F91FF90EF900895CF93DF931F92F1
:102F6000CDB7DEB749839E012F5F3F4F41E0BCDF05
:102F70000F90DF91CF910895BF92CF92DF92EF92A1
:102F8000FF920F931F93CF93DF931F92CDB7DEB7BE
:102F9000F82EE62EC42EB22ED02E08EE13E09E019F
:102FA0002F5F3F4F41E00E944B08882319F1EC2D21
:102FB000F0E0EB19F109319621E030E002C0220F78
:102FC000331FBA94E2F7215031090E2E01C0220FAF
:102FD0000A94EAF78D2D01C0880FEA95EAF7422F8F
:102FE0004095998149232823422B49836E2D8F2DAB
:102FF000B4DF01C080E00F90DF91CF911F910F915E
:10300000FF90EF90DF90CF90BF900895CF92DF9226
:10301000EF92FF920F931F93CF93DF931F92CDB741
:10302000DEB7F82EE62ED42EC22E08EE13E09E0157
:103030002F5F3F4F41E00E944B089981CC2041F027
:1030400041E050E001C0440FDA94EAF7492B09C08F
:1030500021E030E0A90101C0440FDA94EAF740957D
:10306000492349836E2D8F2D78DF0F90DF91CF910B
:103070001F910F91FF90EF90DF90CF900895EF9206
:10308000FF920F931F93CF93DF931F92CDB7DEB7BD
:103090007A0189019E012F5F3F4F41E00E944B085A
:1030A000882339F029812E7730E035952795F7016F
:1030B00020830F90DF91CF911F910F91FF90EF90A0
:1030C0000895AF92BF92DF92EF92FF920F931F93FA
:1030D000CF93DF931F921F92CDB7DEB788E090E0C9
:1030E0000E943123D82E192FA12CB12CF501EC50C0
:1030F000F64F4491F501EB50F64F2491750183E0B2
:10310000E80EF11CF501EA50F64FE491EE2349F187
:10311000AE2EB12CE33058F0B5018D2D912F2A83BE
:1031200049830E945E24D82E192F49812A81AD2D12
:10313000B12F80E090E08A159B0548F4F701E80F75
:10314000F91FEC50F64FE491ED930196F4CF00E0B7
:10315000B5018D2D912F7CD5AE0CBF1C811116C0F1
:103160000FC084E0A80EB11CF701EC50F64FE491BB
:10317000E13031F442E368E380919105EEDE06C070
:103180008D2D912F0E94C62380E00AC080ECA816E6
:10319000B10408F4ABCF8D2D912F0E94C62381E09E
:1031A0000F900F90DF91CF911F910F91FF90EF90B3
:1031B000DF90BF90AF9008950F9301E020E040E0D2
:1031C00069E877E08BE692E043D50F91089521E01E
:1031D00041E06AE68091910519CF482F65E2809120
:1031E0009105BBCE20E045E06AE6809191050ECFC7
:1031F000CF93DF93C0E7D5E028EE33E042E955E016
:1032000062E089A13CDF8AA1DF91CF910895CF933D
:10321000DF93C0E7D5E028EE33E042E955E061E016
:1032200089A12DDF8AA1DF91CF910895CF93DF93FC
:10323000C0E7D5E028EE33E042E955E060E089A13F
:103240001EDF8AA1DF91CF910895EF92FF920F9335
:103250001F93CF93DF931F92CDB7DEB780E7E82EA1
:1032600085E0F82E08EE13E09E012F5F3F4F41E00E
:1032700060E0F70181A10E944B0889818170F7010C
:1032800082A30F90DF91CF911F910F91FF90EF904C
:1032900008950F931F93CF93DF93C0E7D5E008EE17
:1032A00013E022E935E041E06FE689A10E944B0876
:1032B0008AA1DF91CF911F910F91089520E046E000
:1032C0006BE680919105A2CE21E047E06BE680910C
:1032D00091059CCE0F93CF93DF93C0E7D5E001E03B
:1032E00023E042E06BE689A147DE00E022E044E013
:1032F0006BE189A141DE22E044E06CE189A13CDE82
:1033000020E046E06BE689A1DF91CF910F917ECE60
:103310001092DE031092DD0310920704109229042C
:103320001092050481E0809304041092DF0361E0B1
:1033300084E1FBDB61E085E1F8DBE9EBF0E0808133
:103340008E7F808380818D7F808388E48093B80026
:1033500085E48093BC000895CF93DF93FC01448102
:103360005581608171818AE294E05BD8EC018FE243
:1033700093E0D8D38C0F9D1FDF91CF9108952F92AA
:103380003F924F925F926F927F928F929F92AF92F5
:10339000BF92CF92DF92EF92FF920F931F93CF9342
:1033A000DF93CDB7DEB7A0970FB6F894DEBF0FBEA0
:1033B000CDBF8091A40581111BC081E090E0A09653
:1033C0000FB6F894DEBF0FBECDBFDF91CF911F9136
:1033D0000F91FF90EF90DF90CF90BF90AF909F90B4
:1033E0008F907F906F905F904F903F902F900895B7
:1033F000EFD49093AA058093A9056091A7057091D9
:10340000A80586179707A0F38115944009F4D7C241
:103410008BEA95E0CFD407D40BEA15E0011511052E
:1034200009F4E8C2EBEAF5E0A480B12CBA2CAA2496
:103430008581A80EB11CC084D12CDC2CCC248185C4
:10344000C80ED11CE484F12CFE2CEE248585E80EF8
:10345000F11C608170E0762F66278181680F711DF5
:10346000072E000C880B990B0E94692520E030E0A4
:1034700040E858E30E94C8252B013C016093EB050E
:103480007093EC058093ED059093EE05B501BB0CB0
:10349000880B990B0E94692520E030E040E858E352
:1034A0000E94C8254B015C016093EF057093F00505
:1034B0008093F1059093F205B601DD0C880B990B12
:1034C0000E94692520E030E040E858E30E94C825CA
:1034D0006F83788789879A876093F3057093F405E3
:1034E0008093F5059093F605B701FF0C880B990BB7
:1034F0000E94692520E030E040E858E30E94C8259A
:103500006B877C878D879E876093F7057093F8059E
:103510008093F9059093FA059B01AC01C501B401B4
:103520000E94C8256B017C012F81388549855A8509
:10353000C301B2010E94C8259B01AC01C701B601BD
:1035400087D69B01AC0185D66F87788B898B9A8B48
:1035500060930706709308068093090690930A0605
:10356000A5019401C301B2010E94C8256B017C0131
:103570002B853C854D855E856F81788589859A850B
:103580000E94C8259B01AC01C701B60162D69B0110
:10359000AC015FD66B8B7C8B8D8B9E8B60930B0607
:1035A00070930C0680930D0690930E06A301920172
:1035B000C301B2010E94C8256B017C01A5019401E1
:1035C000C501B4010E94C8259B01AC01C701B60129
:1035D0003FD66B017C012F81388549855A85CA0108
:1035E000B9010E94C8259B01AC01C701B60130D6C4
:1035F0006B017C012B853C854D855E85CA01B90137
:103600000E94C8259B01AC01C701B60122D66B8F71
:103610007C8F8D8F9E8F60930F0670931006809322
:10362000110690931206012B09F4E9C1EBEAF5E0CB
:10363000048D10E0102F0027858D080F111D1093A9
:10364000FC050093FB0520A0312C322C222481A103
:10365000280E311C3092FE052092FD0564A170E019
:10366000762F662785A1DB01A80FB11DB8A3AF8F08
:10367000B0930006A093FF05A3019201C301B2011C
:10368000E8D56F8B788F898F9A8FA5019401C5013A
:10369000B401DFD56B017C012F89388D498D5A8D9E
:1036A000C301B2010E94C8252B013C01A70196016C
:1036B000C501B4010E94C8259B01AC01C301B20140
:1036C000C8D520E030E040E85FE3C2D54B015C01A3
:1036D000A70196016F81788589859A850E94C82502
:1036E0006B017C012F89388D498D5A8D6B857C85C6
:1036F0008D859E850E94C8259B01AC01C701B6013E
:10370000A7D5A501940118D62B013C01609343066F
:103710007093440680934506909346062B8D3C8D0E
:103720004D8D5E8DCA01B9010E94C8256B017C01D7
:103730002B893C894D895E89CA01B9010E94C8253F
:10374000A701960186D537D79B01AC016F85788993
:1037500089899A8944D60E94A0104B015C0160932C
:103760004706709348068093490690934A062F8532
:10377000388949895A89CA01B9010E94C8259B0123
:10378000AC01C701B60165D516D79B01AC016B89A9
:103790007C898D899E8923D60E94A0106F8B788F9B
:1037A000898F9A8F60934B0670934C0680934D06D9
:1037B00090934E06B801110F880B990B0E94692552
:1037C0006B017C0120E030E040E056E46F857889B1
:1037D00089899A890E94C8259B01AC01C701B6015D
:1037E00037D565D66F83788789879A872F81388503
:1037F0003093020620930106B101330C880B990B1C
:103800000E9469256B017C0120E030E040E056E435
:103810006B897C898D899E890E94C8259B01AC019A
:10382000C701B60115D543D66B877C878D879E87E8
:103830008B859C859093040680930306AF8DB8A179
:10384000BD01BB0F880B990B0E9469256B017C01A0
:1038500020E030E040E056E46B8D7C8D8D8D9E8DB8
:103860000E94C8259B01AC01C701B601F1D41FD647
:103870006B017C01709306066093050680918805B4
:10388000882309F4ADC02091370630913806409165
:10389000390650913A06C301B201DAD42B013C013A
:1038A000E89477F8A30192016BED7FE089EC90E456
:1038B000CFD49B01AC01C301B2012AD620E030E095
:1038C00040E05FE30E94632587FF48C020913B06EC
:1038D00030913C0640913D0650913E06C501B40131
:1038E000B7D42B013C01E89477F8A30192016BED6A
:1038F0007FE089EC90E4ACD49B01AC01C301B20140
:1039000007D620E030E040E05FE30E94632587FFB8
:1039100025C020913F0630914006409141065091CC
:1039200042066F89788D898D9A8D92D42B013C0146
:10393000E89477F8A30192016BED7FE089EC90E4C5
:1039400087D49B01AC01C301B201E2D520E030E095
:1039500040E05FE30E94632587FD42C02F813885E8
:10396000B901330F880B990B0E94692560932B06D0
:1039700070932C0680932D0690932E06AB85BC8504
:10398000BD01BB0F880B990B0E94692560932F0620
:10399000709330068093310690933206B601DD0CA9
:1039A000880B990B0E946925609333067093340647
:1039B000809335069093360680E090E000CD33D1B9
:1039C00062E373E0CE0101960E94A514CE01019638
:1039D000C3DCCE0101960E94A01482E090E0EFCCFF
:1039E0008CE0E3E4F6E0A7E3B6E001900D928A955F
:1039F000E1F7B4CFE0919105F091920515CDE091FA
:103A00009105F091920514CEBADC80913706909121
:103A10003806A0913906B0913A0680936A069093D1
:103A20006B06A0936C06B0936D0680913B06909157
:103A30003C06A0913D06B0913E068093A606909369
:103A4000A706A093A806B093A90680913F0690917F
:103A50004006A0914106B09142068093E206909301
:103A6000E306A093E406B093E5068EE596E00E9497
:103A70007B108AE996E00E947B1086ED96E00C941C
:103A80007B100F931F93CF93DF93EC01FC01EE0F9C
:103A9000FF1FEE0FFF1FE059FA4F108211821282B2
:103AA000138220E030E0A9016091800570918105CA
:103AB0008091820590918305CCD320E034E740E6E5
:103AC00056E40E94C825F8D48B01035E1A4BB80156
:103AD00080E090E0FCD72DEC3CE548EC56E45CD56A
:103AE00018166CF4CC0FDD1FCB52DC4F8EE294E63F
:103AF00099838883DF91CF911F910F9108950D31A4
:103B000085E4180738F4CC0FDD1FCB52DC4F8DE174
:103B100095E4EECFFE01EE0FFF1FEB52FC4F118339
:103B20000083E8CF009769F0FC0101900020E9F7DD
:103B30003197AF01481B590BBC018AE294E00C9409
:103B4000111280E090E00895CF93DF93EBDFEC015A
:103B50008FE293E0E7DF8C0F9D1FDF91CF910895F7
:103B60002091290490912804213208F04AC08091C4
:103B700005048111FCCF32E03093050431E030932D
:103B800004043FEF309303041092020420930104D5
:103B9000A8E0B4E041EE53E0FA013E2F341B3217A7
:103BA00018F43D913193F9CF1092E0032091E00396
:103BB000990F922B9093E0039091DF03913061F481
:103BC0001092DF039091E0039093BB009091BC00B2
:103BD00093FDF8CF95EC01C095EE9093BC009091C9
:103BE00005049230E1F3909103049F3F79F08091B6
:103BF0000304803241F080910304803331F084E08B
:103C000005C081E003C082E001C083E01092070498
:103C100010922904109206040895282F47E06AE6BE
:103C200080919105F3C921E042E06AE68091910517
:103C3000EDC9482F6EE6809191058FC98F714111B2
:103C4000806261118064482F6DE68091910585C97D
:103C50002F923F924F925F926F927F928F929F929C
:103C6000AF92BF92CF92DF92EF92FF920F931F938A
:103C7000CF93DF933C015B01342EC22F202E4F7176
:103C80006DE68091910569D98C2FD3DF80E190E0BA
:103C9000E8D46C01002329F080E190E0E2D4582EB2
:103CA000492EE12CF12CEA14FB0408F065C0C70191
:103CB0004096A816B90618F4DA2DDE1901C0D0E135
:103CC0008D2F90E020E031E02C1B310928173907B7
:103CD00014F4DC2FD195F301EE0DFF1D222059F0D5
:103CE000952DA52DB42D8A2F891B8D1730F4849125
:103CF0008D933196F8CF5E2E4F2E252D342D4D2FDE
:103D00006FE680919105F0D88D2E912CC114D104CD
:103D100001F1432D4F716DE6809191051ED98C2FD5
:103D200088DF08EE13E096014D2F6FE68091910534
:103D30000E944B08A401B601852D942DA7D6892B8E
:103D400041F0C60123D52220F9F0852D942D1ED5F2
:103D50001BC0E80CF91CCD0FEA14FB0408F0A3CF3C
:103D6000C11101C03394432D4F716DE680919105CF
:103D7000F4D88C2F5EDF97CFC60108D5222031F012
:103D8000852D942D03D502C080E001C081E0DF9134
:103D9000CF911F910F91FF90EF90DF90CF90BF9048
:103DA000AF909F908F907F906F905F904F903F90DB
:103DB0002F9008950F931F93462F05E010E09C016C
:103DC00064E7809191050E944B081F910F9108951F
:103DD0000F931F93CF93DF93C0E7D5E008EE13E076
:103DE00022E935E042E062E789A10E944B088AA1FE
:103DF00090E0982F88272BA1822BDF91CF911F91E4
:103E00000F9108950F93082F26E046E062E080911D
:103E10009105B2D80F9108950F93082F26E046E040
:103E200061E080919105A8D80F9108950F93082F14
:103E300026E046E060E0809191059ED80F910895BC
:103E400020E040E060E080919105E0C840E061E75B
:103E50008091910582C843E060E7809191057DC81B
:103E60000F93082F22E044E06BE18091910584D804
:103E70000F9108950F9303E023E042E06AE18091FF
:103E800091057AD80F9108950F9301E023E045E062
:103E90006AE18091910570D80F91089544E069E13D
:103EA000809191055AC842E168E38091910555C817
:103EB0000F93082F23E042E06BE6809191055CD8D8
:103EC0000F910895789484B5826084BD84B5816033
:103ED00084BD85B5826085BD85B5816085BD8091D5
:103EE0006E00816080936E0010928100809181004D
:103EF0008260809381008091810081608093810045
:103F0000809180008160809380008091B100846006
:103F10008093B1008091B00081608093B000809167
:103F200091008260809391008091910081608093E4
:103F30009100809190008160809390008091A10019
:103F400082608093A1008091A10081608093A10094
:103F50008091A00081608093A00080912101826007
:103F600080932101809121018160809321018091C2
:103F7000200181608093200180917A008460809389
:103F80007A0080917A00826080937A0080917A0032
:103F9000816080937A0080917A00806880937A00B3
:103FA0001092C1000E947B0B0E94800A0E941D1388
:103FB000FBCFEAE2F4E01382128288EE93E0A0E005
:103FC000B0E084839583A683B7832CE032E031830D
:103FD00020834DEC50E0558744874CEC50E05787E8
:103FE000468748EC50E0518B408B49EC50E0538BB6
:103FF000428B4AEC50E0558B448B4EEC50E0578B93
:10400000468B118E128E138E148EE7ECF4E0138221
:10401000128284839583A683B7833183208325EC22
:1040200030E03587248724EC30E03787268720EC82
:1040300030E0318B208B21EC30E0338B228B22EC73
:1040400030E0358B248B26EC30E0378B268B118EBD
:10405000128E138E148EE4E6F5E0138212828483AE
:104060009583A683B7838CE192E09183808380E778
:1040700095E00C94830F0F931F93CF93DF93C0E7CA
:10408000D5E008EE13E022E935E041E06AE389A1DA
:104090000E944B088AA1DF91CF911F910F91089543
:1040A0006F927F928F929F92BF92CF92DF92EF9208
:1040B000FF920F931F93CF93DF934C016B01B42EAC
:1040C000F22E4F716DE6809191050E94AD178F2DF4
:1040D000B0DDC0E0D0E0612C77247394CC15DD0511
:1040E00090F5CE014096C816D90618F4EC2CEC1ABF
:1040F00002C080E1E82E8E2D90E093012F19310946
:104100002817390714F4EF2CE19494012C0F3D1F6C
:1041100008EE13E04E2D6FE6809191050E944B084A
:10412000CE0DD11DFE0CCC15DD05C0F6F11001C081
:10413000B3944B2D4F716DE6809191050E94AD17A0
:104140008F2D77DDCBCFDF91CF911F910F91FF9016
:10415000EF90DF90CF90BF909F908F907F906F9067
:10416000089521E043E06AE6809191050C940618D9
:1041700021E046E06AE6809191050C94061840E043
:1041800062E2809191050C94AD1740E560E2809168
:1041900091050C94AD174CE961E2809191050C9466
:1041A000AD1742E06FE1809191050C94AD1797FB3C
:1041B000072E16F4009406D077FD08D035D007FC02
:1041C00005D03EF4909581959F4F08957095619527
:1041D0007F4F0895A1E21A2EAA1BBB1BFD010DC043
:1041E000AA1FBB1FEE1FFF1FA217B307E407F507A7
:1041F00020F0A21BB30BE40BF50B661F771F881F83
:10420000991F1A9469F760957095809590959B0118
:10421000AC01BD01CF010895EE0FFF1F881F8BBFBA
:104220000790F691E02D1994AA1BBB1B51E107C022
:10423000AA1FBB1FA617B70710F0A61BB70B881F36
:10424000991F5A95A9F780959095BC01CD010895C5
:104250005058BB27AA270ED015C506D530F00BD570
:1042600020F031F49F3F11F41EF4FBC40EF4E095EE
:10427000E7FBF1C4E92F17D580F3BA17620773077C
:104280008407950718F071F49EF52FC50EF4E0959C
:104290000B2EBA2FA02D0B01B90190010C01CA0100
:1042A000A0011124FF27591B99F0593F50F4503EAB
:1042B00068F11A16F040A22F232F342F4427585F9D
:1042C000F3CF469537952795A795F0405395C9F7B5
:1042D0007EF41F16BA0B620B730B840BBAF091506D
:1042E000A1F0FF0FBB1F661F771F881FC2F70EC00C
:1042F000BA0F621F731F841F48F4879577956795DF
:10430000B795F7959E3F08F0B3CF9395880F08F0C7
:104310009927EE0F979587950895A6D458F080E8D1
:1043200091E009F49EEFA7D428F040E851E059F459
:104330005EEF09C096C4D9C4E92FE078B4D468F31D
:10434000092E052AC1F3261737074807590738F001
:104350000E2E07F8E02569F0E025E0640AC0EF635F
:1043600007F8009407FADB01B9019D01DC01CA01DD
:10437000AD01EF9343D086D40AD05F91552331F03D
:104380002BED3FE049E450FD49EC63CF0895DF9306
:10439000DD27B92FBF7740E85FE3161617064807F9
:1043A0005B0710F4D92FFCD09F938F937F936F936B
:1043B00040D1E8E0F1E0CBD065D42F913F914F910F
:1043C0005F91F2D3DD2349F09058A2EA2AED3FE055
:1043D00049EC5FE3D0785D274DDFDF9153C40CD00B
:1043E00051C449D440F040D430F021F45F3F19F07B
:1043F00032C451117BC435C456D498F39923C9F300
:104400005523B1F3951B550BBB27AA2762177307DA
:10441000840738F09F5F5F4F220F331F441FAA1F8E
:10442000A9F333D00E2E3AF0E0E830D0915050404E
:10443000E695001CCAF729D0FE2F27D0660F771FFC
:10444000881FBB1F261737074807AB07B0E809F0DE
:10445000BB0B802DBF01FF2793585F4F2AF09E3F73
:10446000510568F0F8C342C45F3FECF3983EDCF3BB
:10447000869577956795B795F7959F5FC9F7880FEC
:10448000911D9695879597F90895E1E0660F771F3E
:10449000881FBB1F621773078407BA0720F0621BCF
:1044A000730B840BBA0BEE1F88F7E095089504D0C8
:1044B0006894B1111BC40895FED388F09F5790F003
:1044C000B92F9927B751A0F0D1F0660F771F881F39
:1044D000991F1AF0BA95C9F712C0B13081F005D40E
:1044E000B1E0089502C4672F782F8827B85F39F0AC
:1044F000B93FCCF3869577956795B395D9F73EF498
:1045000090958095709561957F4F8F4F9F4F08953F
:10451000990FBB0B550FAA0BE0E8FEEF1616170616
:10452000E807F90770F012161306E407F50760F0C4
:10453000BA1754F031F42617370748075907A795DB
:104540001BF4B901CA01BA2FB69597950895DF9368
:10455000CF931F930F93FF92EF92DF927B018C0119
:10456000689405C0DA2EEF011FD3FE01E894A591EF
:104570002591359145915591AEF3EF017BDEFE011A
:104580009701A801DA9479F7DF90EF90FF900F91EF
:104590001F91CF91DF910895D7D208F48FEF08953E
:1045A0009B01AC0160E070E080E89FE318CF11F45C
:1045B0000EF457C341C07FD3D0F39923D9F3CEF380
:1045C0009F57550B87FF46D00024A0E640EA900194
:1045D00080585695979528F4805C660F771F881F42
:1045E00020F026173707480730F4621B730B840B43
:1045F000202931294A2BA695179407942025312587
:104600004A2758F7660F771F881F20F026173707AD
:10461000480730F4620B730B840B200D311D411DD4
:10462000A09581F7B901842F9158880F96958795A9
:1046300008959B01AC01ACC29F3F31F0915020F432
:10464000879577956795B795880F911D969587956E
:1046500097F9089591505040660F771F881FD2F741
:104660000895CF93DF938230910510F482E090E0BB
:10467000E0911907F0911A0720E030E0C0E0D0E0A7
:10468000309711F14081518148175907C0F0481700
:10469000590761F482819381209719F09B838A8363
:1046A0002BC090931A078093190726C02115310556
:1046B00019F04217530718F49A01BE01DF01EF0108
:1046C0000280F381E02DDCCF2115310509F1281B93
:1046D000390B2430310590F412968D919C911397EB
:1046E0006115710521F0FB019383828304C09093CF
:1046F0001A0780931907FD01329644C0FD01E20FAD
:10470000F31F81939193225031092D933C933AC02A
:104710002091170730911807232B41F420910202B2
:10472000309103023093180720931707209100025D
:10473000309101022115310541F42DB73EB740916A
:10474000040250910502241B350BE0911707F091EC
:104750001807E217F307A0F42E1B3F0B28173907A1
:1047600078F0AC014E5F5F4F2417350748F04E0FCD
:104770005F1F50931807409317078193919302C0CE
:10478000E0E0F0E0CF01DF91CF9108950F931F9308
:10479000CF93DF93009709F48CC0FC01329713820A
:1047A00012820091190710911A070115110581F461
:1047B00020813181820F931F2091170730911807B4
:1047C0002817390779F5F0931807E093170771C098
:1047D000D80140E050E0AE17BF0750F412962D917B
:1047E0003C911397AD012115310509F1D901F3CFA2
:1047F0009D01DA013383228360817181860F971FC7
:104800008217930769F4EC0128813981260F371F3D
:104810002E5F3F4F318320838A819B8193838283E4
:10482000452B29F4F0931A07E093190742C0139619
:10483000FC93EE931297ED01499159919E01240F3B
:10484000351FE217F30771F480819181840F951F62
:10485000029611969C938E938281938113969C93DA
:104860008E931297E0E0F0E0D80112968D919C9122
:104870001397009719F0F8018C01F6CF8D919C9158
:1048800098012E5F3F4F820F931F209117073091A1
:1048900018072817390769F4309729F410921A0776
:1048A0001092190702C01382128210931807009306
:1048B0001707DF91CF911F910F9108956F927F920B
:1048C0008F929F92AF92BF92CF92DF92EF92FF9220
:1048D0000F931F93CF93DF93EC01009781F4CB01EB
:1048E000DF91CF911F910F91FF90EF90DF90CF90CC
:1048F000BF90AF909F908F907F906F90B2CEFC0151
:10490000E60FF71F9C0122503109E217F30708F464
:10491000A8C0D9010D911C91119706171707A8F08F
:104920000530110508F49BC0C80104978617970746
:1049300008F495C002501109061B170B019311933F
:104940006D937C93CF0122DF8AC05B01A01AB10A6C
:104950004C01800E911EA0911907B0911A0740E0FA
:1049600050E0E12CF12C109709F44AC0A815B905C4
:10497000D1F56D907C901197630182E0C80ED11C37
:10498000CA14DB0480F1A3014A195B096A0182E0C1
:10499000C80ED11C1296BC9012971396AC91B5E03C
:1049A000CB16D10440F0B282A38351834083D90156
:1049B0006D937C930AC00E5F1F4FC301800F911F40
:1049C000F90191838083EB2DFA2FE114F10431F08A
:1049D000D7011396FC93EE93129741C0F0931A07F8
:1049E000E09319073CC08D919C9111974817590786
:1049F00008F4AC017D0112960D90BC91A02DB3CFAF
:104A0000809117079091180788159905E1F44617CA
:104A10005707C8F48091000290910102009741F479
:104A20008DB79EB74091040250910502841B950BEF
:104A3000E817F907B0F4F0931807E0931707F901A6
:104A4000718360830CC0CB010CDE7C01009749F0C0
:104A5000A801BE0128D0CE0199DEC70104C0CE0155
:104A600002C080E090E0DF91CF911F910F91FF9005
:104A7000EF90DF90CF90BF90AF909F908F907F90FE
:104A80006F90089581E090E0F8944FC1FB01DC0144
:104A900004C08D910190801921F441505040C8F715
:104AA000881B990B0895FB01DC0102C001900D9257
:104AB00041505040D8F70895FB01DC0101900D9260
:104AC0000020E1F7089540D008F481E00895E894CB
:104AD00009C097FB3EF490958095709561957F4F46
:104AE0008F4F9F4F9923A9F0F92F96E9BB279395F4
:104AF000F695879577956795B795F111F8CFFAF404
:104B0000BB0F11F460FF1BC06F5F7F4F8F4F9F4F34
:104B100016C0882311F096E911C0772321F09EE892
:104B2000872F762F05C0662371F096E8862F70E0F8
:104B300060E02AF09A95660F771F881FDAF7880FD2
:104B40009695879597F90895990F0008550FAA0B28
:104B5000E0E8FEEF16161706E807F907C0F0121690
:104B60001306E407F50798F0621B730B840B950B93
:104B700039F40A2661F0232B242B252B21F40895E8
:104B80000A2609F4A140A6958FEF811D811D089585
:104B90000BD078C069D028F06ED018F0952309F0BA
:104BA0005AC05FC01124A2C07ED0A0F3959FD1F35C
:104BB000950F50E0551F629FF001729FBB27F00DCB
:104BC000B11D639FAA27F00DB11DAA1F649F662720
:104BD000B00DA11D661F829F2227B00DA11D621F6F
:104BE000739FB00DA11D621F839FA00D611D221F29
:104BF000749F3327A00D611D231F849F600D211D0D
:104C0000822F762F6A2F11249F5750408AF0E1F0AF
:104C100088234AF0EE0FFF1FBB1F661F771F881FF8
:104C200091505040A9F79E3F510570F014C05EC0EE
:104C30005F3FECF3983EDCF3869577956795B795E3
:104C4000F795E7959F5FC1F7FE2B880F911D96950D
:104C5000879597F9089597F99F6780E870E060E07D
:104C600008959FEF80EC089500240A941616170605
:104C700018060906089500240A941216130614064D
:104C800005060895092E0394000C11F4882352F0B0
:104C9000BB0F40F4BF2B11F460FF04C06F5F7F4F68
:104CA0008F4F9F4F089557FD9058440F551F59F04F
:104CB0005F3F71F04795880F97FB991F61F09F3F09
:104CC00079F087950895121613061406551FF2CF32
:104CD0004695F1DF08C0161617061806991FF1CF82
:104CE00086957105610508940895E894BB276627A9
:104CF0007727CB0197F9089509D0A59F900DB49F10
:104D0000900DA49F800D911D11240895A29FB001C4
:104D1000B39FC001A39F700D811D1124911DB29FEF
:0E4D2000700D811D1124911D0895F894FFCF90
:104D2E0000001B078000E80300000000B6121112FD
:104D3E00771255126912FC12000000001A06EB05DC
:104D4E008D05D705C805C70550494420636F6E749D
:104D5E00726F6C6C6572732064697361626C6564EA
:104D6E000050494420636F6E74726F6C6C65727381
:104D7E00207265656E61626C65640044726F6E656B
:104D8E00206E6F74207265616479000A0A0A53748A
:104D9E00617274696E672075700053746172746904
:104DAE006E67204D50552E2E2E004D50552073748B
:104DBE0061727465642075702073756363657373B7
:104DCE0066756C6C790057616974696E6720666FE1
:104DDE0072206779726F73636F7065206D65617392
:104DEE007572656D656E747320746F207374616275
:104DFE00696C697A652E2E2E004D505520646964BB
:104E0E00206E6F7420696E697469616C697A6520B1
:104E1E0070726F7065726C790044726F6E65206986
:104E2E0073207265616479210053746172747570B8
:104E3E00206661696C6564004D5055206661696C31
:104E4E00656420746F207374617274207570000D28
:104E5E000A00546865204D50552773204649464F29
:104E6E0020686173206F766572666C6F776564205B
:104E7E00616E64206265656E2072657365740000F4
:00000001FF
